:100000000C94E8050C9410060C9410060C94100641
:100010000C9410060C9410060C9410060C94100608
:100020000C9410060C9410060C9410060C941006F8
:100030000C9410060C94AF120C9410060C9410063D
:100040000C949A220C9410060C948D210C94672128
:100050000C9410060C9410060C9410060C941006C8
:100060000C94E4220C941006036EDB363D9A9999A9
:10007000993DABAAAA2A3E000000803F084AD73B20
:100080003BCE016E84BCBFFDC12F3D6C74319ABD67
:1000900056833DDA3D00C77F11BED9E4BB4C3E918B
:1000A0006BAAAABE000000803F072C7AA5BA6CC5D7
:1000B00090DA3B9365FC8BBC53F810FD3C56928361
:1000C0004DBD879D3AB63DCBC9BF5BBE73DA0FC944
:1000D0003F05A84CCDB2D44EB93836A9020C50B960
:1000E000918688083CA6AAAA2ABE000000803F0686
:1000F00064EC1B3C04BC163E3BE5B93CC93C37C232
:100100009E5A3D660498083EEA69AAAA3E0000008D
:10011000803F4E414E494E495459494E46CDCCCC74
:100120003D0AD7233C17B7D13877CC2B329595E6CB
:10013000241FB14F0A000020410000C84200401CAB
:100140004620BCBE4CCA1B0E5AAEC59D74008040F2
:10015000C020A060E0109050D030B070F008884807
:10016000C828A868E8189858D838B878F80484449B
:10017000C424A464E4149454D434B474F40C8C4CA7
:10018000CC2CAC6CEC1C9C5CDC3CBC7CFC0282424D
:10019000C222A262E2129252D232B272F20A8A4AA7
:1001A000CA2AAA6AEA1A9A5ADA3ABA7AFA0686463B
:1001B000C626A666E6169656D636B676F60E8E4E47
:1001C000CE2EAE6EEE1E9E5EDE3EBE7EFE018141F6
:1001D000C121A161E1119151D131B171F109894977
:1001E000C929A969E9199959D939B979F90585450B
:1001F000C525A565E5159555D535B575F50D8D4D17
:10020000CD2DAD6DED1D9D5DDD3DBD7DFD038343BC
:10021000C323A363E3139353D333B373F30B8B4B16
:10022000CB2BAB6BEB1B9B5BDB3BBB7BFB078747AA
:10023000C727A767E7179757D737B777F70F8F4FB6
:10024000CF2FAF6FEF1F9F5FDF3FBF7FFF0000002B
:10025000002300260029003D3D3D20656E64206F8F
:100260006620706172616D6574657273203D3D3DFD
:10027000004E424C20203A20004E535520203A2078
:10028000004E535420203A20004E534920203A205B
:10029000004E425A20203A20004E493720203A2072
:1002A000004E493620203A20004E493520203A2081
:1002B000004E493420203A20004E493120203A2077
:1002C000004E4A4D20203A20004E534F20203A2025
:1002D000004E434820203A20004E494820203A2032
:1002E000004E4D5420203A20004E545A20203A20EF
:1002F000004E414C20203A20004E4C4F20203A2006
:10030000004E4C4120203A20004D41534A494400C0
:100310000000004D5553484F4C4C410000544F4B8A
:100320004F0000000000004C616E676761720000C2
:1003300000004148414400000053454E494E000032
:1003400053454C41534100524142550000004B413E
:100350004D495300004A554D2741540053414254E2
:10036000550000004D7568617272616D00000053A8
:10037000686166617200000000005261622E417780
:10038000616C0000005261622E416B68697200006E
:100390004A756D2E4177616C0000004A756D2E41E3
:1003A0006B686972000052616A61620000000000BF
:1003B000005379612762616E0000000052616D6137
:1003C0006468616E00000053796177616C00000021
:1003D0000000447A756C71612764616800447A7525
:1003E0006C68696A616800000053594157414C5379
:1003F000796177616C0000000000000053594127CB
:1004000042414E00000000000053454E494E00009E
:100410000000000000004B414D4953000000000067
:1004200000000054454E4741482042554C414E0083
:1004300041524F46414800000000000000445A5518
:100440004C48494A41480000000054415355274157
:1004500000000000000000415359555241000000C7
:100460000000000052414D414448414E0000000050
:1004700000004D41524920505541534100000000B9
:10048000000000000000000000000000535544413F
:10049000484B4148204B495441205055415341005D
:1004A0000000000000004D415249204B49544120BA
:1004B00050455242414E59414B2050554153410005
:1004C00053454C414D4154204D454E4A414C414EBF
:1004D0004B414E2050554153410000494D53414B33
:1004E00000000053485542554800005445524249C7
:1004F0005400004448554841000000445A554855AE
:1005000052000041534841520000004D41475249BA
:1005100042000049535941000000004A554D27410F
:100520005400000003D0060F300A06060606060631
:1005300006060606FCFE0202FEFC3F7F40407F3FAF
:10054000080CFEFE000040407F7F40400C0E02C2BF
:10055000FE3C707C6F6360600C8E8282FE7C30712A
:1005600041417F3E80E078FEFE000F0F487F7F48CC
:100570007E7E2222E2C2307040407F3FF0F84C463F
:10058000C2823F7F40407F3F020202E2FE1E000027
:100590007F7F00007CFE8282FE7C3E7F41417F3E69
:1005A000FCFE0202FEFC414362321F0F12360A0AB1
:1005B0002060000203060508070103030505020386
:1005C00002030505050505050505050502020606E4
:1005D00006040807050606050506070203060507C3
:1005E00006060506060506060709070606030303B1
:1005F00004050205050405050405050203050208B6
:1006000005050505030403050608060604040104A0
:100610000605DEDE000006000600000028F82EF8C1
:100620002E2800000000000098B4FEB464000040D2
:1006300000000C12D27C7896906000000000000050
:10064000000060FC9EB262E0B0000000000000000C
:1006500006003CFF8100000081FF3C0000001418F0
:100660003E181400000000002020F82020000000A8
:100670000000C0C04000202020000000C0C00000DA
:10068000C038060000007CFE82FE7C0000000000F6
:100690008282FEFE800000000000C2E2B29E8C005A
:1006A00000000000829292FE6C0000000000605882
:1006B00044FEFE00000000009E9E92F262000000D8
:1006C00000007CFE96F262000000000082E27A1ECA
:1006D0000600000000006CEE92EE6C0000000000CE
:1006E0008C9ED2FE7C0000000000D8D80000D8D834
:1006F000400020505050D8880000000000005050AA
:100700005050505000000000000088D85050502039
:1007100000000000000002DADE0E00000000788415
:10072000324A4AFA4438000040404000000080F05D
:100730007E4E7EF08000000000000000FEFE92FE73
:100740006C0000000000387CC68282C600000000F9
:100750000000FEFE8282FE7C000000000000FEFE23
:100760009292920000000000FEFE121212000000A1
:10077000000078FC8692F2F6000000000000FEFE09
:10078000101010FEFE00000000000000FEFE000041
:1007900000FEFE80C040FEFE386CC68200000000F5
:1007A0000000FEFE8080800000000000FEFE0C3095
:1007B0000CFEFE00000000000000FEFE0C30FEFEFD
:1007C0000000000000007CFE8282FE7C0000000031
:1007D0000000FEFE121E0C00000000007CFE828263
:1007E000FE7C000000004000FEFE127EEC80000057
:1007F00000000000CC9E92F26600000000000202A1
:10080000FEFE02020000000000007EFE8080FE7EF0
:10081000000000000000021EF8C0F81E02000000E8
:10082000000000000EFEE03C063CE0FE0E00000072
:1008300000000000000082C67C107CC68200000020
:1008400000000000060EF8F80E0600000000000090
:10085000C2E2B29A8E86000000000000FFFF810015
:1008600000000638C000000081FFFF000000040205
:1008700002040000000000000000008080808080F2
:1008800001020000E8E8A8F8F00000000000FFFF07
:1008900088F870000000000070F8888800000000F0
:1008A00070F888FFFF000000000070F8A8B8B000E2
:1008B0000000000008FEFF090000000070F888F842
:1008C000F8008080C040FFFF08F8F800000000003A
:1008D000FBFB000000FBFB80C040FFFF70D88800DE
:1008E00000000000FFFF0000F8F808F8F808F8F82A
:1008F0000000000000000000F8F808F8F800000010
:10090000000070F888F8700000000000F8F888F81F
:1009100070C0C000000070F888F8F8000000C0C087
:10092000F8F808000000B0B8E86800000000FCFC1F
:1009300088000000F8F880F8F8000000000018783F
:10094000C0C0781800000000000018F8E03838E057
:10095000F818000000000000000088D87070D888E7
:100960000000000000000838E0E038080080C00007
:100970000000C8E8B8980000000008FFF7810000F8
:100980000000FEC081F7FF080000000020101020CA
:100990002010000000000000FC040404FCC0808063
:1009A00080C00BA6040720600101030404040401B5
:1009B0000202030302030204040404040404040402
:1009C00004040202040304040404040404040404EC
:1009D00004030405040504040404040405040505D3
:1009E00005050403040304040204040404040404C9
:1009F00004030404030504040405040404040505B5
:100A00000504040404040401005E0600060000005E
:100A100000000000002616686400000000063C424A
:100A2000423C0A040A103810503010101060606008
:100A30001008067E42427E427E40007252525E5252
:100A400052527E1E10107E5E5252727E52527202BE
:100A500002027E7E52527E5E52527E242424140074
:100A60000000001414140000000004520A040000E6
:100A700000007C12127C7E52522C3C4242247E4268
:100A8000423C7E5252427E1212023C4252347E104E
:100A9000107E427E422040423E7E101824427E401C
:100AA00040407E0408047E7E08107E3C42423C7E2C
:100AB00012120C3C52225C7E12324C4C52522202D8
:100AC000027E02023E40403E1E2040201E3E40303C
:100AD000403E4628102846060870080662524A46DC
:100AE0007E42420608106042427E040202044040F8
:100AF00040400204205454787E484830384444280A
:100B00003048487E38545418087C0A0A18A4A47C3B
:100B10007E100870487A404080887A7E10284442CF
:100B20007E407C047804787C08047838444438FC9F
:100B3000242418081414FC807C0404084854542409
:100B4000043E44443C40207C1C2040201C3C40305F
:100B5000403C44281028444C90907C6454544C00F1
:100B60000000000000000000000000000000000085
:100B70001F1C1F1E1F1E1F1F1E1F1E1F0000000008
:100B8000240027002A0000000000250028002B0078
:100B90000404040404040404020202020202030323
:100BA000030303030102040810204080010204082B
:100BB00010200102040810200000000800020100BB
:100BC000000304070000000000000000602DC8269C
:100BD00011241FBECFEFD8E0DEBFCDBF26E0A8E8CE
:100BE000B2E001C01D92AA37B207E1F712E0A0E01F
:100BF000B1E0E8EDF4E702C005900D92A838B10726
:100C0000D9F715E0C7EED5E004C02197FE010E9498
:100C10009C35C63ED107C9F70E94D9260C945F3A8D
:100C20000C9400008F929F92AF92BF92CF92DF926E
:100C3000EF92FF920F931F93CF93DF9300D000D0DA
:100C400000D0CDB7DEB78C010E948E224B015C0133
:100C5000809104061F928F9393EEC92E91E0D92EB6
:100C6000DF92CF927E0124E0E20EF11CFF92EF9220
:100C70000E94BE37809105061F928F93DF92CF921C
:100C8000CE0101966C019F938F930E94BE3784E240
:100C900095E09093110680931006A70160E070E044
:100CA000C8010A970E94C41CA60160E070E0C80158
:100CB00007960E94C41C80918E0290918F0294012D
:100CC000281B390BC9010FB6F894DEBF0FBECDBF8C
:100CD000843F31E09307E0F4580185E0A80EB11C91
:100CE000680194E0C90ED11C82E0E82E01E025E005
:100CF00030E0A50163E070E0C6010E94261B2CE0F5
:100D000030E0A5016AE070E0C6010E94261B07C022
:100D1000893E934020F090928F0280928E0281E073
:100D200080934E0426960FB6F894DEBF0FBECDBF5B
:100D3000DF91CF911F910F91FF90EF90DF90CF90B7
:100D4000BF90AF909F908F900895CF92DF92EF92D7
:100D5000FF926B017C0120E030E044EB53E40E9401
:100D60001C330E94C43320E030E044EB53E40E9483
:100D7000E4309B01AC01C701B6010E941D326B013A
:100D80007C0120E030E0A9010E947E3087FF0AC08C
:100D900020E030E044EB53E4C701B6010E941E326C
:100DA0006B017C01C701B601FF90EF90DF90CF90FF
:100DB00008953F924F925F926F927F928F929F928F
:100DC000AF92BF92CF92DF92EF92FF920F931F9359
:100DD000CF93DF9300D000D0CDB7DEB7162F042F0E
:100DE000322E633010F40197145F7C0120EDE21A7B
:100DF00027E0F20AB70180E090E00E94833020E013
:100E000030EA46EB53E40E94E4300E94C4332B01E5
:100E10003C01612F70E06F5F7F4F072E000C880B45
:100E2000990B0E94853021E03DEC44EF51E40E9493
:100E3000E4300E94C43369837A838B839C83C70127
:100E400064E670E00E94523580E090E00E948330BA
:100E50000E94C4334B015C01C70160E971E00E944C
:100E6000523580E090E00E9483300E94C4336B01D1
:100E70007C0129813A814B815C81C301B2010E94CE
:100E80001E32A50194010E941E32A70196010E9404
:100E90001E326B017C01602F70E080E090E00E94C8
:100EA00085309B01AC01C701B6010E941E3220E0D3
:100EB00030E044E453E40E941E320E948E33C0901E
:100EC0008E030C2C000CDD08EE08FF08C60ED71EA2
:100ED000E81EF91EC30CD11CE11CF11CC701B601B0
:100EE0000E9485302CEF3EE241EB53E40E941C331C
:100EF0000E94C43320E030E841EB54E40E941E32EB
:100F00000E948E334B015C0161E0C4010E94CE1B44
:100F1000C616D706E806F90634F03FEF831A930A9F
:100F2000A30AB30AF1CF2401350141E0441A510864
:100F300061087108812C912C540183948201682DE1
:100F4000C8010E94CE1BC616D706E806F90634F083
:100F50005FEF851A950AA50AB50AF1CF81E0881AD4
:100F60009108A108B108682DC2010E94CE1BEFEFC5
:100F7000CE1ADE0AEE0AFE0AA7019601261B370BDF
:100F8000480B590BCA01B9013DE083169104A10435
:100F9000B10449F4635E7F4F8F4F9F4F8CE0882EE2
:100FA000912CA12CB12C782DC8010F900F900F908F
:100FB0000F90DF91CF911F910F91FF90EF90DF90F5
:100FC000CF90BF90AF909F908F907F906F905F90E9
:100FD0004F903F9008954F925F926F927F928F92C1
:100FE0009F92AF92BF92CF92DF92EF92FF920F93B8
:100FF0001F93CF93DF93CDB7DEB72C970FB6F8943E
:10100000DEBF0FBECDBF29013A01670178012BED8C
:101010003FE049E450E40E94E43020E030E044E363
:1010200053E40E941C330E94C33469837A838B8308
:101030009C832BED3FE049E450E4C701B6010E94D8
:10104000E43020E030E044E353E40E941C336B01C1
:101050007C010E94C3344B015C012BED3FE049E46D
:1010600050E4C301B2010E94E43020E030E044E3E8
:1010700053E40E941C332B013C010E94C3349B01AA
:10108000AC01C701B60129873A874B875C870E946C
:1010900017336B017C01C301B2010E9417336D83CA
:1010A0007E838F83988749805A806B807C8077FA13
:1010B000709477F8709429853A854B855C85C501D5
:1010C000B4010E94E4309B01AC01C301B2010E9453
:1010D0001D324B015C012D813E814F815885C70136
:1010E000B6010E94E4309B01AC01C501B4010E942D
:1010F0001C330E940C3220E030E040E751E40E94B3
:101100001C3320E030E044E353E40E94E4302BED54
:101110003FE049E450E40E941C332C960FB6F8944B
:10112000DEBF0FBECDBFDF91CF911F910F91FF901A
:10113000EF90DF90CF90BF90AF909F908F907F9077
:101140006F905F904F900895CF93DF93E2ECFBE0B8
:101150008491EEEAFBE0D491EAE9FBE0C491CC2370
:1011600009F401C181110E94BF21EC2FF0E0EE0FC4
:10117000FF1FE35BFD4FA591B491EC91ED2309F4C2
:10118000F2C020910A0630910B06C90144E0969501
:1011900087954A95E1F741E08427817040E050E06F
:1011A000421753070CF049C0E0910C0670910D06F0
:1011B00060911406A0911906B0911A0681111BC006
:1011C0008E2F972FFA01E60FF11D8E9FB0018F9F92
:1011D000700D9E9F700D1124A60FB71F18161906CB
:1011E00044F46D9160956EBD0DB407FEFDCF01977F
:1011F000F5CF81E01FC08E2F972FFA017096E61B66
:10120000F1098E9FB0018F9F700D9E9F700D11246C
:10121000A60FB71F1816190664F4EE91F0E0E35B11
:10122000FE4FE491E095EEBD0DB407FEFDCF0197B2
:10123000F1CF80E0405F5F4FB3CF60E089E00E9474
:10124000182261E088E00E94E82160E088E00E94C6
:10125000E82180911406811102C060E003C0813052
:1012600071F461E086E00E94E82160E087E00E947E
:10127000E82160E083E00E94E82160E063C0823002
:1012800011F460E003C0833031F461E086E00E9435
:10129000E82161E0EBCF843011F460E003C08530D9
:1012A00051F461E086E00E94E82160E087E00E945E
:1012B000E82161E0DFCF863011F460E004C08730C0
:1012C00031F461E086E00E94E82161E0EFCF8830F0
:1012D00011F460E003C0893031F461E086E00E94DF
:1012E000E82160E00BC08A3011F460E003C08B306D
:1012F00051F461E086E00E94E82161E087E00E940D
:10130000E82160E01BC08C3011F460E003C08D3038
:1013100031F461E086E00E94E82160E00BC08E308D
:1013200011F460E003C08F3081F461E086E00E9438
:10133000E82161E087E00E94E82161E083E00E940B
:10134000E82161E082E00E94E82161E089E00E94FA
:101350001822809114068F5F803118F48093140650
:1013600002C010921406DF91CF910895AF92BF9200
:10137000CF92DF92EF920F931F93CF93DF938C0165
:10138000EB016A01CA010E943E1EE0911006F09135
:101390001106309729F03396E4912E2F30E002C0E9
:1013A00020E030E06091FF0570910006601B710B3A
:1013B000DB01A81BB90BB7FD1196B595A795580190
:1013C000AA0EBB1E2C0F3D1F800F911FAC014A0FB0
:1013D0005B1FE12C00E0BE01C50101970E94261BA6
:1013E000A601BE01C501DF91CF911F910F91EF9032
:1013F000DF90CF90BF90AF900C94C41C4F925F923F
:101400006F927F928F929F92AF92BF92CF92DF9214
:10141000EF92FF920F931F93CF93DF93CDB7DEB779
:10142000EC970FB6F894DEBF0FBECDBF009101015F
:10143000109102010817190709F0E1C00E948E22DD
:101440002091940230919502AB01421B530B45361B
:101450005105C8F03091930220919202311108C0D9
:10146000203188F470939502609394022F5F09C035
:10147000313049F4222339F070939502609394023D
:101480002150209392022091940230919502AB0159
:10149000421B530B809192024131574230F0803110
:1014A00021F491E09093930210C081110EC09091AD
:1014B0009302913051F41093500400934F04109212
:1014C0000201109201011092930224E235E0309360
:1014D000110620931006C82ED12C760130E1E31AB4
:1014E000F1080E948E222B013C01809104061F927C
:1014F0008F9303EE11E01F930F934E0149E2840E88
:10150000911C9F928F920E94BE37809105061F9278
:101510008F931F930F935E0155E1A50EB11CBF92EF
:10152000AF920E94BE37809106061F928F931F9341
:101530000F938E010F5F1F4F1F930F930E94BE37B3
:10154000A401B70181E090E00E94C41CA501B7018D
:1015500089E190E00E94C41CA801B70181E390E0FA
:101560000E94C41C80919002909191029201281BCC
:10157000390B0FB6F894DEBF0FBECDBF243F51E04C
:10158000350798F536018BE0681A710846019DE031
:10159000891A910882E0E82E01E0930144E150E0CD
:1015A000B40182E190E00E94261B560124E0A21AB9
:1015B000B10836E0C31AD108950144E150E0B60104
:1015C00082E190E00E94261B93014BE250E0B401BF
:1015D00089E290E00E94261B95014BE250E0B601A3
:1015E00089E290E00E94261B07C0293E334020F08C
:1015F000509291024092900281E080934E04EC96CA
:101600000FB6F894DEBF0FBECDBFDF91CF911F9113
:101610000F91FF90EF90DF90CF90BF90AF909F9091
:101620008F907F906F905F904F900895EF92FF9210
:101630000F931F93CF93DF93CDB7DEB764970FB6A9
:10164000F894DEBF0FBECDBF7C01E1E0F6E08581FE
:101650001F928F9384811F928F9383811F928F9308
:1016600029ED31E03F932F938E010F5F1F4F1F93A2
:101670000F930E94BE37A801B70180E090E00E945E
:10168000B60981E080934E040FB6F894DEBF0FBE1A
:10169000CDBF64960FB6F894DEBF0FBECDBFDF910D
:1016A000CF911F910F91FF90EF9008958F929F928D
:1016B000AF92BF92CF92DF92EF92FF920F931F9360
:1016C000CF93DF93CDB7DEB72A970FB6F894DEBF7E
:1016D0000FBECDBFC0900101D0900201C816D9063F
:1016E00009F06CC10E948E224B015C0182E0B6942D
:1016F000A794979487948A95D1F7E090FD05F09090
:10170000FE05A701415F5F4FE091FF05F0910006E4
:1017100020918C0230918D02C401821B930B0B9798
:10172000A8F130918B0220918A0231111DC0022F45
:1017300010E0DA0157FF02C0D7015096B595A79582
:101740000A171B071CF530918902032F10E0DF01F7
:10175000F7FD1196B595A7950A171B07BCF42F5FE7
:1017600020938A023F5F0CC0313081F4222371F054
:1017700030918902332351F0215020938A02315055
:101780003093890290928D0280928C0220918C027B
:1017900030918D02B401621B730B20918A02653F68
:1017A000714080F0622F70E0CA0157FD0196959557
:1017B00087956817790731F43196339718F081E0EF
:1017C00080938B0221111CC080918902811118C065
:1017D00080918B028130A1F480918802873020F4BF
:1017E0008F5F809388020AC0D0925004C0924F0449
:1017F00010920201109201011092880210928B0245
:1018000080918B03882311F080E007C080918802CB
:101810008111D2C081E08093880290918C03911154
:1018200007C090918802923019F493E09093880257
:1018300090918D03911107C090918802933019F413
:1018400094E09093880290918802981305C080914B
:101850008B02882339F00FC0973069F480918B0296
:10186000813049F4293038F480918902833218F4A8
:10187000869590E002C08AE090E00E941206C09037
:101880008802D12CF601EE0FFF1FEE0FFF1FEA5C5E
:10189000FC4F80809180A280B380C501B4010E947A
:1018A000C4330E949533162F70E080E090E00E94D0
:1018B00083309B01AC01C501B4010E941D3220E0C0
:1018C00030E040E752E40E94E4300E94C4330E94BA
:1018D00095331F926F931F921F938EED91E09F930C
:1018E0008F938E010F5F1F4F1F930F930E94BE3780
:1018F00022EAE22E29E0F22EF0921106E092100682
:10190000B60133E0660F771F3A95E1F765527B4FDA
:1019100028E030E040E050E08FE593E00E94DD2ECB
:101920004FE553E060E070E082E290E00E94B6098B
:10193000F0921106E0921006A80169E070E082E2E0
:1019400090E00E94B60981E080934E04E091890204
:10195000F0E0AF014F5C5F4F01E028E030E068E06D
:1019600070E080E390E08E1B9F0B0E949F1AC09056
:101970008A02D12C29E030E02C193D09662777270F
:101980006C197D09E12C00E04FE350E082E290E029
:101990000E94261B9601215F3F4FB601695F7F4F72
:1019A0004FE350E082E290E00E94261B0FB6F894CD
:1019B000DEBF0FBECDBF02C081E02FCF2A960FB68B
:1019C000F894DEBF0FBECDBFDF91CF911F910F9175
:1019D000FF90EF90DF90CF90BF90AF909F908F904F
:1019E0000895CF92DF92EF92FF92CF93DF930E9400
:1019F000251220930106309302064093030650936C
:101A00000406C62F60930506D72F70930606652F30
:101A100070E080E090E00E9483306B017C016C2FCD
:101A200070E080E090E00E94833020E030E040E70A
:101A300052E40E941C339B01AC01C701B6010E9415
:101A40001E326B017C016D2F70E080E090E00E94FF
:101A5000833020E030E041E655E40E941C339B01D6
:101A6000AC01C701B6010E941E3260935603709309
:101A70005703809358039093590388E60E940F1CE4
:101A800083E090E00E94BF1C0E94621C81E090E015
:101A90000E94191C81EF95E00E94E820982F9295F2
:101AA0009F708F702AE0929F800D112480935A03BB
:101AB000DF91CF91FF90EF90DF90CF900895CF937B
:101AC000DF93EC0161E089E00E941822E0E8F0E099
:101AD000908190689083A0913303B09134039E016C
:101AE0000E94FD31DC01CB012AE0B695A7959795C0
:101AF00087952A95D1F790938900809388008091EB
:101B00003503806180938100DF91CF9108952F92FA
:101B10003F924F925F926F927F928F929F92AF927D
:101B2000BF92CF92DF92EF92FF920F931F93CF93CA
:101B3000DF93CDB7DEB762970FB6F894DEBF0FBE66
:101B4000CDBF0E94F10C8091740390917503A09118
:101B50007603B091770389879A87AB87BC873090EB
:101B60000306032D10E020900206A22CB12C8090D9
:101B70000106912CD401A053B84FBA8BA98BB3E0C6
:101B8000AB16B10444F4E1E38E1AE8EF9E0AFCE0E0
:101B9000AF0EB11C02C089889A88B401092C000CD0
:101BA000880B990B0E94853020E030E048EC52E42D
:101BB0000E941C330E94C4336B017C0120E030E0A2
:101BC00040E85EE30E94E4300E94C43369837A8374
:101BD0008B839C83B40164597D4E072E000C880BC7
:101BE000990B0E94853020E030EA46EB53E40E94D6
:101BF000E4300E94C4332B013C01B5016F5F7F4F7D
:101C0000072E000C880B990B0E94853021E03DECDB
:101C100044EF51E40E94E4300E94C4334B015C0164
:101C200024E631EA45E15AE4C301B2010E941D32C3
:101C3000A50194010E941E324B015C01B801110FF5
:101C4000880B990B0E9485309B01AC01C501B40142
:101C50000E941E324B015C01A701960160E070E01A
:101C600080E090E40E941D3229813A814B815C81A1
:101C70000E941E329B01AC01C501B4010E941E32BC
:101C800020E030E94EEB54E40E941D326B017C01F0
:101C900020E030E044EB53E469857A858B859C85B0
:101CA0000E941C339B01AC01C701B6010E941D328A
:101CB0006B017C012DE430E54CE75FE30E94E430EA
:101CC00026EB33EC42EB53E40E941E320E94A50641
:101CD0004B015C0123E633E54CE75FE3C701B60146
:101CE0000E94E43021EC3AE34CE853E40E941E32B7
:101CF0000E94A50669837A838B839C832BED3FE04A
:101D000049E450E4C501B4010E94E43020E030E031
:101D100044E353E40E941C330E94C3342B013C0172
:101D2000A5019401C501B4010E941E322BED3FE0D4
:101D300049E450E40E94E43020E030E044E353E41E
:101D40000E941C330E94C3344B015C0128EB3EE12E
:101D500045EF5FE3C301B2010E94E4309B01AC0197
:101D600069817A818B819C810E941E322B013C010A
:101D70002AE037ED43EA5CE3C501B4010E94E43098
:101D80009B01AC01C301B2010E941E320E94A50654
:101D90004B015C0126E036E441EC54E3C701B60197
:101DA0000E94E4309B01AC0162E173E88BEB91E4AB
:101DB0000E941D322BED3FE049E450E40E94E430E4
:101DC00020E030E044E353E40E941C336B017C01CB
:101DD0000E94C3346D837E838F8398872BED3FE011
:101DE00049E450E4C501B4010E94E43020E030E051
:101DF00044E353E40E941C334B015C010E94C33452
:101E00002B013C019B01AC016D817E818F81988506
:101E10000E94E4300E948A3220E030E044E353E440
:101E20000E94E4302BED3FE049E450E40E941C3373
:101E30006D837E838F839887C501B4010E94173319
:101E40004B015C01C701B6010E941733A301920147
:101E50000E94E430A50194010E94B83220E030E0F5
:101E600044E353E40E94E4302BED3FE049E450E4C6
:101E70000E941C3320E030E040E751E40E941C3314
:101E80006B017C0120E030E040E751E469817A8118
:101E90008B819C810E941C334B015C0120E030E06F
:101EA00040EC51E4C701B6010E941C330E94C433C8
:101EB00020E030E040EC51E40E94E4309B01AC01B2
:101EC000C701B6010E941D326B017C0120E030E0A9
:101ED000A9010E947E3087FF0AC020E030E040EC7C
:101EE00051E4C701B6010E941E326B017C01809152
:101EF000780390917903A0917A03B0917B038D8749
:101F00009E87AF87B88B8091700390917103A091E9
:101F10007203B091730389839A83AB83BC8320E0FF
:101F200030E040E451E460917C0370917D03809146
:101F30007E0390917F030E941E322B013C0120E022
:101F400030E040E751E469857A858B859C850E9465
:101F50001C339B01AC01C301B2010E941D322B0155
:101F60003C01A7019601C501B4010E941D329B01ED
:101F7000AC01C301B2010E941D326B017C0120E063
:101F800030E040EC51E40E941C330E94C43320E056
:101F900030E040EC51E40E94E4309B01AC01C70109
:101FA000B6010E941D324B015C0120E030E0A90126
:101FB0000E947E3087FF0AC020E030E040EC51E410
:101FC000C501B4010E941E324B015C016091820385
:101FD00070E080E090E00E94833020E030E040E755
:101FE00052E40E941C332B013C019B01AC01C50152
:101FF000B4010E941E32609346037093470380939E
:102000004803909349032D813E814F815885698112
:102010007A818B819C810E941D329F772BED3FE05E
:1020200049E450E40E94E43020E030E044E353E42B
:102030000E941C330E94153520E030E040E85FE349
:102040000E941E329B01AC0160E070E080E89FE3DB
:102050000E941C330E94E832905820E030E044E3B4
:1020600053E40E94E4302BED3FE049E450E40E9449
:102070001C33E980FA800B811C812D813E814F81C8
:1020800058850E94EB079B01AC01C501B4010E9479
:102090001E32A30192010E941E3260934A03709384
:1020A0004B0380934C0390934D036D857E858F8504
:1020B00098890E94D13426E931E24EE05DE30E9426
:1020C000E43026E233E545E55FE30E941E322D81D0
:1020D0003E814F8158850E94EB076B017C019B017B
:1020E000AC01C501B4010E941E32A30192010E94FD
:1020F0001E3260934E0370934F038093500390936E
:102100005103A7019601C501B4010E941D326093DD
:102110003E0370933F038093400390934103E98013
:10212000FA800B811C812D813E814F81588560E0B2
:1021300070E080E991E40E94EB079B01AC01C501CE
:10214000B4010E941E32A30192010E941E326093CC
:1021500052037093530380935403909355032D813E
:102160003E814F81588560E070E080EA91E40E94F2
:10217000EB079B01AC01C501B4010E941D32A30114
:1021800092010E941E3260933A0370933B03809346
:102190003C0390933D032BEA3AEA4AE25EE30E9455
:1021A0001D32609336037093370380933803909306
:1021B00039032D813E814F81588560E070E080E9D0
:1021C00090EC0E94EB079B01AC01C501B4010E9499
:1021D0001D326093420370934303809344039093B2
:1021E000450321E0432D622D89899A890E94D906F1
:1021F000109290037C3029F486EF860F8430E0F44F
:1022000057C07A3051F4613009F452C06330A0F005
:1022100081E08093900382E00DC0783069F483EE12
:10222000860F823008F444C0662331F082E0809348
:10223000900383E080938F0380915A03813021F4CF
:1022400093E09093900305C0843029F48093900329
:1022500081E080938F0383EF860F833030F485E035
:102260008093900381E080938F037C3059F4693030
:1022700011F486E003C06930D8F487E080939003BE
:1022800081E014C0713061F4693011F488E003C05A
:102290006A3071F489E08093900370938F0308C0D3
:1022A000793031F48AE08093900384E080938F0347
:1022B00011E020914E0330914F0340915003509113
:1022C0005103609156037091570380915803909188
:1022D00059030E94B63418160CF010E080910106E4
:1022E00090E0212F40910306609102068053984FA1
:1022F0000E94D90660935B0370935C0380935D0337
:1023000090935E038091810390E062960FB6F894FB
:10231000DEBF0FBECDBFDF91CF911F910F91FF9018
:10232000EF90DF90CF90BF90AF909F908F907F9075
:102330006F905F904F903F902F900C945F0DEF92B5
:10234000FF920F931F93CF93DF931F92CDB7DEB70A
:102350007C01FC0100811181C80169830E94A531C3
:102360006981681719F0C8010E94AD31C7010F904B
:10237000DF91CF911F910F91FF90EF900895AF9251
:10238000BF92CF92DF92EF92FF920F931F93CF9362
:10239000DF9300D0CDB7DEB78B016B0128E0C20E12
:1023A000D11C7B015C01A61AB70A95012E0D3F1DB9
:1023B000F70161917F013A832983CE0101960E9442
:1023C0009F11EC14FD0489F7C8010F900F90DF9165
:1023D000CF911F910F91FF90EF90DF90CF90BF9022
:1023E000AF900895AF92BF92CF92DF92EF92FF929B
:1023F0000F931F93CF93DF9300D0CDB7DEB78B0140
:102400006B012DE0C20ED11C7B015C01A61AB70A3C
:1024100095012E0D3F1DF70161917F013A832983BC
:10242000CE0101960E949F11EC14FD0489F7C801AA
:102430000F900F90DF91CF911F910F91FF90EF9030
:10244000DF90CF90BF90AF9008951F93CF93DF930D
:10245000CDB7DEB72B970FB6F894DEBF0FBECDBF5A
:1024600088E60E940F1C80E090E00E94BF1C0E9442
:10247000621C87E090E00E94191C81EF95E00E94A9
:10248000E8208F77982F92959F701AEF782F919F61
:10249000700D112481EF95E07B870E94E8209C015C
:1024A000332794E0359527959A95E1F7682F129F89
:1024B000600D112481EF95E06A870E94E8209C015D
:1024C000332744E0359527954A95E1F7582F129F19
:1024D000500D112481EF95E059870E94E82081EF8B
:1024E00095E00E94E8209C01332754E0359527951C
:1024F0005A95E1F7482F129F400D112481EF95E086
:1025000048870E94E8209C01332764E03595279591
:102510006A95E1F7382F129F300D112481EF95E075
:102520003F830E94E820FC01FF2774E0F595E795C2
:102530007A95E1F7282F1E9F200D11243F814885B1
:1025400059856A857B8580E090E02B960FB6F894DC
:10255000DEBF0FBECDBFDF91CF911F9108951F92B7
:102560000F920FB60F9211242F933F934F935F93C7
:102570006F937F938F939F93AF93BF93EF93FF934B
:10258000E0913103F09132030995FF91EF91BF91F2
:10259000AF919F918F917F916F915F914F913F91FB
:1025A0002F910F900FBE0F901F901895CF92DF9232
:1025B000EF92FF920F931F93CF93DF9300D0CDB78D
:1025C000DEB79FE6E92E93E0F92E670100E010E008
:1025D000C8010E94A531F60181936F010F5F1F4F63
:1025E00000321105A9F780916F03843D09F44CC0B6
:1025F00080E2E7E4F1E0AFE6B3E001900D928A9566
:10260000E1F700E010E0F70161917F011A8309838F
:10261000CE0101960E949F110F5F1F4F00321105DE
:1026200091F769E071E087E390E00E94F21166E1C2
:1026300071E082E890E00E94BF116EE171E088E1F4
:1026400091E00E94BF1166E271E08EEA91E00E9483
:10265000BF118EE2E82E81E0F82E04E412E0F701CB
:1026600061917F011A830983CE0101960E949F1117
:102670000F5F1F4F0035F2E01F0789F76AE371E033
:102680008AED92E00E94F2118091010690E042975B
:10269000ECF40E945B2582E10E94422581E00E94C9
:1026A000292581E00E94102582E00E94F7248CE019
:1026B0000E94A82480E00E948F2480E00E9455247C
:1026C00081E00E94242482E00E94242480918503DA
:1026D000809368038091860380936B0380918703C6
:1026E00080936C038091880380936D0380918903AC
:1026F00080936E038091810390E00E945F0D0E94A1
:10270000870D0F900F90DF91CF911F910F91FF9048
:10271000EF90DF90CF900895CF92DF92EF92FF92EB
:102720000F931F93CF93DF93CDB7DEB764970FB6A8
:10273000F894DEBF0FBECDBF84E595E00E94CD1FAB
:10274000282F833411F08E3439F486E9E82E82E0A4
:10275000F82E00E010E037C08335B9F384E595E04A
:102760000E94DB1F892B29F084E595E00E94B91FA8
:10277000F5CF60E08EE00E94E82102C50539110521
:1027800021F184E595E02C8B0E94DB1F2C89892B9D
:10279000D1F084E595E00E94B91F282FF7018193BD
:1027A0007F010F5F1F4F61E08EE02C8B0E94E821BC
:1027B0006AE070E080E090E00E94542260E08EE0E9
:1027C0000E94E8212C892A30C9F6F801EB56FD4F0A
:1027D000108262E272E0CE0107960E947919E6E962
:1027E000F2E001900020E9F73197E659F24080913C
:1027F0009602833409F062C0809197028D3441F4CF
:10280000809198028E3471F50AE427E330E02DC000
:102810008E3461F4809198028133E1F08233F1F0DB
:10282000833301F505E92EEA31E01FC0833541F419
:10283000809198028D34B1F405E924E432E015C0AA
:102840008A3481F4809198028D3461F405E92AED8F
:1028500032E00BC005E922E830E007C005E928E1D5
:1028600031E003C000E020E030E0C12CD12CE35087
:10287000EE2EF12C10E0C601820F931FEC14FD0424
:1028800044F49A83898360E0CE0101960E949F11EF
:10289000ACC2C016D106ACF7F601EA56FD4F638113
:1028A0009A838983CE0101962C8B3B8B0E949F11CA
:1028B000FFEFCF1ADF0A3B892C89DDCF8E3409F078
:1028C000DAC166E972E0CE0101960E947919BE0173
:1028D0006F5F7F4FCE0107960E943B19CE01019694
:1028E0000E94741923E030E041E050E0BE01695FCE
:1028F0007F4FCE0101960E948E1968EE71E0CE01E5
:1029000001960E941C19182FCE0101960E9474197D
:102910001111A7C323E030E041E050E0BE01695F40
:102920007F4FCE0101960E948E196BEE71E0CE01B1
:1029300001960E941C19182FCE0101960E9474194D
:10294000111192C323E030E041E050E0BE01695F25
:102950007F4FCE0101960E948E196EEE71E0CE017E
:1029600001960E941C19182FCE0101960E9474191D
:1029700011117DC323E030E041E050E0BE01695F0A
:102980007F4FCE0101960E948E1961EF71E0CE015A
:1029900001960E941C19182FCE0101960E947419ED
:1029A000111168C323E030E041E050E0BE01695FEF
:1029B0007F4FCE0101960E948E1964EF71E0CE0127
:1029C00001960E941C19182FCE0101960E947419BD
:1029D000111183C323E030E041E050E0BE01695FA4
:1029E0007F4FCE0101960E948E1967EF71E0CE01F4
:1029F00001960E941C19182FCE0101960E9474198D
:102A000011116EC323E030E041E050E0BE01695F88
:102A10007F4FCE0101960E948E196AEF71E0CE01C0
:102A200001960E941C19182FCE0101960E9474195C
:102A3000111159C323E030E041E050E0BE01695F6D
:102A40007F4FCE0101960E948E196DEF71E0CE018D
:102A500001960E941C19182FCE0101960E9474192C
:102A6000111144C323E030E041E050E0BE01695F52
:102A70007F4FCE0101960E948E1960E072E0CE0178
:102A800001960E941C19182FCE0101960E947419FC
:102A900011112FC323E030E041E050E0BE01695F37
:102AA0007F4FCE0101960E948E1963E072E0CE0145
:102AB00001960E941C19182FCE0101960E947419CC
:102AC00011111AC323E030E041E050E0BE01695F1C
:102AD0007F4FCE0101960E948E1966E072E0CE0112
:102AE00001960E941C19182FCE0101960E9474199C
:102AF000111105C323E030E041E050E0BE01695F01
:102B00007F4FCE0101960E948E1969E072E0CE01DE
:102B100001960E941C19182FCE0101960E9474196B
:102B20001111F0C223E030E041E050E0BE01695FE6
:102B30007F4FCE0101960E948E196CE072E0CE01AB
:102B400001960E941C19182FCE0101960E9474193B
:102B50001111DBC223E030E041E050E0BE01695FCB
:102B60007F4FCE0101960E948E196FE072E0CE0178
:102B700001960E941C19182FCE0101960E9474190B
:102B80001111C6C223E030E041E050E0BE01695FB0
:102B90007F4FCE0101960E948E1962E172E0CE0154
:102BA00001960E941C19182FCE0101960E947419DB
:102BB0001111B1C223E030E041E050E0BE01695F95
:102BC0007F4FCE0101960E948E1965E172E0CE0121
:102BD00001960E941C19182FCE0101960E947419AB
:102BE00011119CC223E030E041E050E0BE01695F7A
:102BF0007F4FCE0101960E948E1968E172E0CE01EE
:102C000001960E941C19182FCE0101960E9474197A
:102C1000111187C223E030E041E050E0BE01695F5E
:102C20007F4FCE0101960E948E196BE172E0CE01BA
:102C300001960E941C19182FCE0101960E9474194A
:102C4000111172C223E030E041E050E0BE01695F43
:102C50007F4FCE0101960E948E196EE172E0CE0187
:102C600001960E941C19182FCE0101960E9474191A
:102C700011116EC2BAC0833509F0B7C080919702B6
:102C8000843409F0B2C080919802843509F0ADC057
:102C900066E972E0CE0101960E947919BE016F5F6C
:102CA0007F4FCE0107960E943B19CE0101960E94EC
:102CB00074190E945B2525E030E043E050E0BE013E
:102CC000695F7F4FCE0101960E948E19CE01019659
:102CD0000E941119862F0E941025CE0101960E9494
:102CE000741927E030E045E050E0BE01695F7F4F96
:102CF000CE0101960E948E19CE0101960E941119F3
:102D0000862F0E942925CE0101960E94741929E080
:102D100030E047E050E0BE01695F7F4FCE01019691
:102D20000E948E19CE0101960E941119862F0E94D1
:102D30004225CE0101960E9474192BE030E049E053
:102D400050E0BE01695F7F4FCE0101960E948E194F
:102D5000CE0101960E941119862F0E94A824CE014F
:102D600001960E9474192DE030E04BE050E0BE0166
:102D7000695F7F4FCE0101960E948E19CE010196A8
:102D80000E941119862F0E948F24CE0101960E9465
:102D900074192FE030E04DE050E0BE01695F7F4FD5
:102DA000CE0101960E948E19CE0101960E94111942
:102DB000862F0E945524CE0101960E94741920E1AD
:102DC00030E04FE050E0BE01695F7F4FCE010196D9
:102DD0000E948E19CE0101960E941119862F0E9421
:102DE000F724CE0101960E9474190E94D612809198
:102DF0009602833509F030C180919702813509F040
:102E00002BC180919802803509F026C181E093E0C2
:102E10000E947E256091700370917103809172030E
:102E20009091730347E050E00E94F42581E292E024
:102E30000E949F2589EF92E00E947E256091740395
:102E400070917503809176039091770347E050E08D
:102E50000E94F42583E292E00E949F2581EF92E098
:102E60000E947E25609178037091790380917A03A6
:102E700090917B0347E050E00E94F42581E292E0CC
:102E80000E949F2589EE92E00E947E2560917C033E
:102E900070917D0380917E0390917F0340E050E02C
:102EA0000E94F42583E292E00E949F2581EE92E049
:102EB0000E947E25809180030E94E22581E292E0BB
:102EC0000E949F2589ED92E00E947E2580918203D9
:102ED0000E94E22581E292E00E949F2581ED92E02E
:102EE0000E947E25C0908E030C2C000CDD08EE089D
:102EF000FF08F7FE0CC08DE20E94E92566277727C0
:102F0000CB016C197D098E099F094AE003C04AE094
:102F1000C701B6010E94A12583E292E00E949F258D
:102F200089EC92E00E947E25809183030E94E22535
:102F300081E292E00E949F2581EC92E00E947E2532
:102F4000809184030E94E22583E292E00E949F2503
:102F500089EB92E00E947E25809185030E94E22504
:102F600081E292E00E949F2581EB92E00E947E2503
:102F7000809186030E94E22581E292E00E949F25D3
:102F800089EA92E00E947E25809187030E94E225D3
:102F900083E292E00E949F2581EA92E00E947E25D2
:102FA000809188030E94E22581E292E00E949F25A1
:102FB00089E992E00E947E25809189030E94E225A2
:102FC00081E292E00E949F2581E992E00E947E25A5
:102FD00080918A030E94E22583E292E00E949F256D
:102FE00089E892E00E947E2580918B030E94E22571
:102FF00081E292E00E949F2581E892E00E947E2576
:1030000080918C030E94E22581E292E00E949F253C
:1030100089E792E00E947E2580918D030E94E2253F
:1030200083E292E00E949F2581E792E00E947E2544
:10303000809181030E94E22583E292E00E949F2515
:1030400088E191E00E94B41B8EEB94E00E949F25E2
:1030500087E592E00E947E25CE0107960E947419B2
:103060008FC001E010E008C005E010E005C009E0F5
:1030700010E002C00DE010E02B853C8543E050E0FD
:10308000BE01695F7F4FCE0101960E948E19898132
:103090009A810097F1F00E94B22E6D877E878F870C
:1030A000988B6E0181E1C80ED11CFE013D967F0117
:1030B0000E1B1F0BC8018E0D9F1DF70161917F0133
:1030C0009A8B898BC6010E949F11EC14FD0491F725
:1030D00088CE60E070E0CB01E0CF01E110E026C0D7
:1030E00002E110E023C003E110E020C004E110E0A1
:1030F0001DC005E110E01AC006E110E017C007E1AD
:1031000010E014C008E110E011C009E110E00EC0A9
:103110000AE110E00BC00BE110E008C00CE110E088
:1031200005C00DE110E002C00EE110E02B853C85EA
:1031300043E050E0BE01695F7F4FCE0101960E94DF
:103140008E19CE0101960E9411191E870D8713C09A
:103150002B853C8543E050E0BE01695F7F4FCE0187
:1031600001960E948E19CE0101960E9411198FE1DD
:1031700090E09E878D87CE010D960E949F1131CEE3
:1031800064960FB6F894DEBF0FBECDBFDF91CF912E
:103190001F910F91FF90EF90DF90CF9008950E94C4
:1031A0009937EF92FF920F931F93CF93DF93EC0128
:1031B0007B018A0188819981009729F02A813B81CE
:1031C00024173507F8F4B8016F5F7F4F0E94CF36A0
:1031D000009759F0998388831B830A832C813D8152
:1031E000232B81F4FC0110820DC088819981009706
:1031F00011F00E943736198218821D821C821B82B0
:103200001A8207C01D830C83B701888199810E94AF
:10321000B737CE01DF91CF911F910F91FF90EF90C3
:103220000895FC0180819181009711F00C94B62ED5
:1032300060E070E0CB010895FC0124813581232BEF
:1032400031F421E061157105A1F0FB0108C0FC011A
:10325000808191816115710531F421E0FC0180814B
:10326000882339F005C00E94AE3721E0892B09F090
:1032700020E0822F08950F931F93CF93DF938C014B
:10328000EB01FC01808191810097B1F06881798127
:103290006115710579F0428153812C813D8142177E
:1032A000530740F00E94B7378C819D81F8019583C8
:1032B000848313C00E94373688819981F8019183F5
:1032C00080838A819B81938382838C819D81958376
:1032D0008483198218821B821A821D821C82DF91CC
:1032E000CF911F910F910895FC01808191810C94E1
:1032F0003736FC01118210821382128215821482E9
:103300006115710551F0FB0101900020E9F731973B
:10331000AF01461B570B0C94D1180895BF92CF9262
:10332000DF92EF92FF920F931F93CF93DF937C0175
:103330006B01EA0189012417350720F48D2FE9017B
:10334000042F182F62E272E0C7010E947919D6019A
:1033500014968D919C911597C817D907C8F58017B9
:10336000910708F48C01D601ED91FC911197E00FC3
:10337000F11FB08010824D915C91BA016C0F7D1FDE
:103380006115710561F0FB0101900020E9F73197AB
:10339000AF01461B570BC7010E94D11813C0F7019C
:1033A00080819181009711F00E943736D7011196E4
:1033B0001C921E9215961C921E92149713961C92A4
:1033C0001E921297D601ED91FC91E00FF11FB08291
:1033D000C701DF91CF911F910F91FF90EF90DF9088
:1033E000CF90BF900895209108063091090682176A
:1033F0009307E0F520910A0630910B0662177307D8
:10340000A8F5FC0123E0F595E7952A95E1F7A09151
:103410000C06B0910D066A9F90016B9F300D7A9F4C
:10342000300D1124E20FF31F20910E0630910F068C
:10343000E20FF31F9C01277033276081442359F06A
:1034400080E890E002C0959587952A95E2F78095EF
:1034500086238083089540E850E0CA0102C0959514
:1034600087952A95E2F79C01262B208308958F9259
:103470009F92AF92BF92CF92DF92EF92FF920F9303
:10348000CF93DF935C016B014A0179011E141F0485
:10349000ACF4C0E0D0E0C815D9054CF4402FB6011B
:1034A000CE018A0D9B1D0E94F3192196F4CF8FEF58
:1034B000C81AD80A81E0E81AF108E8CFDF91CF9165
:1034C0000F91FF90EF90DF90CF90BF90AF909F90C3
:1034D0008F900895409110065091110641155105A5
:1034E00009F1FA01349694913196E491803209F40D
:1034F0008EE68917B8F0282F30E0892F90E0BC01C4
:103500006E0F711D261737076CF4FA016491611173
:103510000CC03196E491E11108C0FA013296E491B1
:103520008E2F0BC080E090E00895281B390B2A5F96
:103530003F4FFA01E20FF31F849190E008953F920C
:103540004F925F926F927F928F929F92AF92BF92B3
:10355000CF92DF92EF92FF920F931F93CF93DF935F
:103560006C017B014A012901302ECA018C199D0989
:10357000E901C61BD70B97FF07C09195819591096B
:10358000AA24AA94BA2C03C0AA24A394B12CD7FFCE
:1035900006C0D195C195D1090FEF1FEF02C001E020
:1035A00010E08C179D07FCF02E01440C551C3201D5
:1035B000681A790AC81BD90BCC0FDD1F432DB70140
:1035C000C6010E94F319C814D90471F11614170426
:1035D0001CF0640C751C04C06C0E7D1EE00EF11E08
:1035E000CA0CDB1CEBCF3C01660C771C43018C1A28
:1035F0009D0A9C012C1B3D0BE901CC0FDD1F432DC7
:10360000B701C6010E94F319E414F50469F0181417
:1036100019041CF0860C971C04C08C0E9D1ECA0C4D
:10362000DB1CE00EF11EEBCFDF91CF911F910F91CC
:10363000FF90EF90DF90CF90BF90AF909F908F90D2
:103640007F906F905F904F903F9008958F929F92E0
:10365000AF92BF92CF92DF92EF920F931F93CF93CF
:10366000DF934C016B015A01E901102F48175907EC
:103670002CF4982F892D4A01A92EB82ECC15DD05E2
:103680001CF0E11216C007C0E11255C09C2F8D2F0F
:10369000E601C92ED82E9E012C193D092F5F3F4F00
:1036A000A501481959094F5F5F4F0E2DB601C4019E
:1036B0003FC0012F9601A501B601C4010E949F1AC7
:1036C000CC16DD064CF4012F9E01A501B6016F5FFB
:1036D0007F4FC5010E949F1A8A149B0444F4012F56
:1036E0009E01A401BE01C50101970E949F1ABE015F
:1036F00061507109C616D70644F4012F96012F5F59
:103700003F4FA401C4010E949F1A82E0E81601F114
:103710009E012C193D0921503109A818B908A501AD
:1037200041505109B6016F5F7F4F0E2DC4010196C4
:103730000E94371A0DC0012F9E01A501BE01C401D0
:103740000E949F1A9C2F8D2FE601C92ED82EBBCF29
:10375000DF91CF911F910F91EF90DF90CF90BF90AD
:10376000AF909F908F9008950F931F93CF93DF9307
:10377000CEEBD4E08C010E5B1440C8018C0F9D1F72
:103780000E94A531899385E0C435D807B1F78EEB47
:1037900094E0DF91CF911F910F910895CF92DF9226
:1037A000EF92FF92CF93DF93EC0170E080E090E026
:1037B0000E94853020E030E04CEE51E40E94E4307D
:1037C00024EF3DEF47EE51E40E941D320E94C433C6
:1037D0006B017C01CE018C589540BC0180E090E0EB
:1037E0000E9483302CEF3EE241EB53E40E94E43030
:1037F0000E94C4339B01AC01C701B6010E941E3276
:1038000020E030E040E85FE30E941E320E948E33E9
:10381000DF91CF91FF90EF90DF90CF90089591E0EE
:103820009093BD04809323061092BC041092BB04B5
:103830000895909198049111FCCF813208F080E2B4
:1038400091E090939804909397042FEF209396041F
:1038500010929504280F20939404909393049091D0
:103860009304906D9093930490919204913061F43D
:1038700010929204909193049093BB009091BC009D
:1038800093FDF8CF95EC01C095EE9093BC0090911C
:1038900098049130E1F390919504981710F4809179
:1038A0009504A2E7B4E02BE934E0F9019E2F921BC6
:1038B000981718F49D919193F9CF10929A048093E0
:1038C000990408952091BB0490912306213208F0B9
:1038D0004AC0809198048111FCCF32E03093980463
:1038E00031E0309397043FEF3093960410929504A3
:1038F00020939404A2E5B4E042E754E0FA013E2F9D
:10390000341B321718F43D913193F9CF1092930480
:1039100020919304990F922B909393049091920489
:10392000913061F410929204909193049093BB00B3
:103930009091BC0093FDF8CF95EC01C095EE90936B
:10394000BC00909198049230E1F3909196049F3FCF
:1039500079F080919604803241F080919604803312
:1039600031F084E005C081E003C082E001C083E063
:103970001092BC041092BB041092BD040895682FED
:1039800081EF95E00C9434212F923F924F925F92F9
:103990006F927F928F929F92AF92BF92CF92DF925F
:1039A000EF92FF920F931F93CF93DF93CDB7DEB7C4
:1039B00067970FB6F894DEBF0FBECDBF7C015B01E9
:1039C000E0911006F0911106309709F43EC133964C
:1039D000E491DA010D900020E9F711976D01C41A06
:1039E000D50A5D834C834E2F50E05B8B4A8B21E0E0
:1039F000C21AD108C6010196181619060CF025C185
:103A0000EC81FD813191FD83EC8360911006709112
:103A10001106FB01339694903032A9F48EE60E9491
:103A20006A1A182F892E01E080911206811100E098
:103A3000292D30E0412F582DB501C7010E94371ABA
:103A4000612E782CCAC0FB01349624913196849162
:103A5000321708F4C0C0432F50E090E0FC01E20FA1
:103A6000F11D4E175F070CF0B6C0321B492D50E018
:103A70005F8B4E8B495F5F4F23E0559547952A95A5
:103A8000E1F7FB012491A32FB0E02111C4C03196CE
:103A9000E491E111C0C0FB0132963490A49F8001F3
:103AA000A59F100DB49F100D1124309EC001319EB2
:103AB000900D11240696860F971F632C712CB70169
:103AC000660D771D161617060CF087C06E897F8964
:103AD0006A0D7B1D161617060CF07FC04B8321E084
:103AE0002E833091120631111E828D879C01832D09
:103AF00090E09F878E87FA013197F98BE88B4E898A
:103B00005F89485051095A874987822F5D85851BF7
:103B1000831508F062C03A832983412C512C812CF3
:103B2000912CF701E80FF11DF887EF835B81851673
:103B300008F04EC0E981FA8124905B81513041F058
:103B4000888999898816990619F499858A8502C009
:103B5000942D852D092F182FF8013896FC87EB87B7
:103B600004151505F4F04E895F8940175107CCF014
:103B7000B8016A0D7B1D20FE0BC0409112068F819B
:103B800098852C8B3D8B0E94F3192C893D8909C0A7
:103B90004E818F8198852C8B3D8B0E94F3193D8936
:103BA0002C8926940F5F1F4F8B859C85081719075A
:103BB000B9F69FEF891A990AE8E04E0E511C498127
:103BC0005A818E859F85480F591F5A834983AECFEE
:103BD0002F5F3F4F9ACF612C712CE60CF71C1C1401
:103BE0001D0484F401E080911206811100E02A890D
:103BF0003B8941E050E0B501C7010E94371AFFEF51
:103C0000EF1AFF0A8091080690910906E816F90656
:103C10000CF4EDCE1AC0FD013696E60FF71F349076
:103C20000696860F971F6A5F7F4FFB01AE2FA61B7C
:103C3000A31708F042CF1491149FD001159FB00D27
:103C400011248A0F9B1F3196F1CF67960FB6F89417
:103C5000DEBF0FBECDBFDF91CF911F910F91FF90BF
:103C6000EF90DF90CF90BF90AF909F908F907F901C
:103C70006F905F904F903F902F900895EF92FF923A
:103C80000F931F93CF93DF93EC0109900020E9F786
:103C90002197C81BD90B8C01E12CF12C2197CE0167
:103CA00001961816190674F4F80181918F010E948B
:103CB0006A1AE80EF91E1C161D0684F7FFEFEF1AAC
:103CC000FF0AECCFC701DF91CF911F910F91FF90B9
:103CD000EF90089580911306882311F1F894409194
:103CE0000E0650910F062091150630911606809110
:103CF0001706909118064217530749F490930F0640
:103D000080930E0650931A064093190608C030930C
:103D10000F0620930E0690931A0680931906789446
:103D200008958F929F92AF92BF92CF92DF92EF92BF
:103D3000FF920F931F93CF93DF93E0900101F090D8
:103D40000201E416F50609F0CCC0209151042223AB
:103D500031F01092220610922106109251044B016C
:103D60006C010E943E1E8C01A090FF05B0900006E1
:103D70000E948E2220911F0630912006AB01421B2B
:103D8000530B4B35510508F4ACC00A0D1B1D709345
:103D9000200660931F06C0912106D0912206C0170D
:103DA000D10768F47E015FEFE51AF50AF09222066A
:103DB000E092210681E088169104D1F50DC0F092C1
:103DC0005004E0924F0410920201109201011092EF
:103DD00022061092210685C08CEA95E09093110688
:103DE00080931006A6016FEF7FEFC5018E199F0922
:103DF0000E94C41C82EA99E09093110680931006F9
:103E000047E0E416F10428F48FE090E08C1B9D0B52
:103E100009C0C8010697E816F90638F0CE014196A8
:103E2000801B910B0E94160B59C089E090E0FACFDD
:103E300052E08516910479F582EA99E09093110693
:103E40008093100687E0E816F10418F4CE01059778
:103E50000CC0C8010697E816F90628F0C8018C1BAB
:103E60009D0B079702C08FEF9FEF0E94160B8CEA05
:103E700095E090931106809310068091FF05909134
:103E800000062091210630912206A60166E070E02E
:103E9000821B930B21C08CEA95E0909311068093CE
:103EA000100601E021E030E04EE350E061E070E018
:103EB00081E090E00E949F1A2EE030E04EE350E057
:103EC0006EE070E081E090E00E949F1AA60164E03D
:103ED00070E0C5018E199F090E94C41C81E0809387
:103EE0004E04DF91CF911F910F91FF90EF90DF90E3
:103EF000CF90BF90AF909F908F9008950895CF92EC
:103F0000DF92EF92FF920F931F93CF93DF936C0199
:103F10007A018B01C0E0D0E0CE15DF0589F0D80131
:103F20006D918D01D601ED91FC910190F081E02D14
:103F3000C6010995892B11F47E0102C02196ECCFB0
:103F4000C701DF91CF911F910F91FF90EF90DF900C
:103F5000CF900895FC01538D448D252F30E0842FA0
:103F600090E0821B930B541710F0CF9608950197A1
:103F70000895FC01918D828D981761F0828DDF018B
:103F8000A80FB11D5D968C91928D9F5F9F73928F4C
:103F900090E008958FEF9FEF0895FC01918D828D41
:103FA000981731F0828DE80FF11D858D90E008950E
:103FB0008FEF9FEF0895FC01918D228D892F90E066
:103FC000805C9F4F821B91098F739927089584E528
:103FD00095E00E94DB1F21E0892B09F420E0822F6D
:103FE0000895FC01848DDF01A80FB11DA35ABF4FB6
:103FF0002C91848D90E001968F739927848FA689E8
:10400000B7892C93A089B1898C9180648C93938D0E
:10401000848D981306C00288F389E02D80818F7DFE
:1040200080830895EF92FF920F931F93CF93DF93B6
:10403000EC0181E0888F9B8D8C8D981305C0E889F9
:10404000F989808185FD24C0F62E0B8D10E00F5F6D
:104050001F4F0F731127E02E8C8DE8120CC00FB686
:1040600007FCFACFE889F989808185FFF5CFCE0179
:104070000E94F11FF1CF8B8DFE01E80FF11DE35A75
:10408000FF4FF0820B8FEA89FB898081806207C035
:10409000EE89FF896083E889F98980818064808363
:1040A00081E090E0DF91CF911F910F91FF90EF9011
:1040B0000895CF93DF93EC01888D8823C9F0EA89B6
:1040C000FB89808185FD05C0A889B9898C9186FD11
:1040D0000FC00FB607FCF5CF808185FFF2CFA8890E
:1040E000B9898C9185FFEDCFCE010E94F11FE7CFFA
:1040F000DF91CF9108950E94E71F81110C948C13DA
:1041000008953FB7F8948091700690917106A09140
:104110007206B091730626B5A89B05C02F3F19F013
:104120000196A11DB11D3FBFBA2FA92F982F882737
:10413000820F911DA11DB11DBC01CD0142E0660F92
:10414000771F881F991F4A95D1F7089585ED8093B1
:10415000BC008091BC0084FDFCCF109298040895AF
:1041600040914606262F30E0240F311D21323105C3
:10417000DCF4209198042430C9F4FC0180E090E044
:10418000861758F4309146062191DC01AC5DB94F99
:10419000A30FB11D2C930196F3CF80914606680FB3
:1041A0006093460680E0089581E0089582E00895D6
:1041B0000895E0919A0480919904E81730F4F0E0B2
:1041C000E556FB4F808190E008958FEF9FEF0895B3
:1041D00090919A0480919904981750F4E92FF0E097
:1041E000E556FB4F208130E09F5F90939A0402C018
:1041F0002FEF3FEFC90108958091990490E020913D
:104200009A04821B91090895CF92DF92EF92FF9258
:104210000F931F93CF93DF937C01262F972F8A0153
:104220008091BD04882391F0C62FD72F6E01C40E54
:10423000D51ECC15DD0571F06991D701ED91FC918A
:104240000190F081E02DC7010995F3CF642F822FF3
:104250000E94B020C801DF91CF911F910F91FF9074
:10426000EF90DF90CF900895CF93DF931F92CDB75B
:10427000DEB769832091BD042223D1F02091BB04D5
:10428000203240F021E030E0FC013383228380E0E3
:1042900090E015C08091BC04E82FF0E0EE5AFB4F8F
:1042A000998190838F5F8093BC048093BB0405C089
:1042B00061E0CE0101960E94B02081E090E00F9075
:1042C000DF91CF910895089580E090E008951F92C6
:1042D0000F920FB60F9211242F933F934F935F933A
:1042E0006F937F938F939F93AF93BF93EF93FF93BE
:1042F00084E595E00E94F11FFF91EF91BF91AF918E
:104300009F918F917F916F915F914F913F912F91ED
:104310000F900FBE0F901F9018951F920F920FB61F
:104320000F9211242F938F939F93EF93FF93E0911C
:104330006405F09165058081E0916A05F0916B0557
:1043400082FD12C0908180916D058F5F8F732091E7
:104350006E05821751F0E0916D05F0E0EC5AFA4FCE
:10436000958F80936D0501C08081FF91EF919F91A2
:104370008F912F910F900FBE0F901F901895833043
:1043800081F028F4813099F08230A1F008958730CF
:10439000A9F08830B9F08430D1F4809180008F7D0D
:1043A00003C0809180008F7780938000089584B54A
:1043B0008F7702C084B58F7D84BD08958091B00051
:1043C0008F7703C08091B0008F7D8093B0000895F7
:1043D0001F93CF93DF93282F30E0F901E854F44F77
:1043E0008491F901EC55F44FD491F901E057F44F61
:1043F000C491CC23C9F0162F81110E94BF21EC2F4C
:10440000F0E0EE0FFF1FEA57F44FA591B4918FB77C
:10441000F894111105C09C91ED2FE095E92302C09D
:10442000EC91ED2BEC938FBFDF91CF911F9108950D
:10443000CF93DF9390E0FC01EC55F44F2491FC0105
:10444000E057F44F8491882361F190E0880F991F21
:10445000FC01E458F44FC591D491FC01EA57F44FA4
:10446000A591B491611109C09FB7F89488812095F6
:1044700082238883EC912E230BC0623061F49FB7B6
:10448000F8943881822F809583238883EC912E2B9A
:104490002C939FBF06C08FB7F894E8812E2B2883FA
:1044A0008FBFDF91CF9108958F929F92AF92BF926D
:1044B000CF92DF92EF92FF926B017C010E948120EC
:1044C0004B015C01C114D104E104F104F1F00E943C
:1044D0008120DC01CB0188199909AA09BB09883E12
:1044E0009340A105B10570F321E0C21AD108E1089B
:1044F000F10888EE880E83E0981EA11CB11CC1143F
:10450000D104E104F10419F7DDCFFF90EF90DF90C3
:10451000CF90BF90AF909F908F9008952FB7F89451
:1045200060916C0670916D0680916E0690916F0699
:104530002FBF08951F920F920FB60F9211242F9341
:104540003F938F939F93AF93BF9380916C0690910D
:104550006D06A0916E06B0916F0630916B0623E058
:10456000230F2D3720F40196A11DB11D05C026E8AB
:10457000230F0296A11DB11D20936B0680936C063C
:1045800090936D06A0936E06B0936F0680917006AF
:1045900090917106A0917206B09173060196A11DCB
:1045A000B11D8093700690937106A0937206B0932C
:1045B0007306BF91AF919F918F913F912F910F9073
:1045C0000FBE0F901F9018951F920F920FB60F926B
:1045D00011242F933F934F935F936F937F938F9308
:1045E0009F93AF93BF93EF93FF938091B900887F20
:1045F000803609F49CC068F5883209F45BC090F4F9
:10460000803109F454C038F4882309F4F6C08830A6
:1046100009F44DC0F6C0883109F44CC0803209F469
:104620005DC0EFC0803409F468C048F4803309F4F9
:1046300055C0883309F0E5C080939604D8C0803512
:1046400009F44FC0883509F45DC0883409F0D9C039
:10465000D6C0883909F4C7C0A8F4883709F467C000
:1046600038F4883609F463C0803709F460C0C9C0E3
:10467000883809F4B8C0803909F45FC0803809F07F
:10468000C0C05BC0803B09F486C038F4803A09F4AE
:1046900066C0883A09F47FC0B4C0803C09F4A7C062
:1046A000883C09F4A4C0883B09F48AC0AAC0809160
:1046B000930410C09091950480919404981770F51C
:1046C000E091950481E08E0F80939504F0E0EE5820
:1046D000FB4F80818093BB0085EC86C0809396045D
:1046E0008EC0E091950481E08E0F809395048091B7
:1046F000BB00F0E0EE58FB4F8083909195048091D1
:1047000094046EC0E091950481E08E0F809395042F
:104710008091BB00F0E0EE58FB4F808380919704BE
:1047200081116DC081E08093920484EA61C083E0CE
:104730008093980410926A06CFCF80916A068032E7
:1047400008F051C0E0916A0681E08E0F80936A06FE
:104750008091BB00F0E0E65BF94F8083BDCF85EC34
:104760008093BC001092980480916A06803230F4E5
:10477000E0916A06F0E0E65BF94F108260916A060C
:1047800070E0E0914806F09149068AE496E00995C8
:1047900010926A0636C084E080939804109247060F
:1047A00010924606E0914406F091450609958091E5
:1047B0004606811105C081E08093460610922406CA
:1047C000E091470681E08E0F80934706F0E0EC5DB4
:1047D000F94F80818093BB009091470680914606F7
:1047E000981708F479CF85E88093BC000AC085EC5F
:1047F0008093BC001092980404C0109296040E940A
:10480000A620FF91EF91BF91AF919F918F917F91E2
:104810006F915F914F913F912F910F900FBE0F902D
:104820001F901895009769F0FC0101900020E9F7AE
:104830003197AF01481B590BBC0184E595E00C94FE
:104840007F1F80E090E008951F93CF93DF931F9226
:10485000CDB7DEB7182F88E60E940F1C8EE090E0DF
:104860000E94BF1C0E94621C81E090E00E94191C03
:1048700081EF95E00E94E820682F113011F46E7FDF
:1048800001C06D7F88E669830E940F1C8EE090E076
:104890000E94BF1C698181EF95E00E9434210F9036
:1048A000DF91CF911F910C94621CCF93C82F88E6A3
:1048B0000E940F1C80E090E00E94BF1C8C2F6AE0D9
:1048C0000E944635692F20E1829F600D112481EFFF
:1048D00095E00E9434210E94621C88E60E940F1C11
:1048E0008FE090E00E94BF1C0E94621C81E090E07B
:1048F0000E94191C81EF95E00E94E820C82F88E6ED
:104900000E940F1C8FE090E00E94BF1C6C2F6F77FD
:1049100081EF95E00E943421CF910C94621CCF93DB
:10492000C82F88E60E940F1C81E090E00E94BF1C07
:104930008C2F6AE00E944635692F20E1829F600D2E
:10494000112481EF95E00E943421CF910C94621CD8
:104950001F93CF93DF931F92CDB7DEB7182F88E652
:104960000E940F1C82E090E00E94BF1C0E94621C0B
:1049700081E090E00E94191C81EF95E00E94E82000
:1049800086FF18C01D3060F084EF810F6AE00E943E
:104990004635692F20E1829F600D1124606614C0A6
:1049A000812F6AE00E944635692F20E1829F600DC9
:1049B00011240AC0812F6AE00E944635692F20E148
:1049C000829F600D11246F7B88E669830E940F1C13
:1049D00082E090E00E94BF1C698181EF95E00E9417
:1049E00034210F90DF91CF911F910C94621CCF93D3
:1049F000C82F88E60E940F1C83E090E00E94BF1C35
:104A00008C2F6AE00E944635692F20E1829F600D5D
:104A1000112481EF95E00E943421CF910C94621C07
:104A2000CF93C82F88E60E940F1C84E090E00E947C
:104A3000BF1C8C2F6AE00E944635692F20E1829FBF
:104A4000600D112481EF95E00E943421CF910C94E8
:104A5000621CCF93C82F88E60E940F1C85E090E06F
:104A60000E94BF1C8C2F6AE00E944635692F20E10E
:104A7000829F600D112481EF95E00E943421CF9137
:104A80000C94621CCF93C82F88E60E940F1C86E00E
:104A900090E00E94BF1C8C2F6AE00E944635692F6F
:104AA00020E1829F600D112481EF95E00E94342166
:104AB000CF910C94621CCF9388E60E940F1C82E079
:104AC00090E00E94BF1C0E94621C81E090E00E9466
:104AD000191C81EF95E00E94E820C82F88E60E940B
:104AE0000F1C82E090E00E94BF1C6C2F6F7B81EF57
:104AF00095E00E943421CF910C94621C0F931F9378
:104B0000CF93DF938C01C0E0D0E0F801EC0FFD1FE4
:104B10006491662371F0E0915405F0915505019080
:104B2000F081E02D84E595E00995892B11F021961F
:104B3000ECCFCE01DF91CF911F910F9108950C948E
:104B400012248F929F92AF92BF920F931F93CF9395
:104B5000DF93CDB7DEB7A1970FB6F894DEBF0FBED7
:104B6000CDBF19A2423008F44AE08E010F5D1F4FFD
:104B7000842E912CA12CB12CA50194010E947A3590
:104B8000E62FB901CA0101501109EA3014F4E05DC1
:104B900001C0E95CD801EC93232B242B252B61F772
:104BA000C8010E941224A1960FB6F894DEBF0FBE72
:104BB000CDBFDF91CF911F910F91BF90AF909F908C
:104BC0008F900895682F70E080E090E04AE00C94A8
:104BD000A125E0915405F09155050190F081E02D5B
:104BE000682F84E595E009944F925F926F927F92CF
:104BF0008F929F92AF92BF92CF92DF92EF92FF92ED
:104C00006B017C01B42E9B01AC010E943A358823D4
:104C100019F08BE792E027C026013701E89477F876
:104C20002FEF3FEF4FE75FE7C301B2010E943A3534
:104C300081110DC02FEF3FEF4FE75FE7C301B201D6
:104C40000E947E3018161CF48FE792E00CC02FEF04
:104C50003FEF4FE75FE4C701B6010E94B634181674
:104C600084F483E892E0FF90EF90DF90CF90BF90C4
:104C7000AF909F908F907F906F905F904F900C942B
:104C800012242FEF3FEF4FE75FECC701B6010E9400
:104C90007E3087FDE6CF20E030E0A901C701B601F4
:104CA0000E947E3087FF09C08DE20E94E9254C01F9
:104CB000F7FAF094F7F8F09402C0812C912CA12C13
:104CC00060E070E080E09FE3AB1440F420E030E06F
:104CD00040E251E40E941C33A394F6CF9B01AC0147
:104CE000C701B6010E941E322B013C010E94953380
:104CF0006B017C010E9483309B01AC01C301B201B6
:104D00000E941D322B013C014AE0C701B6010E94FE
:104D1000A1257C01E80CF91CBB2029F08EE20E9441
:104D2000E925E80EF91EDB2CDD2021F120E030E042
:104D300040E251E4C301B2010E94E4302B013C0186
:104D40000E9495334B01A12CB12C4AE0C501B4015E
:104D50000E94A125E80EF91EC501B4010E9483300E
:104D60009B01AC01C301B2010E941D322B013C0129
:104D7000DA94DACFC701FF90EF90DF90CF90BF9029
:104D8000AF909F908F907F906F905F904F9008951D
:104D90008091150690911606009711F00E94373603
:104DA0008091170690911806009711F00C943736F1
:104DB0000895CF93DF93CDB7DEB7CD56D1090FB6A7
:104DC000F894DEBF0FBECDBF789484B5826084BDF9
:104DD00084B5816084BD85B5826085BD85B58160FF
:104DE00085BD80916E00816080936E00109281007D
:104DF0008091810082608093810080918100816038
:104E000080938100809180008160809380008091F8
:104E1000B10084608093B1008091B0008160809384
:104E2000B00080917A00846080937A0080917A004B
:104E3000826080937A0080917A00816080937A000A
:104E400080917A00806880937A001092C10010925D
:104E50009A04109299041092BC041092BB04109210
:104E6000980411E0109397041092920461E082E19B
:104E70000E94E82161E083E10E94E8218091B9006D
:104E80008E7F8093B9008091B9008D7F8093B900A7
:104E900088E48093B80085E48093BC00E0916405C9
:104EA000F091650582E08083E0916005F0916105F5
:104EB0001082E0916205F09163058FEC808310927F
:104EC0006C05E0916805F091690586E08083E091CA
:104ED0006605F0916705808180618083E0916605B9
:104EE000F0916705808188608083E0916605F0918C
:104EF0006705808180688083E0916605F091670591
:104F000080818F7D808361E08EE00E9418220E9464
:104F1000F10C0E94D61261E08EE00E94E82164E666
:104F200070E080E090E00E94542260E08EE00E94F9
:104F3000E821809113068130A1F11093130620918E
:104F40000C0630910D0680910A0690910B06289F61
:104F50008001299F100D389F100D1124C8010E9457
:104F6000A23590931806809317060097C1F0A80108
:104F70006FEF70E00E94A737F89480911706909128
:104F8000180690930F0680930E0680911506909157
:104F9000160690931A0680931906789402C0109210
:104FA000130680E1809381001092800081E080935D
:104FB000350320E33AE230933403209333033093F4
:104FC00087002093860091E19093810024EA38E0E5
:104FD000309332032093310380936F0080918103DB
:104FE00090E00E945F0D8CEA95E09093110680930B
:104FF000100620910C0630910D0680910A069091C2
:105000000B06289FA001299F500D389F500D112499
:105010006FEF70E080910E0690910F060E94A73707
:105020000E946A1EFF24F3941E012CE4220E311C00
:10503000AE014F5F5F4F6A010E94F10C80905603F2
:1050400090905703A0905803B090590350915A0381
:10505000AD965FAFAD9780918003AE968FAFAE9760
:1050600090914D04AC969FAFAC97E0904604A09110
:105070000101B0910201AB96BFAFAEAFAB97E6E3D3
:10508000F3E0A896FFAFEEAFA897FFEFA996FFAFAA
:10509000A99700E010E00F5F1F4F0830110509F4D9
:1050A00058C0C8010297029708F448C0A896AEAD50
:1050B000BFADA89714964D905D906D907C9017971A
:1050C000A3019201C501B4010E94B63487FD36C028
:1050D000A9960FAFA997E11031C0A3019201C501B4
:1050E000B4010E94B63418164CF52FE832EC45EFA7
:1050F0005CE3C301B2010E941E329B01AC01C501F9
:10510000B4010E947E3087FF19C0AD96BFADAD9748
:10511000B63061F40430110549F4AE96EFADAE97A8
:10512000E13021F4F1E0AC96FFAFAC9724E630E03B
:10513000AB963FAF2EAFAB97EE24E394A8964EAD5F
:105140005FADA8974C5F5F4FA8965FAF4EAFA89733
:10515000A2CFA9965FADA99750930001E0924604B3
:10516000AC968FADAC9780934D04AB96AEADBFAD12
:10517000AB97B0930201A093010110924E04ECEAA8
:10518000F5E0F0931106E093100620910C063091A3
:105190000D0680910A0690910B06289FA001299F79
:1051A000500D389F500D11246FEF70E080910E0666
:1051B00090910F060E94A7370E948E2220919103A2
:1051C00030919203AB01421B530B9A0121363A4EA8
:1051D00030F070939203609391030E94870D81E0F9
:1051E00090E00E94FE098091800390E001972AE000
:1051F000289FB001299F700D1124675F7C4F2AE022
:1052000030E040E050E0C1010E94DD2E560107E38E
:1052100010E0C8010E94A531D5018D935D010F5F9B
:105220001F4F02381105A9F7DF92CF923F922F92BC
:10523000A7E6B1E0BF93AF93A3E9B3E0BF93AF9309
:105240000E94BE3742E050E062E070E083E993E004
:105250000E94911E80915C0390E001972BE0289FB3
:10526000B001299F700D11246C597C4F2BE030E068
:1052700040E050E0C1010E94DD2EB0905D03A0909F
:105280005E03E0905B0360900106712CF0E36F1AFF
:10529000F8EF7F0A00910206109103060E94251282
:1052A000A1962FAFA197A2963FAFA297A3964FAF1B
:1052B000A397A4965FAFA497A5966FAFA597A69660
:1052C0007FAFA697632F70E030E0490150E3851A65
:1052D00058EF950A8AE1E1E9F1E0D60101900D92DB
:1052E0008A95E1F7225E3F4FADE6B1E02A9FC0010B
:1052F0002B9F900D3A9F900D1124DC011197FB011B
:105300003197EE0FFF1FEC0DFD1D20813181240F21
:10531000311DC401837099270FB6F894DEBF0FBE0C
:10532000CDBF892B29F46330710514F02F5F3F4FF7
:1053300040E050E082EB97E0BC0163707727672B79
:1053400011F44F5F5F4F019688159905ACF3CD01BD
:10535000820F931F840F951F65E070E00E946635F1
:10536000FC01EE0FFF1FE555FE4F9080818080917C
:105370005A0390E0019727E0289FB001299F700D04
:1053800011246E5C7C4F27E030E040E050E088EE76
:1053900093E00E94DD2EAF92BF923F922F921F9218
:1053A000EF927F926F921F920F931F921F938F9293
:1053B0009F9288EE93E09F938F938EE691E09F9368
:1053C0008F938FEE93E09F938F930E94BE3743E0BD
:1053D00050E061E070E08FEE93E00E94911E00913A
:1053E000900310E0A0908F03B12CC50101972AE132
:1053F000289FB001299F700D11246E587B4F2AE120
:1054000030E040E050E0C6010E94DD2E015011095D
:105410008DE0809FB001819F700D112467517C4FFA
:105420002BE030E040E050E0C1010E94DD2E0FB6DD
:10543000F894DEBF0FBECDBFAA94AB2839F43F92DB
:105440002F92DF92CF9285E292E006C03F922F9298
:10545000DF92CF9285E392E09F938F938DE094E06B
:105460009F938F930E94BE370FB6F894DEBF0FBE96
:10547000CDBF44E050E060E070E08DE094E00E9439
:10548000911E85E090E00E94560B82E890E00E9419
:10549000B41B46E050E061E070E08EEB94E00E94C7
:1054A000911E87E090E00E94FE0988E191E00E9451
:1054B000B41B48E050E062E070E08EEB94E00E94A4
:1054C000911E89E090E00E94560B8EEA91E00E94C6
:1054D000B41B4AE050E061E070E08EEB94E00E9483
:1054E000911E80910101909102018436910501F590
:1054F0000E948E224B015C018091400490914104F6
:10550000A401481B590BCA01853F914028F08091A6
:105510003F04833108F4CDC180914004909141044F
:10552000881A990AE1ED8E16E7E09E0608F019C286
:1055300080910101909102018536910509F049C0E1
:105540000E948E222B013C01E09100010E2E000CE6
:10555000FF0BE959FC4FA0808CE3A89E5001112459
:1055600082E0E82E01E02DE030E04EE350E062E022
:1055700070E081E090E00E94261B809144049091AD
:105580004504D201A81BB90BCD01893E934040F0E0
:105590008091420490914304A816B9060CF0F7C11B
:1055A0008091420490914304A816B90694F485E6CC
:1055B00090E09093500480934F0410920201109257
:1055C0000101109243041092420460E08EE00E94B8
:1055D000E82184E492E00E94B41B46E650E060E0DB
:1055E00070E08EEB94E00E94911E8AED92E00E94A2
:1055F000B41B47E650E060E070E08EEB94E00E9460
:10560000911E809101019091020188369105D1F59A
:105610000E948E2220914D04222309F420C2209161
:105620008403ACE32A9F9001112430934C0420930F
:105630004B0410924D042091490430914A04FB011F
:10564000E21BF30B9F01293E334008F00FC220916B
:1056500047043091480480914B0490914C04821788
:10566000930780F488E690E09093500480934F0471
:105670001092020110920101109246041092480407
:105680001092470480914F0490915004019751F477
:1056900082E090E090930201809301011092500407
:1056A00010924F0480914F0490915004029751F44E
:1056B00083E090E0909302018093010110925004E6
:1056C00010924F0480914F0490915004039789F4F5
:1056D00080919003882319F084E090E002C085E077
:1056E00090E0909302018093010110925004109277
:1056F0004F0480914F0490915004049751F485E039
:1057000090E0909302018093010110925004109256
:105710004F0480914F0490915004059751F486E016
:1057200090E0909302018093010110925004109236
:105730004F0480914F0490915004069751F487E0F4
:1057400090E0909302018093010110925004109216
:105750004F0480914F0490915004079751F488E0D2
:1057600090E09093020180930101109250041092F6
:105770004F0480914F0490915004089751F489E0B0
:1057800090E09093020180930101109250041092D6
:105790004F0480914F0490915004099751F48AE08E
:1057A00090E09093020180930101109250041092B6
:1057B0004F0480914F04909150040A9751F481E076
:1057C00090E0909302018093010110925004109296
:1057D0004F0480914F049091500484369105D9F480
:1057E00080914D04882369F087E690E09093020150
:1057F000809301011092500410924F04F0925104D2
:105800000AC085E690E09093020180930101109216
:10581000500410924F0480914F04909150048536AB
:10582000910561F486E690E0909302018093010176
:105830001092500410924F04F092510480914F0442
:10584000909150048636910551F488E690E090934B
:105850000201809301011092500410924F04809134
:105860004F04909150048736910551F488E690E0FA
:1058700090930201809301011092500410924F0402
:1058800080914F04909150048836910551F481E045
:1058900090E09093020180930101109250041092C5
:1058A0004F0480914E0481110E946A1E0E947B2049
:1058B000C3CB909241048092400480FD46C092E0A8
:1058C000E92E01E02DE030E04EE350E062E070E0D0
:1058D00081E090E00E94261B82EA99E090931106F5
:1058E000809310064BE352E060E070E080E090E0CF
:1058F0000E94B609ACEAB5E0B0931106A093100679
:1059000080914D04882339F028E030E040E050E0F9
:105910006BE175E00CC060910001B8E06B02B00172
:10592000112465527B4F28E030E040E050E08FE5E5
:1059300093E00E94DD2E4FE553E068E070E080E0E8
:1059400090E00E94B60961E001C060E08EE00E9434
:10595000E821F0924E0480913F048F5F80933F04D2
:10596000DBCD80913F04833108F4E2CD24E630E0C2
:105970003093500420934F041092020110920101C1
:1059800010923F0460E08EE00E94E821D1CD509259
:10599000450440924404A501481B590BCA016CE31D
:1059A00070E00E946635182F092F072E000C880B17
:1059B000990B0E9485300E94C4330E948E331616C4
:1059C000170694F40F931F937F936F9381E492E0F3
:1059D0009F938F93DF92CF920E94BE370FB6F894B9
:1059E000DEBF0FBECDBF10C00F931F938FE492E0B8
:1059F0009F938F93DF92CF920E94BE370F900F90AC
:105A00000F900F900F900F9048E552E06FEF7FEFEF
:105A100080E090E00E94B60982EA99E09093110636
:105A200080931006A60168E070E080E090E00E949C
:105A3000B6090091420410914304C501019708176B
:105A4000190724F061E08EE00E94E8210F5F1F4FEC
:105A50001093430400934204F0924E04A1CD209190
:105A60008303BCE32B9F90011124DFCD70934A0484
:105A700060934904A0904704B0904804A0FC16C06D
:105A80006091FD057091FE058091FF0590910006E3
:105A90009B0122503109AC014250510963507109F8
:105AA000EE24E39401E003970E94261BF0924E043B
:105AB0002FEFA21AB20AB0924804A0924704C7CDB1
:105AC000109257051092560588EE93E0A0E0B0E0E2
:105AD0008093580590935905A0935A05B0935B05A0
