:100000000C94E8050C9410060C9410060C94100641
:100010000C9410060C9410060C9410060C94100608
:100020000C9410060C9410060C9410060C941006F8
:100030000C9410060C94C1230C9410060C9410061A
:100040000C94BF210C9410060C94B2200C948C20BC
:100050000C9410060C9410060C9410060C941006C8
:100060000C9409220C941006036EDB363D9A999984
:10007000993DABAAAA2A3E000000803F084AD73B20
:100080003BCE016E84BCBFFDC12F3D6C74319ABD67
:1000900056833DDA3D00C77F11BED9E4BB4C3E918B
:1000A0006BAAAABE000000803F072C7AA5BA6CC5D7
:1000B00090DA3B9365FC8BBC53F810FD3C56928361
:1000C0004DBD879D3AB63DCBC9BF5BBE73DA0FC944
:1000D0003F05A84CCDB2D44EB93836A9020C50B960
:1000E000918688083CA6AAAA2ABE000000803F0686
:1000F00064EC1B3C04BC163E3BE5B93CC93C37C232
:100100009E5A3D660498083EEA69AAAA3E0000008D
:10011000803F4E414E494E495459494E46CDCCCC74
:100120003D0AD7233C17B7D13877CC2B329595E6CB
:10013000241FB14F0A000020410000C84200401CAB
:100140004620BCBE4CCA1B0E5AAEC59D74008040F2
:10015000C020A060E0109050D030B070F008884807
:10016000C828A868E8189858D838B878F80484449B
:10017000C424A464E4149454D434B474F40C8C4CA7
:10018000CC2CAC6CEC1C9C5CDC3CBC7CFC0282424D
:10019000C222A262E2129252D232B272F20A8A4AA7
:1001A000CA2AAA6AEA1A9A5ADA3ABA7AFA0686463B
:1001B000C626A666E6169656D636B676F60E8E4E47
:1001C000CE2EAE6EEE1E9E5EDE3EBE7EFE018141F6
:1001D000C121A161E1119151D131B171F109894977
:1001E000C929A969E9199959D939B979F90585450B
:1001F000C525A565E5159555D535B575F50D8D4D17
:10020000CD2DAD6DED1D9D5DDD3DBD7DFD038343BC
:10021000C323A363E3139353D333B373F30B8B4B16
:10022000CB2BAB6BEB1B9B5BDB3BBB7BFB078747AA
:10023000C727A767E7179757D737B777F70F8F4FB6
:10024000CF2FAF6FEF1F9F5FDF3FBF7FFF0000002B
:10025000002300260029004D41534A494400000074
:10026000004D5553484F4C4C410000544F4B4F00EC
:1002700000000000004C616E6767617200000000C2
:100280004148414400000053454E494E000053454B
:100290004C41534100524142550000004B414D49F1
:1002A0005300004A554D27415400534142545500D4
:1002B00000004D7568617272616D000000536861E5
:1002C00066617200000000005261622E4177616C2D
:1002D0000000005261622E416B68697200004A752D
:1002E0006D2E4177616C0000004A756D2E416B6880
:1002F0006972000052616A616200000000000053F0
:1003000079612762616E0000000052616D6164686E
:10031000616E00000053796177616C00000000009D
:10032000447A756C71612764616800447A756C6801
:10033000696A616800000053594157414C53796123
:1003400077616C00000000000000535941274241D2
:100350004E00000000000053454E494E00000000D2
:10036000000000004B414D49530000000000000018
:100370000054454E4741482042554C414E004152A1
:100380004F46414800000000000000445A554C48C8
:10039000494A41480000000054415355274100009C
:1003A0000000000000415359555241000000000078
:1003B000000052414D414448414E00000000000001
:1003C0004D4152492050554153410000000000006A
:1003D0000000000000000000000053554441484B5D
:1003E0004148204B495441205055415341000000A1
:1003F000000000004D415249204B495441205045D6
:100400005242414E59414B205055415341005345B2
:100410004C414D4154204D454E4A414C414E4B417B
:100420004E2050554153410000494D53414B00006F
:100430000053485542554800005445524249540023
:10044000004448554841000000445A554855520060
:100450000041534841520000004D4147524942007B
:100460000049535941000000004A554D27415400AE
:1004700000003D3D3D20656E64206F662070617216
:10048000616D6574657273203D3D3D004E424C20A8
:10049000203A20004E535520203A20004E5354203D
:1004A000203A20004E534920203A20004E425A2044
:1004B000203A20004E493720203A20004E4936206D
:1004C000203A20004E493520203A20004E49342061
:1004D000203A20004E493120203A20004E4A4D203B
:1004E000203A20004E534F20203A20004E4348200F
:1004F000203A20004E494820203A20004E4D5420FA
:10050000203A20004E545A20203A20004E414C20E0
:10051000203A20004E4C4F20203A20004E4C4120E3
:10052000203A200003D0060F300A0606060606060B
:1005300006060606FCFE0202FEFC3F7F40407F3FAF
:10054000080CFEFE000040407F7F40400C0E02C2BF
:10055000FE3C707C6F6360600C8E8282FE7C30712A
:1005600041417F3E80E078FEFE000F0F487F7F48CC
:100570007E7E2222E2C2307040407F3FF0F84C463F
:10058000C2823F7F40407F3F020202E2FE1E000027
:100590007F7F00007CFE8282FE7C3E7F41417F3E69
:1005A000FCFE0202FEFC414362321F0F12360A0AB1
:1005B0002060000203060508070103030505020386
:1005C00002030505050505050505050502020606E4
:1005D00006040807050606050506070203060507C3
:1005E00006060506060506060709070606030303B1
:1005F00004050205050405050405050203050208B6
:1006000005050505030403050608060604040104A0
:100610000605DEDE000006000600000028F82EF8C1
:100620002E2800000000000098B4FEB464000040D2
:1006300000000C12D27C7896906000000000000050
:10064000000060FC9EB262E0B0000000000000000C
:1006500006003CFF8100000081FF3C0000001418F0
:100660003E181400000000002020F82020000000A8
:100670000000C0C04000202020000000C0C00000DA
:10068000C038060000007CFE82FE7C0000000000F6
:100690008282FEFE800000000000C2E2B29E8C005A
:1006A00000000000829292FE6C0000000000605882
:1006B00044FEFE00000000009E9E92F262000000D8
:1006C00000007CFE96F262000000000082E27A1ECA
:1006D0000600000000006CEE92EE6C0000000000CE
:1006E0008C9ED2FE7C0000000000D8D80000D8D834
:1006F000400020505050D8880000000000005050AA
:100700005050505000000000000088D85050502039
:1007100000000000000002DADE0E00000000788415
:10072000324A4AFA4438000040404000000080F05D
:100730007E4E7EF08000000000000000FEFE92FE73
:100740006C0000000000387CC68282C600000000F9
:100750000000FEFE8282FE7C000000000000FEFE23
:100760009292920000000000FEFE121212000000A1
:10077000000078FC8692F2F6000000000000FEFE09
:10078000101010FEFE00000000000000FEFE000041
:1007900000FEFE80C040FEFE386CC68200000000F5
:1007A0000000FEFE8080800000000000FEFE0C3095
:1007B0000CFEFE00000000000000FEFE0C30FEFEFD
:1007C0000000000000007CFE8282FE7C0000000031
:1007D0000000FEFE121E0C00000000007CFE828263
:1007E000FE7C000000004000FEFE127EEC80000057
:1007F00000000000CC9E92F26600000000000202A1
:10080000FEFE02020000000000007EFE8080FE7EF0
:10081000000000000000021EF8C0F81E02000000E8
:10082000000000000EFEE03C063CE0FE0E00000072
:1008300000000000000082C67C107CC68200000020
:1008400000000000060EF8F80E0600000000000090
:10085000C2E2B29A8E86000000000000FFFF810015
:1008600000000638C000000081FFFF000000040205
:1008700002040000000000000000008080808080F2
:1008800001020000E8E8A8F8F00000000000FFFF07
:1008900088F870000000000070F8888800000000F0
:1008A00070F888FFFF000000000070F8A8B8B000E2
:1008B0000000000008FEFF090000000070F888F842
:1008C000F8008080C040FFFF08F8F800000000003A
:1008D000FBFB000000FBFB80C040FFFF70D88800DE
:1008E00000000000FFFF0000F8F808F8F808F8F82A
:1008F0000000000000000000F8F808F8F800000010
:10090000000070F888F8700000000000F8F888F81F
:1009100070C0C000000070F888F8F8000000C0C087
:10092000F8F808000000B0B8E86800000000FCFC1F
:1009300088000000F8F880F8F8000000000018783F
:10094000C0C0781800000000000018F8E03838E057
:10095000F818000000000000000088D87070D888E7
:100960000000000000000838E0E038080080C00007
:100970000000C8E8B8980000000008FFF7810000F8
:100980000000FEC081F7FF080000000020101020CA
:100990002010000000000000FC040404FCC0808063
:1009A00080C00BA6040720600101030404040401B5
:1009B0000202030302030204040404040404040402
:1009C00004040202040304040404040404040404EC
:1009D00004030405040504040404040405040505D3
:1009E00005050403040304040204040404040404C9
:1009F00004030404030504040405040404040505B5
:100A00000504040404040401005E0600060000005E
:100A100000000000002616686400000000063C424A
:100A2000423C0A040A103810503010101060606008
:100A30001008067E42427E427E40007252525E5252
:100A400052527E1E10107E5E5252727E52527202BE
:100A500002027E7E52527E5E52527E242424140074
:100A60000000001414140000000004520A040000E6
:100A700000007C12127C7E52522C3C4242247E4268
:100A8000423C7E5252427E1212023C4252347E104E
:100A9000107E427E422040423E7E101824427E401C
:100AA00040407E0408047E7E08107E3C42423C7E2C
:100AB00012120C3C52225C7E12324C4C52522202D8
:100AC000027E02023E40403E1E2040201E3E40303C
:100AD000403E4628102846060870080662524A46DC
:100AE0007E42420608106042427E040202044040F8
:100AF00040400204205454787E484830384444280A
:100B00003048487E38545418087C0A0A18A4A47C3B
:100B10007E100870487A404080887A7E10284442CF
:100B20007E407C047804787C08047838444438FC9F
:100B3000242418081414FC807C0404084854542409
:100B4000043E44443C40207C1C2040201C3C40305F
:100B5000403C44281028444C90907C6454544C00F1
:100B60000000000000000000000000000000000085
:100B70001F1C1F1E1F1E1F1F1E1F1E1F0000000008
:100B8000240027002A0000000000250028002B0078
:100B90000404040404040404020202020202030323
:100BA000030303030102040810204080010204082B
:100BB00010200102040810200000000800020100BB
:100BC0000003040700000000000000006E2D5D2DF2
:100BD00011241FBECFEFD8E0DEBFCDBF26E0A8E8CE
:100BE000B2E001C01D92AA37B207E1F712E0A0E01F
:100BF000B1E0E4EDF4E702C005900D92A838B1072A
:100C0000D9F715E0C7EED5E004C02197FE010E9498
:100C10009A35C63ED107C9F70E94D6260C945D3A94
:100C20000C9400008F929F92AF92BF92CF92DF926E
:100C3000EF92FF920F931F93CF93DF9300D000D0DA
:100C400000D0CDB7DEB78C010E94B3214B015C010F
:100C5000809104061F928F9393EEC92E91E0D92EB6
:100C6000DF92CF927E0124E0E20EF11CFF92EF9220
:100C70000E94BC37809105061F928F93DF92CF921E
:100C8000CE0101966C019F938F930E94BC3784E242
:100C900095E09093110680931006A70160E070E044
:100CA000C8010A970E94E91BA60160E070E0C80134
:100CB00007960E94E91B80918E0290918F02940109
:100CC000281B390BC9010FB6F894DEBF0FBECDBF8C
:100CD000843F31E09307E0F4580185E0A80EB11C91
:100CE000680194E0C90ED11C82E0E82E01E025E005
:100CF00030E0A50163E070E0C6010E944B1A2CE0D1
:100D000030E0A5016AE070E0C6010E944B1A07C0FE
:100D1000893E934020F090928F0280928E0281E073
:100D200080934E0426960FB6F894DEBF0FBECDBF5B
:100D3000DF91CF911F910F91FF90EF90DF90CF90B7
:100D4000BF90AF909F908F900895CF92DF92EF92D7
:100D5000FF926B017C0120E030E044EB53E40E9401
:100D60001A330E94C23320E030E044EB53E40E9487
:100D7000E2309B01AC01C701B6010E941B326B013E
:100D80007C0120E030E0A9010E947C3087FF0AC08E
:100D900020E030E044EB53E4C701B6010E941C326E
:100DA0006B017C01C701B601FF90EF90DF90CF90FF
:100DB00008953F924F925F926F927F928F929F928F
:100DC000AF92BF92CF92DF92EF92FF920F931F9359
:100DD000CF93DF9300D000D0CDB7DEB7162F042F0E
:100DE000322E633010F40197145F7C0120EDE21A7B
:100DF00027E0F20AB70180E090E00E94813020E015
:100E000030EA46EB53E40E94E2300E94C2332B01E9
:100E10003C01612F70E06F5F7F4F072E000C880B45
:100E2000990B0E94833021E03DEC44EF51E40E9495
:100E3000E2300E94C23369837A838B839C83C7012B
:100E400064E670E00E94503580E090E00E948130BE
:100E50000E94C2334B015C01C70160E971E00E944E
:100E6000503580E090E00E9481300E94C2336B01D7
:100E70007C0129813A814B815C81C301B2010E94CE
:100E80001C32A50194010E941C32A70196010E9408
:100E90001C326B017C01602F70E080E090E00E94CA
:100EA00083309B01AC01C701B6010E941C3220E0D7
:100EB00030E044E453E40E941C320E948C33C09022
:100EC000F3020C2C000CDD08EE08FF08C60ED71E3E
:100ED000E81EF91EC30CD11CE11CF11CC701B601B0
:100EE0000E9483302CEF3EE241EB53E40E941A3320
:100EF0000E94C23320E030E841EB54E40E941C32EF
:100F00000E948C334B015C0161E0C4010E94F31A22
:100F1000C616D706E806F90634F03FEF831A930A9F
:100F2000A30AB30AF1CF2401350141E0441A510864
:100F300061087108812C912C540183948201682DE1
:100F4000C8010E94F31AC616D706E806F90634F05F
:100F50005FEF851A950AA50AB50AF1CF81E0881AD4
:100F60009108A108B108682DC2010E94F31AEFEFA1
:100F7000CE1ADE0AEE0AFE0AA7019601261B370BDF
:100F8000480B590BCA01B9013DE083169104A10435
:100F9000B10449F4635E7F4F8F4F9F4F8CE0882EE2
:100FA000912CA12CB12C782DC8010F900F900F908F
:100FB0000F90DF91CF911F910F91FF90EF90DF90F5
:100FC000CF90BF90AF909F908F907F906F905F90E9
:100FD0004F903F9008954F925F926F927F928F92C1
:100FE0009F92AF92BF92CF92DF92EF92FF920F93B8
:100FF0001F93CF93DF93CDB7DEB72C970FB6F8943E
:10100000DEBF0FBECDBF29013A01670178012BED8C
:101010003FE049E450E40E94E23020E030E044E365
:1010200053E40E941A330E94C13469837A838B830C
:101030009C832BED3FE049E450E4C701B6010E94D8
:10104000E23020E030E044E353E40E941A336B01C5
:101050007C010E94C1344B015C012BED3FE049E46F
:1010600050E4C301B2010E94E23020E030E044E3EA
:1010700053E40E941A332B013C010E94C1349B01AE
:10108000AC01C701B60129873A874B875C870E946C
:1010900015336B017C01C301B2010E9415336D83CE
:1010A0007E838F83988749805A806B807C8077FA13
:1010B000709477F8709429853A854B855C85C501D5
:1010C000B4010E94E2309B01AC01C301B2010E9455
:1010D0001B324B015C012D813E814F815885C70138
:1010E000B6010E94E2309B01AC01C501B4010E942F
:1010F0001A330E940A3220E030E040E751E40E94B7
:101100001A3320E030E044E353E40E94E2302BED58
:101110003FE049E450E40E941A332C960FB6F8944D
:10112000DEBF0FBECDBFDF91CF911F910F91FF901A
:10113000EF90DF90CF90BF90AF909F908F907F9077
:101140006F905F904F9008952F923F924F925F92D1
:101150006F927F928F929F92AF92BF92CF92DF92C7
:10116000EF92FF920F931F93CF93DF93E2ECFBE09C
:101170008491EEEAFBE0D491EAE9FBE0C491CC2350
:1011800009F4EAC081110E94E420EC2FF0E0EE0F98
:10119000FF1FE35BFD4FA591B491EC91ED2309F4A2
:1011A000DBC000910C0610910D06000F111F000FFF
:1011B000111F80910A0690910B0624E09695879561
:1011C0002A95E1F7F1E08F278170E12CF12CAA2418
:1011D000BB24A01AB10A21E030E01901201A310A1B
:1011E00020910A0630910B06E216F3060CF08AC035
:1011F00030910C0620910D0690911406C0911906AD
:10120000D0911A06432E522E970181112FC0290F1B
:10121000311D429EC001439E900D529E900D11249F
:10122000C80FD91F4E01800E911E6401C00ED11E41
:101230003601600E711E14141504B4F4D3018D919F
:101240003D010E94E823F60181916F010E94E8238D
:10125000D4018D914D010E94E82389910E94E823D9
:10126000B1E04B1A5108E7CF81E048C0205F3F4F03
:10127000291B3109429EC001439E900D529E900D44
:1012800011240197C80FD91F4E018A0C9B1C6401C1
:10129000CA0CDB1C3601620C731CEFEFCE1ADE0A9F
:1012A000FFEF8F1A9F0A21961414150434F5D30109
:1012B000EE913D01F0E0E35BFE4F84910E94E82354
:1012C000D601EE916D01F0E0E35BFE4F84910E9448
:1012D000E823D401EE914D01F0E0E35BFE4F8491F1
:1012E0000E94E823EA91F0E0E35BFE4F84910E94C4
:1012F000E823B1E04B1A5108D7CF80E0E0E1EE0ED1
:10130000F11C6ECF60E089E00E943D2161E088E041
:101310000E940D2160E088E00E940D21809114065A
:1013200081FF02C061E001C060E087E00E940D2102
:101330008091140680FF02C061E001C060E086E099
:101340000E940D2161E089E00E943D2180911406F8
:101350008F5F837080931406DF91CF911F910F915F
:10136000FF90EF90DF90CF90BF90AF909F908F90C5
:101370007F906F905F904F903F902F9008954F9285
:101380005F926F927F928F929F92AF92BF92CF9215
:10139000DF92EF92FF920F931F93CF93DF93CDB71E
:1013A000DEB7EC970FB6F894DEBF0FBECDBF00914D
:1013B0000101109102010817190709F0E1C00E940C
:1013C000B3212091940230919502AB01421B530B43
:1013D00045365105C8F030919302209192023111A7
:1013E00008C0203188F470939502609394022F5FB7
:1013F00009C0313049F4222339F07093950260938B
:1014000094022150209392022091940230919502EF
:10141000AB01421B530B809192024131574230F095
:10142000803121F491E09093930210C081110EC09D
:1014300090919302913051F41093500400934F0413
:1014400010920201109201011092930224E235E001
:101450003093110620931006C82ED12C760130E16E
:10146000E31AF1080E94B3212B013C01809104068C
:101470001F928F9303EE11E01F930F934E0149E2E9
:10148000840E911C9F928F920E94BC37809105061A
:101490001F928F931F930F935E0155E1A50EB11C10
:1014A000BF92AF920E94BC37809106061F928F9325
:1014B0001F930F938E010F5F1F4F1F930F930E9477
:1014C000BC37A401B70181E090E00E94E91BA501AF
:1014D000B70189E190E00E94E91BA801B70181E30F
:1014E00090E00E94E91B80919002909191029201FC
:1014F000281B390B0FB6F894DEBF0FBECDBF243FBB
:1015000051E0350798F536018BE0681A71084601FD
:101510009DE0891A910882E0E82E01E0930144E100
:1015200050E0B40182E190E00E944B1A560124E0A1
:10153000A21AB10836E0C31AD108950144E150E07F
:10154000B60182E190E00E944B1A93014BE250E019
:10155000B40189E290E00E944B1A95014BE250E001
:10156000B60189E290E00E944B1A07C0293E334041
:1015700020F0509291024092900281E080934E04BC
:10158000EC960FB6F894DEBF0FBECDBFDF91CF91C2
:101590001F910F91FF90EF90DF90CF90BF90AF9091
:1015A0009F908F907F906F905F904F900895EF92F3
:1015B000FF920F931F93CF93DF93CDB7DEB764975E
:1015C0000FB6F894DEBF0FBECDBF7C01E1E0F6E0C0
:1015D00085811F928F9384811F928F9383811F92A5
:1015E0008F9329ED31E03F932F938E010F5F1F4FB3
:1015F0001F930F930E94BC37A801B70180E090E0D1
:101600000E94D01881E080934E040FB6F894DEBF9C
:101610000FBECDBF64960FB6F894DEBF0FBECDBF30
:10162000DF91CF911F910F91FF90EF9008958F92CE
:101630009F92AF92BF92CF92DF92EF92FF920F9361
:101640001F93CF93DF93CDB7DEB72A970FB6F894E9
:10165000DEBF0FBECDBFC0900101D0900201C81601
:10166000D90609F06CC10E94B3214B015C0182E0F4
:10167000B694A794979487948A95D1F7E090FD0546
:10168000F090FE05A701415F5F4FE091FF05F091EB
:10169000000620918C0230918D02C401821B930BB5
:1016A0000B97A8F130918B0220918A0231111DC055
:1016B000022F10E0DA0157FF02C0D7015096B5950E
:1016C000A7950A171B071CF530918902032F10E01C
:1016D000DF01F7FD1196B595A7950A171B07BCF416
:1016E0002F5F20938A023F5F0CC0313081F42223A8
:1016F00071F030918902332351F0215020938A02F6
:1017000031503093890290928D0280928C02209108
:101710008C0230918D02B401621B730B20918A02FE
:10172000653F714080F0622F70E0CA0157FD01965D
:10173000959587956817790731F43196339718F0A6
:1017400081E080938B0221111CC08091890281115C
:1017500018C080918B028130A1F48091880287307B
:1017600020F48F5F809388020AC0D0925004C09208
:101770004F041092020110920101109288021092FF
:101780008B028091F002882311F080E007C08091E5
:1017900088028111D2C081E0809388029091F10289
:1017A000911107C090918802923019F493E09093C0
:1017B00088029091F202911107C0909188029330B3
:1017C00019F494E09093880290918802981305C0D0
:1017D00080918B02882339F00FC0973069F4809193
:1017E0008B02813049F4293038F4809189028332A8
:1017F00018F4869590E002C08AE090E00E941206FC
:10180000C0908802D12CF601EE0FFF1FEE0FFF1FD4
:10181000E556FD4F80809180A280B380C501B40160
:101820000E94C2330E949333162F70E080E090E054
:101830000E9481309B01AC01C501B4010E941B32A2
:1018400020E030E040E752E40E94E2300E94C233E0
:101850000E9493331F926F931F921F938EED91E01E
:101860009F938F938E010F5F1F4F1F930F930E94C3
:10187000BC3722EAE22E29E0F22EF0921106E09225
:101880001006B60133E0660F771F3A95E1F7675D02
:101890007B4F28E030E040E050E084EC92E00E9492
:1018A000DB2E44EC52E060E070E082E290E00E94C7
:1018B000D018F0921106E0921006A80169E070E0DD
:1018C00082E290E00E94D01881E080934E04E09183
:1018D0008902F0E0AF014F5C5F4F01E028E030E0AB
:1018E00068E070E080E390E08E1B9F0B0E94C419BB
:1018F000C0908A02D12C29E030E02C193D096627DE
:1019000077276C197D09E12C00E04FE350E082E27B
:1019100090E00E944B1A9601215F3F4FB601695F2C
:101920007F4F4FE350E082E290E00E944B1A0FB6E7
:10193000F894DEBF0FBECDBF02C081E02FCF2A9644
:101940000FB6F894DEBF0FBECDBFDF91CF911F91D0
:101950000F91FF90EF90DF90CF90BF90AF909F904E
:101960008F900895CF92DF92EF92FF92CF93DF9303
:101970000E9437232093010630930206409303060A
:1019800050930406C62F60930506D72F7093060662
:10199000652F70E080E090E00E9481306B017C0157
:1019A0006C2F70E080E090E00E94813020E030E019
:1019B00040E752E40E941A339B01AC01C701B60113
:1019C0000E941C326B017C016D2F70E080E090E082
:1019D0000E94813020E030E041E655E40E941A3355
:1019E0009B01AC01C701B6010E941C326093BB028F
:1019F0007093BC028093BD029093BE0288E60E9461
:101A0000341B83E090E00E94E41B0E94871B81E06E
:101A100090E00E943E1B81EF95E00E940D20982FE0
:101A200092959F708F702AE0929F800D1124809371
:101A3000BF02DF91CF91FF90EF90DF90CF9008959C
:101A4000CF93DF93EC0161E089E00E943D21E0E863
:101A5000F0E0908190689083A0919802B0919902F3
:101A60009E010E94FB31DC01CB012AE0B695A795CF
:101A7000979587952A95D1F7909389008093880050
:101A800080919A02806180938100DF91CF910895C7
:101A90002F923F924F925F926F927F928F929F927E
:101AA000AF92BF92CF92DF92EF92FF920F931F936C
:101AB000CF93DF93CDB7DEB762970FB6F894DEBF52
:101AC0000FBECDBF0E94B20C8091D9029091DA0274
:101AD000A091DB02B091DC0289879A87AB87BC8733
:101AE00030900306032D10E020900206A22CB12CAA
:101AF00080900106912CD401A053B84FBA8BA98BCA
:101B0000B3E0AB16B10444F4E1E38E1AE8EF9E0AA9
:101B1000FCE0AF0EB11C02C089889A88B401092C80
:101B2000000C880B990B0E94833020E030E048ECD9
:101B300052E40E941A330E94C2336B017C0120E000
:101B400030E040E85EE30E94E2300E94C2336983E5
:101B50007A838B839C83B40164597D4E072E000CDD
:101B6000880B990B0E94833020E030EA46EB53E467
:101B70000E94E2300E94C2332B013C01B5016F5F2D
:101B80007F4F072E000C880B990B0E94833021E0B9
:101B90003DEC44EF51E40E94E2300E94C2334B011D
:101BA0005C0124E631EA45E15AE4C301B2010E9436
:101BB0001B32A50194010E941C324B015C01B8014B
:101BC000110F880B990B0E9483309B01AC01C5015A
:101BD000B4010E941C324B015C01A701960160E038
:101BE00070E080E090E40E941B3229813A814B81B1
:101BF0005C810E941C329B01AC01C501B4010E94B2
:101C00001C3220E030E94EEB54E40E941B326B01A1
:101C10007C0120E030E044EB53E469857A858B85D4
:101C20009C850E941A339B01AC01C701B6010E943A
:101C30001B326B017C012DE430E54CE75FE30E9431
:101C4000E23026EB33EC42EB53E40E941C320E945C
:101C5000A5064B015C0123E633E54CE75FE3C701D2
:101C6000B6010E94E23021EC3AE34CE853E40E94D2
:101C70001C320E94A50669837A838B839C832BED9B
:101C80003FE049E450E4C501B4010E94E23020E0A5
:101C900030E044E353E40E941A330E94C1342B0124
:101CA0003C01A5019401C501B4010E941C322BED39
:101CB0003FE049E450E40E94E23020E030E044E3B9
:101CC00053E40E941A330E94C1344B015C0128EB9B
:101CD0003EE145EF5FE3C301B2010E94E2309B01A8
:101CE000AC0169817A818B819C810E941C322B011D
:101CF0003C012AE037ED43EA5CE3C501B4010E94F0
:101D0000E2309B01AC01C301B2010E941C320E946F
:101D1000A5064B015C0126E036E441EC54E3C70123
:101D2000B6010E94E2309B01AC0162E173E88BEBEB
:101D300091E40E941B322BED3FE049E450E40E9405
:101D4000E23020E030E044E353E40E941A336B01B8
:101D50007C010E94C1346D837E838F8398872BED35
:101D60003FE049E450E4C501B4010E94E23020E0C4
:101D700030E044E353E40E941A334B015C010E94BB
:101D8000C1342B013C019B01AC016D817E818F81AF
:101D900098850E94E2300E94883220E030E044E3DF
:101DA00053E40E94E2302BED3FE049E450E40E940E
:101DB0001A336D837E838F839887C501B4010E9497
:101DC00015334B015C01C701B6010E941533A30115
:101DD00092010E94E230A50194010E94B63220E0F7
:101DE00030E044E353E40E94E2302BED3FE049E46D
:101DF00050E40E941A3320E030E040E751E40E94B2
:101E00001A336B017C0120E030E040E751E4698146
:101E10007A818B819C810E941A334B015C0120E006
:101E200030E040EC51E4C701B6010E941A330E9431
:101E3000C23320E030E040EC51E40E94E2309B01EC
:101E4000AC01C701B6010E941B326B017C0120E08E
:101E500030E0A9010E947C3087FF0AC020E030E01A
:101E600040EC51E4C701B6010E941C326B017C01B9
:101E70008091DD029091DE02A091DF02B091E0023C
:101E80008D879E87AF87B88B8091D5029091D602BF
:101E9000A091D702B091D80289839A83AB83BC8387
:101EA00020E030E040E451E46091E1027091E20210
:101EB0008091E3029091E4020E941C322B013C01CC
:101EC00020E030E040E751E469857A858B859C8588
:101ED0000E941A339B01AC01C301B2010E941B3264
:101EE0002B013C01A7019601C501B4010E941B32E0
:101EF0009B01AC01C301B2010E941B326B017C014A
:101F000020E030E040EC51E40E941A330E94C233DA
:101F100020E030E040EC51E40E94E2309B01AC0153
:101F2000C701B6010E941B324B015C0120E030E08A
:101F3000A9010E947C3087FF0AC020E030E040EC1D
:101F400051E4C501B4010E941C324B015C01609157
:101F5000E70270E080E090E00E94813020E030E015
:101F600040E752E40E941A332B013C019B01AC0173
:101F7000C501B4010E941C326093AB027093AC02A5
:101F80008093AD029093AE022D813E814F815885A2
:101F900069817A818B819C810E941B329F772BED16
:101FA0003FE049E450E40E94E23020E030E044E3C6
:101FB00053E40E941A330E94133520E030E040E8D9
:101FC0005FE30E941C329B01AC0160E070E080E89E
:101FD0009FE30E941A330E94E632905820E030E0DE
:101FE00044E353E40E94E2302BED3FE049E450E447
:101FF0000E941A33E980FA800B811C812D813E8179
:102000004F8158850E94EB079B01AC01C501B401CB
:102010000E941C32A30192010E941C326093AF0205
:102020007093B0028093B1029093B2026D857E8569
:102030008F8598890E94CF3426E931E24EE05DE336
:102040000E94E23026E233E545E55FE30E941C3260
:102050002D813E814F8158850E94EB076B017C01E9
:102060009B01AC01C501B4010E941C32A301920185
:102070000E941C326093B3027093B4028093B50245
:102080009093B602A7019601C501B4010E941B32CC
:102090006093A3027093A4028093A5029093A6027A
:1020A000E980FA800B811C812D813E814F8158850A
:1020B00060E070E080E991E40E94EB079B01AC01D5
:1020C000C501B4010E941C32A30192010E941C327E
:1020D0006093B7027093B8028093B9029093BA02EA
:1020E0002D813E814F81588560E070E080EA91E467
:1020F0000E94EB079B01AC01C501B4010E941B3299
:10210000A30192010E941C3260939F027093A0026F
:102110008093A1029093A2022BEA3AEA4AE25EE39C
:102120000E941B3260939B0270939C0280939D02DD
:1021300090939E022D813E814F81588560E070E032
:1021400080E990EC0E94EB079B01AC01C501B40152
:102150000E941B326093A7027093A8028093A90289
:102160009093AA0221E0432D622D89899A890E94C9
:10217000D9061092F5027C3029F486EF860F843060
:10218000E0F457C07A3051F4613009F452C0633042
:10219000A0F081E08093F50282E00DC0783069F410
:1021A00083EE860F823008F444C0662331F082E06B
:1021B0008093F50283E08093F4028091BF02813026
:1021C00021F493E09093F50205C0843029F48093C4
:1021D000F50281E08093F40283EF860F833030F4C0
:1021E00085E08093F50281E08093F4027C3059F41D
:1021F000693011F486E003C06930D8F487E0809339
:10220000F50281E014C0713061F4693011F488E0A6
:1022100003C06A3071F489E08093F5027093F40290
:1022200008C0793031F48AE08093F50284E080932D
:10223000F40211E02091B3023091B4024091B50252
:102240005091B6026091BB027091BC028091BD02B8
:102250009091BE020E94B43418160CF010E08091E8
:10226000010690E0212F4091030660910206805301
:10227000984F0E94D9066093C0027093C102809368
:10228000C2029093C3028091E60290E062960FB67C
:10229000F894DEBF0FBECDBFDF91CF911F910F919C
:1022A000FF90EF90DF90CF90BF90AF909F908F9076
:1022B0007F906F905F904F903F902F900C94200DE7
:1022C000EF92FF920F931F93CF93DF931F92CDB79F
:1022D000DEB77C01FC0100811181C80169830E9485
:1022E000A3316981681719F0C8010E94AB31C70199
:1022F0000F90DF91CF911F910F91FF90EF90089574
:102300000E949737EF92FF920F931F93CF93DF9323
:10231000EC017B018A0188819981009729F02A814B
:102320003B8124173507F8F4B8016F5F7F4F0E9497
:10233000CD36009759F0998388831B830A832C81BB
:102340003D81232B81F4FC0110820DC0888199818D
:10235000009711F00E943536198218821D821C8266
:102360001B821A8207C01D830C83B7018881998163
:102370000E94B537CE01DF91CF911F910F91FF9051
:10238000EF900895FC0180819181009711F00C94E9
:10239000B42E60E070E0CB010895FC01248135810A
:1023A000232B31F421E061157105A1F0FB0108C078
:1023B000FC01808191816115710531F421E0FC01FE
:1023C0008081882339F005C00E94AC3721E0892B39
:1023D00009F020E0822F08950F931F93CF93DF938E
:1023E0008C01EB01FC01808191810097B1F0688143
:1023F00079816115710579F0428153812C813D818C
:102400004217530740F00E94B5378C819D81F80137
:102410009583848313C00E94353688819981F801A1
:10242000918380838A819B81938382838C819D8128
:1024300095838483198218821B821A821D821C82D2
:10244000DF91CF911F910F910895FC0180819181BF
:102450000C943536FC01118210821382128215828F
:1024600014826115710551F0FB0101900020E9F71C
:102470003197AF01461B570B0C9482110895BF9200
:10248000CF92DF92EF92FF920F931F93CF93DF9340
:102490007C016B01EA0189012417350720F48D2F97
:1024A000E901042F182F68E772E0C7010E942A1281
:1024B000D60114968D919C911597C817D907C8F528
:1024C0008017910708F48C01D601ED91FC911197CA
:1024D000E00FF11FB08010824D915C91BA016C0F3A
:1024E0007D1F6115710561F0FB0101900020E9F786
:1024F0003197AF01461B570BC7010E94821113C0D1
:10250000F70180819181009711F00E943536D70143
:1025100011961C921E9215961C921E921497139659
:102520001C921E921297D601ED91FC91E00FF11FC3
:10253000B082C701DF91CF911F910F91FF90EF9073
:10254000DF90CF90BF900895AF92BF92CF92DF926D
:10255000EF92FF920F931F93CF93DF9300D0CDB7ED
:10256000DEB78B016B012DE0C20ED11C7B015C013B
:10257000A61AB70A95012E0D3F1DF70161917F0143
:102580003A832983CE0101960E946011EC14FD0468
:1025900089F7C8010F900F90DF91CF911F910F9194
:1025A000FF90EF90DF90CF90BF90AF900895CF92C3
:1025B000DF92EF92FF920F931F93CF93DF9300D0A0
:1025C000CDB7DEB794EDE92E92E0F92E670100E079
:1025D00010E0C8010E94A331F60181936F010F5FE3
:1025E0001F4F00321105A9F78091D402843D09F4F0
:1025F0004CC080E2E5E9F1E0A4EDB2E001900D927B
:102600008A95E1F700E010E0F70161917F011A83FC
:102610000983CE0101960E9460110F5F1F4F0032A7
:10262000110591F767E571E087E390E00E94A4123D
:1026300064E671E082E890E00E94ED236CE671E0D0
:1026400088E191E00E94ED2364E771E08EEA91E079
:102650000E94ED238CE7E82E81E0F82E04E412E0DE
:10266000F70161917F011A830983CE0101960E94CF
:1026700060110F5F1F4F0035F2E01F0789F768E810
:1026800071E08AED92E00E94A4128091010690E030
:102690004297ECF40E94692582E10E94502581E076
:1026A0000E94372581E00E941E2582E00E940525B8
:1026B0008CE00E94B62480E00E949D2480E00E946D
:1026C000632481E00E94322482E00E9432248091BF
:1026D000EA028093CD028091EB028093D002809138
:1026E000EC028093D1028091ED028093D20280911E
:1026F000EE028093D3028091E60290E00E94200DCA
:102700000E94480D0F900F90DF91CF911F910F9174
:10271000FF90EF90DF90CF900895CF92DF92EF92ED
:10272000FF920F931F93CF93DF93CDB7DEB76497DC
:102730000FB6F894DEBF0FBECDBF84E595E00E94D2
:10274000F21E282F833411F08E3439F483EBE82EF7
:1027500083E0F82E00E010E037C08335B9F384E55C
:1027600095E00E94001F892B29F084E595E00E94E6
:10277000DE1EF5CF60E08EE00E940D2102C5053916
:10278000110521F184E595E02C8B0E94001F2C8916
:10279000892BD1F084E595E00E94DE1E282FF701F9
:1027A00081937F010F5F1F4F61E08EE02C8B0E94B1
:1027B0000D216AE070E080E090E00E94792160E005
:1027C0008EE00E940D212C892A30C9F6F801EE54C2
:1027D000FC4F108268E772E0CE0107960E942A1231
:1027E000E3EBF3E001900020E9F73197E35BF3407E
:1027F0008091B303833409F062C08091B4038D34B7
:1028000041F48091B5038E3471F50AE427E330E09A
:102810002DC08E3461F48091B5038133E1F08233B1
:10282000F1F0833301F505E92EEA31E01FC083356D
:1028300041F48091B5038D34B1F405E924E432E02C
:1028400015C08A3481F48091B5038D3461F405E9B3
:102850002AED32E00BC005E922E830E007C005E9C7
:1028600028E131E003C000E020E030E0C12CD12CB1
:10287000E350EE2EF12C10E0C601820F931FEC14F2
:10288000FD0444F49A83898360E0CE0101960E949E
:102890006011ACC2C016D106ACF7F601ED54FC4F86
:1028A00063819A838983CE0101962C8B3B8B0E9496
:1028B0006011FFEFCF1ADF0A3B892C89DDCF8E3400
:1028C00009F0DAC163EB73E0CE0101960E942A128F
:1028D000BE016F5F7F4FCE0107960E94EC11CE01C3
:1028E00001960E94251223E030E041E050E0BE0155
:1028F000695F7F4FCE0101960E943F126EE372E046
:10290000CE0101960E94CD11182FCE0101960E9492
:1029100025121111A7C323E030E041E050E0BE01D1
:10292000695F7F4FCE0101960E943F1261E472E021
:10293000CE0101960E94CD11182FCE0101960E9462
:102940002512111192C323E030E041E050E0BE01B6
:10295000695F7F4FCE0101960E943F1264E472E0EE
:10296000CE0101960E94CD11182FCE0101960E9432
:10297000251211117DC323E030E041E050E0BE019B
:10298000695F7F4FCE0101960E943F1267E472E0BB
:10299000CE0101960E94CD11182FCE0101960E9402
:1029A0002512111168C323E030E041E050E0BE0180
:1029B000695F7F4FCE0101960E943F126AE472E088
:1029C000CE0101960E94CD11182FCE0101960E94D2
:1029D0002512111183C323E030E041E050E0BE0135
:1029E000695F7F4FCE0101960E943F126DE472E055
:1029F000CE0101960E94CD11182FCE0101960E94A2
:102A0000251211116EC323E030E041E050E0BE0119
:102A1000695F7F4FCE0101960E943F1260E572E030
:102A2000CE0101960E94CD11182FCE0101960E9471
:102A30002512111159C323E030E041E050E0BE01FE
:102A4000695F7F4FCE0101960E943F1263E572E0FD
:102A5000CE0101960E94CD11182FCE0101960E9441
:102A60002512111144C323E030E041E050E0BE01E3
:102A7000695F7F4FCE0101960E943F1266E572E0CA
:102A8000CE0101960E94CD11182FCE0101960E9411
:102A9000251211112FC323E030E041E050E0BE01C8
:102AA000695F7F4FCE0101960E943F1269E572E097
:102AB000CE0101960E94CD11182FCE0101960E94E1
:102AC000251211111AC323E030E041E050E0BE01AD
:102AD000695F7F4FCE0101960E943F126CE572E064
:102AE000CE0101960E94CD11182FCE0101960E94B1
:102AF0002512111105C323E030E041E050E0BE0192
:102B0000695F7F4FCE0101960E943F126FE572E030
:102B1000CE0101960E94CD11182FCE0101960E9480
:102B200025121111F0C223E030E041E050E0BE0177
:102B3000695F7F4FCE0101960E943F1262E672E00C
:102B4000CE0101960E94CD11182FCE0101960E9450
:102B500025121111DBC223E030E041E050E0BE015C
:102B6000695F7F4FCE0101960E943F1265E672E0D9
:102B7000CE0101960E94CD11182FCE0101960E9420
:102B800025121111C6C223E030E041E050E0BE0141
:102B9000695F7F4FCE0101960E943F1268E672E0A6
:102BA000CE0101960E94CD11182FCE0101960E94F0
:102BB00025121111B1C223E030E041E050E0BE0126
:102BC000695F7F4FCE0101960E943F126BE672E073
:102BD000CE0101960E94CD11182FCE0101960E94C0
:102BE000251211119CC223E030E041E050E0BE010B
:102BF000695F7F4FCE0101960E943F126EE672E040
:102C0000CE0101960E94CD11182FCE0101960E948F
:102C10002512111187C223E030E041E050E0BE01EF
:102C2000695F7F4FCE0101960E943F1261E772E01B
:102C3000CE0101960E94CD11182FCE0101960E945F
:102C40002512111172C223E030E041E050E0BE01D4
:102C5000695F7F4FCE0101960E943F1264E772E0E8
:102C6000CE0101960E94CD11182FCE0101960E942F
:102C7000251211116EC2BAC0833509F0B7C0809118
:102C8000B403843409F0B2C08091B503843509F0EF
:102C9000ADC063EB73E0CE0101960E942A12BE0123
:102CA0006F5F7F4FCE0107960E94EC11CE01019617
:102CB0000E9425120E94692525E030E043E050E0A3
:102CC000BE01695F7F4FCE0101960E943F12CE0187
:102CD00001960E94C211862F0E941E25CE010196E8
:102CE0000E94251227E030E045E050E0BE01695F18
:102CF0007F4FCE0101960E943F12CE0101960E94A5
:102D0000C211862F0E943725CE0101960E942512FE
:102D100029E030E047E050E0BE01695F7F4FCE011F
:102D200001960E943F12CE0101960E94C211862F89
:102D30000E945025CE0101960E9425122BE030E022
:102D400049E050E0BE01695F7F4FCE0101960E94CD
:102D50003F12CE0101960E94C211862F0E94B62416
:102D6000CE0101960E9425122DE030E04BE050E0AC
:102D7000BE01695F7F4FCE0101960E943F12CE01D6
:102D800001960E94C211862F0E949D24CE010196B9
:102D90000E9425122FE030E04DE050E0BE01695F57
:102DA0007F4FCE0101960E943F12CE0101960E94F4
:102DB000C211862F0E946324CE0101960E94251223
:102DC00020E130E04FE050E0BE01695F7F4FCE016F
:102DD00001960E943F12CE0101960E94C211862FD9
:102DE0000E940525CE0101960E9425120E94D7124D
:102DF0008091B303833509F030C18091B4038135EC
:102E000009F02BC18091B503803509F026C18CE112
:102E100095E00E948C256091D5027091D602809138
:102E2000D7029091D80247E050E00E94022687E73F
:102E300092E00E94AD2584E195E00E948C2560918E
:102E4000D9027091DA028091DB029091DC0247E0B6
:102E500050E00E94022689E792E00E94AD258CE0B6
:102E600095E00E948C256091DD027091DE028091D8
:102E7000DF029091E00247E050E00E94022687E7DF
:102E800092E00E94AD2584E095E00E948C2560913F
:102E9000E1027091E2028091E3029091E40240E04D
:102EA00050E00E94022689E792E00E94AD258CEF57
:102EB00094E00E948C258091E5020E94F02587E72E
:102EC00092E00E94AD2584EF94E00E948C258091D1
:102ED000E7020E94F02587E792E00E94AD258CEE84
:102EE00094E00E948C25C090F3020C2C000CDD08AD
:102EF000EE08FF08F7FE0CC08DE20E94F72566275A
:102F00007727CB016C197D098E099F094AE003C020
:102F10004AE0C701B6010E94AF2589E792E00E940E
:102F2000AD2584EE94E00E948C258091E8020E94F9
:102F3000F02587E792E00E94AD258CED94E00E9499
:102F40008C258091E9020E94F02589E792E00E9499
:102F5000AD2584ED94E00E948C258091EA020E94C8
:102F6000F02587E792E00E94AD258CEC94E00E946A
:102F70008C258091EB020E94F02587E792E00E9469
:102F8000AD2584EC94E00E948C258091EC020E9497
:102F9000F02589E792E00E94AD258CEB94E00E9439
:102FA0008C258091ED020E94F02587E792E00E9437
:102FB000AD2584EB94E00E948C258091EE020E9466
:102FC000F02587E792E00E94AD258CEA94E00E940C
:102FD0008C258091EF020E94F02589E792E00E9403
:102FE000AD2584EA94E00E948C258091F0020E9435
:102FF000F02587E792E00E94AD258CE994E00E94DD
:103000008C258091F1020E94F02587E792E00E94D2
:10301000AD2584E994E00E948C258091F2020E9403
:10302000F02589E792E00E94AD258CE894E00E94AB
:103030008C258091E6020E94F02589E792E00E94AB
:10304000AD2588E191E00E94D91A8EEB94E00E94B0
:10305000AD2582E794E00E948C25CE0107960E9460
:1030600025128FC001E010E008C005E010E005C0A7
:1030700009E010E002C00DE010E02B853C8543E044
:1030800050E0BE01695F7F4FCE0101960E943F1262
:1030900089819A810097F1F00E94B02E6D877E871A
:1030A0008F87988B6E0181E1C80ED11CFE013D9681
:1030B0007F010E1B1F0BC8018E0D9F1DF701619133
:1030C0007F019A8B898BC6010E946011EC14FD046C
:1030D00091F788CE60E070E0CB01E0CF01E110E035
:1030E00026C002E110E023C003E110E020C004E1AB
:1030F00010E01DC005E110E01AC006E110E017C0A5
:1031000007E110E014C008E110E011C009E110E08F
:103110000EC00AE110E00BC00BE110E008C00CE1AA
:1031200010E005C00DE110E002C00EE110E02B85BB
:103130003C8543E050E0BE01695F7F4FCE010196C0
:103140000E943F12CE0101960E94C2111E870D8778
:1031500013C02B853C8543E050E0BE01695F7F4F83
:10316000CE0101960E943F12CE0101960E94C2112B
:103170008FE190E09E878D87CE010D960E946011B1
:1031800031CE64960FB6F894DEBF0FBECDBFDF918F
:10319000CF911F910F91FF90EF90DF90CF90089506
:1031A000AF92BF92CF92DF92EF920F931F93CF9384
:1031B000DF938C01EB016A01CA010E94631DE0915B
:1031C0001006F0911106309729F03396E4912E2FD6
:1031D00030E002C020E030E06091FF057091000611
:1031E000601B710BDB01A81BB90BB7FD1196B595E0
:1031F000A7955801AA0EBB1E2C0F3D1F800F911FD3
:10320000AC014A0F5B1FE12C00E0BE01C501019734
:103210000E944B1AA601BE01C501DF91CF911F91FB
:103220000F91EF90DF90CF90BF90AF900C94E91B7F
:10323000209108063091090682179307E0F5209146
:103240000A0630910B0662177307A8F5FC0123E00C
:10325000F595E7952A95E1F7A0910C06B0910D063A
:103260006A9F90016B9F300D7A9F300D1124E20F01
:10327000F31F20910E0630910F06E20FF31F9C0101
:10328000277033276081442359F080E890E002C022
:10329000959587952A95E2F78095862380830895F2
:1032A00040E850E0CA0102C0959587952A95E2F75B
:1032B0009C01262B208308958F929F92AF92BF92FC
:1032C000CF92DF92EF92FF920F93CF93DF935C0147
:1032D0006B014A0179011E141F04ACF4C0E0D0E078
:1032E000C815D9054CF4402FB601CE018A0D9B1D9F
:1032F0000E9418192196F4CF8FEFC81AD80A81E0DE
:10330000E81AF108E8CFDF91CF910F91FF90EF908D
:10331000DF90CF90BF90AF909F908F900895409195
:103320001006509111064115510509F1FA01349624
:1033300094913196E491803209F48EE68917B8F0C1
:10334000282F30E0892F90E0BC016E0F711D2617E9
:1033500037076CF4FA01649161110CC03196E49165
:10336000E11108C0FA013296E4918E2F0BC080E083
:1033700090E00895281B390B2A5F3F4FFA01E20FB6
:10338000F31F849190E008953F924F925F926F9265
:103390007F928F929F92AF92BF92CF92DF92EF92E5
:1033A000FF920F931F93CF93DF936C017B014A0130
:1033B0002901302ECA018C199D09E901C61BD70BC2
:1033C00097FF07C0919581959109AA24AA94BA2CD8
:1033D00003C0AA24A394B12CD7FF06C0D195C195F0
:1033E000D1090FEF1FEF02C001E010E08C179D071D
:1033F000FCF02E01440C551C3201681A790AC81BD6
:10340000D90BCC0FDD1F432DB701C6010E9418193F
:10341000C814D90471F1161417041CF0640C751C3F
:1034200004C06C0E7D1EE00EF11ECA0CDB1CEBCF3F
:103430003C01660C771C43018C1A9D0A9C012C1BD5
:103440003D0BE901CC0FDD1F432DB701C6010E94E2
:103450001819E414F50469F0181419041CF0860C0A
:10346000971C04C08C0E9D1ECA0CDB1CE00EF11EC6
:10347000EBCFDF91CF911F910F91FF90EF90DF90F5
:10348000CF90BF90AF909F908F907F906F905F9004
:103490004F903F9008958F929F92AF92BF92CF929C
:1034A000DF92EF920F931F93CF93DF934C016B0149
:1034B0005A01E901102F481759072CF4982F892D2C
:1034C0004A01A92EB82ECC15DD051CF0E11216C05C
:1034D00007C0E11255C09C2F8D2FE601C92ED82EB2
:1034E0009E012C193D092F5F3F4FA501481959092D
:1034F0004F5F5F4F0E2DB601C4013FC0012F9601F3
:10350000A501B601C4010E94C419CC16DD064CF415
:10351000012F9E01A501B6016F5F7F4FC5010E947B
:10352000C4198A149B0444F4012F9E01A401BE0116
:10353000C50101970E94C419BE0161507109C616E8
:10354000D70644F4012F96012F5F3F4FA401C40119
:103550000E94C41982E0E81601F19E012C193D0970
:1035600021503109A818B908A50141505109B601E7
:103570006F5F7F4F0E2DC40101960E945C190DC034
:10358000012F9E01A501BE01C4010E94C4199C2FF8
:103590008D2FE601C92ED82EBBCFDF91CF911F9181
:1035A0000F91EF90DF90CF90BF90AF909F908F9052
:1035B00008950F931F93CF93DF93CEEBD4E08C014C
:1035C0000E5B1440C8018C0F9D1F0E94A33189938C
:1035D00085E0C435D807B1F78EEB94E0DF91CF9149
:1035E0001F910F910895CF92DF92EF92FF92CF93A8
:1035F000DF93EC0170E080E090E00E94833020E0F7
:1036000030E04CEE51E40E94E23024EF3DEF47EE13
:1036100051E40E941B320E94C2336B017C01CE0137
:103620008C589540BC0180E090E00E9481302CEFE6
:103630003EE241EB53E40E94E2300E94C2339B0120
:10364000AC01C701B6010E941C3220E030E040E826
:103650005FE30E941C320E948C33DF91CF91FF9078
:10366000EF90DF90CF90089591E09093BD04809308
:1036700023061092BC041092BB0408959091980404
:103680009111FCCF813208F080E291E09093980490
:10369000909397042FEF2093960410929504280F8F
:1036A000209394049093930490919304906D90933D
:1036B000930490919204913061F41092920490914D
:1036C00093049093BB009091BC0093FDF8CF95ECD0
:1036D00001C095EE9093BC00909198049130E1F375
:1036E00090919504981710F480919504A2E7B4E0A6
:1036F0002BE934E0F9019E2F921B981718F49D9145
:103700009193F9CF10929A0480939904089520918F
:10371000BB0490912306213208F04AC0809198049E
:103720008111FCCF32E03093980431E0309397045C
:103730003FEF309396041092950420939404A2E5F1
:10374000B4E042E754E0FA013E2F341B321718F47C
:103750003D913193F9CF1092930420919304990FE6
:10376000922B9093930490919204913061F4109273
:103770009204909193049093BB009091BC0093FDB0
:10378000F8CF95EC01C095EE9093BC009091980411
:103790009230E1F3909196049F3F79F080919604E6
:1037A000803241F080919604803331F084E005C08E
:1037B00081E003C082E001C083E01092BC0410925B
:1037C000BB041092BD040895682F81EF95E00C941E
:1037D00059202F923F924F925F926F927F928F92D9
:1037E0009F92AF92BF92CF92DF92EF92FF920F9390
:1037F0001F93CF93DF93CDB7DEB767970FB6F894DB
:10380000DEBF0FBECDBF7C015B01E0911006F091E1
:103810001106309709F43EC13396E491DA010D9018
:103820000020E9F711976D01C41AD50A5D834C8316
:103830004E2F50E05B8B4A8B21E0C21AD108C601A3
:103840000196181619060CF025C1EC81FD81319105
:10385000FD83EC836091100670911106FB01339695
:1038600094903032A9F48EE60E948F19182F892E79
:1038700001E080911206811100E0292D30E0412FF6
:10388000582DB501C7010E945C19612E782CCAC061
:10389000FB013496249131968491321708F4C0C00C
:1038A000432F50E090E0FC01E20FF11D4E175F073F
:1038B0000CF0B6C0321B492D50E05F8B4E8B495F38
:1038C0005F4F23E0559547952A95E1F7FB01249139
:1038D000A32FB0E02111C4C03196E491E111C0C022
:1038E000FB0132963490A49F8001A59F100DB49FD8
:1038F000100D1124309EC001319E900D11240696AA
:10390000860F971F632C712CB701660D771D161655
:1039100017060CF087C06E897F896A0D7B1D16160D
:1039200017060CF07FC04B8321E02E8330911206E6
:1039300031111E828D879C01832D90E09F878E8799
:10394000FA013197F98BE88B4E895F89485051090C
:103950005A874987822F5D85851B831508F062C0D1
:103960003A832983412C512C812C912CF701E80FAB
:10397000F11DF887EF835B81851608F04EC0E98161
:10398000FA8124905B81513041F0888999898816A9
:10399000990619F499858A8502C0942D852D092FE1
:1039A000182FF8013896FC87EB8704151505F4F0FD
:1039B0004E895F8940175107CCF0B8016A0D7B1D15
:1039C00020FE0BC0409112068F8198852C8B3D8B79
:1039D0000E9418192C893D8909C04E818F819885D4
:1039E0002C8B3D8B0E9418193D892C8926940F5FE2
:1039F0001F4F8B859C8508171907B9F69FEF891A09
:103A0000990AE8E04E0E511C49815A818E859F85A6
:103A1000480F591F5A834983AECF2F5F3F4F9ACF2C
:103A2000612C712CE60CF71C1C141D0484F401E0BD
:103A300080911206811100E02A893B8941E050E023
:103A4000B501C7010E945C19FFEFEF1AFF0A8091D0
:103A5000080690910906E816F9060CF4EDCE1AC096
:103A6000FD013696E60FF71F34900696860F971FD6
:103A70006A5F7F4FFB01AE2FA61BA31708F042CF52
:103A80001491149FD001159FB00D11248A0F9B1F14
:103A90003196F1CF67960FB6F894DEBF0FBECDBF5B
:103AA000DF91CF911F910F91FF90EF90DF90CF901A
:103AB000BF90AF909F908F907F906F905F904F904E
:103AC0003F902F900895EF92FF920F931F93CF9303
:103AD000DF93EC0109900020E9F72197C81BD90B6F
:103AE0008C01E12CF12C2197CE01019618161906B4
:103AF00074F4F80181918F010E948F19E80EF91E6C
:103B00001C161D0684F7FFEFEF1AFF0AECCFC70162
:103B1000DF91CF911F910F91FF90EF9008958091C9
:103B20001306882311F1F89440910E0650910F0668
:103B3000209115063091160680911706909118066F
:103B40004217530749F490930F0680930E06509343
:103B50001A064093190608C030930F0620930E06EC
:103B600090931A0680931906789408958F929F92E5
:103B7000AF92BF92CF92DF92EF92FF920F931F937B
:103B8000CF93DF93E0900101F0900201E416F50677
:103B900009F0CCC020915104222331F0109222066A
:103BA00010922106109251044B016C010E94631D7A
:103BB0008C01A090FF05B09000060E94B3212091D7
:103BC0001F0630912006AB01421B530B4B355105AC
:103BD00008F4ACC00A0D1B1D7093200660931F06ED
:103BE000C0912106D0912206C017D10768F47E014A
:103BF0005FEFE51AF50AF0922206E092210681E0D5
:103C000088169104D1F50DC0F0925004E0924F0453
:103C100010920201109201011092220610922106C8
:103C200085C08CEA95E09093110680931006A6015A
:103C30006FEF7FEFC5018E199F090E94E91B82EA91
:103C400099E0909311068093100647E0E416F10482
:103C500028F48FE090E08C1B9D0B09C0C8010697EB
:103C6000E816F90638F0CE014196801B910B0E94B0
:103C7000D70A59C089E090E0FACF52E08516910446
:103C800079F582EA99E0909311068093100687E017
:103C9000E816F10418F4CE0105970CC0C801069788
:103CA000E816F90628F0C8018C1B9D0B079702C087
:103CB0008FEF9FEF0E94D70A8CEA95E09093110650
:103CC000809310068091FF059091000620912106B7
:103CD00030912206A60166E070E0821B930B21C0A2
:103CE0008CEA95E0909311068093100601E021E0A4
:103CF00030E04EE350E061E070E081E090E00E944F
:103D0000C4192EE030E04EE350E06EE070E081E058
:103D100090E00E94C419A60164E070E0C5018E190C
:103D20009F090E94E91B81E080934E04DF91CF91AF
:103D30001F910F91FF90EF90DF90CF90BF90AF90C9
:103D40009F908F9008950895CF92DF92EF92FF9207
:103D50000F931F93CF93DF936C017A018B01C0E027
:103D6000D0E0CE15DF0589F0D8016D918D01D60127
:103D7000ED91FC910190F081E02DC6010995892B10
:103D800011F47E0102C02196ECCFC701DF91CF91E3
:103D90001F910F91FF90EF90DF90CF900895FC015D
:103DA000538D448D252F30E0842F90E0821B930BA0
:103DB000541710F0CF96089501970895FC01918D46
:103DC000828D981761F0828DDF01A80FB11D5D967D
:103DD0008C91928D9F5F9F73928F90E008958FEFEB
:103DE0009FEF0895FC01918D828D981731F0828D9F
:103DF000E80FF11D858D90E008958FEF9FEF0895F6
:103E0000FC01918D228D892F90E0805C9F4F821B59
:103E100091098F739927089584E595E00E94001F0A
:103E200021E0892B09F420E0822F0895FC01848D84
:103E3000DF01A80FB11DA35ABF4F2C91848D90E0D4
:103E400001968F739927848FA689B7892C93A089AF
:103E5000B1898C9180648C93938D848D981306C066
:103E60000288F389E02D80818F7D80830895EF9211
:103E7000FF920F931F93CF93DF93EC0181E0888F24
:103E80009B8D8C8D981305C0E889F989808185FD0B
:103E900024C0F62E0B8D10E00F5F1F4F0F731127FC
:103EA000E02E8C8DE8120CC00FB607FCFACFE88923
:103EB000F989808185FFF5CFCE010E94161FF1CFD1
:103EC0008B8DFE01E80FF11DE35AFF4FF0820B8F3F
:103ED000EA89FB898081806207C0EE89FF8960835F
:103EE000E889F98980818064808381E090E0DF91B6
:103EF000CF911F910F91FF90EF900895CF93DF9393
:103F0000EC01888D8823C9F0EA89FB89808185FDD1
:103F100005C0A889B9898C9186FD0FC00FB607FC32
:103F2000F5CF808185FFF2CFA889B9898C9185FF73
:103F3000EDCFCE010E94161FE7CFDF91CF910895FC
:103F40000E940C1F81110C948D1308953FB7F894B3
:103F50008091700690917106A0917206B0917306DF
:103F600026B5A89B05C02F3F19F00196A11DB11DD4
:103F70003FBFBA2FA92F982F8827820F911DA11D0F
:103F8000B11DBC01CD0142E0660F771F881F991F4C
:103F90004A95D1F7089585ED8093BC008091BC00CF
:103FA00084FDFCCF10929804089540914606262F78
:103FB00030E0240F311D21323105DCF420919804CA
:103FC0002430C9F4FC0180E090E0861758F4309169
:103FD00046062191DC01AC5DB94FA30FB11D2C93B6
:103FE0000196F3CF80914606680F6093460680E005
:103FF000089581E0089582E008950895E0919A047B
:1040000080919904E81730F4F0E0E556FB4F808189
:1040100090E008958FEF9FEF089590919A0480911A
:104020009904981750F4E92FF0E0E556FB4F2081F2
:1040300030E09F5F90939A0402C02FEF3FEFC901D9
:1040400008958091990490E020919A04821B91092F
:104050000895CF92DF92EF92FF920F931F93CF9329
:10406000DF937C01262F972F8A018091BD0488233E
:1040700091F0C62FD72F6E01C40ED51ECC15DD05CD
:1040800071F06991D701ED91FC910190F081E02DE3
:10409000C7010995F3CF642F822F0E94D51FC80155
:1040A000DF91CF911F910F91FF90EF90DF90CF9014
:1040B0000895CF93DF931F92CDB7DEB76983209128
:1040C000BD042223D1F02091BB04203240F021E036
:1040D00030E0FC013383228380E090E015C08091C2
:1040E000BC04E82FF0E0EE5AFB4F998190838F5F7C
:1040F0008093BC048093BB0405C061E0CE010196AF
:104100000E94D51F81E090E00F90DF91CF9108953C
:10411000089580E090E008951F920F920FB60F92DD
:1041200011242F933F934F935F936F937F938F93BC
:104130009F93AF93BF93EF93FF9384E595E00E9425
:10414000161FFF91EF91BF91AF919F918F917F913A
:104150006F915F914F913F912F910F900FBE0F90F4
:104160001F9018951F920F920FB60F9211242F9344
:104170008F939F93EF93FF93E0916405F091650512
:104180008081E0916A05F0916B0582FD12C09081FB
:1041900080916D058F5F8F7320916E05821751F0AE
:1041A000E0916D05F0E0EC5AFA4F958F80936D0524
:1041B00001C08081FF91EF919F918F912F910F907E
:1041C0000FBE0F901F901895833081F028F4813036
:1041D00099F08230A1F008958730A9F08830B9F0C5
:1041E0008430D1F4809180008F7D03C08091800065
:1041F0008F7780938000089584B58F7702C084B54F
:104200008F7D84BD08958091B0008F7703C0809129
:10421000B0008F7D8093B00008951F93CF93DF93FC
:10422000282F30E0F901E854F44F8491F901EC555E
:10423000F44FD491F901E057F44FC491CC23C9F065
:10424000162F81110E94E420EC2FF0E0EE0FFF1FEB
:10425000EA57F44FA591B4918FB7F894111105C0A6
:104260009C91ED2FE095E92302C0EC91ED2BEC93AE
:104270008FBFDF91CF911F910895CF93DF9390E08F
:10428000FC01EC55F44F2491FC01E057F44F84916C
:10429000882361F190E0880F991FFC01E458F44FE6
:1042A000C591D491FC01EA57F44FA591B4916111E5
:1042B00009C09FB7F8948881209582238883EC9168
:1042C0002E230BC0623061F49FB7F8943881822F9F
:1042D000809583238883EC912E2B2C939FBF06C05F
:1042E0008FB7F894E8812E2B28838FBFDF91CF9171
:1042F00008958F929F92AF92BF92CF92DF92EF92EA
:10430000FF926B017C010E94A61F4B015C01C1144E
:10431000D104E104F104F1F00E94A61FDC01CB01FD
:1043200088199909AA09BB09883E9340A105B105DE
:1043300070F321E0C21AD108E108F10888EE880E76
:1043400083E0981EA11CB11CC114D104E104F10446
:1043500019F7DDCFFF90EF90DF90CF90BF90AF9037
:104360009F908F9008952FB7F89460916C0670918C
:104370006D0680916E0690916F062FBF08951F9273
:104380000F920FB60F9211242F933F938F939F9309
:10439000AF93BF9380916C0690916D06A0916E06CD
:1043A000B0916F0630916B0623E0230F2D3720F478
:1043B0000196A11DB11D05C026E8230F0296A11D7F
:1043C000B11D20936B0680936C0690936D06A093AD
:1043D0006E06B0936F068091700690917106A09161
:1043E0007206B09173060196A11DB11D80937006EF
:1043F00090937106A0937206B0937306BF91AF912C
:104400009F918F913F912F910F900FBE0F901F9012
:1044100018951F920F920FB60F9211242F933F936E
:104420004F935F936F937F938F939F93AF93BF93BC
:10443000EF93FF938091B900887F803609F49CC088
:1044400068F5883209F45BC090F4803109F454C0F7
:1044500038F4882309F4F6C0883009F44DC0F6C05A
:10446000883109F44CC0803209F45DC0EFC080345B
:1044700009F468C048F4803309F455C0883309F062
:10448000E5C080939604D8C0803509F44FC08835C4
:1044900009F45DC0883409F0D9C0D6C0883909F460
:1044A000C7C0A8F4883709F467C038F4883609F41F
:1044B00063C0803709F460C0C9C0883809F4B8C047
:1044C000803909F45FC0803809F0C0C05BC0803B10
:1044D00009F486C038F4803A09F466C0883A09F4D1
:1044E0007FC0B4C0803C09F4A7C0883C09F4A4C0D4
:1044F000883B09F48AC0AAC08091930410C09091AF
:10450000950480919404981770F5E091950481E0EA
:104510008E0F80939504F0E0EE58FB4F80818093DE
:10452000BB0085EC86C0809396048EC0E091950414
:1045300081E08E0F809395048091BB00F0E0EE58EF
:10454000FB4F808390919504809194046EC0E0911C
:10455000950481E08E0F809395048091BB00F0E07C
:10456000EE58FB4F80838091970481116DC081E0EC
:104570008093920484EA61C083E08093980410924F
:104580006A06CFCF80916A06803208F051C0E09170
:104590006A0681E08E0F80936A068091BB00F0E08E
:1045A000E65BF94F8083BDCF85EC8093BC00109211
:1045B000980480916A06803230F4E0916A06F0E057
:1045C000E65BF94F108260916A0670E0E091480660
:1045D000F09149068AE496E0099510926A0636C081
:1045E00084E0809398041092470610924606E0916A
:1045F0004406F0914506099580914606811105C053
:1046000081E08093460610922406E091470681E0FF
:104610008E0F80934706F0E0EC5DF94F8081809328
:10462000BB009091470680914606981708F479CF11
:1046300085E88093BC000AC085EC8093BC00109292
:10464000980404C0109296040E94CB1FFF91EF9132
:10465000BF91AF919F918F917F916F915F914F919A
:104660003F912F910F900FBE0F901F9018951F93A1
:10467000CF93DF93CDB7DEB72B970FB6F894DEBF9D
:104680000FBECDBF88E60E94341B80E090E00E9400
:10469000E41B0E94871B87E090E00E943E1B81EF95
:1046A00095E00E940D208F77982F92959F701AEFBA
:1046B000782F919F700D112481EF95E07B870E94E8
:1046C0000D209C01332794E0359527959A95E1F7C5
:1046D000682F129F600D112481EF95E06A870E9478
:1046E0000D209C01332744E0359527954A95E1F745
:1046F000582F129F500D112481EF95E059870E9489
:104700000D2081EF95E00E940D209C01332754E09D
:10471000359527955A95E1F7482F129F400D1124A2
:1047200081EF95E048870E940D209C01332764E0CB
:10473000359527956A95E1F7382F129F300D112492
:1047400081EF95E03F830E940D20FC01FF2774E07C
:10475000F595E7957A95E1F7282F1E9F200D1124F6
:104760003F81488559856A857B8580E090E02B965E
:104770000FB6F894DEBF0FBECDBFDF91CF911F9172
:1047800008951F920F920FB60F9211242F933F930B
:104790004F935F936F937F938F939F93AF93BF9349
:1047A000EF93FF93E0919602F09197020995FF91A4
:1047B000EF91BF91AF919F918F917F916F915F9199
:1047C0004F913F912F910F900FBE0F901F90189512
:1047D0008EBD0DB407FEFDCF0895AF92BF92CF926C
:1047E000DF92EF92FF920F931F93CF93DF9300D04E
:1047F000CDB7DEB78B016B0128E0C20ED11C7B0167
:104800005C01A61AB70A95012E0D3F1DF7016191B3
:104810007F013A832983CE0101960E946011EC1436
:10482000FD0489F7C8010F900F90DF91CF911F9180
:104830000F91FF90EF90DF90CF90BF90AF900895D1
:10484000009769F0FC0101900020E9F73197AF0172
:10485000481B590BBC0184E595E00C94A41E80E034
:1048600090E008951F93CF93DF931F92CDB7DEB7EB
:10487000182F88E60E94341B8EE090E00E94E41B13
:104880000E94871B81E090E00E943E1B81EF95E033
:104890000E940D20682F113011F46E7F01C06D7FD2
:1048A00088E669830E94341B8EE090E00E94E41B3E
:1048B000698181EF95E00E9459200F90DF91CF919F
:1048C0001F910C94871BCF93C82F88E60E94341B3E
:1048D00080E090E00E94E41B8C2F6AE00E94443547
:1048E000692F20E1829F600D112481EF95E00E94E5
:1048F00059200E94871B88E60E94341B8FE090E0BD
:104900000E94E41B0E94871B81E090E00E943E1BF6
:1049100081EF95E00E940D20C82F88E60E94341B8D
:104920008FE090E00E94E41B6C2F6F7781EF95E0A1
:104930000E945920CF910C94871BCF93C82F88E6F3
:104940000E94341B81E090E00E94E41B8C2F6AE0FF
:104950000E944435692F20E1829F600D112481EF70
:1049600095E00E945920CF910C94871B1F93CF9301
:10497000DF931F92CDB7DEB7182F88E60E94341B55
:1049800082E090E00E94E41B0E94871B81E090E09F
:104990000E943E1B81EF95E00E940D2086FF18C00B
:1049A0001D3060F084EF810F6AE00E944435692F6A
:1049B00020E1829F600D1124606614C0812F6AE09F
:1049C0000E944435692F20E1829F600D11240AC0A6
:1049D000812F6AE00E944435692F20E1829F600D9B
:1049E00011246F7B88E669830E94341B82E090E08B
:1049F0000E94E41B698181EF95E00E9459200F908D
:104A0000DF91CF911F910C94871BCF93C82F88E61D
:104A10000E94341B83E090E00E94E41B8C2F6AE02C
:104A20000E944435692F20E1829F600D112481EF9F
:104A300095E00E945920CF910C94871BCF93C82FEB
:104A400088E60E94341B84E090E00E94E41B8C2FD7
:104A50006AE00E944435692F20E1829F600D112495
:104A600081EF95E00E945920CF910C94871BCF9342
:104A7000C82F88E60E94341B85E090E00E94E41B6A
:104A80008C2F6AE00E944435692F20E1829F600DDF
:104A9000112481EF95E00E945920CF910C94871B3F
:104AA000CF93C82F88E60E94341B86E090E00E94D6
:104AB000E41B8C2F6AE00E944435692F20E1829F1D
:104AC000600D112481EF95E00E945920CF910C9444
:104AD000871BCF9388E60E94341B82E090E00E94FF
:104AE000E41B0E94871B81E090E00E943E1B81EF47
:104AF00095E00E940D20C82F88E60E94341B82E0BA
:104B000090E00E94E41B6C2F6F7B81EF95E00E9488
:104B10005920CF910C94871B0F931F93CF93DF9352
:104B20008C01C0E0D0E0F801EC0FFD1F649166231A
:104B300071F0E0915405F09155050190F081E02D60
:104B400084E595E00995892B11F02196ECCFCE01F3
:104B5000DF91CF911F910F9108950C9420248F9293
:104B60009F92AF92BF920F931F93CF93DF93CDB7D6
:104B7000DEB7A1970FB6F894DEBF0FBECDBF19A266
:104B8000423008F44AE08E010F5D1F4F842E912CB5
:104B9000A12CB12CA50194010E947835E62FB90112
:104BA000CA0101501109EA3014F4E05D01C0E95C6A
:104BB000D801EC93232B242B252B61F7C8010E94ED
:104BC0002024A1960FB6F894DEBF0FBECDBFDF91B3
:104BD000CF911F910F91BF90AF909F908F900895AC
:104BE000682F70E080E090E04AE00C94AF25E091FF
:104BF0005405F09155050190F081E02D682F84E572
:104C000095E009944F925F926F927F928F929F925C
:104C1000AF92BF92CF92DF92EF92FF926B017C0135
:104C2000B42E9B01AC010E943835882319F08BE724
:104C300092E027C026013701E89477F82FEF3FEF85
:104C40004FE75FE7C301B2010E94383581110DC003
:104C50002FEF3FEF4FE75FE7C301B2010E947C30C7
:104C600018161CF48FE792E00CC02FEF3FEF4FE7D0
:104C70005FE4C701B6010E94B434181684F483E8D7
:104C800092E0FF90EF90DF90CF90BF90AF909F9019
:104C90008F907F906F905F904F900C9420242FEF17
:104CA0003FEF4FE75FECC701B6010E947C3087FD04
:104CB000E6CF20E030E0A901C701B6010E947C30B8
:104CC00087FF09C08DE20E94F7254C01F7FAF094A6
:104CD000F7F8F09402C0812C912CA12C60E070E0D8
:104CE00080E09FE3AB1440F420E030E040E251E488
:104CF0000E941A33A394F6CF9B01AC01C701B60101
:104D00000E941C322B013C010E9493336B017C01F9
:104D10000E9481309B01AC01C301B2010E941B3291
:104D20002B013C014AE0C701B6010E94AF257C017E
:104D3000E80CF91CBB2029F08EE20E94F725E80E52
:104D4000F91EDB2CDD2021F120E030E040E251E4CF
:104D5000C301B2010E94E2302B013C010E94933357
:104D60004B01A12CB12C4AE0C501B4010E94AF2532
:104D7000E80EF91EC501B4010E9481309B01AC010F
:104D8000C301B2010E941B322B013C01DA94DACF3D
:104D9000C701FF90EF90DF90CF90BF90AF909F90B2
:104DA0008F907F906F905F904F900895CF93DF9397
:104DB000CDB7DEB7CD56D1090FB6F894DEBF0FBE22
:104DC000CDBF789484B5826084BD84B5816084BD94
:104DD00085B5826085BD85B5816085BD80916E0099
:104DE000816080936E0010928100809181008260CA
:104DF0008093810080918100816080938100809107
:104E000080008160809380008091B10084608093F5
:104E1000B1008091B00081608093B00080917A00F1
:104E2000846080937A0080917A00826080937A0017
:104E300080917A00816080937A0080917A00806806
:104E400080937A001092C10010929A0410929904F3
:104E50001092BC041092BB041092980411E01093BD
:104E600097041092920461E082E10E940D2161E0BA
:104E700083E10E940D218091B9008E7F8093B9005B
:104E80008091B9008D7F8093B90088E48093B80049
:104E900085E48093BC00E0916405F091650582E0B3
:104EA0008083E0916005F09161051082E0916205D8
:104EB000F09163058FEC808310926C05E09168059A
:104EC000F091690586E08083E0916605F0916705C1
:104ED000808180618083E0916605F0916705808123
:104EE00088608083E0916605F09167058081806825
:104EF0008083E0916605F091670580818F7D8083D6
:104F000061E08EE00E943D210E94B20C0E94D71207
:104F100061E08EE00E940D2164E670E080E090E0A8
:104F20000E94792160E08EE00E940D21809113069D
:104F30008130A1F11093130620910C0630910D06DB
:104F400080910A0690910B06289F8001299F100DE1
:104F5000389F100D1124C8010E94A03590931806A7
:104F6000809317060097C1F0A8016FEF70E00E94D0
:104F7000A537F894809117069091180690930F0624
:104F800080930E06809115069091160690931A064E
:104F900080931906789402C01092130680E18093E2
:104FA00081001092800081E080939A0220E83EE325
:104FB00030939902209398023093870020938600C3
:104FC00091E19093810024EA38E030939702209396
:104FD000960280936F008091E60290E00E94200D7F
:104FE0008CEA95E0909311068093100620910C06B0
:104FF00030910D0680910A0690910B06289FA00122
:10500000299F500D389F500D11246FEF70E0809153
:105010000E0690910F060E94A5370E948F1DFF2457
:10502000F3941E012CE4220E311CAE014F5F5F4F42
:105030006A010E94B20C8090BB029090BC02A090CA
:10504000BD02B090BE025091BF02AD965FAFAD976A
:105050008091E502AE968FAFAE979091B203AC9679
:105060009FAFAC97E090AB03A0910101B09102011A
:10507000AB96BFAFAEAFAB97EBE9F2E0A896FFAF50
:10508000EEAFA897FFEFA996FFAFA99700E010E059
:105090000F5F1F4F0830110509F458C0C80102976F
:1050A000029708F448C0A896AEADBFADA897149675
:1050B0004D905D906D907C901797A3019201C50172
:1050C000B4010E94B43487FD36C0A9960FAFA997EA
:1050D000E11031C0A3019201C501B4010E94B434B2
:1050E00018164CF52FE832EC45EF5CE3C301B20132
:1050F0000E941C329B01AC01C501B4010E947C30AE
:1051000087FF19C0AD96BFADAD97B63061F40430DE
:10511000110549F4AE96EFADAE97E13021F4F1E020
:10512000AC96FFAFAC9724E630E0AB963FAF2EAF26
:10513000AB97EE24E394A8964EAD5FADA8974C5F75
:105140005F4FA8965FAF4EAFA897A2CFA9965FAD6D
:10515000A99750930001E092AB03AC968FADAC974A
:105160008093B203AB96AEADBFADAB97B0930201E7
:10517000A093010110924E04ECEAF5E0F0931106C1
:10518000E093100620910C0630910D0680910A06DE
:1051900090910B06289FA001299F500D389F500D1C
:1051A00011246FEF70E080910E0690910F060E941F
:1051B000A5370E94B3212091F6023091F702AB018E
:1051C000421B530B9A0121363A4E30F07093F7028E
:1051D0006093F6020E94480D81E090E00E94BF09B2
:1051E0008091E50290E001972AE0289FB001299F75
:1051F000700D1124695A7D4F2AE030E040E050E004
:10520000C1010E94DB2E560107E310E0C8010E9495
:10521000A331D5018D935D010F5F1F4F023811053A
:10522000A9F7DF92CF923F922F92A9E0B1E0BF930E
:10523000AF93A8EFB2E0BF93AF930E94BC3742E0B8
:1052400050E062E070E088EF92E00E94B61D80912D
:10525000C10290E001972BE0289FB001299F700DBB
:1052600011246E547D4F2BE030E040E050E0C1014E
:105270000E94DB2EB090C202A090C302E090C00258
:1052800060900106712CF0E36F1AF8EF7F0A00912D
:105290000206109103060E943723A1962FAFA19713
:1052A000A2963FAFA297A3964FAFA397A4965FAFE6
:1052B000A497A5966FAFA597A6967FAFA697632FE5
:1052C00070E030E0490150E3851A58EF950A8AE111
:1052D000E3E3F1E0D60101900D928A95E1F7225EB9
:1052E0003F4FADE6B1E02A9FC0012B9F900D3A9F42
:1052F000900D1124DC011197FB013197EE0FFF1F78
:10530000EC0DFD1D20813181240F311DC4018370FE
:1053100099270FB6F894DEBF0FBECDBF892B29F4B5
:105320006330710514F02F5F3F4F40E050E082EB97
:1053300097E0BC0163707727672B11F44F5F5F4FD5
:10534000019688159905ACF3CD01820F931F840F48
:10535000951F65E070E00E946435FC01EE0FFF1FB1
:10536000E35BFE4F908081808091BF0290E00197C7
:1053700027E0289FB001299F700D112460587D4FB0
:1053800027E030E040E050E08DE493E00E94DB2E27
:10539000AF92BF923F922F921F92EF927F926F92A5
:1053A0001F920F931F921F938F929F928DE493E011
:1053B0009F938F9380E191E09F938F9384E593E097
:1053C0009F938F930E94BC3743E050E061E070E010
:1053D00084E593E00E94B61D0091F50210E0A090D4
:1053E000F402B12CC50101972AE1289FB001299F41
:1053F000700D112460547C4F2AE130E040E050E011
:10540000C6010E94DB2E015011098DE0809FB00182
:10541000819F700D1124695C7C4F2BE030E040E0EF
:1054200050E0C1010E94DB2E0FB6F894DEBF0FBE24
:10543000CDBFAA94AB2839F43F922F92DF92CF923E
:1054400088EE91E006C03F922F92DF92CF9288EFD4
:1054500091E09F938F9382E793E09F938F930E94B5
:10546000BC370FB6F894DEBF0FBECDBF44E050E0AE
:1054700060E070E082E793E00E94B61D85E090E076
:105480000E94170B82E890E00E94D91A46E050E093
:1054900061E070E08EEB94E00E94B61D87E090E042
:1054A0000E94BF0988E191E00E94D91A48E050E0CB
:1054B00062E070E08EEB94E00E94B61D89E090E01F
:1054C0000E94170B8EEA91E00E94D91A4AE050E040
:1054D00061E070E08EEB94E00E94B61D80910101C6
:1054E000909102018436910501F50E94B3214B0190
:1054F0005C018091A5039091A603A401481B590B60
:10550000CA01853F914028F08091A403833108F4BB
:10551000CDC18091A5039091A603881A990AE1ED67
:105520008E16E7E09E0608F019C280910101909165
:1055300002018536910509F049C00E94B3212B0173
:105540003C01E09100010E2E000CFF0BE453FD4FD7
:10555000A0808CE3A89E5001112482E0E82E01E097
:105560002DE030E04EE350E062E070E081E090E05A
:105570000E944B1A8091A9039091AA03D201A81B03
:10558000B90BCD01893E934040F08091A7039091E3
:10559000A803A816B9060CF0F7C18091A703909153
:1055A000A803A816B90694F485E690E090935004F9
:1055B00080934F0410920201109201011092A803EF
:1055C0001092A70360E08EE00E940D2184E492E037
:1055D0000E94D91A46E650E060E070E08EEB94E05D
:1055E0000E94B61D8AED92E00E94D91A47E650E06B
:1055F00060E070E08EEB94E00E94B61D80910101A6
:105600009091020188369105D1F50E94B321209135
:10561000B203222309F420C22091E902ACE32A9FBD
:10562000900111243093B1032093B0031092B20380
:105630002091AE033091AF03FB01E21BF30B9F01FE
:10564000293E334008F00FC22091AC033091AD03E6
:105650008091B0039091B1038217930780F488E69C
:1056600090E09093500480934F04109202011092A6
:1056700001011092AB031092AD031092AC03809124
:105680004F0490915004019751F482E090E0909380
:105690000201809301011092500410924F048091F6
:1056A0004F0490915004029751F483E090E090935E
:1056B0000201809301011092500410924F048091D6
:1056C0004F0490915004039789F48091F502882348
:1056D00019F084E090E002C085E090E09093020130
:1056E000809301011092500410924F0480914F0456
:1056F00090915004049751F485E090E0909302015A
:10570000809301011092500410924F0480914F0435
:1057100090915004059751F486E090E09093020137
:10572000809301011092500410924F0480914F0415
:1057300090915004069751F487E090E09093020115
:10574000809301011092500410924F0480914F04F5
:1057500090915004079751F488E090E090930201F3
:10576000809301011092500410924F0480914F04D5
:1057700090915004089751F489E090E090930201D1
:10578000809301011092500410924F0480914F04B5
:1057900090915004099751F48AE090E090930201AF
:1057A000809301011092500410924F0480914F0495
:1057B000909150040A9751F481E090E09093020197
:1057C000809301011092500410924F0480914F0475
:1057D0009091500484369105D9F48091B2038823C6
:1057E00069F087E690E090930201809301011092A6
:1057F000500410924F04F09251040AC085E690E0E4
:1058000090930201809301011092500410924F0472
:1058100080914F04909150048536910561F486E69D
:1058200090E0909302018093010110925004109235
:105830004F04F092510480914F04909150048636A9
:10584000910551F488E690E0909302018093010164
:105850001092500410924F0480914F049091500484
:105860008736910551F488E690E090930201809389
:1058700001011092500410924F0480914F049091B6
:1058800050048836910551F481E090E09093020134
:10589000809301011092500410924F0480914E04A5
:1058A00081110E948F1D0E94A01FC3CB9092A6035E
:1058B0008092A50380FD46C092E0E92E01E02DE034
:1058C00030E04EE350E062E070E081E090E00E9462
:1058D0004B1A82EA99E090931106809310064EEFDE
:1058E00051E060E070E080E090E00E94D018ACEA07
:1058F000B5E0B0931106A09310068091B2038823FF
:1059000039F028E030E040E050E069E674E00CC097
:1059100060910001B8E06B02B0011124675D7B4F1C
:1059200028E030E040E050E084EC92E00E94DB2E82
:1059300044EC52E068E070E080E090E00E94D01813
:1059400061E001C060E08EE00E940D21F0924E0403
:105950008091A4038F5F8093A403DBCD8091A40387
:10596000833108F4E2CD24E630E0309350042093F4
:105970004F0410920201109201011092A40360E002
:105980008EE00E940D21D1CD5092AA034092A9032E
:10599000A501481B590BCA016CE370E00E946435F5
:1059A000182F092F072E000C880B990B0E948330AB
:1059B0000E94C2330E948C331616170694F40F937C
:1059C0001F937F936F9384E092E09F938F93DF9276
:1059D000CF920E94BC370FB6F894DEBF0FBECDBF8A
:1059E00010C00F931F9382E192E09F938F93DF92F9
:1059F000CF920E94BC370F900F900F900F900F9096
:105A00000F904BE152E06FEF7FEF80E090E00E945B
:105A1000D01882EA99E09093110680931006A601AF
:105A200068E070E080E090E00E94D0180091A70349
:105A30001091A803C50101970817190724F061E028
:105A40008EE00E940D210F5F1F4F1093A80300935B
:105A5000A703F0924E04A1CD2091E802BCE32B9F56
:105A600090011124DFCD7093AF036093AE03A0903B
:105A7000AC03B090AD03A0FC16C06091FD05709121
:105A8000FE058091FF05909100069B01225031098F
:105A9000AC014250510963507109EE24E39401E0D6
:105AA00003970E944B1AF0924E042FEFA21AB20AEB
:105AB000B092AD03A092AC03C7CD80911506909132
:105AC0001606009711F00E943536809117069091C6
:105AD0001806009711F00C9435360895109257056A
