:100000000C9495050C94BD050C94BD050C94BD0590
:100010000C94BD050C94BD050C94BD050C94932166
:100020000C94BD050C94BD050C94BD050C94BD0548
:100030000C94BD050C94AF230C94BD050C94BD0528
:100040000C9437220C94BD050C94DD200C94B72041
:100050000C94BD050C94BD050C94BD050C94BD0518
:100060000C9481220C94BD05036EDB363D9A999960
:10007000993DABAAAA2A3E000000803F084AD73B20
:100080003BCE016E84BCBFFDC12F3D6C74319ABD67
:1000900056833DDA3D00C77F11BED9E4BB4C3E918B
:1000A0006BAAAABE000000803F072C7AA5BA6CC5D7
:1000B00090DA3B9365FC8BBC53F810FD3C56928361
:1000C0004DBD879D3AB63DCBC9BF5BBE73DA0FC944
:1000D0003F05A84CCDB2D44EB93836A9020C50B960
:1000E000918688083CA6AAAA2ABE000000803F0686
:1000F00064EC1B3C04BC163E3BE5B93CC93C37C232
:100100009E5A3D660498083EEA69AAAA3E0000008D
:10011000803F4E414E494E495459494E46CDCCCC74
:100120003D0AD7233C17B7D13877CC2B329595E6CB
:10013000241FB14F0A000020410000C84200401CAB
:100140004620BCBE4CCA1B0E5AAEC59D74008040F2
:10015000C020A060E0109050D030B070F008884807
:10016000C828A868E8189858D838B878F80484449B
:10017000C424A464E4149454D434B474F40C8C4CA7
:10018000CC2CAC6CEC1C9C5CDC3CBC7CFC0282424D
:10019000C222A262E2129252D232B272F20A8A4AA7
:1001A000CA2AAA6AEA1A9A5ADA3ABA7AFA0686463B
:1001B000C626A666E6169656D636B676F60E8E4E47
:1001C000CE2EAE6EEE1E9E5EDE3EBE7EFE018141F6
:1001D000C121A161E1119151D131B171F109894977
:1001E000C929A969E9199959D939B979F90585450B
:1001F000C525A565E5159555D535B575F50D8D4D17
:10020000CD2DAD6DED1D9D5DDD3DBD7DFD038343BC
:10021000C323A363E3139353D333B373F30B8B4B16
:10022000CB2BAB6BEB1B9B5BDB3BBB7BFB078747AA
:10023000C727A767E7179757D737B777F70F8F4FB6
:10024000CF2FAF6FEF1F9F5FDF3FBF7FFF0000002B
:10025000002300260029004A414E00464542004D39
:10026000415200415052004D4549004A554E004A06
:10027000554C0041475300534550004F4B54004EDE
:100280004F5600444553000003D0060F300A0606BF
:100290000606060606060606FCFE0202FEFC3F7F78
:1002A00040407F3F080CFEFE000040407F7F404002
:1002B0000C0E02C2FE3C707C6F6360600C8E82820A
:1002C000FE7C307141417F3E80E078FEFE000F0FE2
:1002D000487F7F487E7E2222E2C2307040407F3FCE
:1002E000F0F84C46C2823F7F40407F3F020202E26C
:1002F000FE1E00007F7F00007CFE8282FE7C3E7F2F
:1003000041417F3EFCFE0202FEFC414362321F0F70
:100310001F1C1F1E1F1E1F1F1E1F1E1F101020012F
:1003200020032007200F201F701FF80F700777FF92
:10033000700077FF777E763C763C763C563C10101A
:1003400000088008C008E008F008F01CE03EC01C6F
:10035000FFDC001CFFDCFDDC78DC78DC78DC78D4AA
:100360001010010007120C36193603360336133607
:1003700033367336D3369376FFE63EC618861004BE
:100380000000100E18080C14061C067006C006802B
:1003900006FF061E1BF8B180E06C007E0012000C08
:1003A00053796177616C00000000000000537961AF
:1003B0002762616E00000000000053656E696E00E8
:1003C000000000000000004B616D69730000000038
:1003D0000000000054656E6761682042756C616EB4
:1003E0000041726F66616800000000000000447AFE
:1003F000756C68696A616800000000546173752754
:100400006100000000000000417379757261000016
:10041000000000000052616D616468616E000000C0
:100420000000004D61726920707561736100000009
:100430000000000000000000000000000053756490
:1004400061686B6168206B697461207075617361AC
:10045000000000000000004D617269206B6974614A
:100460002070657262616E79616B20707561736175
:100470000053656C616D6174206D656E6A616C61BD
:100480006E6B616E20707561736100004D41534A5F
:100490004944000000004D5553484F4C4C4100006A
:1004A000535552415500000000004C616E67676172
:1004B0007200000000494D53414B00000053485565
:1004C00042554800005445524249540000444855A2
:1004D0004841000000445A554855520000415348D5
:1004E00041520000004D414748524942004953598A
:1004F00041000000004A554D2741540000001204FD
:100500000A0A206000020506050706020303030627
:10051000020302030505050505050505050502029B
:100520000504050507070505050504060602050778
:10053000040706060506060506060709070605035D
:100540000303040502050505050504050502030668
:10055000020805050505040503050509050504044C
:1005600001040605DEDE00000606000606000000A7
:100570000000FCFE6EFCFE6E0000000000004CDE81
:10058000FFF66400004000000E8A6E10ECA2E0004E
:1005900000000000000060ECDE766EEC0000000061
:1005A000000006060000F8FC0200408002FCF88013
:1005B0004000140E1400000018187E7E1818000069
:1005C00000000000C0C08040303030000000C0C0DB
:1005D0000000C038060000007CFEC6FE7C00000063
:1005E00000000C04FEFE000000000000C4E6F6DE81
:1005F000CC000000000044D6D6FE6C0000000000D5
:10060000607864FEFE000000000058DED6F666004A
:10061000000000007CFED6F664000000000006C664
:10062000F61E0600000000006CFED6FE6C00000006
:1006300000004CDED6FE7C0000000000D8D8000090
:10064000D8D8804038386C6C6C00000000006C6CAE
:100650006C6C000000006C6C6C383800000000000E
:1006600004A6B61E0C00000000007884724A7A428C
:100670003C00004040404000C0F87E667EF8C0006C
:10068000000000000000FEFED6FE6C00000000002E
:100690007CFEC6EE6C0000000000FEFEC6FE7C0084
:1006A00000000000FEFED6D6D60000000000FEFED0
:1006B0001616000000007CFEC6D6F674000000008E
:1006C0000000FEFE1818FEFE000000000000FEFE06
:1006D000000060E0C0FE7E0000000000FEFE181C6E
:1006E00076E28000000000000000FEFEC0C00000B6
:1006F0000000FEFE3CE03CFEFE00000000000000AA
:10070000FEFE1C70FEFE0000000000007CFEC6C65F
:10071000FE7C000000000000FEFE363E1C000000D3
:1007200000007CFEC6E6FEBC000000000040FEFEAD
:10073000367EDC800000000000004CDED6F664004F
:10074000000000000606FEFE060600000000000095
:100750007EFEC0C0FE7E000000000000063EF8C025
:10076000F83E060000000000000006FEF0FE0EFE4F
:10077000F0FE0600000000000000000082E67C3869
:100780007CE68200000000000000060CF8F80C0671
:10079000000000000000C6F6FECEC600000000000B
:1007A000FEFE06C0C0C00638C000000006FEFEC047
:1007B000C0C0100E0E1000000000000000000080FD
:1007C0008080808006040000C8E8A8F8F0000000DF
:1007D0000000FEFED8F870000000000070F8D8D8C5
:1007E00050000000000070F8D8FEFE00000000007D
:1007F00070F8A8B8B0000000000008FEFE0A000073
:10080000000070F8D8F8F8808080C040FEFE10F834
:10081000F00000000000FAFA000000FAFA80C04080
:10082000FEFE3078E880000000000000FEFE0000C0
:10083000F8F810F8F018F8F00000000000000000D0
:10084000F8F810F8F0000000000070F8D8F8700018
:1008500000000000F8F8D8F870C0C000000070F880
:10086000D8F8F8000000C0C0F8F810180000000028
:1008700090B8A8E8480000000000FCFEC800000096
:10088000F8F8C0F8F8000000000018F8C0F81800E8
:10089000000000000878E0701870E07808000000A0
:1008A00000000000000088F830F888000000000018
:1008B00018F8C0F8188080400000C8E8B898000018
:1008C000000030FCEE060040C0C0FEC006EEFC306A
:1008D000C0C0400030181830301800000000000080
:1008E000FC848484FC0000000000000004062060FA
:1008F00000000000005F0000070007007F147F1465
:100900002A7F2A1213086462495522500503000009
:100910001C22410041221C002A1C2A08083E08080B
:100920005030000008080808606000001008040249
:100930003F21213F00213F203929292F2129293F0B
:100940000F08083F2F2929393F2929390101013F83
:100950003F29293F2F29293F0012120000121200BF
:10096000001200000A0A0A0A00120000000000003B
:100970003E23213F3F09093F3F2929373F212121BC
:100980003F21211E3F2929213F0909013F21293902
:100990003F08083F003F00003820203F3F0C122155
:1009A0003F2020203F0E0E3F3F01013F3F21213FCE
:1009B0003F09090F3F29313F3F09192F2F292939B5
:1009C000013F01003F20203F0F30300F3F3C383FB8
:1009D000330C0C3B2F28283F312925232010000100
:1009E000000020038008200FE008203EF008707807
:1009F0003C1CF8F01E3ED8F01E36D8F83E36707F0C
:100A0000FC1C7FFFFFFC7FFEFFFC7EFC7EFC74482D
:100A1000245C7448245C7448245C7C783C7C416889
:100A2000616400000053656E696E000053656C617F
:100A3000736100526162750000004B616D69730063
:100A4000004A756D2761740053616274750000007F
:100A50004D7568617272616D000000536861666176
:100A60007200000000005261622E4177616C00004C
:100A7000005261622E416B68697200004A756D2EEA
:100A80004177616C0000004A756D2E416B68697298
:100A9000000052616A616200000000000053796149
:100AA0002762616E0000000052616D616468616ED2
:100AB00000000053796177616C0000000000447A07
:100AC000756C71612764616800447A756C68696A45
:100AD000616800000000000000240027002A0000D8
:100AE000000000250028002B000404040404040472
:100AF00004020202020202030303030303010204CD
:100B0000081020408001020408102001020408108F
:100B1000200000000800020100000304070000009C
:100B2000000000000002FD244F2E11241FBECFEF55
:100B3000D8E0DEBFCDBF26E0A8E1B2E001C01D9243
:100B4000A033B207E1F712E0A0E0B1E0E6EEF3E790
:100B500002C005900D92A831B107D9F715E0C4E99C
:100B6000D5E004C02197FE010E942335C339D10787
:100B7000C9F70E943F260C94E6390C940000CF92EE
:100B8000DF92EF92FF920F931F93CF93DF93CDB736
:100B9000DEB764970FB6F894DEBF0FBECDBF6C0111
:100BA00089EDE82E83E0F82EF701008110E0005374
:100BB000184F6181F4E06F9FB00111246D5A7D4F91
:100BC00024E030E040E050E08DE192E00E948B2E86
:100BD0001F930F938DE192E09F938F93F701828192
:100BE0001F928F9382E891E09F938F938E010F5F06
:100BF0001F4F1F930F930E944537A801B60181E252
:100C000090E00E94F91D81E0809329020FB6F894CC
:100C1000DEBF0FBECDBF64960FB6F894DEBF0FBE29
:100C2000CDBFDF91CF911F910F91FF90EF90DF909B
:100C3000CF900895CF92DF92EF92FF926B017C01EB
:100C400020E030E044EB53E40E94CA320E94723349
:100C500020E030E044EB53E40E9492309B01AC0171
:100C6000C701B6010E94CB316B017C0120E030E06E
:100C7000A9010E942C3087FF0AC020E030E044EB3D
:100C800053E4C701B6010E94CC316B017C01C7015E
:100C9000B601FF90EF90DF90CF9008953F924F9272
:100CA0005F926F927F928F929F92AF92BF92CF92FC
:100CB000DF92EF92FF920F931F93CF93DF9300D0B9
:100CC00000D0CDB7DEB7162F042F322E633010F4CC
:100CD0000197145F7C0120EDE21A27E0F20AB701C8
:100CE00080E090E00E94313020E030EA46EB53E4AF
:100CF0000E9492300E9472332B013C01612F70E000
:100D00006F5F7F4F072E000C880B990B0E943330CA
:100D100021E03DEC44EF51E40E9492300E94723396
:100D200069837A838B839C83C70164E670E00E94A9
:100D3000FB3480E090E00E9431300E9472334B011E
:100D40005C01C70160E971E00E94FB3480E090E043
:100D50000E9431300E9472336B017C0129813A81FB
:100D60004B815C81C301B2010E94CC31A501940189
:100D70000E94CC31A70196010E94CC316B017C010D
:100D8000602F70E080E090E00E9433309B01AC0166
:100D9000C701B6010E94CC3120E030E044E453E4C6
:100DA0000E94CC310E943C33C09053040C2C000CA8
:100DB000DD08EE08FF08C60ED71EE81EF91EC30C9C
:100DC000D11CE11CF11CC701B6010E9433302CEF8D
:100DD0003EE241EB53E40E94CA320E94723320E0AB
:100DE00030E841EB54E40E94CC310E943C334B018B
:100DF0005C0161E0C4010E945412C616D706E806E1
:100E0000F90634F03FEF831A930AA30AB30AF1CF2D
:100E10002401350141E0441A510861087108812C10
:100E2000912C540183948201682DC8010E945412B0
:100E3000C616D706E806F90634F05FEF851A950A5C
:100E4000A50AB50AF1CF81E0881A9108A108B10876
:100E5000682DC2010E945412EFEFCE1ADE0AEE0A8C
:100E6000FE0AA7019601261B370B480B590BCA0136
:100E7000B9013DE083169104A104B10449F4635E15
:100E80007F4F8F4F9F4F8CE0882E912CA12CB12C3F
:100E9000782DC8010F900F900F900F90DF91CF9198
:100EA0001F910F91FF90EF90DF90CF90BF90AF9088
:100EB0009F908F907F906F905F904F903F9008959C
:100EC0002F923F924F925F926F927F928F929F925A
:100ED000AF92BF92CF92DF92EF92FF920F931F9348
:100EE000CF93DF93EBE1FBE08491E7E0FBE0D4916B
:100EF000E3EFFAE0C491CC2309F4EAC081110E9427
:100F00000F21EC2FF0E0EE0FFF1FE35BFD4FA591EB
:100F1000B491EC91ED2309F4DBC00091E40310914E
:100F2000E503000F111F000F111F8091E203909144
:100F3000E30324E0969587952A95E1F7F1E08F2762
:100F40008170E12CF12CAA24BB24A01AB10A21E063
:100F500030E01901201A310A2091E2033091E303B5
:100F6000E216F3060CF08AC03091E4032091E50309
:100F70009091EC03C091F103D091F203432E522ED5
:100F8000970181112FC0290F311D429EC001439E40
:100F9000900D529E900D1124C80FD91F4E01800E46
:100FA000911E6401C00ED11E3601600E711E141414
:100FB0001504B4F4D3018D913D010E94D623F601AE
:100FC00081916F010E94D623D4018D914D010E9421
:100FD000D62389910E94D623B1E04B1A5108E7CF5E
:100FE00081E048C0205F3F4F291B3109429EC0016C
:100FF000439E900D529E900D11240197C80FD91F4A
:101000004E018A0C9B1C6401CA0CDB1C3601620C6D
:10101000731CEFEFCE1ADE0AFFEF8F1A9F0A21969C
:101020001414150434F5D301EE913D01F0E0E35BB7
:10103000FE4F84910E94D623D601EE916D01F0E01F
:10104000E35BFE4F84910E94D623D401EE914D01C3
:10105000F0E0E35BFE4F84910E94D623EA91F0E03A
:10106000E35BFE4F84910E94D623B1E04B1A5108F6
:10107000D7CF80E0E0E1EE0EF11C6ECF60E089E0BA
:101080000E94EF2161E088E00E94382160E088E062
:101090000E9438218091EC0381FF02C061E001C011
:1010A00060E087E00E9438218091EC0380FF02C05D
:1010B00061E001C060E086E00E94382161E089E0E3
:1010C0000E94EF218091EC038F5F83708093EC038B
:1010D000DF91CF911F910F91FF90EF90DF90CF9014
:1010E000BF90AF909F908F907F906F905F904F9048
:1010F0003F902F9008954F925F926F927F928F92C0
:101100009F92AF92BF92CF92DF92EF92FF920F9396
:101110001F93CF93DF93A0900101B0900201A2161C
:10112000B30609F04DC120915404222351F01092CE
:101130002502109226021092270210922802109285
:1011400054048A016B01EC010E9431164C01E090BD
:10115000D703F090D8030E942B2240902102509098
:10116000220260902302709024029B01AC0124199A
:1011700035094609570929013A019601DD0C440B4E
:10118000550B241535054605570508F019C194017E
:101190002E0D3F1D60932102709322028093230243
:1011A00090932402C0902502D0902602E09027025E
:1011B000F0902802C901032E000CAA0BBB0BC81625
:1011C000D906EA06FB0690F44FEFC41AD40AE40AE3
:1011D000F40AC0922502D0922602E0922702F092F1
:1011E00028020130110509F056C011C0B092560412
:1011F000A092550410920201109201011092250252
:10120000109226021092270210922802D9C08AEE6C
:1012100098E09093E9038093E80357E0C516D10462
:10122000E104F10428F480E190E08C199D091FC0CD
:10123000C9010697092E000CAA0BBB0BC816D906CC
:10124000EA06FB0628F0C6014096821B930B0FC0EE
:1012500092E0E92E01E021E130E04EE550E068E067
:1012600070E081E290E00E94AC118AE090E00E9480
:10127000BF058EEF94E09093E9038093E80380919B
:10128000D7039091D8032091250230912602AE0118
:101290006FEF7FEF47C00230110509F046C08AEEBC
:1012A00098E09093E9038093E80387E0C816D1049F
:1012B000E104F10418F4C601069721C0C90106979C
:1012C000092E000CAA0BBB0BC816D906EA06FB06B2
:1012D00038F08AEF9FEF8C199D09820F931F0FC082
:1012E00082E0E82E01E027E030E04EE550E060E0EB
:1012F00070E081E290E00E94AC1180E090E00E94FA
:10130000BF058EEF94E09093E9038093E80380910A
:10131000D7039091D8032091250230912602AE0187
:1013200068E070E0821B930B38C08EEF94E09093DE
:10133000E9038093E80301E020E030E040E650E07C
:1013400060E070E080E290E00E9425112FE030E044
:1013500040E650E06FE070E080E290E00E942511EE
:1013600021E030E04EE550E061E070E080E290E0A6
:101370000E9425112EE030E04EE550E06EE070E076
:1013800080E290E00E9425118091D7039091D803CC
:101390008C199D09AE0163E070E00E942F14E12CCE
:1013A00000E02FE030E04FE150E060E070E080E0EE
:1013B00090E00E94AC110E94A91581E0809329025F
:1013C000DF91CF911F910F91FF90EF90DF90CF9021
:1013D000BF90AF909F908F907F906F905F904F9055
:1013E00008954F925F926F927F928F929F92AF92E9
:1013F000BF92CF92DF92EF920F93CF93DF93CDB74F
:10140000DEB72A970FB6F894DEBF0FBECDBFA0900F
:101410000101B0900201A816B90609F02AC10E9484
:101420002B22E091D703F091D8036F0120E2C21A7A
:10143000D10820911B0230911C02AB01421B530BBF
:101440004B30510508F120911A02409119022111E7
:101450000FC0A42FB0E09601D7FE03C09F012F510B
:10146000310935952795A217B30774F421E005C01B
:10147000213051F4442341F02FEF240F209319021F
:1014800070931C0260931B0220911B0230911C027E
:10149000AB01421B530B20911902413D574068F0AC
:1014A000422F50E0C601D7FC0196959587954817C5
:1014B000590719F481E080931A02211118C0809114
:1014C0001A028130A1F480911802873020F48F5FD6
:1014D000809318020AC0B0925604A092550410924C
:1014E0000201109201011092180210921A028091CA
:1014F0005004811107C080911802811103C081E05E
:101500008093180280915104811107C080911802C4
:10151000823019F483E08093180280915204811183
:1015200007C080911802833019F484E08093180278
:101530000E94A915A0901802B12CF501EE0FFF1F13
:10154000EE0FFF1FE050FC4F40805180628073809F
:10155000C301B2010E9472330E944333962E70E0A1
:1015600080E090E00E9431309B01AC01C301B201E8
:101570000E94CB3120E030E040E752E40E949230FC
:101580000E9472330E9443331F926F931F929F9267
:1015900081EA91E09F938F93AE014F5F5F4F4A01C5
:1015A0005F934F930E94453722E0E22E01E02DE049
:1015B00030E04EE550E062E070E081E290E00E94B1
:1015C000AC118EEF94E09093E9038093E803B501AA
:1015D00033E0660F771F3A95E1F76B547B4F28E0B5
:1015E00030E040E050E084E294E00E948B2E44E240
:1015F00054E06FEF7FEF80E290E00E94F91D8AEEE9
:1016000098E09093E9038093E803A4016AE070E016
:1016100080E290E00E94F91D81E0809329020FB6DC
:10162000F894DEBF0FBECDBFD7FE03C09FEFC91A2F
:10163000D90AD594C794A0901902B12CA601405E96
:101640005F4F4A195B09E12C00E02FE030E060E0D9
:1016500070E080E290E00E94AC11C6018A0D9B1DF3
:101660002FE030E04FE550E060E070E080960E94AF
:10167000AC112A960FB6F894DEBF0FBECDBFDF9136
:10168000CF910F91EF90DF90CF90BF90AF909F9050
:101690008F907F906F905F904F900895CF92DF92E0
:1016A000EF92FF920F931F93CF93DF9388E60E94F0
:1016B000101380E090E00E94C0130E94631387E043
:1016C00090E00E941A1389EC93E00E94861F8F77A6
:1016D000982F92959F701AEFC82F919FC00D1124DB
:1016E00089EC93E00E94861F9C01332794E0359596
:1016F00027959A95E1F7D82F129FD00D112489ECE8
:1017000093E00E94861F9C01332744E0359527957E
:101710004A95E1F7E82E129FE00C112489EC93E042
:101720000E94861F89EC93E00E94861F9C0133274C
:1017300054E0359527955A95E1F7082F129F000D33
:10174000112489EC93E00E94861F9C01332764E0FA
:10175000359527956A95E1F7F82E129FF00C112424
:1017600089EC93E00E94861F9C01332774E0359535
:1017700027957A95E1F7129F800D1124E9EDF3E0AA
:101780008083F1820283E382D483C5836E2D70E06F
:1017900080E090E00E9431306B017C016D2F70E0A1
:1017A00080E090E00E94313020E030E040E752E4F9
:1017B0000E94CA329B01AC01C701B6010E94CC3124
:1017C0006B017C016C2F70E080E090E00E94313072
:1017D00020E030E041E655E40E94CA329B01AC01B2
:1017E000C701B6010E94CC3160932004709321049C
:1017F000809322049093230488E60E94101383E0D0
:1018000090E00E94C0130E94631381E090E00E9468
:101810001A1389EC93E00E94861F982F92959F706F
:101820008F702AE0929F800D11248093FF03DF9137
:10183000CF911F910F91FF90EF90DF90CF9008957F
:10184000CF93DF93EC0161E089E00E94EF21E0E8B3
:10185000F0E0908190689083A091FC03B091FD032B
:101860009E010E94AB31DC01CB012AE0B695A79521
:10187000979587952A95D1F7909389008093880052
:101880008091FE03806180938100DF91CF91089564
:101890002F923F924F925F926F927F928F929F9280
:1018A000AF92BF92CF92DF92EF92FF920F931F936E
:1018B000CF93DF93CDB7DEB72A970FB6F894DEBF8C
:1018C0000FBECDBF0E944E0B8091390490913A0417
:1018D000A0913B04B0913C0489839A83AB83BC8381
:1018E0001091DB03212E312C0091DA03A02EB12CB4
:1018F0008090D903912CD401A053B84FBA87A987FF
:10190000B3E0AB16B10444F4E1E38E1AE8EF9E0AAB
:10191000FCE0AF0EB11C02C089849A84B401092C8A
:10192000000C880B990B0E94333020E030E048EC2B
:1019300052E40E94CA320E9472336B017C0120E0A3
:1019400030E040E85EE30E9492300E9472336D8383
:101950007E838F839887B40164597D4E072E000CD7
:10196000880B990B0E94333020E030EA46EB53E4B9
:101970000E9492300E9472332B013C01B5016F5FCF
:101980007F4F072E000C880B990B0E94333021E00B
:101990003DEC44EF51E40E9492300E9472334B01BF
:1019A0005C0124E631EA45E15AE4C301B2010E9438
:1019B000CB31A50194010E94CC314B015C01B101F6
:1019C000330C880B990B0E9433309B01AC01C5018D
:1019D000B4010E94CC314B015C01A701960160E08B
:1019E00070E080E090E40E94CB312D813E814F81F8
:1019F00058850E94CC319B01AC01C501B4010E9405
:101A0000CC3120E030E94EEB54E40E94CB316B0145
:101A10007C0120E030E044EB53E469817A818B81E2
:101A20009C810E94CA329B01AC01C701B6010E9491
:101A3000CB316B017C012DE430E54CE75FE30E9484
:101A4000923026EB33EC42EB53E40E94CC310E94FF
:101A50001A064B015C0123E633E54CE75FE3C7015F
:101A6000B6010E94923021EC3AE34CE853E40E9424
:101A7000CC310E941A0669837A838B839C832BED79
:101A80003FE049E450E4C501B4010E94923020E0F7
:101A900030E044E353E40E94CA320E9471342B01C7
:101AA0003C01A5019401C501B4010E94CC312BED8C
:101AB0003FE049E450E40E94923020E030E044E30B
:101AC00053E40E94CA320E9471344B015C0128EB3E
:101AD0003EE145EF5FE3C301B2010E9492309B01FA
:101AE000AC0169817A818B819C810E94CC312B0170
:101AF0003C012AE037ED43EA5CE3C501B4010E94F2
:101B000092309B01AC01C301B2010E94CC310E9412
:101B10001A062B013C0126E036E441EC54E3C701F0
:101B2000B6010E9492309B01AC0162E173E88BEB3D
:101B300091E40E94CB312BED3FE049E450E40E9458
:101B4000923020E030E044E353E40E94CA324B017B
:101B50005C010E9471346B017C012BED3FE049E494
:101B600050E4C301B2010E94923020E030E044E32F
:101B700053E40E94CA322B013C010E9471346D83F0
:101B80007E838F8398879B01AC01C701B6010E94B9
:101B900092300E94383220E030E044E353E40E9467
:101BA00092302BED3FE049E450E40E94CA326B01D1
:101BB0007C01C301B2010E94C5322B013C01C50169
:101BC000B4010E94C5322D813E814F8158850E940B
:101BD0009230A30192010E94663220E030E044E39B
:101BE00053E40E9492302BED3FE049E450E40E9420
:101BF000CA3220E030E040E751E40E94CA324B0193
:101C00005C0120E030E040E751E469817A818B811A
:101C10009C810E94CA322B013C0120E030E040EC64
:101C200051E4C501B4010E94CA320E94723320E01F
:101C300030E040EC51E40E9492309B01AC01C501C0
:101C4000B4010E94CB314B015C0120E030E0A901DE
:101C50000E942C3087FF0AC020E030E040EC51E4C5
:101C6000C501B4010E94CC314B015C0180913D045F
:101C700090913E04A0913F04B091400489839A83DF
:101C8000AB83BC8320E030E040E451E46091410448
:101C90007091420480914304909144040E94CC319D
:101CA0002AE13AE349EE50E40E94CB316D837E8312
:101CB0008F839887A5019401C301B2010E94CB31A3
:101CC0009B01AC016D817E818F8198850E94CB3113
:101CD0004B015C0120E030E040EC51E40E94CA324C
:101CE0000E94723320E030E040EC51E40E949230D8
:101CF0009B01AC01C501B4010E94CB314B015C01D9
:101D000020E030E0A9010E942C3087FF0AC020E0CB
:101D100030E040EC51E4C501B4010E94CC314B01EC
:101D20005C016091470470E080E090E00E943130F7
:101D300020E030E040E752E40E94CA322B013C012F
:101D40009B01AC01C501B4010E94CC316093100429
:101D5000709311048093120490931304A7019601C9
:101D600063E77BE382EE90EC0E94CB319F772BED13
:101D70003FE049E450E40E94923020E030E044E348
:101D800053E40E94CA320E94C33420E030E040E8AD
:101D90005FE30E94CC319B01AC0160E070E080E821
:101DA0009FE30E94CA320E949632905820E030E0B1
:101DB00044E353E40E9492302BED3FE049E450E4C9
:101DC0000E94CA32A70196010E9495129B01AC01A4
:101DD000C501B4010E94CC31A30192010E94CC3113
:101DE0006093140470931504809316049093170461
:101DF00069817A818B819C810E947F3426E931E25E
:101E00004EE05DE30E94923026E233E545E55FE374
:101E10000E94CC31A70196010E94951269837A83B2
:101E20008B839C839B01AC01C501B4010E94CC3122
:101E3000A30192010E94CC3160931804709319049D
:101E400080931A0490931B0429813A814B815C8111
:101E5000C501B4010E94CB3160930804709309045A
:101E600080930A0490930B04A701960160E070E050
:101E700080E991E40E9495129B01AC01C501B40177
:101E80000E94CC31A30192010E94CC3160931C04CA
:101E900070931D0480931E0490931F04A701960164
:101EA00066E676E68EE991E40E9495129B01AC010C
:101EB000C501B4010E94CB31A30192010E94CC3133
:101EC00060930404709305048093060490930704C0
:101ED0002BEA3AEA4AE25EE30E94CB3160930004C7
:101EE000709301048093020490930304A701960168
:101EF00060E070E080E990EC0E9495129B01AC01DB
:101F0000C501B4010E94CB3160930C0470930D04A1
:101F100080930E0490930F0421E0412F602F898558
:101F20009A850E944E06109258047C3029F486EF60
:101F3000860F8430E0F457C07A3051F4613009F4F0
:101F400052C06330A0F081E08093580482E00DC05D
:101F5000783069F480EF860F8F3008F444C0662330
:101F600031F082E08093580483E08093570480919D
:101F7000FF03813021F493E09093580405C084302E
:101F800029F48093580481E08093570483EF860FEF
:101F9000833030F485E08093580481E080935704C7
:101FA0007C3059F4693011F486E003C06930D8F40C
:101FB00087E08093580481E014C0713061F4693087
:101FC00011F488E003C06A3071F489E0809358040A
:101FD0007093570408C0793031F48AE08093580434
:101FE00084E08093570411E0209118043091190483
:101FF00040911A0450911B046091200470912104B7
:1020000080912204909123040E94643418160CF0ED
:1020100010E08091D90390E0212F4091DB03609183
:10202000DA038053984F0E944E0660930105709327
:1020300002058093030590930405C0902004D0907E
:102040002104E0902204F090230420E030E044EBEF
:1020500051E4C701B6010E946434181654F020E020
:1020600030E040E650E4C701B6010E942C3087FF03
:1020700003C087E090E003C08091460490E02A9678
:102080000FB6F894DEBF0FBECDBFDF91CF911F9189
:102090000F91FF90EF90DF90CF90BF90AF909F9007
:1020A0008F907F906F905F904F903F902F900C9407
:1020B000200CEF92FF920F931F93CF93DF931F9209
:1020C000CDB7DEB77C01FC0100811181C8016983B5
:1020D0000E9453316981681719F0C8010E945B3171
:1020E000C7010F90DF91CF911F910F91FF90EF905B
:1020F00008952091E0033091E10382179307E0F502
:102100002091E2033091E30362177307A8F5FC0105
:1021100023E0F595E7952A95E1F7A091E403B091C6
:10212000E5036A9F90016B9F300D7A9F300D11245B
:10213000E20FF31F2091E6033091E703E20FF31F54
:102140009C01277033276081442359F080E890E098
:1021500002C0959587952A95E2F78095862380831E
:10216000089540E850E0CA0102C0959587952A95E8
:10217000E2F79C01262B208308958F929F92AF92C5
:10218000BF92CF92DF92EF92FF920F93CF93DF93A4
:102190005C016B014A0179011E141F04ACF4C0E01C
:1021A000D0E0C815D9054CF4402FB601CE018A0DF8
:1021B0009B1D0E9479102196F4CF8FEFC81AD80A80
:1021C00081E0E81AF108E8CFDF91CF910F91FF90FD
:1021D000EF90DF90CF90BF90AF909F908F90089539
:1021E0004091E8035091E9034115510509F1FA01C5
:1021F000349694913196E491803209F48EE68917F1
:10220000B8F0282F30E0892F90E0BC016E0F711DCF
:10221000261737076CF4FA01649161110CC03196EE
:10222000E491E11108C0FA013296E4918E2F0BC0BF
:1022300080E090E00895281B390B2A5F3F4FFA0198
:10224000E20FF31F849190E008953F924F925F92C6
:102250006F927F928F929F92AF92BF92CF92DF92B6
:10226000EF92FF920F931F93CF93DF936C017B014B
:102270004A012901302ECA018C199D09E901C61BAA
:10228000D70B97FF07C0919581959109AA24AA942D
:10229000BA2C03C0AA24A394B12CD7FF06C0D195B1
:1022A000C195D1090FEF1FEF02C001E010E08C17BC
:1022B0009D07FCF02E01440C551C3201681A790A66
:1022C000C81BD90BCC0FDD1F432DB701C6010E94DF
:1022D0007910C814D90471F1161417041CF0640C99
:1022E000751C04C06C0E7D1EE00EF11ECA0CDB1CBA
:1022F000EBCF3C01660C771C43018C1A9D0A9C01B4
:102300002C1B3D0BE901CC0FDD1F432DB701C6018E
:102310000E947910E414F50469F0181419041CF0F3
:10232000860C971C04C08C0E9D1ECA0CDB1CE00E94
:10233000F11EEBCFDF91CF911F910F91FF90EF90A6
:10234000DF90CF90BF90AF909F908F907F906F90D5
:102350005F904F903F9008958F929F92AF92BF925F
:10236000CF92DF92EF920F931F93CF93DF934C01A5
:102370006B015A01E901102F481759072CF4982FC7
:10238000892D4A01A92EB82ECC15DD051CF0E112CD
:1023900016C007C0E11255C09C2F8D2FE601C92E33
:1023A000D82E9E012C193D092F5F3F4FA5014819DA
:1023B00059094F5F5F4F0E2DB601C4013FC0012F79
:1023C0009601A501B601C4010E942511CC16DD06B7
:1023D0004CF4012F9E01A501B6016F5F7F4FC5012F
:1023E0000E9425118A149B0444F4012F9E01A4012C
:1023F000BE01C50101970E942511BE0161507109FE
:10240000C616D70644F4012F96012F5F3F4FA40153
:10241000C4010E94251182E0E81601F19E012C19E9
:102420003D0921503109A818B908A50141505109A9
:10243000B6016F5F7F4F0E2DC40101960E94BD1043
:102440000DC0012F9E01A501BE01C4010E942511EE
:102450009C2F8D2FE601C92ED82EBBCFDF91CF91B7
:102460001F910F91EF90DF90CF90BF90AF909F9012
:102470008F9008950F931F93CF93DF93C6E9D2E017
:102480008C0106591240C8018C0F9D1F0E945331C8
:10249000899383E0CC32D807B1F786E992E0DF91E7
:1024A000CF911F910F910895CF92DF92EF92FF92FB
:1024B000CF93DF93EC0170E080E090E00E94333036
:1024C00020E030E04CEE51E40E94923024EF3DEFEA
:1024D00047EE51E40E94CB310E9472336B017C01C4
:1024E000CE018C589540BC0180E090E00E943130D4
:1024F0002CEF3EE241EB53E40E9492300E94723393
:102500009B01AC01C701B6010E94CC3120E030E054
:1025100040E85FE30E94CC310E943C33DF91CF91D1
:10252000FF90EF90DF90CF9008954F925F926F925F
:102530007F928F929F92AF92BF92CF92DF92EF9253
:10254000FF9249015A012BED3FE049E450E40E941B
:10255000923020E030E044E353E40E94CA320E940B
:1025600071346B017C012BED3FE049E450E4C5017F
:10257000B4010E94923020E030E044E353E40E9432
:10258000CA324B015C010E9471342B013C01C50130
:10259000B4010E94C5324B015C01F7FAF094F7F8E0
:1025A000F09425E230E14CEF5DEBC301B2010E94F3
:1025B00092309B01AC01C701B6010E94CB316B0187
:1025C0007C012CEB3DE04EE75FE3C501B4010E94C6
:1025D00092309B01AC01C701B6010E94CA320E9431
:1025E000BA3120E030E040E751E40E94CA3220E0F6
:1025F00030E044E353E40E9492302BED3FE049E4A5
:1026000050E40E94CA32FF90EF90DF90CF90BF90CD
:10261000AF909F908F907F906F905F904F900895B4
:1026200091E0909395028093F90310929402109296
:1026300093020895909170029111FCCF813208F0BD
:1026400080E291E09093700290936F022FEF2093BD
:102650006E0210926D02280F20936C0290936B0211
:1026600090916B02906D90936B0290916A02913001
:1026700061F410926A0290916B029093BB0090916A
:10268000BC0093FDF8CF95EC01C095EE9093BC0093
:10269000909170029130E1F390916D02981710F4CF
:1026A00080916D02AAE4B2E023E732E0F9019E2FA7
:1026B000921B981718F49D919193F9CF1092720282
:1026C000809371020895209193029091F903213231
:1026D00008F04AC0809170028111FCCF32E0309343
:1026E000700231E030936F023FEF30936E02109230
:1026F0006D0220936C02AAE2B2E04AE452E0FA01D1
:102700003E2F341B321718F43D913193F9CF1092BC
:102710006B0220916B02990F922B90936B02909118
:102720006A02913061F410926A0290916B02909368
:10273000BB009091BC0093FDF8CF95EC01C095EEE5
:102740009093BC00909170029230E1F390916E02F0
:102750009F3F79F080916E02803241F080916E024D
:10276000803331F084E005C081E003C082E001C025
:1027700083E01092940210929302109295020895B1
:10278000682F89EC93E00C94D21F3F924F925F9296
:102790006F927F928F929F92AF92BF92CF92DF9271
:1027A000EF92FF920F931F93CF93DF93682E492EE2
:1027B000A62EFA0174903196B490C72CD12CF7E074
:1027C000CF0ED11C33E0D594C7943A95E1F7062F8C
:1027D000172FEA012296802F8A198B1570F54E016A
:1027E000FE015490E62CF42C20E8322E8E2D861912
:1027F0008715F0F4832D852111F041E001C040E000
:10280000B801C7010E947910232D30E03595279536
:102810002115310511F0322E07C0FFEF8F1A9F0AE4
:10282000F401549080E8382EFFEFEF1AFF0ADECF54
:102830000F5F1F4FCC0DDD1DCECFDF91CF911F91CC
:102840000F91FF90EF90DF90CF90BF90AF909F904F
:102850008F907F906F905F904F903F9008952F9250
:102860003F924F925F926F927F928F929F92AF9220
:10287000BF92CF92DF92EF92FF920F931F93CF936D
:10288000DF93CDB7DEB767970FB6F894DEBF0FBE04
:10289000CDBF7C015B01E091E803F091E903309743
:1028A00009F43EC13396E491DA010D900020E9F776
:1028B00011976D01C41AD50A5D834C834E2F50E0E9
:1028C0005B8B4A8B21E0C21AD108C601019618160B
:1028D00019060CF025C1EC81FD813191FD83EC835B
:1028E0006091E8037091E903FB01339694903032D4
:1028F000A9F48EE60E94F010182F892E01E0809135
:10290000EA03811100E0292D30E0412F582DB50157
:10291000C7010E94BD10612E782CCAC0FB013496FD
:10292000249131968491321708F4C0C0432F50E0AF
:1029300090E0FC01E20FF11D4E175F070CF0B6C0EE
:10294000321B492D50E05F8B4E8B495F5F4F23E078
:10295000559547952A95E1F7FB012491A32FB0E007
:102960002111C4C03196E491E111C0C0FB0132963F
:102970003490A49F8001A59F100DB49F100D1124C9
:10298000309EC001319E900D11240696860F971F30
:10299000632C712CB701660D771D161617060CF007
:1029A00087C06E897F896A0D7B1D161617060CF08D
:1029B0007FC04B8321E02E833091EA0331111E82C8
:1029C0008D879C01832D90E09F878E87FA01319738
:1029D000F98BE88B4E895F89485051095A8749879E
:1029E000822F5D85851B831508F062C03A83298399
:1029F000412C512C812C912CF701E80FF11DF88707
:102A0000EF835B81851608F04EC0E981FA8124903E
:102A10005B81513041F0888999898816990619F4AB
:102A200099858A8502C0942D852D092F182FF801CC
:102A30003896FC87EB8704151505F4F04E895F89FD
:102A400040175107CCF0B8016A0D7B1D20FE0BC06A
:102A50004091EA038F8198852C8B3D8B0E947910E1
:102A60002C893D8909C04E818F8198852C8B3D8BA7
:102A70000E9479103D892C8926940F5F1F4F8B850A
:102A80009C8508171907B9F69FEF891A990AE8E09B
:102A90004E0E511C49815A818E859F85480F591FC2
:102AA0005A834983AECF2F5F3F4F9ACF612C712C51
:102AB000E60CF71C1C141D0484F401E08091EA0369
:102AC000811100E02A893B8941E050E0B501C7014E
:102AD0000E94BD10FFEFEF1AFF0A8091E003909172
:102AE000E103E816F9060CF4EDCE1AC0FD013696A6
:102AF000E60FF71F34900696860F971F6A5F7F4F89
:102B0000FB01AE2FA61BA31708F042CF1491149F10
:102B1000D001159FB00D11248A0F9B1F3196F1CF64
:102B200067960FB6F894DEBF0FBECDBFDF91CF9191
:102B30001F910F91FF90EF90DF90CF90BF90AF90DB
:102B40009F908F907F906F905F904F903F902F90CD
:102B500008958F929F92AF92BF92EF92FF920F9340
:102B60001F93CF93DF9300D000D000D0CDB7DEB756
:102B70000E942B224B015C018091DC031F928F93FA
:102B800006EA11E01F930F937E0124E0E20EF11C90
:102B9000FF92EF920E9445378091DD031F928F9341
:102BA0001F930F938E010F5F1F4F1F930F930E9470
:102BB000453788E892E09093E9038093E803A70102
:102BC00060E070E081E090E00E942F14A80160E0D6
:102BD00070E082E190E00E942F148091F7039091C1
:102BE000F8039401281B390BC9010FB6F894DEBF16
:102BF0000FBECDBF843F31E09307C0F4EE24E394D1
:102C000001E025E030E040E150E064E070E08FE07A
:102C100090E00E94AC112AE030E040E150E069E031
:102C200070E08FE090E00E94AC1107C0893E9340B5
:102C300020F09092F8038092F70381E080932902BC
:102C400026960FB6F894DEBF0FBECDBFDF91CF91B1
:102C50001F910F91FF90EF90BF90AF909F908F903A
:102C60000895EF92FF920F931F93CF93DF93EC01A0
:102C700009900020E9F72197C81BD90B8C01E12CA2
:102C8000F12C2197CE0101961816190674F4F8015B
:102C900081918F010E94F010E80EF91E1C161D068E
:102CA00084F7FFEFEF1AFF0AECCFC701DF91CF9156
:102CB0001F910F91FF90EF9008958091EB0388236F
:102CC00011F1F8944091E6035091E7032091ED0350
:102CD0003091EE038091EF039091F0034217530778
:102CE00049F49093E7038093E6035093F2034093F3
:102CF000F10308C03093E7032093E6039093F203B7
:102D00008093F103789408951F93CF93DF931F92DC
:102D1000CDB7DEB7182F88E60E9410138EE090E042
:102D20000E94C0130E94631381E090E00E941A1376
:102D300089EC93E00E94861F682F113011F46E7F9A
:102D400001C06D7F88E669830E9410138EE090E0D9
:102D50000E94C013698189EC93E00E94D21F0F90FA
:102D6000DF91CF911F910C946313CF93C82F88E606
:102D70000E94101380E090E00E94C0138C2F6AE044
:102D80000E94EF34692F20E1829F600D112489ECAD
:102D900093E00E94D21F0E94631388E60E941013E2
:102DA0008FE090E00E94C0130E94631381E090E0E6
:102DB0000E941A1389EC93E00E94861FC82F88E6B0
:102DC0000E9410138FE090E00E94C0136C2F6F7769
:102DD00089EC93E00E94D21FCF910C9463130E9460
:102DE0002037FC0180819181009711F00C94642EB2
:102DF00060E070E0CB010895BF92CF92DF92EF9236
:102E0000FF920F931F93CF93DF937C016B01EA0135
:102E100089012417350720F48D2FE901042F182F7D
:102E20006CEF71E0C7010E94A220D60114968D912B
:102E30009C911597C817D907C8F58017910708F412
:102E40008C01D601ED91FC911197E00FF11FB0803C
:102E500010824D915C91BA016C0F7D1F6115710557
:102E600061F0FB0101900020E9F73197AF01461BAB
:102E7000570BC7010E945D2013C0F701808191812B
:102E8000009711F00E94BE35D70111961C921E9238
:102E900015961C921E92149713961C921E921297CE
:102EA000D601ED91FC91E00FF11FB082C701DF91D7
:102EB000CF911F910F91FF90EF90DF90CF90BF9037
:102EC0000895AF92BF92CF92DF92EF92FF920F934D
:102ED0001F93CF93DF9300D0CDB7DEB78B016B018B
:102EE0002DE0C20ED11C7B015C01A61AB70A950128
:102EF0002E0D3F1DF70161917F013A832983CE0199
:102F000001960E945910EC14FD0489F7C8010F9036
:102F10000F90DF91CF911F910F91FF90EF90DF9075
:102F2000CF90BF90AF900895CF92DF92EF92FF9233
:102F30000F931F93CF93DF93CDB7DEB764970FB690
:102F4000F894DEBF0FBECDBF01E015E0F80181812E
:102F500090E001972BE0289FB001299F700D11246C
:102F6000605B754F2BE030E040E050E0CE01019611
:102F70007C010E948B2EF801D280C38010812091A9
:102F8000FF0330E02150310987E0829FB001839F29
:102F9000700D1124625E754F27E030E040E050E094
:102FA0008EEA95E00E948B2ECF92DF92FF92EF92F5
:102FB0001F921F938EEA95E09F938F9385E391E094
:102FC0009F938F9385EB95E09F938F930E94453756
:102FD0000FB6F894DEBF0FBECDBF85EB95E06496CB
:102FE0000FB6F894DEBF0FBECDBFDF91CF911F911A
:102FF0000F91FF90EF90DF90CF900895CF92DF92E6
:10300000EF92FF920F931F93CF93DF9300D0CDB732
:10301000DEB794E3E92E94E0F92E670100E010E0BA
:10302000C8010E945331D6018D936D010F5F1F4F70
:1030300000321105A9F780913404843D09F49FC042
:1030400080E2E4E3F4E0DF011D928A95E9F784ED84
:103050008093340483E79BE3A2EEB0EC80933504C5
:1030600090933604A0933704B093380488E796EA27
:10307000AAEDB2E48093390490933A04A0933B0400
:10308000B0933C0480E090E0A4E3B2E480933D047C
:1030900090933E04A0933F04B093400480E090E0FE
:1030A000A0EEB0E48093410490934204A0934304C3
:1030B000B093440481E08093450494E190934604E6
:1030C000809347049AE0909348042EE120934904AA
:1030D0002FE020934A0490934B0490934C0427E0F4
:1030E00020934D0490934E0480934F04809350049A
:1030F000809351048093520400E010E0F701619145
:103100007F011A830983CE0101960E9459100F5F37
:103110001F4F0032110591F764E471E087E390E0FE
:103120000E94611761E571E082E890E00E94DB2374
:1031300069E571E088E191E00E94DB2361E671E0DE
:103140008EEA91E00E94DB2389E6E82E81E0F82EEA
:1031500004E412E0D7016D917D011A830983CE0149
:1031600001960E9459100F5F1F4F0035B2E01B07F8
:1031700089F765E771E08AED92E00E94611780911E
:10318000D90390E04297ECF40E94DA2482E10E9495
:10319000C12481E00E94A82481E00E948F2482E063
:1031A0000E9476248CE00E94272480E00E940E2456
:1031B00080E00E94B51681E00E94841682E00E94A1
:1031C000841680914A0480932D0480914B0480934F
:1031D000300480914C048093310480914D0480939D
:1031E000320480914E04809333048091460490E031
:1031F0000E94200C0E94480C0F900F90DF91CF91FD
:103200001F910F91FF90EF90DF90CF900895CF9393
:10321000813009F0C7C080914F04813009F0C2C0ED
:10322000809103018E3021F08F3F09F0DEC004C091
:10323000E5E2FBE0C49174C08EE080930301E5E217
:10324000FBE0E491EF3F09F4D0C0E13011F1E2304E
:1032500009F442C0E11163C014BC15BC84B582609E
:1032600084BD85B5816085BDE7EFFAE0E491F0E0CB
:10327000EE0FFF1FE152F54F8591949190930A054F
:1032800080930905EBE0FBE0E491E0930805C0E0E2
:1032900049C0109280001092810080918100886066
:1032A0008093810080918100816080938100E7EFAD
:1032B000FAE0E491F0E0EE0FFF1FE152F54F859147
:1032C00094919093070580930605EBE0FBE0E49171
:1032D000E0930505C1E026C01092B0001092B10045
:1032E0008091B00082608093B0008091B1008160D5
:1032F0008093B100E7EFFAE0E491F0E0EE0FFF1FFA
:10330000E152F54F859194919093D4058093D30524
:10331000EBE0FBE0E491E093D505C2E003C0CE2FE3
:10332000C7FD63C061E08EE00E94EF21CC2309F469
:1033300045C0C230D9F1C130F1F480918100887F5D
:1033400081608093810089E69AE090938900809360
:10335000880088EB9BE0A0E0B0E080930B059093A1
:103360000C05A0930D05B0930E0580916F0082604F
:1033700080936F003AC0C230C1F589E68093B300F4
:1033800088EB9BE0A0E0B0E08093D6059093D70552
:10339000A093D805B093D905809170008260809386
:1033A000700023C08EE0CF910C9468218091B10011
:1033B000887F83608093B10082E5E0CF85B5887F08
:1033C000836085BD88E287BD88EB9BE0A0E0B0E02C
:1033D00080930F0590931005A0931105B0931205EB
:1033E00080916E00826080936E00CF910895CF929D
:1033F000DF92EF92FF920F931F93CF93DF93CDB79E
:10340000DEB764970FB6F894DEBF0FBECDBF8CE277
:1034100093E00E94901E282F833411F08E3439F4EB
:1034200083E1E82E85E0F82E00E010E02BC0833524
:10343000B9F38CE293E00E949E1E892B29F08CE266
:1034400093E00E947C1EF5CF8EE00E946821C2C3EB
:1034500006391105C9F08CE293E02C8B0E949E1E68
:103460002C89892B79F08CE293E00E947C1E282F16
:10347000F70181937F010F5F1F4F81E02C8B0E942A
:1034800007192C892A3021F7F801EE5EFA4F1082D5
:103490006CEF71E0CE0107960E94A220E3E1F5E017
:1034A00001900020E9F73197E351F5408091130531
:1034B000833409F062C0809114058D3441F4809109
:1034C00015058E3471F50AE427E330E02DC08E3403
:1034D00061F4809115058133E1F08233F1F083339B
:1034E00001F505E92EEA31E01FC0833541F48091F2
:1034F00015058D34B1F405E924E432E015C08A34B1
:1035000081F4809115058D3461F405E92AED32E0EE
:103510000BC005E922E830E007C005E928E131E009
:1035200003C000E020E030E0C12CD12CE350EE2EAF
:10353000F12C10E0C601820F931FEC14FD0444F43B
:103540009A83898360E0CE0101960E945910ACC233
:10355000C016D106ACF7F601ED5EFA4F63819A838F
:103560008983CE0101962C8B3B8B0E945910FFEF73
:10357000CF1ADF0A3B892C89DDCF8E3409F0DAC1FE
:1035800063E175E0CE0101960E94A220BE016F5F4B
:103590007F4FCE0107960E942420CE0101960E9403
:1035A0009D2023E030E041E050E0BE01695F7F4FA5
:1035B000CE0101960E94FC166FED71E0CE010196DE
:1035C0000E940520182FCE0101960E949D20111106
:1035D00072C223E030E041E050E0BE01695F7F4FFE
:1035E000CE0101960E94FC1662EE71E0CE010196BA
:1035F0000E940520182FCE0101960E949D201111D6
:103600005DC223E030E041E050E0BE01695F7F4FE2
:10361000CE0101960E94FC1665EE71E0CE01019686
:103620000E940520182FCE0101960E949D201111A5
:1036300048C223E030E041E050E0BE01695F7F4FC7
:10364000CE0101960E94FC1668EE71E0CE01019653
:103650000E940520182FCE0101960E949D20111175
:1036600033C223E030E041E050E0BE01695F7F4FAC
:10367000CE0101960E94FC166BEE71E0CE01019620
:103680000E940520182FCE0101960E949D20111145
:103690004EC223E030E041E050E0BE01695F7F4F61
:1036A000CE0101960E94FC166EEE71E0CE010196ED
:1036B0000E940520182FCE0101960E949D20111115
:1036C00039C223E030E041E050E0BE01695F7F4F46
:1036D000CE0101960E94FC1661EF71E0CE010196C9
:1036E0000E940520182FCE0101960E949D201111E5
:1036F00024C223E030E041E050E0BE01695F7F4F2B
:10370000CE0101960E94FC1664EF71E0CE01019695
:103710000E940520182FCE0101960E949D201111B4
:103720000FC223E030E041E050E0BE01695F7F4F0F
:10373000CE0101960E94FC1667EF71E0CE01019662
:103740000E940520182FCE0101960E949D20111184
:10375000FAC123E030E041E050E0BE01695F7F4FF5
:10376000CE0101960E94FC166AEF71E0CE0101962F
:103770000E940520182FCE0101960E949D20111154
:10378000E5C123E030E041E050E0BE01695F7F4FDA
:10379000CE0101960E94FC166DEF71E0CE010196FC
:1037A0000E940520182FCE0101960E949D20111124
:1037B000D0C123E030E041E050E0BE01695F7F4FBF
:1037C000CE0101960E94FC1660E072E0CE010196E7
:1037D0000E940520182FCE0101960E949D201111F4
:1037E000BBC123E030E041E050E0BE01695F7F4FA4
:1037F000CE0101960E94FC1663E072E0CE010196B4
:103800000E940520182FCE0101960E949D201111C3
:10381000A6C123E030E041E050E0BE01695F7F4F88
:10382000CE0101960E94FC1666E072E0CE01019680
:103830000E940520182FCE0101960E949D20111193
:1038400091C123E030E041E050E0BE01695F7F4F6D
:10385000CE0101960E94FC1669E072E0CE0101964D
:103860000E940520182FCE0101960E949D20111163
:103870007CC123E030E041E050E0BE01695F7F4F52
:10388000CE0101960E94FC166CE072E0CE0101961A
:103890000E940520182FCE0101960E949D20111133
:1038A00067C123E030E041E050E0BE01695F7F4F37
:1038B000CE0101960E94FC166FE072E0CE010196E7
:1038C0000E940520182FCE0101960E949D20111103
:1038D00052C123E030E041E050E0BE01695F7F4F1C
:1038E000CE0101960E94FC1662E172E0CE010196C3
:1038F0000E940520182FCE0101960E949D201111D3
:103900003DC123E030E041E050E0BE01695F7F4F00
:10391000CE0101960E94FC1665E172E0CE0101968F
:103920000E940520182FCE0101960E949D201111A2
:1039300039C1BAC0833509F0B7C080911405843409
:1039400009F0B2C080911505843509F0ADC063E17E
:1039500075E0CE0101960E94A220BE016F5F7F4FED
:10396000CE0107960E942420CE0101960E949D2040
:103970000E94DA2425E030E043E050E0BE01695FB8
:103980007F4FCE0101960E94FC16CE0101960E9447
:10399000F116862F0E948F24CE0101960E949D2051
:1039A00027E030E045E050E0BE01695F7F4FCE0187
:1039B00001960E94FC16CE0101960E94F116862FF8
:1039C0000E94A824CE0101960E949D2029E030E0AB
:1039D00047E050E0BE01695F7F4FCE0101960E9433
:1039E000FC16CE0101960E94F116862F0E94C1247A
:1039F000CE0101960E949D202BE030E049E050E08E
:103A0000BE01695F7F4FCE0101960E94FC16CE0178
:103A100001960E94F116862F0E942724CE0101965E
:103A20000E949D202DE030E04BE050E0BE01695F38
:103A30007F4FCE0101960E94FC16CE0101960E9496
:103A4000F116862F0E940E24CE0101960E949D2021
:103A50002FE030E04DE050E0BE01695F7F4FCE01C6
:103A600001960E94FC16CE0101960E94F116862F47
:103A70000E94B516CE0101960E949D2020E130E003
:103A80004FE050E0BE01695F7F4FCE0101960E947A
:103A9000FC16CE0101960E94F116862F0E94762414
:103AA000CE0101960E949D200E94FE17CE0107962E
:103AB0000E949D208FC001E010E008C005E010E0EA
:103AC00005C009E010E002C00DE010E02B853C8548
:103AD00043E050E0BE01695F7F4FCE0101960E9436
:103AE000FC1689819A810097F1F00E94602E6D8703
:103AF0007E878F87988B6E0181E1C80ED11CFE01F5
:103B00003D967F010E1B1F0BC8018E0D9F1DF701F7
:103B100061917F019A8B898BC6010E945910EC1428
:103B2000FD0491F7BDCF60E070E0CB01E0CF01E193
:103B300010E026C002E110E023C003E110E020C045
:103B400004E110E01DC005E110E01AC006E110E03C
:103B500017C007E110E014C008E110E011C009E14E
:103B600010E00EC00AE110E00BC00BE110E008C04D
:103B70000CE110E005C00DE110E002C00EE110E024
:103B80002B853C8543E050E0BE01695F7F4FCE014D
:103B900001960E94FC16CE0101960E94F1161E8726
:103BA0000D8713C02B853C8543E050E0BE01695F63
:103BB0007F4FCE0101960E94FC16CE0101960E9415
:103BC000F1168FE190E09E878D87CE010D960E94C1
:103BD000591066CF64960FB6F894DEBF0FBECDBF06
:103BE000DF91CF911F910F91FF90EF90DF90CF90D9
:103BF0000895AF92BF92CF92DF92EF920F931F93EF
:103C0000CF93DF938C01EB016A01CA010E94311648
:103C1000E091E803F091E903309729F03396E491BD
:103C20002E2F30E002C020E030E06091D703709189
:103C3000D803601B710BDB01A81BB90BB7FD1196F4
:103C4000B595A7955801AA0EBB1E2C0F3D1F800FDE
:103C5000911FAC014A0F5B1FE12C00E0BE01C501C2
:103C600001970E94AC11A601BE01C501DF91CF9161
:103C70001F910F91EF90DF90CF90BF90AF900C9479
:103C80002F140895CF92DF92EF92FF920F931F931C
:103C9000CF93DF936C017A018B01C0E0D0E0CE15A9
:103CA000DF0589F0D8016D918D01D601ED91FC9170
:103CB0000190F081E02DC6010995892B11F47E0158
:103CC00002C02196ECCFC701DF91CF911F910F91D8
:103CD000FF90EF90DF90CF900895FC01538D448DBD
:103CE000252F30E0842F90E0821B930B541710F0A7
:103CF000CF96089501970895FC01918D828D9817B4
:103D000061F0828DDF01A80FB11D5D968C91928DBF
:103D10009F5F9F73928F90E008958FEF9FEF0895BC
:103D2000FC01918D828D981731F0828DE80FF11D85
:103D3000858D90E008958FEF9FEF0895FC01918DA0
:103D4000228D892F90E0805C9F4F821B91098F7399
:103D5000992708958CE293E00E949E1E21E0892B12
:103D600009F420E0822F0895FC01848DDF01A80F63
:103D7000B11DA35ABF4F2C91848D90E001968F7393
:103D80009927848FA689B7892C93A089B1898C91B2
:103D900080648C93938D848D981306C00288F38978
:103DA000E02D80818F7D80830895EF92FF920F93A5
:103DB0001F93CF93DF93EC0181E0888F9B8D8C8DD7
:103DC000981305C0E889F989808185FD24C0F62E05
:103DD0000B8D10E00F5F1F4F0F731127E02E8C8D9E
:103DE000E8120CC00FB607FCFACFE889F989808188
:103DF00085FFF5CFCE010E94B41EF1CF8B8DFE0161
:103E0000E80FF11DE35AFF4FF0820B8FEA89FB891F
:103E10008081806207C0EE89FF896083E889F98923
:103E200080818064808381E090E0DF91CF911F9159
:103E30000F91FF90EF900895CF93DF93EC01888D61
:103E40008823C9F0EA89FB89808185FD05C0A8899E
:103E5000B9898C9186FD0FC00FB607FCF5CF808124
:103E600085FFF2CFA889B9898C9185FFEDCFCE016E
:103E70000E94B41EE7CFDF91CF9108950E94AA1E41
:103E800081110C94F719089585ED8093BC00809101
:103E9000BC0084FDFCCF1092700208954091FC0597
:103EA000262F30E0240F311D21323105DCF4209122
:103EB00070022430C9F4FC0180E090E0861758F4C9
:103EC0003091FC052191DC01A652BA4FA30FB11D20
:103ED0002C930196F3CF8091FC05680F6093FC054D
:103EE00080E0089581E0089582E008950895E091CA
:103EF000720280917102E81730F4F0E0ED58FD4F46
:103F0000808190E008958FEF9FEF08959091720265
:103F100080917102981750F4E92FF0E0ED58FD4FB1
:103F2000208130E09F5F9093720202C02FEF3FEF3D
:103F3000C90108958091710290E020917202821B64
:103F400091090895CF92DF92EF92FF920F931F9302
:103F5000CF93DF937C01262F972F8A0180919502C2
:103F6000882391F0C62FD72F6E01C40ED51ECC1515
:103F7000DD0571F06991D701ED91FC910190F0811F
:103F8000E02DC7010995F3CF642F822F0E944E1FA9
:103F9000C801DF91CF911F910F91FF90EF90DF90BB
:103FA000CF900895CF93DF931F92CDB7DEB769838B
:103FB000209195022223D1F020919302203240F0EB
:103FC00021E030E0FC013383228380E090E015C0E3
:103FD00080919402E82FF0E0E65DFD4F9981908397
:103FE0008F5F809394028093930205C061E0CE01BD
:103FF00001960E944E1F81E090E00F90DF91CF91DB
:104000000895089580E090E00895FC0124813581B1
:10401000232B31F421E061157105A1F0FB0108C0EB
:10402000FC01808191816115710531F421E0FC0171
:104030008081882339F005C00E94353721E0892B23
:1040400009F020E0822F08950F931F93CF93DF9301
:104050008C01EB01FC01808191810097B1F06881B6
:1040600079816115710579F0428153812C813D81FF
:104070004217530740F00E943E378C819D81F80122
:104080009583848313C00E94BE3588819981F8018D
:10409000918380838A819B81938382838C819D819C
:1040A00095838483198218821B821A821D821C8246
:1040B000DF91CF911F910F910895EF92FF920F938F
:1040C0001F93CF93DF93EC017B018A018881998153
:1040D000009729F02A813B8124173507F8F4B801AD
:1040E0006F5F7F4F0E945636009759F099838883FF
:1040F0001B830A832C813D81232B81F4FC011082D8
:104100000DC088819981009711F00E94BE351982F7
:1041100018821D821C821B821A8207C01D830C8399
:10412000B701888199810E943E37CE01DF91CF91FE
:104130001F910F91FF90EF900895FC018081918174
:104140000C94BE35FC0111821082138212821582FA
:1041500014826115710551F0FB0101900020E9F70F
:104160003197AF01461B570B0C945D2008951F92A9
:104170000F920FB60F9211242F933F934F935F939B
:104180006F937F938F939F93AF93BF93EF93FF931F
:104190008CE293E00E94B41EFF91EF91BF91AF912A
:1041A0009F918F917F916F915F914F913F912F914F
:1041B0000F900FBE0F901F9018951F920F920FB681
:1041C0000F9211242F938F939F93EF93FF93E0917E
:1041D0003C03F0913D038081E0914203F091430361
:1041E00082FD12C09081809145038F5F8F73209173
:1041F0004603821751F0E0914503F0E0E45DFC4F87
:10420000958F8093450301C08081FF91EF919F912D
:104210008F912F910F900FBE0F901F9018958330A4
:1042200081F028F4813099F08230A1F00895873030
:10423000A9F08830B9F08430D1F4809180008F7D6E
:1042400003C0809180008F7780938000089584B5AB
:104250008F7702C084B58F7D84BD08958091B000B2
:104260008F7703C08091B0008F7D8093B000089558
:104270001F93CF93DF93282F30E0F901EF5EF44FC7
:104280008491F901E350F54FD491F901E751F54FCD
:10429000C491CC23C9F0162F81110E940F21EC2F5D
:1042A000F0E0EE0FFF1FE152F54FA591B4918FB7EB
:1042B000F894111105C09C91ED2FE095E92302C0FF
:1042C000EC91ED2BEC938FBFDF91CF911F9108956F
:1042D00090910301981324C0E5E2FBE0E4919FEF85
:1042E00090930301E130B9F098F0E230C9F4909175
:1042F00070009D7F9093700091E09093B00090913A
:10430000B100987F94609093B1001092B30008C000
:1043100010926E0005C090916F009D7F90936F008A
:1043200060E00C9438211F920F920FB60F92112467
:104330002F933F934F935F936F937F938F939F93AD
:10434000AF93BF93EF93FF938091D6059091D705DC
:10435000A091D805B091D905892B8A2B8B2B51F1CF
:104360008091D505E091D305F091D40590818927FE
:1043700080838091D6059091D705A091D805B09102
:10438000D905181619061A061B06C4F48091D6051D
:104390009091D705A091D805B091D9050197A109B1
:1043A000B1098093D6059093D705A093D805B09313
:1043B000D90504C0809103010E946821FF91EF910B
:1043C000BF91AF919F918F917F916F915F914F912D
:1043D0003F912F910F900FBE0F901F901895CF9384
:1043E000DF9390E0FC01E350F54F2491FC01E7518D
:1043F000F54F8491882361F190E0880F991FFC01AB
:10440000EB52F54FC591D491FC01E152F54FA591C6
:10441000B491611109C09FB7F894888120958223D7
:104420008883EC912E230BC0623061F49FB7F8941F
:104430003881822F809583238883EC912E2B2C93B7
:104440009FBF06C08FB7F894E8812E2B28838FBFBB
:10445000DF91CF9108952FB7F8946091260670915F
:10446000270680912806909129062FBF08951F9254
:104470000F920FB60F9211242F933F938F939F9318
:10448000AF93BF938091260690912706A0912806AE
:10449000B09129063091250623E0230F2D3720F413
:1044A0000196A11DB11D05C026E8230F0296A11D8E
:1044B000B11D209325068093260690932706A0938E
:1044C0002806B09329068091210690912206A0919A
:1044D0002306B09124060196A11DB11D80932106EB
:1044E00090932206A0932306B0932406BF91AF9128
:1044F0009F918F913F912F910F900FBE0F901F9022
:1045000018951F920F920FB60F9211242F933F937D
:104510004F935F936F937F938F939F93AF93BF93CB
:10452000EF93FF938091B900887F803609F49CC097
:1045300068F5883209F45BC090F4803109F454C006
:1045400038F4882309F4F6C0883009F44DC0F6C069
:10455000883109F44CC0803209F45DC0EFC080346A
:1045600009F468C048F4803309F455C0883309F071
:10457000E5C080936E02D8C0803509F44FC08835FD
:1045800009F45DC0883409F0D9C0D6C0883909F46F
:10459000C7C0A8F4883709F467C038F4883609F42E
:1045A00063C0803709F460C0C9C0883809F4B8C056
:1045B000803909F45FC0803809F0C0C05BC0803B1F
:1045C00009F486C038F4803A09F466C0883A09F4E0
:1045D0007FC0B4C0803C09F4A7C0883C09F4A4C0E3
:1045E000883B09F48AC0AAC080916B0210C09091E8
:1045F0006D0280916C02981770F5E0916D0281E078
:104600008E0F80936D02F0E0E65BFD4F808180931A
:10461000BB0085EC86C080936E028EC0E0916D0277
:1046200081E08E0F80936D028091BB00F0E0E65B2D
:10463000FD4F808390916D0280916C026EC0E0917D
:104640006D0281E08E0F80936D028091BB00F0E0DF
:10465000E65BFD4F808380916F0281116DC081E028
:1046600080936A0284EA61C083E0809370021092B2
:104670002006CFCF80912006803208F051C0E09113
:10468000200681E08E0F809320068091BB00F0E031
:10469000E050FA4F8083BDCF85EC8093BC00109230
:1046A000700280912006803230F4E0912006F0E024
:1046B000E050FA4F10826091200670E0E091FE0514
:1046C000F091FF0580E096E009951092200636C033
:1046D00084E0809370021092FD051092FC05E09139
:1046E000FA05F091FB0509958091FC05811105C043
:1046F00081E08093FC051092DA05E091FD0581E0F0
:104700008E0F8093FD05F0E0E652FA4F8081809392
:10471000BB009091FD058091FC05981708F479CFB6
:1047200085E88093BC000AC085EC8093BC001092A1
:10473000700204C010926E020E94441FFF91EF911C
:10474000BF91AF919F918F917F916F915F914F91A9
:104750003F912F910F900FBE0F901F9018951F92B1
:104760000F920FB60F9211242F933F934F935F93A5
:104770006F937F938F939F93AF93BF93EF93FF9329
:10478000E091FA03F091FB030995FF91EF91BF913E
:10479000AF919F918F917F916F915F914F913F91D9
:1047A0002F910F900FBE0F901F9018958EBD0DB4D6
:1047B00007FEFDCF0895AF92BF92CF92DF92EF92A6
:1047C000FF920F931F93CF93DF9300D0CDB7DEB747
:1047D0008B016B0128E0C20ED11C7B015C01A61A83
:1047E000B70A95012E0D3F1DF70161917F013A83B4
:1047F0002983CE0101960E945910EC14FD0489F71B
:10480000C8010F900F90DF91CF911F910F91FF90F2
:10481000EF90DF90CF90BF90AF900895CF93C82FC7
:1048200088E60E94101381E090E00E94C0138C2F54
:104830006AE00E94EF34692F20E1829F600D11240D
:1048400089EC93E00E94D21FCF910C9463131F93C5
:10485000CF93DF931F92CDB7DEB7182F88E60E9463
:10486000101382E090E00E94C0130E94631381E065
:1048700090E00E941A1389EC93E00E94861F86FF45
:1048800018C01D3060F084EF810F6AE00E94EF34A1
:10489000692F20E1829F600D1124606614C0812F72
:1048A0006AE00E94EF34692F20E1829F600D11249D
:1048B0000AC0812F6AE00E94EF34692F20E1829FB5
:1048C000600D11246F7B88E669830E94101382E0DB
:1048D00090E00E94C013698189EC93E00E94D21F8E
:1048E0000F90DF91CF911F910C946313CF93C82F3A
:1048F00088E60E94101383E090E00E94C0138C2F82
:104900006AE00E94EF34692F20E1829F600D11243C
:1049100089EC93E00E94D21FCF910C946313CF9344
:10492000C82F88E60E94101384E090E00E94C01314
:104930008C2F6AE00E94EF34692F20E1829F600D86
:10494000112489EC93E00E94D21FCF910C94631341
:10495000CF93C82F88E60E94101385E090E00E9454
:10496000C0138C2F6AE00E94EF34692F20E1829FF0
:10497000600D112489EC93E00E94D21FCF910C941A
:104980006313CF93C82F88E60E94101386E090E04F
:104990000E94C0138C2F6AE00E94EF34692F20E13F
:1049A000829F600D112489EC93E00E94D21FCF9169
:1049B0000C946313CF9388E60E94101382E090E07A
:1049C0000E94C0130E94631381E090E00E941A13BA
:1049D00089EC93E00E94861FC82F88E60E9410137E
:1049E00082E090E00E94C0136C2F6F7B89EC93E013
:1049F0000E94D21FCF910C94631310922F03109238
:104A00002E0388EE93E0A0E0B0E080933003909313
:104A10003103A0933203B09333032EE031E030939F
:104A20002D0320932C0325EC30E0309339032093A1
:104A3000380324EC30E030933B0320933A0320EC1E
:104A400030E030933D0320933C0321EC30E0309381
:104A50003F0320933E0322EC30E030934103209348
:104A6000400326EC30E0309343032093420310923E
:104A70004503109246031092470310924803109288
:104A8000CC031092CB038093CD039093CE03A093DD
:104A9000CF03B093D00380E291E09093CA03809358
:104AA000C90380E690E09093E1038093E00380E106
:104AB00090E09093E3038093E2038CE090E0909386
:104AC000E5038093E4031092E9031092E80381E088
:104AD0008093EA0380EC90E00E9429359093E703ED
:104AE0008093E603009731F040EC50E06FEF70E008
:104AF0000E942E371092EB031092EC031092EE03FB
:104B00001092ED031092F0031092EF031092F20353
:104B10001092F1030E942B226093F3037093F4032D
:104B20008093F5039093F6038091E6039091E70359
:104B30009093F2038093F1039093EE038093ED033F
:104B400061E08DE00E94EF2161E08BE00E94EF21A7
:104B500061E08AE00E94EF2160E08DE00E94382150
:104B600060E08BE00E94382161E08AE00E943821F9
:104B70008CB580618CBD8CB580648CBD8CB58F7D0F
:104B80008CBD8CB5837F8CBD8CB58C7F8CBD8DB579
:104B900081608DBD61E086E00E94EF2161E087E0E9
:104BA0000E94EF2161E088E00E94EF2161E089E04E
:104BB0000E94EF2160E086E00E94382160E087E0FB
:104BC0000E94382160E088E00E94382160E089E09E
:104BD0000E94382161E08BE00E94382180E18093BF
:104BE000DE038CE18093DD0386E08093DC0320E02C
:104BF00081E697E9E3E9FEEF31E0422F437009F0E7
:104C000030E061E0620F432F50E0DA01A359BE4F5C
:104C10008A179B0738F09F01241B350B820F931FC7
:104C2000262FEACF2093D90321E0E22FF0E0E15FC5
:104C3000FC4FE491332319F0223009F4EF5FF0E0E8
:104C400041E0420F8E179F0720F08E1B9F0B242FF1
:104C5000ECCF2093DA038F5F8093DB038091E00336
:104C60009091E1039093D8038093D7038091E2035E
:104C70009091E3039093D6038093D5030895CF9347
:104C8000DF93CDB7DEB7C456D1090FB6F894DEBFB7
:104C90000FBECDBF789484B5826084BD84B5816039
:104CA00084BD85B5826085BD85B5816085BD8091F7
:104CB0006E00816080936E0010928100809181006F
:104CC0008260809381008091810081608093810067
:104CD000809180008160809380008091B100846029
:104CE0008093B1008091B00081608093B00080918A
:104CF0007A00846080937A0080917A008260809349
:104D00007A0080917A00816080937A0080917A00A5
:104D1000806880937A001092C10010927202109203
:104D2000710210929402109293021092700211E09C
:104D300010936F0210926A0261E082E10E943821B2
:104D400061E083E10E9438218091B9008E7F8093D9
:104D5000B9008091B9008D7F8093B90088E4809379
:104D6000B80085E48093BC00E0913C03F0913D03E2
:104D700082E08083E0913803F09139031082E09162
:104D80003A03F0913B038FEC808310924403E0914F
:104D90004003F091410386E08083E0913E03F0916F
:104DA0003F03808180618083E0913E03F0913F0367
:104DB000808188608083E0913E03F0913F03808191
:104DC00080688083E0913E03F0913F0380818F7D76
:104DD00080830E944E0B0E94FE178091EB0381306E
:104DE000A1F11093EB032091E4033091E50380914E
:104DF000E2039091E303289F8001299F100D389FC3
:104E0000100D1124C8010E9429359093F00380935E
:104E1000EF030097C1F0A8016FEF70E00E942E37FA
:104E2000F8948091EF039091F0039093E7038093BF
:104E3000E6038091ED039091EE039093F20380934B
:104E4000F103789402C01092EB0380E1809381001B
:104E50001092800081E08093FE0320E83EE33093CF
:104E6000FD032093FC03309387002093860091E19B
:104E70009093810020E637E03093FB032093FA0300
:104E800080936F008091460490E00E94200C8EEF8A
:104E900094E09093E9038093E8032091E403309138
:104EA000E5038091E2039091E303289FA001299FED
:104EB000500D389F500D11246FEF70E08091E60384
:104EC0009091E7030E942E370E945D1611E09E012B
:104ED0002F5F3F4F69011E013CE4230E311C0E94ED
:104EE0004E0B8090200490902104A0902204B0905A
:104EF00023044091FF03A0964FAFA0975091450423
:104F0000A1965FAFA197809100056F968FAF6F97C5
:104F10000091F904A0910101B09102016E96BFAF1A
:104F2000AEAF6E97E0E0F4E06B96FFAFEEAF6B973D
:104F3000FFEF6C96FFAF6C97E12CF12C9FEFE91A15
:104F4000F90AA8E0EA16F10409F457C0C70102976C
:104F5000029708F448C06B96AEADBFAD6B97149640
:104F60004D905D906D907C901797A3019201C501C3
:104F7000B4010E94643487FD36C06C96EFAE6C9726
:104F8000011131C0A3019201C501B4010E94643432
:104F900018164CF52FE832EC45EF5CE3C301B20183
:104FA0000E94CC319B01AC01C501B4010E942C30A0
:104FB00087FF19C0A096BFADA097B63069F4E4E0B2
:104FC000EE16F10449F4A196FFADA197F13021F45A
:104FD00021E06F962FAF6F9744E650E06E965FAF7B
:104FE0004EAF6E9701E06B968EAD9FAD6B970496BA
:104FF0006B969FAF8EAF6B97A1CF6C968FAC6C9773
:10500000809200010093F9046F969FAC6F97909285
:1050100000056E96AEACBFAC6E97B0920201A09246
:105020000101109229022EEF34E03093E90320931E
:10503000E8032091E4033091E5038091E20390912D
:10504000E303289FA001299F500D389F500D112484
:105050006FEF70E08091E6039091E7030E942E3796
:105060000E942B222091590430915A04AB01421B1B
:10507000530B9A0121363A4E30F070935A046093E4
:1050800059040E94480C80910101909102010197FE
:1050900009F05FC00E942B2220915D0430915E04D4
:1050A000AB01421B530B4536510550F030915C0467
:1050B00020915B04332309F47CC4313009F482C4A9
:1050C00020915D0430915E04AB01421B530B809133
:1050D0005B044131574208F480C4803109F07DC43B
:1050E00010935C04E0E1EE2EF12CE81AF108AEEF2B
:1050F000B4E0B093E903A093E803B70161507109EC
:105100004BE851E082E290E00E94F91DEEEFF4E0FE
:10511000F093E903E093E803B701685F7F4F41E94B
:1051200051E082E290E00E94F91D109329024CE1C7
:1051300053E0B70181E090E00E94C513109329026B
:105140004EE353E0B70181E190E00E94C513109354
:1051500029028091010190910201029709F099C002
:1051600042E853E061E070E081E090E00E94C51306
:1051700040E653E061E070E080E590E00E94C513F6
:105180000E942B22AB01BC018091670490916804BE
:10519000A0916904B0916A044A015B01881A990AD6
:1051A000AA0ABB0AD501C40185369105A105B1053E
:1051B000E0F08090630490906404A0906504B09047
:1051C000660480915F0490916004A0916104B091A5
:1051D000620481149104A104B10409F412C48A94F4
:1051E00089288A288B2809F41EC48091670490912D
:1051F0006804A0916904B0916A04481B590B6A0BBA
:105200007B0B80915F0490916004A0916104B09148
:105210006204413157426105710508F01DC4892BB4
:105220008A2B8B2B09F42BC42AEE38E03093E90348
:105230002093E80352E0E52E01E02EE030E04EE45A
:1052400050E064E070E083E190E00E94AC11809156
:10525000DE031F928F938091DD031F928F938091C5
:10526000DC031F928F93ACE9B1E0BF93AF93DF9261
:10527000CF920E944537A60166E070E083E090E09F
:105280000E94F91D109329020FB6F894DEBF0FBEDD
:10529000CDBF0E94941723E030E041E050E06BE482
:1052A00070E00E947B08E0905804F12C8091570434
:1052B00090E001972AE1289FB001299F700D1124E9
:1052C0006D5D7B4F2AE130E040E050E0C6010E9476
:1052D0008B2E31E0E31AF1088DE08E9DB0018F9D99
:1052E000700D112460567C4F2DE030E040E050E01E
:1052F000C1010E948B2E3F922F92DF92CF928BEAB8
:1053000091E09F938F938BE694E09F938F930E94FD
:10531000453724E030E040E050E06BE470E08BE69D
:1053200094E00E947B0885E090E00E94F10986E00D
:1053300090E00E94F10987E090E00E94F10982E884
:1053400090E00E943A1228E030E041E050E06BE447
:1053500070E086E992E00E947B080E94941729E0A1
:1053600030E041E050E06BE470E00E947B088AE0AE
:1053700090E00E94F1098BE090E00E94F1098CE03E
:1053800090E00E94F10988E191E00E943A122DE03C
:1053900030E042E050E06BE470E086E992E00E9489
:1053A0007B088091450490E001972AE0289FB00196
:1053B000299F700D112464577B4F2AE030E040E0B4
:1053C00050E0C1010E948B2E56010FB6F894DEBF4B
:1053D0000FBECDBF47E3E42EF12CC7010E9453312D
:1053E000D5018D935D01BFEFEB1AFB0AE2E8EE16E3
:1053F000F10499F7DF92CF923F922F928EE291E0E3
:105400009F938F938DE994E09F938F930E944537EC
:105410002EE030E042E050E06BE470E08DE994E093
:105420000E947B080E9494172FE030E041E050E09A
:105430006BE470E00E947B0880E190E00E94F1093B
:1054400081E190E00E94F1098EEA91E00E943A1217
:1054500022E130E041E050E06BE470E086E992E068
:105460000E947B080FB6F894DEBF0FBECDBF8091BF
:105470000101909102018436910501F50E942B22D1
:105480004B015C018091F3049091F4049401281B7A
:10549000390BC901853F914028F08091F204813F8A
:1054A00008F40EC38091F3049091F404881A990AC9
:1054B000A1ED8A16A7E09A0608F06BC3809101015E
:1054C000909102018536910509F052C00E942B226D
:1054D0002B013C01E09100010E2E000CFF0BE45D5E
:1054E000FB4FA0804CE3A49E5001112482E0E82EE3
:1054F00001E02FE030E04FE550E060E070E080E256
:1055000090E00E94AC112EE030E04EE550E061E00A
:1055100070E081E290E00E94AC118091F7049091DC
:10552000F804D201A81BB90BCD01893E934040F08D
:105530008091F5049091F604A816B9060CF03EC3CC
:105540008091F5049091F604A816B9068CF485E6CE
:1055500090E09093560480935504109202011092AB
:1055600001011092F6041092F5048EE00E94682169
:1055700084E492E00E943A1226E630E040E050E0F7
:1055800062E370E086E992E00E947B088AED92E097
:105590000E943A1227E630E040E050E062E370E01B
:1055A00086E992E00E947B088091010190910201BE
:1055B0008836910509F064C00E942B2220910005D5
:1055C000222309F465C320914904ACE32A9F90018A
:1055D00011243093FF042093FE04A2966FAFA2978C
:1055E000A3967FAFA397A4968FAFA497A5969FAFDE
:1055F000A5970E94A9152091FC043091FD04A29664
:105600006FADA297A3967FADA397FB01E21BF30BAF
:105610009F01293E334078F07093FD046093FC04B1
:10562000109329028091FA049091FB0401969093C3
:10563000FB048093FA042091FA043091FB048091DA
:10564000FE049091FF048217930790F488E690E09F
:105650009093560480935504109202011092010118
:105660001092F904109200051092FB041092FA04B3
:105670004CED59E060E070E080E390E00E94C513DB
:105680008091550490915604019759F422E0822E9E
:10569000912C909202018092010110925604109276
:1056A00055048091550490915604029751F483E07B
:1056B00090E09093020180930101109256041092A1
:1056C00055048091550490915604039789F4809174
:1056D0005804882319F084E090E002C085E090E04F
:1056E0009093020180930101109256041092550488
:1056F0008091550490915604049751F485E090E010
:105700009093020180930101109256041092550467
:105710008091550490915604059751F486E090E0ED
:105720009093020180930101109256041092550447
:105730008091550490915604069751F487E090E0CB
:105740009093020180930101109256041092550427
:105750008091550490915604079751F488E090E0A9
:105760009093020180930101109256041092550407
:105770008091550490915604089751F489E090E087
:1057800090930201809301011092560410925504E7
:105790008091550490915604099751F48AE090E065
:1057A00090930201809301011092560410925504C7
:1057B00080915504909156040A9751F48BE090E043
:1057C00090930201809301011092560410925504A7
:1057D00080915504909156040B9751F48CE090E021
:1057E0009093020180930101109256041092550487
:1057F00080915504909156040C9751F48DE090E0FF
:105800009093020180930101109256041092550466
:1058100080915504909156040D9751F48EE090E0DC
:105820009093020180930101109256041092550446
:1058300080915504909156040E9751F48FE090E0BA
:105840009093020180930101109256041092550426
:1058500080915504909156040F9759F490E1A92E28
:10586000B12CB0920201A092010110925604109244
:1058700055048091550490915604409751F481E16C
:1058800090E09093020180930101109256041092CF
:1058900055048091550490915604419751F482E14A
:1058A00090E09093020180930101109256041092AF
:1058B00055048091550490915604429751F481E02B
:1058C00090E090930201809301011092560410928F
:1058D0005504809155049091560484369105D9F46D
:1058E00080910005882369F087E690E0909302019B
:1058F00080930101109256041092550410935404A1
:105900000AC085E690E09093020180930101109215
:105910005604109255048091550490915604853692
:10592000910561F486E690E0909302018093010175
:10593000109256041092550410935404809155040B
:10594000909156048636910551F488E690E0909344
:105950000201809301011092560410925504809127
:105960005504909156048736910551F488E690E0ED
:1059700090930201809301011092560410925504F5
:1059800080915504909156048836910551F481E038
:1059900090E09093020180930101109256041092BE
:1059A00055048091290281110E945D160E943E1FBC
:1059B00096CA203108F084CB70935E0460935D0436
:1059C0002F5F08C0222309F47BCB70935E046093A1
:1059D0005D04215020935B0473CB811183CB9091A4
:1059E0005C04913009F07ECB21E030E03093560426
:1059F00020935504109202011092010110925C0450
:105A000071CB87309105A105B10508F0EECB40932D
:105A10006704509368046093690470936A04019664
:105A2000A11DB11D10C00097A105B10509F4DDCB82
:105A300040936704509368046093690470936A0408
:105A40000197A109B10980935F0490936004A0932A
:105A50006104B0936204C9CB87309105A105B105FB
:105A600009F0DDCB812C912C540183948092630446
:105A700090926404A0926504B0926604D0CB8091A9
:105A8000630490916404A0916504B0916604019749
:105A9000A105B10509F0C8CB62E0A62EB12CB092E9
:105AA0005604A09255041092020110920101109226
:105AB0006304109264041092650410926604B4CBDF
:105AC0009092F4048092F30480FD54C032E0E32EFF
:105AD00001E02FE030E04FE550E060E070E081E26F
