:100000000C94FC050C9424060C9424060C942406F1
:100010000C9424060C9424060C9424060C942406B8
:100020000C9424060C9424060C9424060C942406A8
:100030000C9424060C940A270C9424060C94240691
:100040000C94EC210C9424060C94DF200C94B92021
:100050000C9424060C9424060C9424060C94240678
:100060000C9436220C942406036EDB363D9A999943
:10007000993DABAAAA2A3E000000803F084AD73B20
:100080003BCE016E84BCBFFDC12F3D6C74319ABD67
:1000900056833DDA3D00C77F11BED9E4BB4C3E918B
:1000A0006BAAAABE000000803F072C7AA5BA6CC5D7
:1000B00090DA3B9365FC8BBC53F810FD3C56928361
:1000C0004DBD879D3AB63DCBC9BF5BBE73DA0FC944
:1000D0003F05A84CCDB2D44EB93836A9020C50B960
:1000E000918688083CA6AAAA2ABE000000803F0686
:1000F00064EC1B3C04BC163E3BE5B93CC93C37C232
:100100009E5A3D660498083EEA69AAAA3E0000008D
:10011000803F4E414E494E495459494E46CDCCCC74
:100120003D0AD7233C17B7D13877CC2B329595E6CB
:10013000241FB14F0A000020410000C84200401CAB
:100140004620BCBE4CCA1B0E5AAEC59D74008040F2
:10015000C020A060E0109050D030B070F008884807
:10016000C828A868E8189858D838B878F80484449B
:10017000C424A464E4149454D434B474F40C8C4CA7
:10018000CC2CAC6CEC1C9C5CDC3CBC7CFC0282424D
:10019000C222A262E2129252D232B272F20A8A4AA7
:1001A000CA2AAA6AEA1A9A5ADA3ABA7AFA0686463B
:1001B000C626A666E6169656D636B676F60E8E4E47
:1001C000CE2EAE6EEE1E9E5EDE3EBE7EFE018141F6
:1001D000C121A161E1119151D131B171F109894977
:1001E000C929A969E9199959D939B979F90585450B
:1001F000C525A565E5159555D535B575F50D8D4D17
:10020000CD2DAD6DED1D9D5DDD3DBD7DFD038343BC
:10021000C323A363E3139353D333B373F30B8B4B16
:10022000CB2BAB6BEB1B9B5BDB3BBB7BFB078747AA
:10023000C727A767E7179757D737B777F70F8F4FB6
:10024000CF2FAF6FEF1F9F5FDF3FBF7FFF0000002B
:10025000002300260029004D41534A494400000074
:10026000004D5553484F4C4C410000544F4B4F00EC
:1002700000000000004C616E6767617200000000C2
:100280004148414400000053454E494E000053454B
:100290004C41534100524142550000004B414D49F1
:1002A0005300004A554D27415400534142545500D4
:1002B00000004D7568617272616D000000536861E5
:1002C00066617200000000005261622E4177616C2D
:1002D0000000005261622E416B68697200004A752D
:1002E0006D2E4177616C0000004A756D2E416B6880
:1002F0006972000052616A616200000000000053F0
:1003000079612762616E0000000052616D6164686E
:10031000616E00000053796177616C00000000009D
:10032000447A756C71612764616800447A756C6801
:10033000696A616800000053594157414C53796123
:1003400077616C00000000000000535941274241D2
:100350004E00000000000053454E494E00000000D2
:10036000000000004B414D49530000000000000018
:100370000054454E4741482042554C414E004152A1
:100380004F46414800000000000000445A554C48C8
:10039000494A41480000000054415355274100009C
:1003A0000000000000415359555241000000000078
:1003B000000052414D414448414E00000000000001
:1003C0004D4152492050554153410000000000006A
:1003D0000000000000000000000053554441484B5D
:1003E0004148204B495441205055415341000000A1
:1003F000000000004D415249204B495441205045D6
:100400005242414E59414B205055415341005345B2
:100410004C414D4154204D454E4A414C414E4B417B
:100420004E2050554153410000494D53414B00006F
:100430000053485542554800005445524249540023
:10044000004448554841000000445A554855520060
:100450000041534841520000004D4147524942007B
:100460000049535941000000004A554D27415400AE
:10047000000003D0060F300A06060606060606062A
:100480000606FCFE0202FEFC3F7F40407F3F080C58
:10049000FEFE000040407F7F40400C0E02C2FE3C4A
:1004A000707C6F6360600C8E8282FE7C3071414193
:1004B0007F3E80E078FEFE000F0F487F7F487E7E03
:1004C0002222E2C2307040407F3FF0F84C46C282A8
:1004D0003F7F40407F3F020202E2FE1E00007F7F1E
:1004E00000007CFE8282FE7C3E7F41417F3EFCFE1E
:1004F0000202FEFC414362321F0F12360A0A2060DC
:1005000000020306050807010303050502030203B1
:10051000050505050505050505050202060606048F
:100520000807050606050506070203060507060671
:100530000506060506060709070606030303040564
:100540000205050405050405050203050208050565
:100550000505030403050608060604040104060550
:10056000DEDE000006000600000028F82EF82E2827
:1005700000000000000098B4FEB4640000400000D9
:100580000C12D27C78969060000000000000000001
:1005900060FC9EB262E0B0000000000000000600B7
:1005A0003CFF8100000081FF3C00000014183E1851
:1005B0001400000000002020F820200000000000AF
:1005C000C0C04000202020000000C0C00000C03893
:1005D000060000007CFE82FE7C000000000082829B
:1005E000FEFE800000000000C2E2B29E8C0000000F
:1005F0000000829292FE6C0000000000605844FEF1
:10060000FE00000000009E9E92F2620000000000CA
:100610007CFE96F262000000000082E27A1E060074
:10062000000000006CEE92EE6C00000000008C9E5A
:10063000D2FE7C0000000000D8D80000D8D84000CE
:1006400020505050D88800000000000050505050FA
:10065000505000000000000088D85050502000008A
:100660000000000002DADE0E000000007884324A4A
:100670004AFA4438000040404000000080F07E4EBE
:100680007EF08000000000000000FEFE92FE6C0084
:1006900000000000387CC68282C600000000000016
:1006A000FEFE8282FE7C000000000000FEFE9292B0
:1006B000920000000000FEFE121212000000000076
:1006C00078FC8692F2F6000000000000FEFE10109A
:1006D00010FEFE00000000000000FEFE000000FE14
:1006E000FE80C040FEFE386CC682000000000000A4
:1006F000FEFE8080800000000000FEFE0C300CFE3C
:10070000FE00000000000000FEFE0C30FEFE0000B7
:10071000000000007CFE8282FE7C000000000000E1
:10072000FEFE121E0C00000000007CFE8282FE7C99
:10073000000000004000FEFE127EEC800000000081
:100740000000CC9E92F26600000000000202FEFE55
:1007500002020000000000007EFE8080FE7E00009D
:1007600000000000021EF8C0F81E02000000000099
:1007700000000EFEE03C063CE0FE0E000000000023
:100780000000000082C67C107CC6820000000000D1
:100790000000060EF8F80E06000000000000C2E29D
:1007A000B29A8E86000000000000FFFF810000006A
:1007B0000638C000000081FFFF00000004020204B0
:1007C00000000000000000000080808080800102A6
:1007D0000000E8E8A8F8F00000000000FFFF88F83B
:1007E00070000000000070F888880000000070F8B9
:1007F00088FFFF000000000070F8A8B8B0000000FB
:10080000000008FEFF090000000070F888F8F800FA
:100810008080C040FFFF08F8F80000000000FBFBEC
:10082000000000FBFB80C040FFFF70D88800000084
:100830000000FFFF0000F8F808F8F808F8F80000DA
:10084000000000000000F8F808F8F80000000000C0
:1008500070F888F8700000000000F8F888F870C0A0
:10086000C000000070F888F8F8000000C0C0F8F878
:1008700008000000B0B8E86800000000FCFC880038
:100880000000F8F880F8F800000000001878C0C0F8
:10089000781800000000000018F8E03838E0F81878
:1008A000000000000000000088D87070D8880000A8
:1008B000000000000838E0E038080080C0000000B8
:1008C000C8E8B8980000000008FFF78100000000A9
:1008D000FEC081F7FF08000000002010102020104B
:1008E000000000000000FC040404FCC0808080C004
:1008F0000BA60407206001010304040404010202A2
:1009000003030203020404040404040404040404AE
:10091000020204030404040404040404040404039D
:100920000405040504040404040405040505050580
:10093000040304030404020404040404040404037C
:100940000404030504040405040404040505050463
:10095000040404040401005E060006000000000018
:100960000000002616686400000000063C42423C7D
:100970000A040A103810503010101060606010081F
:10098000067E42427E427E40007252525E52525277
:100990007E1E10107E5E5252727E5252720202020F
:1009A0007E7E52527E5E52527E2424241400000029
:1009B000001414140000000004520A040000000097
:1009C0007C12127C7E52522C3C4242247E42423C9B
:1009D0007E5252427E1212023C4252347E10107EEF
:1009E000427E422040423E7E101824427E404040DB
:1009F0007E0408047E7E08107E3C42423C7E121239
:100A00000C3C52225C7E12324C4C52522202027E2C
:100A100002023E40403E1E2040201E3E4030403EEE
:100A20004628102846060870080662524A467E424A
:100A3000420608106042427E0402020440404040E8
:100A40000204205454787E484830384444283048C2
:100A5000487E38545418087C0A0A18A4A47C7E10D6
:100A60000870487A404080887A7E102844427E4050
:100A70007C047804787C08047838444438FC2424C6
:100A800018081414FC807C04040848545424043EC0
:100A900044443C40207C1C2040201C3C4030403CD6
:100AA00044281028444C90907C6454544C0000001E
:100AB00000000000000000000000000000001F1CFB
:100AC0001F1E1F1E1F1F1E1F1E1F3D3D3D20656E4A
:100AD00064206F6620706172616D65746572732049
:100AE0003D3D3D004E494120203A20004E494C20DA
:100AF000203A20004E495320203A20004E494920F8
:100B0000203A20004E494D20203A20004E424C20F1
:100B1000203A20004E535520203A20004E535420B6
:100B2000203A20004E534920203A20004E425A20BD
:100B3000203A20004E493720203A20004E493620E6
:100B4000203A20004E493520203A20004E493420DA
:100B5000203A20004E493120203A20004E4A4D20B4
:100B6000203A20004E534F20203A20004E43482088
:100B7000203A20004E494820203A20004E4D542073
:100B8000203A20004E545A20203A20004E414C205A
:100B9000203A20004E4C4F20203A20004E4C41205D
:100BA000203A200000000000240027002A00000056
:100BB0000000250028002B0004040404040404049D
:100BC00002020202020203030303030301020408F8
:100BD00010204080010204081020010204081020A7
:100BE00000000008000201000003040700000000EC
:100BF00000000000C22E143011241FBECFEFD8E039
:100C0000DEBFCDBF26E0A6E7B2E001C01D92AD3643
:100C1000B207E1F712E0A0E0B1E0EEEBF7E702C0C7
:100C200005900D92A637B107D9F715E0CBEFD5E0C7
:100C300004C02197FE010E940F37CA3FD107C9F7B0
:100C40000E943B280C94D23B0C9400008F929F9200
:100C5000AF92BF92CF92DF92EF92FF920F931F93CA
:100C6000CF93DF9300D000D000D0CDB7DEB78C019A
:100C70000E94E0214B015C0180915C051F928F93E3
:100C800093ECC92E91E0D92EDF92CF927E0124E021
:100C9000E20EF11CFF92EF920E94313980915D05C6
:100CA0001F928F93DF92CF92CE0101966C019F939A
:100CB0008F930E94313982E794E090936905809385
:100CC0006805A70160E070E0C8010A970E94C81596
:100CD000A60160E070E0C80107960E94C8158091E7
:100CE0007C0290917D029401281B390BC9010FB63B
:100CF000F894DEBF0FBECDBF843F31E09307E0F430
:100D0000580185E0A80EB11C680194E0C90ED11C01
:100D100082E0E82E01E025E030E0A50163E070E02C
:100D2000C6010E942A142CE030E0A5016AE070E0C0
:100D3000C6010E942A1407C0893E934020F0909279
:100D40007D0280927C0281E08093A60326960FB6F6
:100D5000F894DEBF0FBECDBFDF91CF911F910F91F1
:100D6000FF90EF90DF90CF90BF90AF909F908F90CB
:100D70000895CF92DF92EF92FF926B017C0120E009
:100D800030E044EB53E40E948F340E94373520E07A
:100D900030E044EB53E40E9457329B01AC01C701A1
:100DA000B6010E9490336B017C0120E030E0A90184
:100DB0000E94F13187FF0AC020E030E044EB53E4A9
:100DC000C701B6010E9491336B017C01C701B601D6
:100DD000FF90EF90DF90CF9008953F924F925F92F7
:100DE0006F927F928F929F92AF92BF92CF92DF923B
:100DF000EF92FF920F931F93CF93DF9300D000D019
:100E0000CDB7DEB7162F042F322E633010F40197C2
:100E1000145F7C0120EDE21A27E0F20AB70180E0BE
:100E200090E00E94F63120E030EA46EB53E40E9465
:100E300057320E9437352B013C01612F70E06F5F04
:100E40007F4F072E000C880B990B0E94F83121E090
:100E50003DEC44EF51E40E9457320E9437356983DC
:100E60007A838B839C83C70164E670E00E94C53659
:100E700080E090E00E94F6310E9437354B015C0122
:100E8000C70160E971E00E94C53680E090E00E94F1
:100E9000F6310E9437356B017C0129813A814B8103
:100EA0005C81C301B2010E949133A50194010E94AB
:100EB0009133A70196010E9491336B017C01602F51
:100EC00070E080E090E00E94F8319B01AC01C70126
:100ED000B6010E94913320E030E044E453E40E94E4
:100EE00091330E940135C090E1020C2C000CDD080A
:100EF000EE08FF08C60ED71EE81EF91EC30CD11C53
:100F0000E11CF11CC701B6010E94F8312CEF3EE252
:100F100041EB53E40E948F340E94373520E030E8E3
:100F200041EB54E40E9491330E9401354B015C0176
:100F300061E0C4010E94D214C616D706E806F9067D
:100F400034F03FEF831A930AA30AB30AF1CF2401C6
:100F5000350141E0441A510861087108812C912C37
:100F6000540183948201682DC8010E94D214C616D0
:100F7000D706E806F90634F05FEF851A950AA50A48
:100F8000B50AF1CF81E0881A9108A108B108682D4F
:100F9000C2010E94D214EFEFCE1ADE0AEE0AFE0A58
:100FA000A7019601261B370B480B590BCA01B90143
:100FB0003DE083169104A104B10449F4635E7F4FC0
:100FC0008F4F9F4F8CE0882E912CA12CB12C782D27
:100FD000C8010F900F900F900F90DF91CF911F914C
:100FE0000F91FF90EF90DF90CF90BF90AF909F90C8
:100FF0008F907F906F905F904F903F9008954F92A9
:101000005F926F927F928F929F92AF92BF92CF9298
:10101000DF92EF92FF920F931F93CF93DF93CDB7A1
:10102000DEB72C970FB6F894DEBF0FBECDBF2901F7
:101030003A01670178012BED3FE049E450E40E945A
:10104000573220E030E044E353E40E948F340E94A2
:10105000363669837A838B839C832BED3FE049E4AA
:1010600050E4C701B6010E94573220E030E044E36B
:1010700053E40E948F346B017C010E9436364B0191
:101080005C012BED3FE049E450E4C301B2010E9452
:10109000573220E030E044E353E40E948F342B01C8
:1010A0003C010E9436369B01AC01C701B60129877D
:1010B0003A874B875C870E948A346B017C01C301AD
:1010C000B2010E948A346D837E838F839887498022
:1010D0005A806B807C8077FA709477F870942985B9
:1010E0003A854B855C85C501B4010E9457329B014E
:1010F000AC01C301B2010E9490334B015C012D8110
:101100003E814F815885C701B6010E9457329B012D
:10111000AC01C501B4010E948F340E947F3320E0EE
:1011200030E040E751E40E948F3420E030E044E3B7
:1011300053E40E9457322BED3FE049E450E40E9413
:101140008F342C960FB6F894DEBF0FBECDBFDF9163
:10115000CF911F910F91FF90EF90DF90CF90BF90B4
:10116000AF909F908F907F906F905F904F90089579
:10117000CF93DF93EAEEFBE08491E6EDFBE0D491C0
:10118000E2ECFBE0C491CC2309F401C181110E947F
:101190001121EC2FF0E0EE0FFF1FE35BFD4FA59157
:1011A000B491EC91ED2309F4F2C0209162053091E5
:1011B0006305C90144E0969587954A95E1F741E0BA
:1011C0008427817040E050E0421753070CF049C07B
:1011D000E09164057091650560916C05A0917105C1
:1011E000B091720581111BC08E2F972FFA01E60F67
:1011F000F11D8E9FB0018F9F700D9E9F700D112469
:10120000A60FB71F1816190644F46D9160956EBDB0
:101210000DB407FEFDCF0197F5CF81E01FC08E2FE3
:10122000972FFA017096E61BF1098E9FB0018F9FF0
:10123000700D9E9F700D1124A60FB71F181619066A
:1012400064F4EE91F0E0E35BFE4FE491E095EEBDD7
:101250000DB407FEFDCF0197F1CF80E0405F5F4FF7
:10126000B3CF60E089E00E946A2161E088E00E94DB
:101270003A2160E088E00E943A2180916C0581115A
:1012800002C060E003C0813071F461E086E00E943A
:101290003A2160E087E00E943A2160E083E00E940A
:1012A0003A2160E063C0823011F460E003C0833013
:1012B00031F461E086E00E943A2161E0EBCF8430B6
:1012C00011F460E003C0853051F461E086E00E94D3
:1012D0003A2160E087E00E943A2161E0DFCF86306A
:1012E00011F460E004C0873031F461E086E00E94D0
:1012F0003A2161E0EFCF883011F460E003C089301B
:1013000031F461E086E00E943A2160E00BC08A304F
:1013100011F460E003C08B3051F461E086E00E947C
:101320003A2161E087E00E943A2160E01BC08C30E6
:1013300011F460E003C08D3031F461E086E00E947A
:101340003A2160E00BC08E3011F460E003C08F30B2
:1013500081F461E086E00E943A2161E087E00E942A
:101360003A2161E083E00E943A2161E082E00E943C
:101370003A2161E089E00E946A2180916C058F5FCB
:10138000803118F480936C0502C010926C05DF91D7
:10139000CF9108954F925F926F927F928F929F921A
:1013A000AF92BF92CF92DF92EF92FF920F931F9373
:1013B000CF93DF93CDB7DEB7EC970FB6F894DEBFCF
:1013C0000FBECDBF0091010110910201081719074E
:1013D00009F0E1C00E94E021209182023091830255
:1013E000AB01421B530B45365105C8F030918102C9
:1013F00020918002311108C0203188F4709383025B
:10140000609382022F5F09C0313049F4222339F002
:101410007093830260938202215020938002209176
:10142000820230918302AB01421B530B80918002F8
:101430004131574230F0803121F491E090938102A4
:1014400010C081110EC090918102913051F410931F
:10145000A8030093A70310920201109201011092B9
:10146000810222E734E03093690520936805C82E95
:10147000D12C760130E1E31AF1080E94E0212B0122
:101480003C0180915C051F928F9303EC11E01F9348
:101490000F934E0149E2840E911C9F928F920E94FD
:1014A000313980915D051F928F931F930F935E01D9
:1014B00055E1A50EB11CBF92AF920E9431398091C7
:1014C0005E051F928F931F930F938E010F5F1F4F27
:1014D0001F930F930E943139A401B70181E090E07E
:1014E0000E94C815A501B70189E190E00E94C815C6
:1014F000A801B70181E390E00E94C81580917E02A7
:1015000090917F029201281B390B0FB6F894DEBF31
:101510000FBECDBF243F51E0350798F536018BE073
:10152000681A710846019DE0891A910882E0E82E48
:1015300001E0930144E150E0B40182E190E00E94B7
:101540002A14560124E0A21AB10836E0C31AD108C1
:10155000950144E150E0B60182E190E00E942A1436
:1015600093014BE250E0B40189E290E00E942A141A
:1015700095014BE250E0B60189E290E00E942A1406
:1015800007C0293E334020F050927F0240927E02F5
:1015900081E08093A603EC960FB6F894DEBF0FBEF1
:1015A000CDBFDF91CF911F910F91FF90EF90DF9012
:1015B000CF90BF90AF909F908F907F906F905F90F3
:1015C0004F900895EF92FF920F931F93CF93DF9365
:1015D000CDB7DEB764970FB6F894DEBF0FBECDBFB0
:1015E0007C01E9E5F5E085811F928F9384811F924C
:1015F0008F9383811F928F9329EB31E03F932F9339
:101600008E010F5F1F4F1F930F930E943139A80166
:10161000B70180E090E00E94881E81E08093A603DD
:101620000FB6F894DEBF0FBECDBF64960FB6F89428
:10163000DEBF0FBECDBFDF91CF911F910F91FF9005
:10164000EF9008958F929F92AF92BF92CF92DF92C8
:10165000EF92FF920F931F93CF93DF93CDB7DEB737
:101660002A970FB6F894DEBF0FBECDBFC090010120
:10167000D0900201C816D90609F06CC10E94E02181
:101680004B015C0182E0B694A794979487948A9565
:10169000D1F7E0905505F0905605A701415F5F4FE7
:1016A000E0915705F091580520917A0230917B0224
:1016B000C401821B930B0B97A8F130917902209102
:1016C000780231111DC0022F10E0DA0157FF02C06D
:1016D000D7015096B595A7950A171B071CF53091B1
:1016E0007702032F10E0DF01F7FD1196B595A7955E
:1016F0000A171B07BCF42F5F209378023F5F0CC0D2
:10170000313081F4222371F030917702332351F08C
:1017100021502093780231503093770290927B02CF
:1017200080927A0220917A0230917B02B401621B8E
:10173000730B20917802653F714080F0622F70E05A
:10174000CA0157FD0196959587956817790731F479
:101750003196339718F081E08093790221111CC0F3
:1017600080917702811118C0809179028130A1F4B3
:1017700080917602873020F48F5F809376020AC0D2
:10178000D092A803C092A703109202011092010107
:1017900010927602109279028091DE02882311F075
:1017A00080E007C0809176028111D2C081E08093F1
:1017B00076029091DF02911107C0909176029230EB
:1017C00019F493E0909376029091E002911107C092
:1017D00090917602933019F494E090937602909170
:1017E0007602981305C080917902882339F00FC0E2
:1017F000973069F480917902813049F4293038F4C6
:1018000080917702833218F4869590E002C08AE0D6
:1018100090E00E942606C0907602D12CF601EE0FD1
:10182000FF1FEE0FFF1FE757FD4F80809180A280C2
:10183000B380C501B4010E9437350E940835162FC8
:1018400070E080E090E00E94F6319B01AC01C501A0
:10185000B4010E94903320E030E040E752E40E945F
:1018600057320E9437350E9408351F926F931F929E
:101870001F938EEB91E09F938F938E010F5F1F4F0D
:101880001F930F930E94313920EFE22E28E0F22EB1
:10189000F0926905E0926805B60133E0660F771FA4
:1018A0003A95E1F7675D7B4F28E030E040E050E09B
:1018B00082EB92E00E94503042EB52E060E070E038
:1018C00082E290E00E94881EF0926905E09268052D
:1018D000A80169E070E082E290E00E94881E81E049
:1018E0008093A603E0917702F0E0AF014F5C5F4F79
:1018F00001E028E030E068E070E080E390E08E1BDB
:101900009F0B0E94A313C0907802D12C29E030E0F5
:101910002C193D09662777276C197D09E12C00E019
:101920004FE350E082E290E00E942A149601215F8A
:101930003F4FB601695F7F4F4FE350E082E290E096
:101940000E942A140FB6F894DEBF0FBECDBF02C0AE
:1019500081E02FCF2A960FB6F894DEBF0FBECDBF21
:10196000DF91CF911F910F91FF90EF90DF90CF907B
:10197000BF90AF909F908F900895CF92DF92EF929B
:10198000FF92CF93DF930E948026209359053093D6
:101990005A0540935B0550935C05C62F60935D0527
:1019A000D72F70935E05652F70E080E090E00E9475
:1019B000F6316B017C016C2F70E080E090E00E94BA
:1019C000F63120E030E040E752E40E948F349B0182
:1019D000AC01C701B6010E9491336B017C016D2FF0
:1019E00070E080E090E00E94F63120E030E041E6D7
:1019F00055E40E948F349B01AC01C701B6010E94DF
:101A000091336093A9027093AA028093AB029093E2
:101A1000AC0288E60E94131583E090E00E94C31593
:101A20000E94661581E090E00E941D1589E495E012
:101A30000E943A20982F92959F708F702AE0929F73
:101A4000800D11248093AD02DF91CF91FF90EF9034
:101A5000DF90CF900895CF93DF93EC0161E089E0B0
:101A60000E946A21E0E8F0E0908190689083A09164
:101A70008602B09187029E010E947033DC01CB0187
:101A80002AE0B695A795979587952A95D1F79093D3
:101A90008900809388008091880280618093810012
:101AA000DF91CF9108952F923F924F925F926F9264
:101AB0007F928F929F92AF92BF92CF92DF92EF92DE
:101AC000FF920F931F93CF93DF93CDB7DEB762974B
:101AD0000FB6F894DEBF0FBECDBF0E94BD0C809143
:101AE000C7029091C802A091C902B091CA028D8329
:101AF0009E83AF83B88730905B05032D10E0209064
:101B00005A05A22CB12C80905905912CD401A053D8
:101B1000B84FBA8BA98BB3E0AB16B10444F4E1E340
:101B20008E1AE8EF9E0AFCE0AF0EB11C02C0898855
:101B30009A88B401092C000C880B990B0E94F8318B
:101B400020E030E048EC52E40E948F340E943735A8
:101B50006B017C0120E030E040E85EE30E945732F8
:101B60000E94373569837A838B839C83B4016459DF
:101B70007D4E072E000C880B990B0E94F83120E057
:101B800030EA46EB53E40E9457320E9437352B016E
:101B90003C01B5016F5F7F4F072E000C880B990B3E
:101BA0000E94F83121E03DEC44EF51E40E945732AD
:101BB0000E9437354B015C0124E631EA45E15AE4E5
:101BC000C301B2010E949033A50194010E94913398
:101BD0004B015C01B801110F880B990B0E94F83181
:101BE0009B01AC01C501B4010E9491334B015C0122
:101BF000A701960160E070E080E090E40E949033DD
:101C000029813A814B815C810E9491339B01AC0117
:101C1000C501B4010E94913320E030E94EEB54E459
:101C20000E9490336B017C0120E030E044EB53E4F0
:101C30006D817E818F8198850E948F349B01AC01DC
:101C4000C701B6010E9490336B017C012DE430E5A1
:101C50004CE75FE30E94573226EB33EC42EB53E450
:101C60000E9491330E94B9064B015C0123E633E5E3
:101C70004CE75FE3C701B6010E94573221EC3AE31B
:101C80004CE853E40E9491330E94B90669837A8339
:101C90008B839C832BED3FE049E450E4C501B40104
:101CA0000E94573220E030E044E353E40E948F3436
:101CB0000E9436362B013C01A5019401C501B401F7
:101CC0000E9491332BED3FE049E450E40E945732EB
:101CD00020E030E044E353E40E948F340E94363623
:101CE0004B015C0128EB3EE145EF5FE3C301B2012C
:101CF0000E9457329B01AC0169817A818B819C8162
:101D00000E9491332B013C012AE037ED43EA5CE36A
:101D1000C501B4010E9457329B01AC01C301B2015D
:101D20000E9491330E94B9064B015C0126E036E423
:101D300041EC54E3C701B6010E9457329B01AC014C
:101D400062E173E88BEB91E40E9490332BED3FE06E
:101D500049E450E40E94573220E030E044E353E489
:101D60000E948F346B017C010E9436362B013C01AE
:101D70002BED3FE049E450E4C501B4010E94573225
:101D800020E030E044E353E40E948F344B015C01D7
:101D90000E94363669877A878B879C879B01AC01C6
:101DA000C301B2010E9457320E94FD3320E030E0AF
:101DB00044E353E40E9457322BED3FE049E450E402
:101DC0000E948F342B013C01C501B4010E948A346A
:101DD0004B015C01C701B6010E948A3429853A850E
:101DE0004B855C850E945732A50194010E942B34DB
:101DF00020E030E044E353E40E9457322BED3FE013
:101E000049E450E40E948F3420E030E040E751E4A0
:101E10000E948F346B017C0120E030E040E751E408
:101E200069817A818B819C810E948F346D877E8746
:101E30008F87988B20E030E040EC51E4C701B60179
:101E40000E948F340E94373520E030E040EC51E4AE
:101E50000E9457329B01AC01C701B6010E9490332A
:101E60006B017C0120E030E0A9010E94F13187FF85
:101E70000AC020E030E040EC51E4C701B6010E9406
:101E800091336B017C018091CB029091CC02A091A7
:101E9000CD02B091CE0289879A87AB87BC878091AB
:101EA000C3029091C402A091C502B091C602898379
:101EB0009A83AB83BC8320E030E040E451E460913E
:101EC000CF027091D0028091D1029091D2020E94F3
:101ED00091334B015C0120E030E040E751E46D813B
:101EE0007E818F8198850E948F349B01AC01C50152
:101EF000B4010E9490334B015C01A70196016D85EE
:101F00007E858F8598890E9490339B01AC01C50125
:101F1000B4010E9490336B017C0120E030E040EC82
:101F200051E40E948F340E94373520E030E040ECCD
:101F300051E40E9457329B01AC01C701B6010E94D7
:101F400090334B015C0120E030E0A9010E94F131A7
:101F500087FF0AC020E030E040EC51E4C501B40145
:101F60000E9491334B015C016091E50270E080E0DA
:101F700090E00E94F63120E030E040E752E40E9419
:101F80008F349B01AC01C501B4010E949133609371
:101F9000990270939A0280939B0290939C02A301F2
:101FA000920169817A818B819C810E9490339F7715
:101FB0002BED3FE049E450E40E94573220E030E04E
:101FC00044E353E40E948F340E94883620E030E0DE
:101FD00040E85FE30E9491339B01AC0160E070E058
:101FE00080E89FE30E948F340E945B34905820E089
:101FF00030E044E353E40E9457322BED3FE049E4E4
:1020000050E40E948F34E980FA800B811C81A30187
:1020100092010E94FF079B01AC01C501B4010E941F
:1020200091336B017C016091E60270E080E090E00A
:102030000E94F63120E030E040E752E40E948F3405
:102040009B01AC01C701B6010E94913360939D02D0
:1020500070939E0280939F029093A00269857A8577
:102060008B859C850E94443626E931E24EE05DE393
:102070000E94573226E233E545E55FE30E94913343
:10208000E980FA800B811C81A30192010E94FF0765
:102090006B017C019B01AC01C501B4010E9491332D
:1020A0006D837E838F8398876091E20270E080E089
:1020B00090E00E94F63120E030E040E752E40E94D8
:1020C0008F349B01AC016D817E818F8198850E9448
:1020D00091336093A1027093A2028093A302909324
:1020E000A402A7019601C501B4010E949033609338
:1020F0009102709392028093930290939402E980EC
:10210000FA800B811C81A301920160E070E080E9FC
:1021100091E40E94FF079B01AC01C501B4010E943C
:1021200091336B017C016091E30270E080E090E00C
:102130000E94F63120E030E040E752E40E948F3404
:102140009B01AC01C701B6010E9491336093A502C7
:102150007093A6028093A7029093A802E980FA8068
:102160000B811C81A301920160E070E080EA91E4A0
:102170000E94FF079B01AC01C501B4010E9490338E
:102180006B017C016091E40270E080E090E00E94CD
:10219000F63120E030E040E752E40E948F349B01AA
:1021A000AC01C701B6010E94913360938D02709318
:1021B0008E0280938F02909390022BEA3AEA4AE2D1
:1021C0005EE30E9490336093890270938A02809349
:1021D0008B0290938C02E980FA800B811C81A30111
:1021E000920160E070E080E990EC0E94FF079B01A3
:1021F000AC01C501B4010E949033609395027093C5
:102200009602809397029093980221E0432D622DCD
:1022100089899A890E94ED061092E8027C3029F49F
:1022200086EF860F8430E0F457C07A3051F4613085
:1022300009F452C06330A0F081E08093E80282E0AC
:102240000DC0783069F483EE860F823008F444C004
:10225000662331F082E08093E80283E08093E70216
:102260008091AD02813021F493E09093E80205C0A3
:10227000843029F48093E80281E08093E70283EFC1
:10228000860F833030F485E08093E80281E080930C
:10229000E7027C3059F4693011F486E003C06930FC
:1022A000D8F487E08093E80281E014C0713061F4D3
:1022B000693011F488E003C06A3071F489E08093DA
:1022C000E8027093E70208C0793031F48AE0809325
:1022D000E80284E08093E70211E02091A1023091AE
:1022E000A2024091A3025091A4026091A9027091B0
:1022F000AA028091AB029091AC020E942936181676
:102300000CF010E08091590590E0212F40915B0581
:1023100060915A058053984F0E94ED066093AE027B
:102320007093AF028093B0029093B1028091D40277
:1023300090E062960FB6F894DEBF0FBECDBFDF917E
:10234000CF911F910F91FF90EF90DF90CF90BF90B2
:10235000AF909F908F907F906F905F904F903F9045
:102360002F900C942B0DEF92FF920F931F93CF930E
:10237000DF931F92CDB7DEB77C01FC010081118194
:10238000C80169830E9418336981681719F0C80170
:102390000E942033C7010F90DF91CF911F910F91C1
:1023A000FF90EF9008950E940C39EF92FF920F93E7
:1023B0001F93CF93DF93EC017B018A018881998180
:1023C000009729F02A813B8124173507F8F4B801DA
:1023D0006F5F7F4F0E944238009759F0998388833E
:1023E0001B830A832C813D81232B81F4FC01108205
:1023F0000DC088819981009711F00E94AA37198237
:1024000018821D821C821B821A8207C01D830C83C6
:10241000B701888199810E942A39CE01DF91CF913D
:102420001F910F91FF90EF900895FC0180819181A1
:10243000009711F00C94293060E070E0CB01089512
:10244000FC0124813581232B31F421E061157105D4
:10245000A1F0FB0108C0FC0180819181611571052B
:1024600031F421E0FC018081882339F005C00E940D
:10247000213921E0892B09F020E0822F08950F9364
:102480001F93CF93DF938C01EB01FC01808191813D
:102490000097B1F0688179816115710579F0428109
:1024A00053812C813D814217530740F00E942A3905
:1024B0008C819D81F8019583848313C00E94AA3783
:1024C00088819981F801918380838A819B8193839C
:1024D00082838C819D8195838483198218821B82DB
:1024E0001A821D821C82DF91CF911F910F91089556
:1024F000FC01808191810C94AA37FC011182108229
:1025000013821282158214826115710551F0FB014C
:1025100001900020E9F73197AF01461B570B0C944F
:10252000D5110895BF92CF92DF92EF92FF920F9351
:102530001F93CF93DF937C016B01EA01890124177C
:10254000350720F48D2FE901042F182F67E672E07C
:10255000C7010E947D12D60114968D919C9115970A
:10256000C817D907C8F58017910708F48C01D60160
:10257000ED91FC911197E00FF11FB08010824D9109
:102580005C91BA016C0F7D1F6115710561F0FB0153
:1025900001900020E9F73197AF01461B570BC701A7
:1025A0000E94D51113C0F70180819181009711F02D
:1025B0000E94AA37D70111961C921E9215961C9262
:1025C0001E92149713961C921E921297D601ED91AB
:1025D000FC91E00FF11FB082C701DF91CF911F91F5
:1025E0000F91FF90EF90DF90CF90BF9008952091D2
:1025F00060053091610582179307E0F5209162052F
:102600003091630562177307A8F5FC0123E0F59587
:10261000E7952A95E1F7A0916405B09165056A9F59
:1026200090016B9F300D7A9F300D1124E20FF31F44
:102630002091660530916705E20FF31F9C0127701A
:1026400033276081442359F080E890E002C09595DB
:1026500087952A95E2F7809586238083089540E840
:1026600050E0CA0102C0959587952A95E2F79C0132
:10267000262B208308958F929F92AF92BF92CF9284
:10268000DF92EF92FF920F93CF93DF935C016B0188
:102690004A0179011E141F04ACF4C0E0D0E0C81553
:1026A000D9054CF4402FB601CE018A0D9B1D0E9426
:1026B000F7122196F4CF8FEFC81AD80A81E0E81AF2
:1026C000F108E8CFDF91CF910F91FF90EF90DF906D
:1026D000CF90BF90AF909F908F90089540916805E4
:1026E000509169054115510509F1FA01349694910B
:1026F0003196E491803209F48EE68917B8F0282FDC
:1027000030E0892F90E0BC016E0F711D261737074E
:102710006CF4FA01649161110CC03196E491E111FD
:1027200008C0FA013296E4918E2F0BC080E090E051
:102730000895281B390B2A5F3F4FFA01E20FF31F60
:10274000849190E008953F924F925F926F927F92B2
:102750008F929F92AF92BF92CF92DF92EF92FF92B1
:102760000F931F93CF93DF936C017B014A012901E3
:10277000302ECA018C199D09E901C61BD70B97FFA2
:1027800007C0919581959109AA24AA94BA2C03C0F7
:10279000AA24A394B12CD7FF06C0D195C195D10925
:1027A0000FEF1FEF02C001E010E08C179D07FCF057
:1027B0002E01440C551C3201681A790AC81BD90B2A
:1027C000CC0FDD1F432DB701C6010E94F712C814BC
:1027D000D90471F1161417041CF0640C751C04C0A4
:1027E0006C0E7D1EE00EF11ECA0CDB1CEBCF3C0113
:1027F000660C771C43018C1A9D0A9C012C1B3D0B17
:10280000E901CC0FDD1F432DB701C6010E94F7126D
:10281000E414F50469F0181419041CF0860C971CD4
:1028200004C08C0E9D1ECA0CDB1CE00EF11EEBCF0B
:10283000DF91CF911F910F91FF90EF90DF90CF909C
:10284000BF90AF909F908F907F906F905F904F90D0
:102850003F9008958F929F92AF92BF92CF92DF9256
:10286000EF920F931F93CF93DF934C016B015A01AB
:10287000E901102F481759072CF4982F892D4A0188
:10288000A92EB82ECC15DD051CF0E11216C007C02C
:10289000E11255C09C2F8D2FE601C92ED82E9E0126
:1028A0002C193D092F5F3F4FA501481959094F5F6A
:1028B0005F4F0E2DB601C4013FC0012F9601A50147
:1028C000B601C4010E94A313CC16DD064CF4012FFF
:1028D0009E01A501B6016F5F7F4FC5010E94A31342
:1028E0008A149B0444F4012F9E01A401BE01C5017A
:1028F00001970E94A313BE0161507109C616D70645
:1029000044F4012F96012F5F3F4FA401C4010E94A0
:10291000A31382E0E81601F19E012C193D09215014
:102920003109A818B908A50141505109B6016F5FD6
:102930007F4F0E2DC40101960E943B130DC0012F45
:102940009E01A501BE01C4010E94A3139C2F8D2FDF
:10295000E601C92ED82EBBCFDF91CF911F910F91E9
:10296000EF90DF90CF90BF90AF909F908F900895A1
:102970000F931F93CF93DF93C6E1D4E08C010651F0
:102980001440C8018C0F9D1F0E941833899384E066
:10299000CC3AD807B1F786E194E0DF91CF911F914F
:1029A0000F910895CF92DF92EF92FF92CF93DF9332
:1029B000EC0170E080E090E00E94F83120E030E02F
:1029C0004CEE51E40E94573224EF3DEF47EE51E4C4
:1029D0000E9490330E9437356B017C01CE018C58E8
:1029E0009540BC0180E090E00E94F6312CEF3EE281
:1029F00041EB53E40E9457320E9437359B01AC01F2
:102A0000C701B6010E94913320E030E040E85FE367
:102A10000E9491330E940135DF91CF91FF90EF909A
:102A2000DF90CF90089591E09093150480937B05FB
:102A3000109214041092130408959091F0039111D0
:102A4000FCCF813208F080E291E09093F003909304
:102A5000EF032FEF2093EE031092ED03280F209346
:102A6000EC039093EB039091EB03906D9093EB0349
:102A70009091EA03913061F41092EA039091EB0394
:102A80009093BB009091BC0093FDF8CF95EC01C0F2
:102A900095EE9093BC009091F0039130E1F390910A
:102AA000ED03981710F48091ED03AAECB3E023EF47
:102AB00033E0F9019E2F921B981718F49D91919382
:102AC000F9CF1092F2038093F1030895209113043B
:102AD00090917B05213208F04AC08091F00381116A
:102AE000FCCF32E03093F00331E03093EF033FEF5F
:102AF0003093EE031092ED032093EC03AAEAB3E0C7
:102B00004AEC53E0FA013E2F341B321718F43D9182
:102B10003193F9CF1092EB032091EB03990F922B95
:102B20009093EB039091EA03913061F41092EA03E1
:102B30009091EB039093BB009091BC0093FDF8CF74
:102B400095EC01C095EE9093BC009091F00392300B
:102B5000E1F39091EE039F3F79F08091EE03803294
:102B600041F08091EE03803331F084E005C081E0D4
:102B700003C082E001C083E0109214041092130499
:102B8000109215040895682F89E495E00C9486202E
:102B90002F923F924F925F926F927F928F929F926D
:102BA000AF92BF92CF92DF92EF92FF920F931F935B
:102BB000CF93DF93CDB7DEB767970FB6F894DEBF3C
:102BC0000FBECDBF7C015B01E0916805F091690506
:102BD000309709F43EC13396E491DA010D9000205C
:102BE000E9F711976D01C41AD50A5D834C834E2F06
:102BF00050E05B8B4A8B21E0C21AD108C6010196D6
:102C0000181619060CF025C1EC81FD813191FD8368
:102C1000EC836091680570916905FB01339694908F
:102C20003032A9F48EE60E946E13182F892E01E02F
:102C300080916A05811100E0292D30E0412F582D47
:102C4000B501C7010E943B13612E782CCAC0FB015D
:102C50003496249131968491321708F4C0C0432FE2
:102C600050E090E0FC01E20FF11D4E175F070CF001
:102C7000B6C0321B492D50E05F8B4E8B495F5F4FD2
:102C800023E0559547952A95E1F7FB012491A32F61
:102C9000B0E02111C4C03196E491E111C0C0FB0144
:102CA00032963490A49F8001A59F100DB49F100D03
:102CB0001124309EC001319E900D11240696860F7E
:102CC000971F632C712CB701660D771D161617061A
:102CD0000CF087C06E897F896A0D7B1D161617065A
:102CE0000CF07FC04B8321E02E8330916A053111B7
:102CF0001E828D879C01832D90E09F878E87FA012D
:102D00003197F98BE88B4E895F89485051095A8772
:102D10004987822F5D85851B831508F062C03A8341
:102D20002983412C512C812C912CF701E80FF11DA6
:102D3000F887EF835B81851608F04EC0E981FA8140
:102D400024905B81513041F08889998988169906D1
:102D500019F499858A8502C0942D852D092F182F85
:102D6000F8013896FC87EB8704151505F4F04E89B9
:102D70005F8940175107CCF0B8016A0D7B1D20FE1A
:102D80000BC040916A058F8198852C8B3D8B0E94EA
:102D9000F7122C893D8909C04E818F8198852C8B33
:102DA0003D8B0E94F7123D892C8926940F5F1F4F9F
:102DB0008B859C8508171907B9F69FEF891A990A20
:102DC000E8E04E0E511C49815A818E859F85480F3F
:102DD000591F5A834983AECF2F5F3F4F9ACF612C43
:102DE000712CE60CF71C1C141D0484F401E0809186
:102DF0006A05811100E02A893B8941E050E0B50174
:102E0000C7010E943B13FFEFEF1AFF0A8091600594
:102E100090916105E816F9060CF4EDCE1AC0FD019B
:102E20003696E60FF71F34900696860F971F6A5F57
:102E30007F4FFB01AE2FA61BA31708F042CF1491C2
:102E4000149FD001159FB00D11248A0F9B1F31963E
:102E5000F1CF67960FB6F894DEBF0FBECDBFDF91FE
:102E6000CF911F910F91FF90EF90DF90CF90BF9087
:102E7000AF909F908F907F906F905F904F903F901A
:102E80002F900895EF92FF920F931F93CF93DF93AC
:102E9000EC0109900020E9F72197C81BD90B8C01A0
:102EA000E12CF12C2197CE0101961816190674F425
:102EB000F80181918F010E946E13E80EF91E1C1615
:102EC0001D0684F7FFEFEF1AFF0AECCFC701DF9171
:102ED000CF911F910F91FF90EF90089580916B0516
:102EE000882311F1F894409166055091670520916F
:102EF0006D0530916E0580916F05909170054217B8
:102F0000530749F4909367058093660550937205C3
:102F10004093710508C03093670520936605909330
:102F2000720580937105789408958F929F92AF9265
:102F3000BF92CF92DF92EF92FF920F931F93CF93A6
:102F4000DF93E0900101F0900201E416F50609F02C
:102F5000CCC02091A903222331F010927A0510925F
:102F600079051092A9034B016C010E9442178C0154
:102F7000A0905705B09058050E94E0212091770558
:102F800030917805AB01421B530B4B35510508F4CA
:102F9000ACC00A0D1B1D7093780560937705C09136
:102FA0007905D0917A05C017D10768F47E015FEFEB
:102FB000E51AF50AF0927A05E092790581E0881623
:102FC0009104D1F50DC0F092A803E092A7031092EE
:102FD00002011092010110927A051092790585C0C4
:102FE0008AEF94E09093690580936805A6016FEFDE
:102FF0007FEFC5018E199F090E94C81580EF98E0E8
:10300000909369058093680547E0E416F10428F47D
:103010008FE090E08C1B9D0B09C0C8010697E81655
:10302000F90638F0CE014196801B910B0E94E20A0E
:1030300059C089E090E0FACF52E08516910479F505
:1030400080EF98E0909369058093680587E0E81623
:10305000F10418F4CE0105970CC0C8010697E816D4
:10306000F90628F0C8018C1B9D0B079702C08FEF53
:103070009FEF0E94E20A8AEF94E0909369058093A3
:1030800068058091570590915805209179053091F8
:103090007A05A60166E070E0821B930B21C08AEFDF
:1030A00094E0909369058093680501E021E030E0A9
:1030B0004EE350E061E070E081E090E00E94A313F5
:1030C0002EE030E04EE350E06EE070E081E090E012
:1030D0000E94A313A60164E070E0C5018E199F0948
:1030E0000E94C81581E08093A603DF91CF911F91C4
:1030F0000F91FF90EF90DF90CF90BF90AF909F9097
:103100008F900895CF92DF92EF92FF920F931F93CB
:10311000CF93DF93CDB7DEB764970FB6F894DEBFD9
:103120000FBECDBF8CEA94E00E941F1F282F83346E
:1031300011F08E3439F48CE7E82E85E0F82E00E0AB
:1031400010E037C08335B9F38CEA94E00E942D1F5C
:10315000892B29F08CEA94E00E940B1FF5CF60E0E8
:103160008EE00E943A21C5C50539110521F18CEA8E
:1031700094E02C8B0E942D1F2C89892BD1F08CEA96
:1031800094E00E940B1F282FF70181937F010F5FAE
:103190001F4F61E08EE02C8B0E943A216AE070E0C4
:1031A00080E090E00E94A62160E08EE00E943A213B
:1031B0002C892A30C9F6F801E558FA4F108267E6E3
:1031C00072E0CE0107960E947D12ECE7F5E00190D7
:1031D0000020E9F73197EC57F54080917C05833466
:1031E00009F062C080917D058D3441F480917E05A7
:1031F0008E3471F50AE427E330E02DC08E3461F49B
:1032000080917E058133E1F08233F1F0833301F563
:1032100005E92EEA31E01FC0833541F480917E0537
:103220008D34B1F405E924E432E015C08A3481F428
:1032300080917E058D3461F405E92AED32E00BC002
:1032400005E922E830E007C005E928E131E003C0E4
:1032500000E020E030E0C12CD12CE350EE2EF12C28
:1032600010E0C601820F931FEC14FD0444F49A830E
:10327000898360E0CE0101960E94B31124C3C01679
:10328000D106ACF7F601E458FA4F63819A8389833B
:10329000CE0101962C8B3B8B0E94B311FFEFCF1A0E
:1032A000DF0A3B892C89DDCF8E3409F052C26CE7EE
:1032B00075E0CE0101960E947D12BE016F5F7F4FC7
:1032C000CE0107960E943F12CE0101960E9478120D
:1032D00023E030E041E050E0BE01695F7F4FCE0166
:1032E00001960E9492126EE172E0CE0101960E9458
:1032F0002012182FCE0101960E94781211115BC482
:1033000023E030E041E050E0BE01695F7F4FCE0135
:1033100001960E94921261E272E0CE0101960E9433
:103320002012182FCE0101960E947812111146C466
:1033300023E030E041E050E0BE01695F7F4FCE0105
:1033400001960E94921264E272E0CE0101960E9400
:103350002012182FCE0101960E947812111131C44B
:1033600023E030E041E050E0BE01695F7F4FCE01D5
:1033700001960E94921267E272E0CE0101960E94CD
:103380002012182FCE0101960E94781211111CC430
:1033900023E030E041E050E0BE01695F7F4FCE01A5
:1033A00001960E9492126AE272E0CE0101960E949A
:1033B0002012182FCE0101960E947812111137C4E5
:1033C00023E030E041E050E0BE01695F7F4FCE0175
:1033D00001960E9492126DE272E0CE0101960E9467
:1033E0002012182FCE0101960E947812111122C4CA
:1033F00023E030E041E050E0BE01695F7F4FCE0145
:1034000001960E94921260E372E0CE0101960E9442
:103410002012182FCE0101960E94781211110DC4AE
:1034200023E030E041E050E0BE01695F7F4FCE0114
:1034300001960E94921263E372E0CE0101960E940F
:103440002012182FCE0101960E9478121111F8C394
:1034500023E030E041E050E0BE01695F7F4FCE01E4
:1034600001960E94921266E372E0CE0101960E94DC
:103470002012182FCE0101960E9478121111E3C379
:1034800023E030E041E050E0BE01695F7F4FCE01B4
:1034900001960E94921269E372E0CE0101960E94A9
:1034A0002012182FCE0101960E9478121111CEC35E
:1034B00023E030E041E050E0BE01695F7F4FCE0184
:1034C00001960E9492126CE372E0CE0101960E9476
:1034D0002012182FCE0101960E9478121111B9C343
:1034E00023E030E041E050E0BE01695F7F4FCE0154
:1034F00001960E9492126FE372E0CE0101960E9443
:103500002012182FCE0101960E9478121111A4C327
:1035100023E030E041E050E0BE01695F7F4FCE0123
:1035200001960E94921262E472E0CE0101960E941E
:103530002012182FCE0101960E94781211118FC30C
:1035400023E030E041E050E0BE01695F7F4FCE01F3
:1035500001960E94921265E472E0CE0101960E94EB
:103560002012182FCE0101960E94781211117AC3F1
:1035700023E030E041E050E0BE01695F7F4FCE01C3
:1035800001960E94921268E472E0CE0101960E94B8
:103590002012182FCE0101960E947812111165C3D6
:1035A00023E030E041E050E0BE01695F7F4FCE0193
:1035B00001960E9492126BE472E0CE0101960E9485
:1035C0002012182FCE0101960E947812111150C3BB
:1035D00023E030E041E050E0BE01695F7F4FCE0163
:1035E00001960E9492126EE472E0CE0101960E9452
:1035F0002012182FCE0101960E94781211113BC3A0
:1036000023E030E041E050E0BE01695F7F4FCE0132
:1036100001960E94921261E572E0CE0101960E942D
:103620002012182FCE0101960E947812111126C384
:1036300023E030E041E050E0BE01695F7F4FCE0102
:1036400001960E94921264E572E0CE0101960E94FA
:103650002012182FCE0101960E947812111131C349
:1036600023E030E041E050E0BE01695F7F4FCE01D2
:1036700001960E94921267E572E0CE0101960E94C7
:103680002012182FCE0101960E9478121111F9C252
:1036900023E030E041E050E0BE01695F7F4FCE01A2
:1036A00001960E9492126AE572E0CE0101960E9494
:1036B0002012182FCE0101960E9478121111E4C237
:1036C00023E030E041E050E0BE01695F7F4FCE0172
:1036D00001960E9492126DE572E0CE0101960E9461
:1036E0002012182FCE0101960E9478121111CFC21C
:1036F00023E030E041E050E0BE01695F7F4FCE0142
:1037000001960E94921260E672E0CE0101960E943C
:103710002012182FCE0101960E9478121111BAC200
:1037200023E030E041E050E0BE01695F7F4FCE0111
:1037300001960E94921263E672E0CE0101960E9409
:103740002012182FCE0101960E9478121111A5C2E5
:10375000BAC0833509F0B7C080917D05843409F083
:10376000B2C080917E05843509F0ADC06CE775E08C
:10377000CE0101960E947D12BE016F5F7F4FCE0188
:1037800007960E943F12CE0101960E9478120E9475
:10379000AD2425E030E043E050E0BE01695F7F4F9B
:1037A000CE0101960E949212CE0101960E9415123E
:1037B000862F0E946224CE0101960E94781227E093
:1037C00030E045E050E0BE01695F7F4FCE010196D9
:1037D0000E949212CE0101960E941512862F0E941D
:1037E0007B24CE0101960E94781229E030E047E068
:1037F00050E0BE01695F7F4FCE0101960E94921298
:10380000CE0101960E941512862F0E949424CE01AB
:1038100001960E9478122BE030E049E050E0BE01B2
:10382000695F7F4FCE0101960E949212CE010196F0
:103830000E941512862F0E94FA23CE0101960E9443
:1038400078122DE030E04BE050E0BE01695F7F4F21
:10385000CE0101960E949212CE0101960E9415128D
:10386000862F0E94E123CE0101960E9478122FE05C
:1038700030E04DE050E0BE01695F7F4FCE01019620
:103880000E949212CE0101960E941512862F0E946C
:10389000A723CE0101960E94781220E130E04FE08C
:1038A00050E0BE01695F7F4FCE0101960E949212E7
:1038B000CE0101960E941512862F0E944924CE0146
:1038C00001960E9478120E94312780917C058335F1
:1038D00009F06CC180917D05813509F067C1809147
:1038E0007E05803509F062C18CE99BE00E94D024FE
:1038F0006091C3027091C4028091C5029091C6028A
:1039000047E050E00E94462586E692E00E94F124BE
:1039100084E99BE00E94D0246091C7027091C802A4
:103920008091C9029091CA0247E050E00E9446256A
:1039300088E692E00E94F1248CE89BE00E94D0246B
:103940006091CB027091CC028091CD029091CE0219
:1039500047E050E00E94462586E692E00E94F1246E
:1039600084E89BE00E94D0246091CF027091D00245
:103970008091D1029091D20240E050E00E94462511
:1039800088E692E00E94F1248CE79BE00E94D0241C
:103990008091D3020E94342586E692E00E94F124B1
:1039A00084E79BE00E94D0248091D5020E943425B8
:1039B00086E692E00E94F1248CE69BE00E94D024EF
:1039C000C090E1020C2C000CDD08EE08FF08F7FEA9
:1039D0000CC08DE20E943B2566277727CB016C192E
:1039E0007D098E099F094AE003C04AE0C701B6017C
:1039F0000E94F32488E692E00E94F12484E69BE092
:103A00000E94D0248091D6020E94342586E692E05E
:103A10000E94F1248CE59BE00E94D0248091D70283
:103A20000E94342588E692E00E94F12484E59BE020
:103A30000E94D0248091D8020E94342586E692E02C
:103A40000E94F1248CE49BE00E94D0248091D90252
:103A50000E94342586E692E00E94F12484E49BE0F3
:103A60000E94D0248091DA020E94342588E692E0F8
:103A70000E94F1248CE39BE00E94D0248091DB0221
:103A80000E94342586E692E00E94F12484E39BE0C4
:103A90000E94D0248091DC020E94342586E692E0C8
:103AA0000E94F1248CE29BE00E94D0248091DD02F0
:103AB0000E94342588E692E00E94F12484E29BE093
:103AC0000E94D0248091DE020E94342586E692E096
:103AD0000E94F1248CE19BE00E94D0248091DF02BF
:103AE0000E94342586E692E00E94F12484E19BE066
:103AF0000E94D0248091E0020E94342588E692E062
:103B00000E94F1248CE09BE00E94D0248091D4029A
:103B10000E94342588E692E00E94F12484E09BE034
:103B20000E94D0248091E2020E94342586E692E031
:103B30000E94F1248CEF9AE00E94D0248091E3024D
:103B40000E94342586E692E00E94F12484EF9AE0F8
:103B50000E94D0248091E4020E94342586E692E0FF
:103B60000E94F1248CEE9AE00E94D0248091E5021C
:103B70000E94342586E692E00E94F12484EE9AE0C9
:103B80000E94D0248091E6020E94342586E692E0CD
:103B90000E94F12488E191E00E94B81486E194E04B
:103BA0000E94F1248AEC9AE00E94D024CE0107966C
:103BB0000E9478129EC001E010E008C005E010E00D
:103BC00005C009E010E002C00DE010E02B853C8547
:103BD00043E050E0BE01695F7F4FCE0101960E9435
:103BE000921289819A810097F1F00E9425306D87A9
:103BF0007E878F87988B6E0181E1C80ED11CFE01F4
:103C00003D967F010E1B1F0BC8018E0D9F1DF701F6
:103C100061917F019A8B898BC6010E94B311EC14CC
:103C2000FD0491F74CCE60E070E0CB01E0CF01E104
:103C300010E035C002E110E032C003E110E02FC017
:103C400004E110E02CC005E110E029C006E110E01D
:103C500026C007E110E023C008E110E020C009E120
:103C600010E01DC00AE110E01AC00BE110E017C01F
:103C70000CE110E014C00DE110E011C00EE110E005
:103C80000EC000E210E00BC001E210E008C002E24A
:103C900010E005C003E210E002C004E210E02B8552
:103CA0003C8543E050E0BE01695F7F4FCE01019645
:103CB0000E949212CE0101960E9415121E870D8756
:103CC00013C02B853C8543E050E0BE01695F7F4F08
:103CD000CE0101960E949212CE0101960E94151209
:103CE0008FE190E09E878D87CE010D960E94B311E3
:103CF000E6CD64960FB6F894DEBF0FBECDBFDF9160
:103D0000CF911F910F91FF90EF90DF90CF9008958A
:103D1000AF92BF92CF92DF92EF920F931F93CF9308
:103D2000DF938C01EB016A01CA010E944217E09106
:103D30006805F0916905309729F03396E4912E2FAC
:103D400030E002C020E030E06091570570915805E6
:103D5000601B710BDB01A81BB90BB7FD1196B59564
:103D6000A7955801AA0EBB1E2C0F3D1F800F911F57
:103D7000AC014A0F5B1FE12C00E0BE01C5010197B9
:103D80000E942A14A601BE01C501DF91CF911F91A7
:103D90000F91EF90DF90CF90BF90AF900C94C8152B
:103DA0000895CF92DF92EF92FF920F931F93CF93DC
:103DB000DF936C017A018B01C0E0D0E0CE15DF0506
:103DC00089F0D8016D918D01D601ED91FC910190A2
:103DD000F081E02DC6010995892B11F47E0102C006
:103DE0002196ECCFC701DF91CF911F910F91FF90EA
:103DF000EF90DF90CF900895FC01538D448D252FD7
:103E000030E0842F90E0821B930B541710F0CF9674
:103E1000089501970895FC01918D828D981761F0A6
:103E2000828DDF01A80FB11D5D968C91928D9F5FF1
:103E30009F73928F90E008958FEF9FEF0895FC019C
:103E4000918D828D981731F0828DE80FF11D858D4F
:103E500090E008958FEF9FEF0895FC01918D228DE2
:103E6000892F90E0805C9F4F821B91098F73992767
:103E700008958CEA94E00E942D1F21E0892B09F41B
:103E800020E0822F0895FC01848DDF01A80FB11D71
:103E9000A35ABF4F2C91848D90E001968F73992780
:103EA000848FA689B7892C93A089B1898C9180646D
:103EB0008C93938D848D981306C00288F389E02D2E
:103EC00080818F7D80830895EF92FF920F931F93DF
:103ED000CF93DF93EC0181E0888F9B8D8C8D9813BD
:103EE00005C0E889F989808185FD24C0F62E0B8DF7
:103EF00010E00F5F1F4F0F731127E02E8C8DE8121B
:103F00000CC00FB607FCFACFE889F989808185FFDC
:103F1000F5CFCE010E94431FF1CF8B8DFE01E80F3C
:103F2000F11DE35AFF4FF0820B8FEA89FB898081F4
:103F3000806207C0EE89FF896083E889F989808102
:103F40008064808381E090E0DF91CF911F910F9199
:103F5000FF90EF900895CF93DF93EC01888D882335
:103F6000C9F0EA89FB89808185FD05C0A889B989E6
:103F70008C9186FD0FC00FB607FCF5CF808185FFC1
:103F8000F2CFA889B9898C9185FFEDCFCE010E942F
:103F9000431FE7CFDF91CF9108950E94391F811110
:103FA0000C94821808953FB7F8948091630690911D
:103FB0006406A0916506B091660626B5A89B05C06B
:103FC0002F3F19F00196A11DB11D3FBFBA2FA92F98
:103FD000982F8827820F911DA11DB11DBC01CD0115
:103FE00042E0660F771F881F991F4A95D1F7089501
:103FF00085ED8093BC008091BC0084FDFCCF1092C5
:10400000F003089540913906262F30E0240F311D2A
:1040100021323105DCF42091F0032430C9F4FC0195
:1040200080E090E0861758F4309139062191DC0148
:10403000A95EB94FA30FB11D2C930196F3CF8091C8
:104040003906680F6093390680E0089581E008958D
:1040500082E008950895E091F2038091F103E8175A
:1040600030F4F0E0ED50FC4F808190E008958FEF48
:104070009FEF08959091F2038091F103981750F407
:10408000E92FF0E0ED50FC4F208130E09F5F9093EE
:10409000F20302C02FEF3FEFC90108958091F103B1
:1040A00090E02091F203821B91090895CF92DF9254
:1040B000EF92FF920F931F93CF93DF937C01262FF4
:1040C000972F8A0180911504882391F0C62FD72F4E
:1040D0006E01C40ED51ECC15DD0571F06991D701B6
:1040E000ED91FC910190F081E02DC7010995F3CF8E
:1040F000642F822F0E940220C801DF91CF911F916F
:104100000F91FF90EF90DF90CF900895CF93DF93C2
:104110001F92CDB7DEB76983209115042223D1F019
:1041200020911304203240F021E030E0FC01338381
:10413000228380E090E015C080911404E82FF0E025
:10414000E655FC4F998190838F5F80931404809390
:10415000130405C061E0CE0101960E94022081E0B7
:1041600090E00F90DF91CF910895089580E090E066
:1041700008951F920F920FB60F9211242F933F9321
:104180004F935F936F937F938F939F93AF93BF935F
:10419000EF93FF938CEA94E00E94431FFF91EF910D
:1041A000BF91AF919F918F917F916F915F914F914F
:1041B0003F912F910F900FBE0F901F9018951F9257
:1041C0000F920FB60F9211242F938F939F93EF931B
:1041D000FF93E091BC04F091BD048081E091C204A2
:1041E000F091C30482FD12C090818091C5048F5F5D
:1041F0008F732091C604821751F0E091C504F0E05E
:10420000E455FB4F958F8093C50401C08081FF91D9
:10421000EF919F918F912F910F900FBE0F901F9054
:104220001895833081F028F4813099F08230A1F024
:1042300008958730A9F08830B9F08430D1F48091A6
:1042400080008F7D03C0809180008F7780938000F5
:10425000089584B58F7702C084B58F7D84BD08959D
:104260008091B0008F7703C08091B0008F7D8093E4
:10427000B00008951F93CF93DF93282F30E0F9010A
:10428000E052F44F8491F901E453F44FD491F901D1
:10429000E854F44FC491CC23C9F0162F81110E9429
:1042A0001121EC2FF0E0EE0FFF1FE255F44FA59126
:1042B000B4918FB7F894111105C09C91ED2FE09542
:1042C000E92302C0EC91ED2BEC938FBFDF91CF91EE
:1042D0001F910895CF93DF9390E0FC01E453F44FD6
:1042E0002491FC01E854F44F8491882361F190E01B
:1042F000880F991FFC01EC55F44FC591D491FC0136
:10430000E255F44FA591B491611109C09FB7F8949B
:104310008881209582238883EC912E230BC0623004
:1043200061F49FB7F8943881822F80958323888326
:10433000EC912E2B2C939FBF06C08FB7F894E88189
:104340002E2B28838FBFDF91CF9108958F929F925C
:10435000AF92BF92CF92DF92EF92FF926B017C01FE
:104360000E94D31F4B015C01C114D104E104F1048C
:10437000F1F00E94D31FDC01CB0188199909AA0929
:10438000BB09883E9340A105B10570F321E0C21A34
:10439000D108E108F10888EE880E83E0981EA11C80
:1043A000B11CC114D104E104F10419F7DDCFFF9071
:1043B000EF90DF90CF90BF90AF909F908F90089537
:1043C0002FB7F89460915F06709160068091610646
:1043D000909162062FBF08951F920F920FB60F9211
:1043E00011242F933F938F939F93AF93BF9380910B
:1043F0005F0690916006A0916106B09162063091CF
:104400005E0623E0230F2D3720F40196A11DB11D78
:1044100005C026E8230F0296A11DB11D20935E065C
:1044200080935F0690936006A0936106B093620646
:104430008091630690916406A0916506B09166062E
:104440000196A11DB11D8093630690936406A0930D
:104450006506B0936606BF91AF919F918F913F9192
:104460002F910F900FBE0F901F9018951F920F92D3
:104470000FB60F9211242F933F934F935F936F9337
:104480007F938F939F93AF93BF93EF93FF9380910D
:10449000B900887F803609F49CC068F5883209F439
:1044A0005BC090F4803109F454C038F4882309F4D7
:1044B000F6C0883009F44DC0F6C0883109F44CC00C
:1044C000803209F45DC0EFC0803409F468C048F45C
:1044D000803309F455C0883309F0E5C08093EE03BA
:1044E000D8C0803509F44FC0883509F45DC08834E0
:1044F00009F0D9C0D6C0883909F4C7C0A8F48837F4
:1045000009F467C038F4883609F463C0803709F4C9
:1045100060C0C9C0883809F4B8C0803909F45FC0E8
:10452000803809F0C0C05BC0803B09F486C038F415
:10453000803A09F466C0883A09F47FC0B4C0803C70
:1045400009F4A7C0883C09F4A4C0883B09F48AC0D8
:10455000AAC08091EB0310C09091ED038091EC0311
:10456000981770F5E091ED0381E08E0F8093ED03D5
:10457000F0E0E653FC4F80818093BB0085EC86C061
:104580008093EE038EC0E091ED0381E08E0F809367
:10459000ED038091BB00F0E0E653FC4F80839091E7
:1045A000ED038091EC036EC0E091ED0381E08E0F8E
:1045B0008093ED038091BB00F0E0E653FC4F8083D5
:1045C0008091EF0381116DC081E08093EA0384EA5A
:1045D00061C083E08093F00310925D06CFCF80919D
:1045E0005D06803208F051C0E0915D0681E08E0FDB
:1045F00080935D068091BB00F0E0E35CF94F80831F
:10460000BDCF85EC8093BC001092F00380915D06D5
:10461000803230F4E0915D06F0E0E35CF94F108207
:1046200060915D0670E0E0913B06F0913C068DE301
:1046300096E0099510925D0636C084E08093F00301
:1046400010923A0610923906E0913706F09138063A
:10465000099580913906811105C081E08093390662
:1046600010921706E0913A0681E08E0F80933A0689
:10467000F0E0E95EF94F80818093BB0090913A06AB
:1046800080913906981708F479CF85E88093BC00AB
:104690000AC085EC8093BC001092F00304C0109215
:1046A000EE030E94F81FFF91EF91BF91AF919F9190
:1046B0008F917F916F915F914F913F912F910F90CB
:1046C0000FBE0F901F901895009769F0FC010190A4
:1046D0000020E9F73197AF01481B590BBC018CEA68
:1046E00094E00C94D11E80E090E008951F93CF9346
:1046F000DF931F92CDB7DEB7182F88E60E941315FF
:104700008EE090E00E94C3150E94661581E090E063
:104710000E941D1589E495E00E943A20682F11300F
:1047200011F46E7F01C06D7F88E669830E941315C6
:104730008EE090E00E94C315698189E495E00E94B3
:1047400086200F90DF91CF911F910C946615CF9327
:10475000C82F88E60E94131580E090E00E94C315E0
:104760008C2F6AE00E94B936692F20E1829F600D8C
:10477000112489E495E00E9486200E94661588E64F
:104780000E9413158FE090E00E94C3150E946615E9
:1047900081E090E00E941D1589E495E00E943A2096
:1047A000C82F88E60E9413158FE090E00E94C31581
:1047B0006C2F6F7789E495E00E948620CF910C944E
:1047C0006615CF93C82F88E60E94131581E090E00C
:1047D0000E94C3158C2F6AE00E94B936692F20E130
:1047E000829F600D112489E495E00E948620CF917C
:1047F0000C9466151F93CF93DF931F92CDB7DEB74E
:10480000182F88E60E94131582E090E00E94C315DD
:104810000E94661581E090E00E941D1589E495E0F4
:104820000E943A2086FF18C01D3060F084EF810F8F
:104830006AE00E94B936692F20E1829F600D112441
:10484000606614C0812F6AE00E94B936692F20E1AA
:10485000829F600D11240AC0812F6AE00E94B93640
:10486000692F20E1829F600D11246F7B88E66983A8
:104870000E94131582E090E00E94C315698189E4CB
:1048800095E00E9486200F90DF91CF911F910C94AC
:104890006615CF93C82F88E60E94131583E090E039
:1048A0000E94C3158C2F6AE00E94B936692F20E15F
:1048B000829F600D112489E495E00E948620CF91AB
:1048C0000C946615CF93C82F88E60E94131584E0D8
:1048D00090E00E94C3158C2F6AE00E94B936692FC0
:1048E00020E1829F600D112489E495E00E948620DA
:1048F000CF910C946615CF93C82F88E60E941315AC
:1049000085E090E00E94C3158C2F6AE00E94B936C2
:10491000692F20E1829F600D112489E495E00E94B7
:104920008620CF910C946615CF93C82F88E60E94FD
:10493000131586E090E00E94C3158C2F6AE00E9458
:10494000B936692F20E1829F600D112489E495E03A
:104950000E948620CF910C946615CF9388E60E9422
:10496000131582E090E00E94C3150E94661581E055
:1049700090E00E941D1589E495E00E943A20C82F1E
:1049800088E60E94131582E090E00E94C3156C2F08
:104990006F7B89E495E00E948620CF910C94661588
:1049A0000F931F93CF93DF938C01C0E0D0E0F80109
:1049B000EC0FFD1F6491662371F0E091AC04F0915F
:1049C000AD040190F081E02D8CEA94E00995892BEB
:1049D00011F02196ECCFCE01DF91CF911F910F9175
:1049E00008950C9464238F929F92AF92BF920F937D
:1049F0001F93CF93DF93CDB7DEB7A1970FB6F8948F
:104A0000DEBF0FBECDBF19A2423008F44AE08E01CE
:104A10000F5D1F4F842E912CA12CB12CA501940168
:104A20000E94ED36E62FB901CA0101501109EA30A2
:104A300014F4E05D01C0E95CD801EC93232B242B36
:104A4000252B61F7C8010E946423A1960FB6F89444
:104A5000DEBF0FBECDBFDF91CF911F910F91BF90F1
:104A6000AF909F908F900895682F70E080E090E065
:104A70004AE00C94F324E091AC04F091AD04019071
:104A8000F081E02D682F8CEA94E009944F925F92B8
:104A90006F927F928F929F92AF92BF92CF92DF924E
:104AA000EF92FF926B017C01B42E9B01AC010E943E
:104AB000AD36882319F08AE692E027C02601370137
:104AC000E89477F82FEF3FEF4FE75FE7C301B201BC
:104AD0000E94AD3681110DC02FEF3FEF4FE75FE72A
:104AE000C301B2010E94F13118161CF48EE692E067
:104AF0000CC02FEF3FEF4FE75FE4C701B6010E9404
:104B00002936181684F482E792E0FF90EF90DF9048
:104B1000CF90BF90AF909F908F907F906F905F905D
:104B20004F900C9464232FEF3FEF4FE75FECC701EA
:104B3000B6010E94F13187FDE6CF20E030E0A90107
:104B4000C701B6010E94F13187FF09C08DE20E94C2
:104B50003B254C01F7FAF094F7F8F09402C0812C51
:104B6000912CA12C60E070E080E09FE3AB1440F456
:104B700020E030E040E251E40E948F34A394F6CF6D
:104B80009B01AC01C701B6010E9491332B013C018E
:104B90000E9408356B017C010E94F6319B01AC013B
:104BA000C301B2010E9490332B013C014AE0C701CE
:104BB000B6010E94F3247C01E80CF91CBB2029F00B
:104BC0008EE20E943B25E80EF91EDB2CDD2021F150
:104BD00020E030E040E251E4C301B2010E945732CC
:104BE0002B013C010E9408354B01A12CB12C4AE05D
:104BF000C501B4010E94F324E80EF91EC501B401F9
:104C00000E94F6319B01AC01C301B2010E949033B6
:104C10002B013C01DA94DACFC701FF90EF90DF90CF
:104C2000CF90BF90AF909F908F907F906F905F904C
:104C30004F900895AF92BF92CF92DF92EF92FF9282
:104C40000F931F93CF93DF9300D0CDB7DEB78B01C7
:104C50006B0128E0C20ED11C7B015C01A61AB70AC9
:104C600095012E0D3F1DF70161917F013A83298344
:104C7000CE0101960E94B311EC14FD0489F7C8011E
:104C80000F900F90DF91CF911F910F91FF90EF90B8
:104C9000DF90CF90BF90AF900895AF92BF92CF9228
:104CA000DF92EF92FF920F931F93CF93DF9300D089
:104CB000CDB7DEB78B016B012DE0C20ED11C7B019D
:104CC0005C01A61AB70A95012E0D3F1DF7016191EF
:104CD0007F013A832983CE0101960E94B311EC141F
:104CE000FD0489F7C8010F900F90DF91CF911F91BC
:104CF0000F91FF90EF90DF90CF90BF90AF9008950D
:104D00001F93CF93DF93CDB7DEB72B970FB6F894F1
:104D1000DEBF0FBECDBF88E60E94131580E090E095
:104D20000E94C3150E94661587E090E00E941D1541
:104D300089E495E00E943A208F77982F92959F7092
:104D40001AEF782F919F700D112489E495E07B87ED
:104D50000E943A209C01332794E0359527959A9537
:104D6000E1F7682F129F600D112489E495E06A87AE
:104D70000E943A209C01332744E0359527954A95B7
:104D8000E1F7582F129F500D112489E495E05987BF
:104D90000E943A2089E495E00E943A209C01332742
:104DA00054E0359527955A95E1F7482F129F400D0D
:104DB000112489E495E048870E943A209C0133271A
:104DC00064E0359527956A95E1F7382F129F300DED
:104DD000112489E495E03F830E943A20FC01FF27DB
:104DE00074E0F595E7957A95E1F7282F1E9F200D41
:104DF00011243F81488559856A857B8580E090E054
:104E00002B960FB6F894DEBF0FBECDBFDF91CF91CA
:104E10001F9108951F920F920FB60F9211242F9396
:104E20003F934F935F936F937F938F939F93AF9332
:104E3000BF93EF93FF93E0918402F091850209956F
:104E4000FF91EF91BF91AF919F918F917F916F9162
:104E50005F914F913F912F910F900FBE0F901F9038
:104E60001895CF92DF92EF92FF920F931F93CF93FB
:104E7000DF9300D0CDB7DEB792ECE92E92E0F92EA9
:104E8000670100E010E0C8010E941833D6018D933D
:104E90006D010F5F1F4F05321105A9F78091C20206
:104EA000843D09F4A0C085E2E2ECF2E0DF011D924E
:104EB0008A95E9F784ED8093C2028EEC95EAACEC1A
:104EC000B0EC8093C3029093C402A093C502B09348
:104ED000C60289EE9AE9A5EDB2E48093C7029093E9
:104EE000C802A093C902B093CA0280E090E0A4E394
:104EF000B2E48093CB029093CC02A093CD02B09306
:104F0000CE0280E090E0A0EEB0E48093CF029093D8
:104F1000D002A093D102B093D20281E08093D30259
:104F200094E19093D40292E09093D5029AE090930A
:104F3000D6022EE12093D7022FE02093D80290933F
:104F4000D9029093DA0227E02093DB029093DC02EF
:104F50008093DD028093DE028093DF028093E00283
:104F600000E010E0F70161917F011A830983CE010F
:104F700001960E94B3110F5F1F4F0532110591F783
:104F80006BE771E087E390E00E944D2668E871E0EE
:104F900082E890E00E941A2660E971E088E191E0E1
:104FA0000E941A2668E971E08EEA91E00E941A26B2
:104FB00080EAE82E81E0F82E04E412E0D7016D913A
:104FC0007D011A830983CE0101960E94B3110F5F00
:104FD0001F4F0035B2E01B0789F76CEA71E08AEDDC
:104FE00092E00E944D268091590590E04297ECF4A2
:104FF0000E94AD2482E10E94942481E00E947B24DF
:1050000081E00E94622482E00E9449248CE00E9498
:10501000FA2380E00E94E12380E00E94A72381E040
:105020000E94762382E00E9476238091D8028093AA
:10503000BB028091D9028093BE028091DA028093F4
:10504000BF028091DB028093C0028091DC028093DA
:10505000C1028091D40290E00E942B0D0E94530D5A
:105060000F900F90DF91CF911F910F91FF90EF90D4
:10507000DF90CF900895CF93DF93CDB7DEB7CD56B5
:10508000D1090FB6F894DEBF0FBECDBF789484B5BA
:10509000826084BD84B5816084BD85B5826085BD34
:1050A00085B5816085BD80916E00816080936E00C2
:1050B00010928100809181008260809381008091B4
:1050C0008100816080938100809180008160809365
:1050D00080008091B10084608093B1008091B00025
:1050E00081608093B00080917A00846080937A0020
:1050F00080917A00826080937A0080917A0081604A
:1051000080937A0080917A00806880937A00109270
:10511000C1001092F2031092F10310921404109245
:1051200013041092F00311E01093EF031092EA03BE
:1051300061E082E10E943A2161E083E10E943A212C
:105140008091B9008E7F8093B9008091B9008D7FE6
:105150008093B90088E48093B80085E48093BC0014
:10516000E091BC04F091BD0482E08083E091B8043A
:10517000F091B9041082E091BA04F091BB048FEC75
:1051800080831092C404E091C004F091C10486E0D1
:105190008083E091BE04F091BF04808180618083B0
:1051A000E091BE04F091BF04808188608083E0912B
:1051B000BE04F091BF04808180688083E091BE04CA
:1051C000F091BF0480818F7D808361E08EE00E943A
:1051D0006A210E94BD0C0E94312761E08EE00E948E
:1051E0003A2164E670E080E090E00E94A62160E051
:1051F0008EE00E943A2180916B058130A1F11093DD
:105200006B05209164053091650580916205909150
:105210006305289F8001299F100D389F100D1124D0
:10522000C8010E9415379093700580936F05009711
:10523000C1F0A8016FEF70E00E941A39F8948091D4
:105240006F05909170059093670580936605809136
:105250006D0590916E059093720580937105789419
:1052600002C010926B0580E1809381001092800053
:1052700081E08093880220E83EE330938702209308
:105280008602309387002093860091E190938100FD
:1052900028EB38E0309385022093840280936F00DE
:1052A0008091D40290E00E942B0D8AEF94E09093BD
:1052B00069058093680520916405309165058091AA
:1052C000620590916305289FA001299F500D389F8A
:1052D000500D11246FEF70E0809166059091670585
:1052E0000E941A390E946E17FF24F3941E012CE4C9
:1052F000220E311CAE014F5F5F4F6A010E94BD0C50
:105300008090A9029090AA02A090AB02B090AC024B
:105310005091AD02AD965FAFAD978091D302AE963E
:105320008FAFAE979091A503AC969FAFAC97E090EE
:105330009E03A0910101B0910201AB96BFAFAEAF49
:10534000AB97E9E8F2E0A896FFAFEEAFA897FFEFC2
:10535000A996FFAFA99700E010E00F5F1F4F08303C
:10536000110509F458C0C8010297029708F448C013
:10537000A896AEADBFADA89714964D905D906D9078
:105380007C901797A3019201C501B4010E942936B0
:1053900087FD36C0A9960FAFA997E11031C0A301D0
:1053A0009201C501B4010E94293618164CF52FE868
:1053B00032EC45EF5CE3C301B2010E9491339B01E3
:1053C000AC01C501B4010E94F13187FF19C0AD964F
:1053D000BFADAD97B63061F40430110549F4AE9617
:1053E000EFADAE97E13021F4F1E0AC96FFAFAC97B2
:1053F00024E630E0AB963FAF2EAFAB97EE24E394BC
:10540000A8964EAD5FADA8974C5F5F4FA8965FAF73
:105410004EAFA897A2CFA9965FADA9975093000170
:10542000E0929E03AC968FADAC978093A503AB96AC
:10543000AEADBFADAB97B0930201A0930101109246
:10544000A603EAEFF4E0F0936905E0936805209184
:105450006405309165058091620590916305289FF0
:10546000A001299F500D389F500D11246FEF70E05F
:1054700080916605909167050E941A390E94E0218B
:105480002091E9023091EA02AB01421B530B9A01D1
:1054900021363A4E30F07093EA026093E9020E949E
:1054A000530D81E090E00E94CA098091D30290E000
:1054B00001972AE0289FB001299F700D1124695A95
:1054C0007D4F2AE030E040E050E0C1010E945030C2
:1054D000560107E310E0C8010E941833D5018D93EF
:1054E0005D010F5F1F4F02381105A9F7DF92CF92C0
:1054F0003F922F92A9E0B1E0BF93AF93ABEEB2E041
:10550000BF93AF930E94313942E050E062E070E017
:105510008BEE92E00E9495178091AF0290E0019788
:105520002BE0289FB001299F700D11246E547D4FF0
:105530002BE030E040E050E0C1010E945030B090DC
:10554000B002A090B102E090AE0260905905712CBB
:10555000F0E36F1AF8EF7F0A00915A0510915B058E
:105560000E948026A1962FAFA197A2963FAFA29747
:10557000A3964FAFA397A4965FAFA497A5966FAFDE
:10558000A597A6967FAFA697632F70E030E04901FC
:1055900050E3851A58EF950A8AE1E3E3F1E0D6017A
:1055A00001900D928A95E1F7225E3F4FADE6B1E0A2
:1055B0002A9FC0012B9F900D3A9F900D1124DC0172
:1055C0001197FB013197EE0FFF1FEC0DFD1D2081A0
:1055D0003181240F311DC401837099270FB6F894CF
:1055E000DEBF0FBECDBF892B29F46330710514F0E7
:1055F0002F5F3F4F40E050E082EB97E0BC016370CB
:105600007727672B11F44F5F5F4F01968815990537
:10561000ACF3CD01820F931F840F951F65E070E0FE
:105620000E94D936FC01EE0FFF1FE35BFE4F908016
:1056300081808091AD0290E0019727E0289FB00122
:10564000299F700D112460587D4F27E030E040E025
:1056500050E080E493E00E945030AF92BF923F92BE
:105660002F921F92EF927F926F921F920F931F9231
:105670001F938F929F9280E493E09F938F9380E19A
:1056800091E09F938F9387E493E09F938F930E9481
:10569000313943E050E061E070E087E493E00E943C
:1056A00095170091E80210E0A090E702B12CC50127
:1056B00001972AE1289FB001299F700D11246054A1
:1056C0007C4F2AE130E040E050E0C6010E945030BB
:1056D000015011098DE0809FB001819F700D112450
:1056E000695C7C4F2BE030E040E050E0C1010E945B
:1056F00050300FB6F894DEBF0FBECDBFAA94AB28D2
:1057000039F43F922F92DF92CF9288EC91E006C05D
:105710003F922F92DF92CF9288ED91E09F938F93EB
:1057200085E693E09F938F930E9431390FB6F894EA
:10573000DEBF0FBECDBF44E050E060E070E085E624
:1057400093E00E94951785E090E00E94220B82E88A
:1057500090E00E94B81446E050E061E070E086E11D
:1057600094E00E94951787E090E00E94CA0988E1C2
:1057700091E00E94B81448E050E062E070E086E1F9
:1057800094E00E94951789E090E00E94220B8EEA37
:1057900091E00E94B8144AE050E061E070E086E1D8
:1057A00094E00E9495178091010190910201843646
:1057B000910501F50E94E0214B015C018091980365
:1057C00090919903A401481B590BCA01853F914050
:1057D00028F080919703833108F4CDC1809198031C
:1057E00090919903881A990AE1ED8E16E7E09E06DA
:1057F00008F019C28091010190910201853691054E
:1058000009F049C00E94E0212B013C01E091000118
:105810000E2E000CFF0BE654FD4FA0808CE3A89EDB
:105820005001112482E0E82E01E02DE030E04EE34B
:1058300050E062E070E081E090E00E942A148091E4
:105840009C0390919D03D201A81BB90BCD01893E09
:10585000934040F080919A0390919B03A816B9065B
:105860000CF0F7C180919A0390919B03A816B9069A
:1058700094F485E690E09093A8038093A703109298
:1058800002011092010110929B0310929A0360E0B2
:105890008EE00E943A2184E492E00E94B81446E629
:1058A00050E060E070E086E194E00E9495178AED98
:1058B00092E00E94B81447E650E060E070E086E1B4
:1058C00094E00E9495178091010190910201883621
:1058D0009105D1F50E94E0212091A503222309F42E
:1058E00020C22091D702ACE32A9F9001112430936B
:1058F000A4032093A3031092A5032091A103309148
:10590000A203FB01E21BF30B9F01293E334008F089
:105910000FC220919F033091A0038091A303909127
:10592000A4038217930780F488E690E09093A8037D
:105930008093A703109202011092010110929E031E
:105940001092A00310929F038091A7039091A80347
:10595000019751F482E090E090930201809301015D
:105960001092A8031092A7038091A7039091A80317
:10597000029751F483E090E090930201809301013B
:105980001092A8031092A7038091A7039091A803F7
:10599000039789F48091E802882319F084E090E06D
:1059A00002C085E090E09093020180930101109283
:1059B000A8031092A7038091A7039091A8030497CE
:1059C00051F485E090E090930201809301011092E0
:1059D000A8031092A7038091A7039091A8030597AD
:1059E00051F486E090E090930201809301011092BF
:1059F000A8031092A7038091A7039091A80306978C
:105A000051F487E090E0909302018093010110929D
:105A1000A8031092A7038091A7039091A80307976A
:105A200051F488E090E0909302018093010110927C
:105A3000A8031092A7038091A7039091A803089749
:105A400051F489E090E0909302018093010110925B
:105A5000A8031092A7038091A7039091A803099728
:105A600051F48AE090E0909302018093010110923A
:105A7000A8031092A7038091A7039091A8030A9707
:105A800051F481E090E09093020180930101109223
:105A9000A8031092A7038091A7039091A8038436CE
:105AA0009105D9F48091A503882369F087E690E0F9
:105AB00090930201809301011092A8031092A70312
:105AC000F092A9030AC085E690E0909302018093CA
:105AD00001011092A8031092A7038091A70390914F
