:100000000C94A7050C94CF050C94CF050C94CF0548
:100010000C94CF050C94CF050C94CF050C94CF0510
:100020000C94CF050C94CF050C94CF050C94CF0500
:100030000C94CF050C94DC0C0C94CF050C94CF05DC
:100040000C9461220C94CF050C9454210C942E2115
:100050000C94CF050C94CF050C94CF050C94CF05D0
:100060000C94AB220C94CF05036EDB363D9A999924
:10007000993DABAAAA2A3E000000803F084AD73B20
:100080003BCE016E84BCBFFDC12F3D6C74319ABD67
:1000900056833DDA3D00C77F11BED9E4BB4C3E918B
:1000A0006BAAAABE000000803F072C7AA5BA6CC5D7
:1000B00090DA3B9365FC8BBC53F810FD3C56928361
:1000C0004DBD879D3AB63DCBC9BF5BBE73DA0FC944
:1000D0003F05A84CCDB2D44EB93836A9020C50B960
:1000E000918688083CA6AAAA2ABE000000803F0686
:1000F00064EC1B3C04BC163E3BE5B93CC93C37C232
:100100009E5A3D660498083EEA69AAAA3E0000008D
:10011000803F4E414E494E495459494E46CDCCCC74
:100120003D0AD7233C17B7D13877CC2B329595E6CB
:10013000241FB14F0A000020410000C84200401CAB
:100140004620BCBE4CCA1B0E5AAEC59D740E9E0600
:1001500007206003020506060606010404040602E1
:10016000040206060606060606060606060202053E
:100170000405060606060606060606060406060624
:100180000706060606060606060607060606030610
:10019000030504060606060606050606040606040A
:1001A00007060606060506050606070506060606F0
:1001B000060606000000BEBE060E00060E28FEFE65
:1001C00028FEFE085CD6D67420C6663018CCC664FD
:1001D000FE9AAE44A006387CC68282C67C38040EE5
:1001E0000E0410107C7C101060E010101010C0C0C5
:1001F000C06030180C067CFE8282FE7C888CFEFE7D
:10020000808084C6E2B29E8C44C69292FE6C3038E6
:1002100024FEFE204ECE8A8AFA7278FC9692F26014
:100220000202E2F21E0E6CFE9292FE6C0C9E92D2C4
:100230007E3C6C6C6CEC10386CC6822828282882B6
:10024000C66C38100406A2B21E0C000000000000AC
:10025000FCFE2222FEFCFEFE9292FE6C7CFE82825E
:10026000C644FEFE8282FE7CFEFE92929282FEFEDA
:10027000121212027CFE8292F674FEFE1010FEFE36
:1002800082FEFE8260E08080FE7EFEFE386CC682CA
:10029000FEFE80808080FEFE041804FEFEFEFE1C32
:1002A00070FEFE7CFE8282FE7CFEFE12121E0C7C24
:1002B000FEA2C2FE7CFEFE3272DE8C4CDE9292F614
:1002C000640202FEFE02027EFE8080FE7E3E7EC052
:1002D000C07E3EFEFE403040FEFEC66C38386CC626
:1002E0000E1CF0F01C0EC2E2B29A8E86FEFE820652
:1002F0000C183060C082FEFE080402040880808072
:100300008000000600000040E8A8A8F8F0FEFE8883
:1003100088F87070F88888D85070F88888FEFE7069
:10032000F8A8A8B83008FCFE0A0210B8A8A8F87807
:10033000FEFE0808F8F088FAFA8040C08080F8785D
:10034000FEFE2070D88882FEFE80F0F8102010F8A3
:10035000F0F8F81008F8F070F88888F870F8F828C5
:1003600028381010382828F8F8F8F8100808B0B81D
:10037000A8A8E868087EFE888078F88080F8783839
:1003800078C0C0783878F8402040F87888D870D89D
:1003900088B8B8A0A0F878C8C8A8A89898107C8297
:1003A0008200000000FEFE0000000082827C10043B
:1003B0000204040200000000000000000005072005
:1003C00060000000000000005F0000000700070060
:1003D000147F147F14242A7F2A12231308646236A0
:1003E000495522500005030000001C224100004135
:1003F000221C00082A1C2A0808083E080800503061
:1004000000000808080808006060000020100804C8
:10041000023E5149453E00427F40004261514946FB
:100420002141454B311814127F1027454545393C71
:100430004A49493001710905033649494936064997
:1004400049291E0036360000005636000000081408
:1004500022411414141414412214080002015109F9
:1004600006324979413E7E1111117E7F4949493654
:100470003E414141227F4141221C7F494949417F00
:10048000090901013E414151327F0808087F0041BE
:100490007F41002040413F017F081422417F4040BE
:1004A00040407F0204027F7F0408107F3E414141AB
:1004B0003E7F090909063E4151215E7F09192946FF
:1004C000464949493101017F01013F4040403F1FFA
:1004D0002040201F7F2018207F631408146303042A
:1004E000780403615149454300007F4141020408FB
:1004F000102041417F0000040201020440404040BE
:1005000040000102040020545454787F4844443889
:100510003844444420384444487F385454541808DC
:100520007E090102081454543C7F080404780044F6
:100530007D40002040443D00007F10284400417F62
:1005400040007C041804787C08040478384444444F
:10055000387C14141408081414187C7C080404084B
:100560004854545420043F4440203C4040207C1CCC
:100570002040201C3C4030403C44281028440C5073
:1005800050503C4464544C44000836410000007F05
:100590000000004136080008082A1C08081C2A0828
:1005A000081F1C1F1E1F1E1F1F1E1F1E1F4A414EFD
:1005B00000464542004D415200415052004D4549D0
:1005C000004A554E004A554C004147530053455090
:1005D000004F4B54004E4F560044455300000080DE
:1005E00040C020A060E0109050D030B070F008887B
:1005F00048C828A868E8189858D838B878F8048403
:1006000044C424A464E4149454D434B474F40C8C1A
:100610004CCC2CAC6CEC1C9C5CDC3CBC7CFC0282AE
:1006200042C222A262E2129252D232B272F20A8A1A
:100630004ACA2AAA6AEA1A9A5ADA3ABA7AFA0686A2
:1006400046C626A666E6169656D636B676F60E8EBA
:100650004ECE2EAE6EEE1E9E5EDE3EBE7EFE018154
:1006600041C121A161E1119151D131B171F10989EA
:1006700049C929A969E9199959D939B979F9058572
:1006800045C525A565E5159555D535B575F50D8D8A
:100690004DCD2DAD6DED1D9D5DDD3DBD7DFD03831E
:1006A00043C323A363E3139353D333B373F30B8B8A
:1006B0004BCB2BAB6BEB1B9B5BDB3BBB7BFB078712
:1006C00047C727A767E7179757D737B777F70F8F2A
:1006D0004FCF2FAF6FEF1F9F5FDF3FBF7FFF000048
:1006E0000000230026002900100F00840584070461
:1006F00000040004002400A608B208B2189238D200
:1007000068F27DF0F7300700100E18080C14061C74
:10071000067006C0068006FF061E1BF8B180E06C5E
:10072000007E0012000C00000406206000000000A3
:10073000005F0000070007007F147F142A7F2A1241
:100740001308646249552250050300001C22410031
:1007500041221C002A1C2A08083E080850300000CC
:100760000808080860600000100804023F21213FCB
:1007700000213F203929292F2129293F0F08083F2F
:100780002F2929393F2929390101013F3F29293FD3
:100790002F29293F0012120000121200001200003F
:1007A0000A0A0A0A00120000000000003E23213F4E
:1007B0003F09093F3F2929373F2121213F21211EA0
:1007C0003F2929213F0909013F2129393F08083FD5
:1007D000003F00003820203F3F0C12213F20202006
:1007E0003F0E0E3F3F01013F3F21213F3F09090FCF
:1007F0003F29313F3F09192F2F292939013F010096
:100800003F20203F0F30300F3F3C383F330C0C3B34
:100810002F28283F3129252303D0060F300A06064A
:100820000606060606060606FCFE0202FEFC3F7FE2
:1008300040407F3F080CFEFE000040407F7F40406C
:100840000C0E02C2FE3C707C6F6360600C8E828274
:10085000FE7C307141417F3E80E078FEFE000F0F4C
:10086000487F7F487E7E2222E2C2307040407F3F38
:10087000F0F84C46C2823F7F40407F3F020202E2D6
:10088000FE1E00007F7F00007CFE8282FE7C3E7F99
:1008900041417F3EFCFE0202FEFC414362321F0FDB
:1008A0001010200170037007200F201F701FF80F19
:1008B000700777FF700077FF777E763C763C763C5A
:1008C000FFFF1010001C8022C00BE002F00CF008AB
:1008D000E03EC01CFFDC001CFFDCFDDC78DC78DCCB
:1008E00078DCFFFE4D41534A4944000000004D753D
:1008F00073686F6C6C610000537572617500000065
:1009000000004C616E676761720000000041686121
:100910006400000053656E696E000053656C61737E
:100920006100526162750000004B616D69730000E7
:100930004A756D2761740053616274750000004D43
:100940007568617272616D00000053686166617262
:1009500000000000005261622E4177616C000000CF
:100960005261622E416B68697200004A756D2E41BA
:1009700077616C0000004A756D2E416B68697200EA
:100980000052616A61620000000000005379612733
:1009900062616E0000000052616D616468616E000A
:1009A000000053796177616C0000000000447A75A3
:1009B0006C71612764616800447A756C68696A616A
:1009C0006800000053796177616C0000000000004E
:1009D000005379612762616E0000000000005365DA
:1009E0006E696E00000000000000004B616D6973CD
:1009F0000000000000000000417979616D756C20F5
:100A0000426964680041726F66616800000000001E
:100A10000000447A756C68696A61680000000054DF
:100A20006173752761000000000000004173797553
:100A300072610000000000000052616D6164686135
:100A40006E0000000000004D6172692070756173D6
:100A50006100000000000000000000000000000035
:100A60000053756461686B6168206B697461207004
:100A700075617361000000000000004D6172692023
:100A80006B6974612070657262616E79616B207050
:100A9000756173610053656C616D6174206D656E85
:100AA0006A616C616E6B616E2070756173610000CC
:100AB000494D53414B00000053554255480000003A
:100AC00054455242495400004448554841000000F2
:100AD000445A5548555200004153484152000000C5
:100AE0004D4147524942000049535941000000001E
:100AF0004A554D2741540000000000000024002703
:100B0000002A0000000000250028002B0004040437
:100B100004040404040202020202020303030303A6
:100B20000301020408102040800102040810200183
:100B30000204081020000000080002010000030465
:100B400007000000000000000000022544261124D8
:100B50001FBECFEFD8E0DEBFCDBF26E0AAE3B2E0F4
:100B600001C01D92A633B207E1F712E0A0E0B1E0A8
:100B7000E4EDF2E702C005900D92AA33B107D9F770
:100B800015E0C6EAD5E004C02197FE010E949A3420
:100B9000C53AD107C9F70E9455260C945D390C94CB
:100BA00000002091F4033091F50382179307E0F5DC
:100BB0002091F6033091F70362177307A8F5FC0143
:100BC00023E0F595E7952A95E1F7A091F803B09118
:100BD000F9036A9F90016B9F300D7A9F300D1124AD
:100BE000E20FF31F2091FA033091FB03E20FF31F92
:100BF0009C01277033276081442359F080E890E0FE
:100C000002C0959587952A95E2F780958623808383
:100C1000089540E850E0CA0102C0959587952A954D
:100C2000E2F79C01262B208308953F924F925F921A
:100C30006F927F928F929F92AF92BF92CF92DF92EC
:100C4000EF92FF920F931F93CF93DF936C017B0181
:100C50004A012901302ECA018C199D09E901C61BE0
:100C6000D70B97FF07C0919581959109AA24AA9463
:100C7000BA2C03C0AA24A394B12CD7FF06C0D195E7
:100C8000C195D1090FEF1FEF02C001E010E08C17F2
:100C90009D07FCF02E01440C551C3201681A790A9C
:100CA000C81BD90BCC0FDD1F432DB701C6010E9415
:100CB000D105C814D90471F1161417041CF0640C82
:100CC000751C04C06C0E7D1EE00EF11ECA0CDB1CF0
:100CD000EBCF3C01660C771C43018C1A9D0A9C01EA
:100CE0002C1B3D0BE901CC0FDD1F432DB701C601C5
:100CF0000E94D105E414F50469F0181419041CF0DD
:100D0000860C971C04C08C0E9D1ECA0CDB1CE00ECA
:100D1000F11EEBCFDF91CF911F910F91FF90EF90DC
:100D2000DF90CF90BF90AF909F908F907F906F900B
:100D30005F904F903F9008954091FC035091FD03C8
:100D40004115510509F1FA01349694913196E491D7
:100D5000803209F48EE68917B8F0282F30E0892F09
:100D600090E0BC016E0F711D261737076CF4FA0175
:100D7000649161110CC03196E491E11108C0FA014F
:100D80003296E4918E2F0BC080E090E00895281BEE
:100D9000390B2A5F3F4FFA01E20FF31F849190E075
:100DA00008958F929F92AF92BF92CF92DF92EF926F
:100DB000FF920F93CF93DF935C016B014A0179019E
:100DC0001E141F04ACF4C0E0D0E0C815D9054CF4E3
:100DD000402FB601CE018A0D9B1D0E94D1052196A0
:100DE000F4CF8FEFC81AD80A81E0E81AF108E8CFEB
:100DF000DF91CF910F91FF90EF90DF90CF90BF9058
:100E0000AF909F908F9008958F929F92AF92BF92D4
:100E1000CF92DF92EF920F931F93CF93DF934C010A
:100E20006B015A01E901102F481759072CF4982F2C
:100E3000892D4A01A92EB82ECC15DD051CF0E11232
:100E400016C007C0E11255C09C2F8D2FE601C92E98
:100E5000D82E9E012C193D092F5F3F4FA50148193F
:100E600059094F5F5F4F0E2DB601C4013FC0012FDE
:100E70009601A501B601C4010E941506CC16DD0637
:100E80004CF4012F9E01A501B6016F5F7F4FC50194
:100E90000E9415068A149B0444F4012F9E01A401AC
:100EA000BE01C50101970E941506BE01615071097E
:100EB000C616D70644F4012F96012F5F3F4FA401B9
:100EC000C4010E94150682E0E81601F19E012C196A
:100ED0003D0921503109A818B908A501415051090F
:100EE000B6016F5F7F4F0E2DC40101960E94D1069F
:100EF0000DC0012F9E01A501BE01C4010E9415066F
:100F00009C2F8D2FE601C92ED82EBBCFDF91CF911C
:100F10001F910F91EF90DF90CF90BF90AF909F9077
:100F20008F9008952F923F924F925F926F927F928F
:100F30008F929F92AF92BF92CF92DF92EF92FF92E9
:100F40000F931F93CF93DF93CDB7DEB761970FB6A3
:100F5000F894DEBF0FBECDBF6C015B01A091FC0316
:100F6000B091FD03FD013396F4904032A9F48EE672
:100F70000E949C06182F992E01E08091FE0381119A
:100F800000E02F2D30E0412F592DB501C6010E9400
:100F9000D106E12EF92CDCC0FD0134962491319666
:100FA0008491421708F4B8C0642F70E090E0FC010F
:100FB000E20FF11D6E177F070CF0AEC0421B2F2D04
:100FC00030E0398B288BB901695F7F4F23E075953D
:100FD00067952A95E1F7FD012491042F10E0211176
:100FE0009EC03196E491E1119AC0FD013296349091
:100FF000069FA001079F500D169F500D1124349E8F
:10100000C001359E900D112406968A0F9B1FE32C7C
:10101000F12CA6014E0D5F1D141615060CF098C09C
:10102000488959894A0D5B1D141615060CF090C0AD
:101030006B8321E02C833091FE0331111C828B875E
:101040002C01232D30E03D872C879B012150310955
:101050003F872E87288939892850310938872F837F
:10106000842D2B85821B831508F072C05A82498219
:10107000612C712C812C912C9601280F311D3E83FF
:101080002D832B81821608F043C0E981FA812490D8
:101090002B81213041F02E853F858216930619F46D
:1010A0009F81888502C0962D872D092F182F9801C2
:1010B000285F3F4F3A8729870615170594F028893E
:1010C0003989201731076CF0B8016A0D7B1D20FEAD
:1010D00003C04091FE0301C04C818D819E810E941E
:1010E000D10526940F5F1F4F29853A8502171307F4
:1010F00019F73FEF831A930A88E0680E711C298163
:101100003A818C859D85280F391F3A832983B9CF71
:101110003FEF431A530AA4CFE12CF12C19C0F80178
:101120003696EA0FFB1F349006968A0F9B1F169681
:10113000FD013E2F3A1B341708F069CF3491369FDA
:101140008001379F100D1124800F911F3196F1CF30
:10115000C70161960FB6F894DEBF0FBECDBFDF9119
:10116000CF911F910F91FF90EF90DF90CF90BF90A4
:10117000AF909F908F907F906F905F904F903F9037
:101180002F9008950F931F93CF93DF93CAEAD2E075
:101190008C010A5A1240C8018C0F9D1F0E94CA3050
:1011A000899383E0C034D807B1F78AEA92E0DF91EF
:1011B000CF911F910F910895CF92DF92EF92FF92FE
:1011C000CF93DF93EC0170E080E090E00E94AA2FC3
:1011D00020E030E04CEE51E40E94093024EF3DEF76
:1011E00047EE51E40E9442310E94E9326B017C01DA
:1011F000CE018C589540BC0180E090E00E94A82F61
:101200002CEF3EE241EB53E40E9409300E94E932A8
:101210009B01AC01C701B6010E94433120E030E0E0
:1012200040E85FE30E9443310E94B332DF91CF91E7
:10123000FF90EF90DF90CF90089591E09093A902F6
:1012400080930F041092A8021092A7020895909123
:1012500084029111FCCF813208F080E291E09093FA
:101260008402909383022FEF2093820210928102D6
:10127000280F2093800290937F0290917F02906DBF
:1012800090937F0290917E02913061F410927E02E1
:1012900090917F029093BB009091BC0093FDF8CF9A
:1012A00095EC01C095EE9093BC0090918402913032
:1012B000E1F390918102981710F480918102AEE5DC
:1012C000B2E027E832E0F9019E2F921B981718F43C
:1012D0009D919193F9CF1092860280938502089593
:1012E0002091A70290910F04213208F04AC080910A
:1012F00084028111FCCF32E03093840231E03093DC
:1013000083023FEF30938202109281022093800289
:10131000AEE3B2E04EE552E0FA013E2F341B321745
:1013200018F43D913193F9CF10927F0220917F0202
:10133000990F922B90937F0290917E02913061F4ED
:1013400010927E0290917F029093BB009091BC001E
:1013500093FDF8CF95EC01C095EE9093BC00909171
:1013600084029230E1F3909182029F3F79F0809164
:101370008202803241F080918202803331F084E039
:1013800005C081E003C082E001C083E01092A802A2
:101390001092A7021092A9020895682F8DED93E094
:1013A0000C94E21F3F924F925F926F927F928F92C6
:1013B0009F92AF92BF92CF92DF92EF92FF920F93E4
:1013C0001F93CF93DF93682E492EA62EFA017490B7
:1013D0003196B490C72CD12CF7E0CF0ED11C33E05E
:1013E000D594C7943A95E1F7062F172FEA01229674
:1013F000802F8A198B1570F54E01FE015490E62C52
:10140000F42C20E8322E8E2D86198715F0F4832DCA
:10141000852111F041E001C040E0B801C7010E9400
:10142000D105232D30E0359527952115310511F093
:10143000322E07C0FFEF8F1A9F0AF401549080E804
:10144000382EFFEFEF1AFF0ADECF0F5F1F4FCC0DD4
:10145000DD1DCECFDF91CF911F910F91FF90EF90C7
:10146000DF90CF90BF90AF909F908F907F906F90C4
:101470005F904F903F9008958F929F92AF92BF924E
:10148000CF92DF92EF92FF920F93CF93DF936C0195
:101490005B01E091FC03F091FD033097A1F13396DD
:1014A000E491EA0109900020E9F72197C41BD50BCC
:1014B0004A01EE2EF12C2197CE010196181619063D
:1014C00014F5F40141914F01B501C6010E94920744
:1014D000C80ED91E1C161D067CF401E08091FE0387
:1014E000811100E0970141E050E0B501C6010E9482
:1014F000D106FFEFCF1ADF0A8091F4039091F50334
:10150000C816D906C4F2DF91CF910F91FF90EF90EA
:10151000DF90CF90BF90AF909F908F900895EF9203
:10152000FF920F931F93CF93DF93EC01099000205C
:10153000E9F72197C81BD90B8C01E12CF12C2197DD
:10154000CE0101961816190674F4F80181918F01E5
:101550000E949C06E80EF91E1C161D0684F7FFEF7C
:10156000EF1AFF0AECCFC701DF91CF911F910F91C6
:10157000FF90EF9008958091FF03882311F1F89474
:101580004091FA035091FB03209101043091020431
:1015900080910304909104044217530749F49093F7
:1015A000FB038093FA03509306044093050408C09C
:1015B0003093FB032093FA03909306048093050471
:1015C00078940895CF93DF932091F8033091F90335
:1015D0008091F6039091F703289FE001299FD00D99
:1015E000389FD00D1124CE010E94A03490930404A2
:1015F000809303040097C1F0AE016FEF70E00E948A
:10160000A536F89480910304909104049093FB0311
:101610008093FA0380910104909102049093060450
:1016200080930504789402C01092FF03DF91CF915C
:1016300008958F929F92AF92BF92CF92DF92EF92D6
:10164000FF920F931F93CF93DF93009100011091AE
:1016500001010417150709F0B4C020913D022223AF
:1016600031F010920E0410920D0410923D026B01A5
:101670007C010E948F0AEC01A090EB03B090EC0378
:101680000E94552220910B0430910C04AB01421BA7
:10169000530B4333510508F494C0CA0DDB1D7093FE
:1016A0000C0460930B0480900D0490900E048C1633
:1016B0009D0660F484010F5F1F4F10930E0400938A
:1016C0000D0451E0C516D104D9F50DC010933C02AC
:1016D00000933B02109201011092000110920E043F
:1016E00010920D046EC08BEB93E09093FD038093FA
:1016F000FC03A70168E070E0C501801B910B0E940C
:101700003C0A0E94D2180E94BA188DE491E090938E
:10171000FD038093FC030730110518F4C4010797FB
:1017200009C0CE0106970817190738F0CE018819AD
:1017300099090D970E944A1241C08FEF9FEFFACF8F
:101740008DE491E09093FD038093FC0382E0C81642
:10175000D10441F50730110518F4C40105970CC0F8
:10176000CE0106970817190728F0CE0188199909A4
:10177000079702C08FEF9FEF0E944A128BEB93E016
:101780009093FD038093FC038091EB039091EC0315
:1017900020910D0430910E04A70168E070E0821BD7
:1017A000930B06C0A70163E070E0C501801B910B9D
:1017B0000E943C0A0E94D2180E94BA1881E08093CD
:1017C0003A02DF91CF911F910F91FF90EF90DF9040
:1017D000CF90BF90AF909F908F9008951F93CF931D
:1017E000DF931F92CDB7DEB7182F88E60E941D0940
:1017F0008EE090E00E94CD090E94700981E090E0A7
:101800000E9427098DED93E00E94961F682F1130EA
:1018100011F46E7F01C06D7F88E669830E941D0907
:101820008EE090E00E94CD0969818DED93E00E94E9
:10183000E21F0F90DF91CF911F910C947009AF922E
:10184000BF92CF92DF92EF92FF920F931F93CF93AD
:10185000DF9300D0CDB7DEB78B016B0123E0C20E62
:10186000D11C7B015C01A61AB70A95012E0D3F1D04
:10187000F70161917F013A832983CE0101960E948D
:10188000FF1DEC14FD0489F7C8010F900F90DF9144
:10189000CF911F910F91FF90EF90DF90CF90BF906D
:1018A000AF9008951F93CF93DF93CDB7DEB72B97FB
:1018B0000FB6F894DEBF0FBECDBF88E60E941D09AB
:1018C00080E090E00E94CD090E94700987E090E0DE
:1018D0000E9427098DED93E00E94961F8F77982F25
:1018E00092959F701AEF782F919F700D11248DEDB6
:1018F00093E07B870E94961F9C01332794E03595E7
:1019000027959A95E1F7682F129F600D11248DEDB0
:1019100093E06A870E94961F9C01332744E0359527
:1019200027954A95E1F7582F129F500D11248DED00
:1019300093E059870E94961F8DED93E00E94961FB9
:101940009C01332754E0359527955A95E1F7482FA8
:10195000129F400D11248DED93E048870E94961F41
:101960009C01332764E0359527956A95E1F7382F78
:10197000129F300D11248DED93E03F830E94961F3E
:10198000FC01FF2774E0F595E7957A95E1F7282F9C
:101990001E9F200D11243F81488559856A857B85CE
:1019A00080E090E02B960FB6F894DEBF0FBECDBF5F
:1019B000DF91CF911F9108951F920F920FB60F9252
:1019C00011242F933F934F935F936F937F938F9344
:1019D0009F93AF93BF93EF93FF93E091BA04F0917D
:1019E000BB040995FF91EF91BF91AF919F918F91AA
:1019F0007F916F915F914F913F912F910F900FBE0B
:101A00000F901F9018958EBD0DB407FEFDCF089561
:101A1000CF92DF92EF92FF920F931F93CF93DF93BA
:101A200000D0CDB7DEB733EEE32E34E0F32E6701FE
:101A300000E010E0C8010E94CA30D6018D936D010C
:101A40000F5F1F4F05321105A9F78091E304843D14
:101A500021F58091ED0390E042970CF0DBC00E94ED
:101A6000DF2482E10E94C62481E00E94AD2481E04F
:101A70000E94942482E00E947B248CE00E942C240B
:101A800080E00E94132480E00E94D92381E00E941C
:101A9000EE0B82E00E94EE0BBDC085E2E3EEF4E0C7
:101AA000DF011D928A95E9F784ED8093E30486E3D4
:101AB0009DECA5EFB0EC8093E4049093E504A09333
:101AC000E604B093E70487EF99E1AFEDB2E48093C9
:101AD000E8049093E904A093EA04B093EB0480E057
:101AE00090E0A4E3B2E48093EC049093ED04A0931F
:101AF000EE04B093EF0480E090E0A0EEB0E48093B9
:101B0000F0049093F104A093F204B093F30481E005
:101B10008093F40494E19093F50492E09093F6049A
:101B20009AE09093F7042EE12093F8049093F9043F
:101B30009093FA049093FB0427E02093FC04909385
:101B4000FD048093FE048093FF048093000580933E
:101B5000010500E010E0F70161917F011A8309831C
:101B6000CE0101960E94FF1D0F5F1F4F0532110528
:101B700091F72DE2E22E21E0F22E07E310E0D701EB
:101B80006D917D011A830983CE0101960E94FF1D8C
:101B90000F5F1F4F0D33110591F763E371E082E88A
:101BA00090E00E941F0C66E371E088E191E00E94E2
:101BB0001F0C69E371E08EEA91E00E941F0C9CE328
:101BC000E92E91E0F92E04E412E0F70161917F0122
:101BD0001A830983CE0101960E94FF1D0F5F1F4FDC
:101BE0000035F2E01F0789F788E4E82E81E0F82E3F
:101BF0000AED12E0D7016D917D011A830983CE01B0
:101C000001960E94FF1D0F5F1F4F073EB2E01B07AA
:101C100089F71FCF8091F904809316058091FA040B
:101C2000809319058091FB0480931A058091FC0430
:101C300080931B058091FD0480931C058091F50421
:101C400090E00E9458190E9480190F900F90DF9128
:101C5000CF911F910F91FF90EF90DF90CF9008955B
:101C6000CF92DF92EF92FF920F931F93CF93DF9368
:101C7000CDB7DEB764970FB6F894DEBF0FBECDBF09
:101C80008091FF03882301F11092FF0380910304E8
:101C900090910404892BC1F0F894809101049091F3
:101CA00002049093FB038093FA03909306048093BD
:101CB0000504789480910304909104040E943535C2
:101CC000109204041092030480E493E00E947B1EAF
:101CD000282F833411F08E3439F488E1E82E84E023
:101CE000F82E00E010E029C0833509F0DFC2F5CFFF
:101CF0000539110521F180E493E02C8B0E94891EA7
:101D00002C89892BD1F080E493E00E94671E282F54
:101D1000F70181937F010F5F1F4F61E08EE02C8BF5
:101D20000E94AF216AE070E080E090E00E941B22F8
:101D300060E08EE00E94AF212C892A30C9F6F801BC
:101D4000E95EFB4F10826FED71E0CE0107960E94B5
:101D5000D320E8E1F4E001900020E9F73197E85161
:101D6000F44080911804833409F062C08091190412
:101D70008D3441F480911A048E3471F50AE427E31E
:101D800030E02DC08E3461F480911A048133E1F08B
:101D90008233F1F0833301F505E92EEA31E01FC00B
:101DA000833541F480911A048D34B1F405E924E4BB
:101DB00032E015C08A3481F480911A048D3461F4C4
:101DC00005E92AED32E00BC005E922E830E007C062
:101DD00005E928E131E003C000E020E030E0C12C5B
:101DE000D12CE350EE2EF12C10E0C601820F931F90
:101DF000EC14FD0444F49A83898360E0CE010196DB
:101E00000E94FF1D4CC2C016D106ACF7F601E85E79
:101E1000FB4F63819A838983CE0101962C8B3B8B88
:101E20000E94FF1DFFEFCF1ADF0A3B892C89DDCF0F
:101E30008E3409F07AC168E174E0CE0101960E9407
:101E4000D320BE016F5F7F4FCE0107960E94952081
:101E5000CE0101960E94CE2023E030E041E050E028
:101E6000BE01695F7F4FCE0101960E94E82062E9C2
:101E700071E0CE0101960E945520182FCE010196E7
:101E80000E94CE2011112CC223E030E041E050E04E
:101E9000BE01695F7F4FCE0101960E94E82065E98F
:101EA00071E0CE0101960E945520182FCE010196B7
:101EB0000E94CE20111117C223E030E041E050E033
:101EC000BE01695F7F4FCE0101960E94E82068E95C
:101ED00071E0CE0101960E945520182FCE01019687
:101EE0000E94CE20111102C223E030E041E050E018
:101EF000BE01695F7F4FCE0101960E94E8206BE929
:101F000071E0CE0101960E945520182FCE01019656
:101F10000E94CE201111EDC123E030E041E050E0FD
:101F2000BE01695F7F4FCE0101960E94E8206EE9F5
:101F300071E0CE0101960E945520182FCE01019626
:101F40000E94CE20111108C223E030E041E050E0B1
:101F5000BE01695F7F4FCE0101960E94E82061EAD1
:101F600071E0CE0101960E945520182FCE010196F6
:101F70000E94CE201111F3C123E030E041E050E097
:101F8000BE01695F7F4FCE0101960E94E82064EA9E
:101F900071E0CE0101960E945520182FCE010196C6
:101FA0000E94CE201111DEC123E030E041E050E07C
:101FB000BE01695F7F4FCE0101960E94E82067EA6B
:101FC00071E0CE0101960E945520182FCE01019696
:101FD0000E94CE201111C9C123E030E041E050E061
:101FE000BE01695F7F4FCE0101960E94E8206AEA38
:101FF00071E0CE0101960E945520182FCE01019666
:102000000E94CE201111B4C123E030E041E050E045
:10201000BE01695F7F4FCE0101960E94E8206DEA04
:1020200071E0CE0101960E945520182FCE01019635
:102030000E94CE201111BFC123E030E041E050E00A
:10204000BE01695F7F4FCE0101960E94E82060EBE0
:1020500071E0CE0101960E945520182FCE01019605
:102060000E94CE20111187C123E030E041E050E012
:10207000BE01695F7F4FCE0101960E94E82063EBAD
:1020800071E0CE0101960E945520182FCE010196D5
:102090000E94CE20111172C123E030E041E050E0F7
:1020A000BE01695F7F4FCE0101960E94E82066EB7A
:1020B00071E0CE0101960E945520182FCE010196A5
:1020C0000E94CE2011115DC123E030E041E050E0DC
:1020D000BE01695F7F4FCE0101960E94E82069EB47
:1020E00071E0CE0101960E945520182FCE01019675
:1020F0000E94CE20111148C123E030E041E050E0C1
:10210000BE01695F7F4FCE0101960E94E8206CEB13
:1021100071E0CE0101960E945520182FCE01019644
:102120000E94CE20111133C1BAC0833509F0B7C067
:1021300080911904843409F0B2C080911A04843566
:1021400009F0ADC068E174E0CE0101960E94D32091
:10215000BE016F5F7F4FCE0107960E949520CE0192
:1021600001960E94CE200E94DF2425E030E043E06B
:1021700050E0BE01695F7F4FCE0101960E94E820CA
:10218000CE0101960E94211E862F0E949424CE012A
:1021900001960E94CE2027E030E045E050E0BE01ED
:1021A000695F7F4FCE0101960E94E820CE01019623
:1021B0000E94211E862F0E94AD24CE0101960E940E
:1021C000CE2029E030E047E050E0BE01695F7F4F5C
:1021D000CE0101960E94E820CE0101960E94211EA8
:1021E000862F0E94C624CE0101960E94CE202BE0AD
:1021F00030E049E050E0BE01695F7F4FCE010196BB
:102200000E94E820CE0101960E94211E862F0E9486
:102210002C24CE0101960E94CE202DE030E04BE030
:1022200050E0BE01695F7F4FCE0101960E94E82019
:10223000CE0101960E94211E862F0E941324CE01FA
:1022400001960E94CE202FE030E04DE050E0BE012C
:10225000695F7F4FCE0101960E94E820CE01019672
:102260000E94211E862F0E94D923CE0101960E9432
:10227000CE2020E130E04FE050E0BE01695F7F4FAB
:10228000CE0101960E94E820CE0101960E94211EF7
:10229000862F0E947B24CE0101960E94CE200E94B0
:1022A000080DCE0107960E94CE200FC080E493E077
:1022B0000E94891E892B29F080E493E00E94671E0A
:1022C000F5CF60E08EE00E94AF218091FF03813066
:1022D00009F489C081E08093FF030E94E20A83C071
:1022E00001E010E008C005E010E005C009E010E0E2
:1022F00002C00DE010E02B853C8543E050E0BE01BC
:10230000695F7F4FCE0101960E94E82089819A8102
:102310000097F1F00E94AD2D6D877E878F87988B97
:102320006E0181E1C80ED11CFE013D967F010E1B9E
:102330001F0BC8018E0D9F1DF70161917F019A8BC4
:10234000898BC6010E94FF1DEC14FD0491F7A3CFF9
:1023500060E070E0CB01E0CF01E110E01AC002E1E3
:1023600010E017C003E110E014C004E110E011C058
:1023700005E110E00EC000E210E00BC001E210E049
:1023800008C002E210E005C003E210E002C004E26F
:1023900010E02B853C8543E050E0BE01695F7F4F34
:1023A000CE0101960E94E820CE0101960E94211ED6
:1023B0001E870D8713C02B853C8543E050E0BE018E
:1023C000695F7F4FCE0101960E94E820CE01019601
:1023D0000E94211E8FE190E09E878D87CE010D9691
:1023E0000E94FF1D58CF64960FB6F894DEBF0FBE53
:1023F000CDBFDF91CF911F910F91FF90EF90DF90B4
:10240000CF900895AF92BF92CF92DF92EF920F9349
:102410001F93CF93DF938C01EB016A01CA010E94E5
:102420008F0AE091FC03F091FD03309729F0339679
:10243000E4912E2F30E002C020E030E06091EB0309
:102440007091EC03601B710BDB01A81BB90BB7FD8E
:102450001196B595A7955801AA0EBB1E2C0F3D1FCE
:10246000800F911FAC014A0F5B1FE12C00E0BE0101
:10247000C50101970E940407A601BE01C501DF91B5
:10248000CF911F910F91EF90DF90CF90BF90AF90C1
:102490000C943C0AEF92FF920F931F93CF93DF931C
:1024A000CDB7DEB764970FB6F894DEBF0FBECDBFD1
:1024B0007C01EDEEF3E085811F928F9384811F9262
:1024C0008F9383811F928F932FEB31E03F932F9354
:1024D0008E010F5F1F4F1F930F930E94BC36A80100
:1024E000B70180E090E00E94021281E080933A02FE
:1024F0000FB6F894DEBF0FBECDBF64960FB6F8944A
:10250000DEBF0FBECDBFDF91CF911F910F91FF9026
:10251000EF900895EF92FF920F931F93CF93DF9365
:10252000CDB7DEB764970FB6F894DEBF0FBECDBF50
:1025300000910001109101010817190709F0AAC0C4
:102540000E9455222091160430911704AB01421BC2
:10255000530B45365105C8F03091150420911404F1
:10256000311108C0273088F4709317046093160463
:102570002F5F09C0313049F4222339F070931704DA
:102580006093160421502093140420911604309176
:102590001704AB01421B530BF090140449355B4107
:1025A00038F047E0F41204C081E08093150403C0C2
:1025B00057E0F5120EC082E0E82E01E02DE030E099
:1025C0004EE550E062E070E081E090E00E94040798
:1025D00010C0F1100EC080911504813051F4109399
:1025E0003C0200933B0210920101109200011092F4
:1025F00015048DE491E09093FD038093FC038F2DEF
:1026000090E008970E944A128BEB93E09093FD03B1
:102610008093FC03809114042FE030E07901E81AE4
:10262000F1080091ED0310E00053184F6091EE03A4
:1026300024E0629FC0011124BC0167557A4F24E059
:1026400030E040E050E080E194E00E94D82D1F93FC
:102650000F9380E194E09F938F938091EF031F92FB
:102660008F938EEC91E09F938F938E010F5F1F4F9E
:102670001F930F930E94BC36A801B70180E090E041
:102680000E94021281E080933A020FB6F894DEBFF6
:102690000FBECDBF64960FB6F894DEBF0FBECDBFA0
:1026A000DF91CF911F910F91FF90EF9008954F927E
:1026B0005F926F927F92AF92BF92CF92DF92EF9232
:1026C000FF920F931F93CF93DF93CDB7DEB7299778
:1026D0000FB6F894DEBF0FBECDBF7C010E9455221D
:1026E0002B013C018091F0031F928F9309EC11E0C4
:1026F0001F930F935E0127E0A20EB11CBF92AF9211
:102700000E94BC368091F1031F928F931F930F9309
:102710006E0134E0C30ED11CDF92CF920E94BC3612
:102720008091F2031F928F931F930F938E010F5F7F
:102730001F4F1F930F930E94BC3688E198E090933F
:10274000FD038093FC03A50160E070E0C7010A97D8
:102750000E943C0AA60160E070E0C70107960E9453
:102760003C0A86E297E09093FD038093FC03A80166
:1027700061E070E0C70145960E943C0A8091B80470
:102780009091B9049201281B390BC9010FB6F89436
:10279000DEBF0FBECDBF843F31E09307C0F4EE240F
:1027A000E39401E024E030E04FE050E063E070E0CB
:1027B0008EE090E00E9404072BE030E04FE050E014
:1027C0006AE070E08EE090E00E94040707C0893E56
:1027D000934020F05092B9044092B80481E0809375
:1027E0003A0229960FB6F894DEBF0FBECDBFDF9137
:1027F000CF911F910F91FF90EF90DF90CF90BF90FE
:10280000AF907F906F905F904F900895CF92DF923E
:10281000EF92FF926B017C0120E030E044EB53E447
:102820000E9441320E94E93220E030E044EB53E460
:102830000E9409309B01AC01C701B6010E944231E0
:102840006B017C0120E030E0A9010E94A32F87FFEB
:102850000AC020E030E044EB53E4C701B6010E9417
:1028600043316B017C01C701B601FF90EF90DF900F
:10287000CF9008953F924F925F926F927F928F9286
:102880009F92AF92BF92CF92DF92EF92FF920F93FF
:102890001F93CF93DF9300D000D0CDB7DEB7162FB4
:1028A000042F322E633010F40197145F7C0120ED69
:1028B000E21A27E0F20AB70180E090E00E94A82F18
:1028C00020E030EA46EB53E40E9409300E94E932EE
:1028D0002B013C01612F70E06F5F7F4F072E000CD2
:1028E000880B990B0E94AA2F21E03DEC44EF51E4A4
:1028F0000E9409300E94E93269837A838B839C832A
:10290000C70164E670E00E94723480E090E00E94AB
:10291000A82F0E94E9324B015C01C70160E971E018
:102920000E94723480E090E00E94A82F0E94E93259
:102930006B017C0129813A814B815C81C301B20129
:102940000E944331A50194010E944331A7019601E1
:102950000E9443316B017C01602F70E080E090E0C9
:102960000E94AA2F9B01AC01C701B6010E9443310E
:1029700020E030E044E453E40E9443310E94B3324B
:10298000C09002050C2C000CDD08EE08FF08C60EF6
:10299000D71EE81EF91EC30CD11CE11CF11CC70197
:1029A000B6010E94AA2F2CEF3EE241EB53E40E94B5
:1029B00041320E94E93220E030E841EB54E40E94C9
:1029C00043310E94B3324B015C0161E0C4010E94BB
:1029D000DC08C616D706E806F90634F03FEF831A7E
:1029E000930AA30AB30AF1CF2401350141E0441A46
:1029F000510861087108812C912C54018394820143
:102A0000682DC8010E94DC08C616D706E806F9063C
:102A100034F05FEF851A950AA50AB50AF1CF81E077
:102A2000881A9108A108B108682DC2010E94DC082B
:102A3000EFEFCE1ADE0AEE0AFE0AA7019601261B68
:102A4000370B480B590BCA01B9013DE083169104BD
:102A5000A104B10449F4635E7F4F8F4F9F4F8CE018
:102A6000882E912CA12CB12C782DC8010F900F909D
:102A70000F900F90DF91CF911F910F91FF90EF90EA
:102A8000DF90CF90BF90AF909F908F907F906F908E
:102A90005F904F903F9008954F925F926F927F9218
:102AA0008F929F92AF92BF92CF92DF92EF92FF925E
:102AB0000F931F93CF93DF93CDB7DEB72C970FB64D
:102AC000F894DEBF0FBECDBF29013A01670178013E
:102AD0002BED3FE049E450E40E94093020E030E073
:102AE00044E353E40E9441320E94E83369837A83CD
:102AF0008B839C832BED3FE049E450E4C701B60192
:102B00000E94093020E030E044E353E40E94413267
:102B10006B017C010E94E8334B015C012BED3FE02F
:102B200049E450E4C301B2010E94093020E030E0E2
:102B300044E353E40E9441322B013C010E94E833FC
:102B40009B01AC01C701B60129873A874B875C8797
:102B50000E943C326B017C01C301B2010E943C32F5
:102B60006D837E838F83988749805A806B807C80B9
:102B700077FA709477F8709429853A854B855C854F
:102B8000C501B4010E9409309B01AC01C301B2012F
:102B90000E9442314B015C012D813E814F8158855D
:102BA000C701B6010E9409309B01AC01C501B40107
:102BB0000E9441320E94313120E030E040E751E490
:102BC0000E94413220E030E044E353E40E940930A7
:102BD0002BED3FE049E450E40E9441322C960FB6C1
:102BE000F894DEBF0FBECDBFDF91CF911F910F9143
:102BF000FF90EF90DF90CF90BF90AF909F908F901D
:102C00007F906F905F904F9008952F923F924F92D8
:102C10005F926F927F928F929F92AF92BF92CF926C
:102C2000DF92EF92FF920F931F93CF93DF93EFE327
:102C3000FBE08491EBE2FBE0D491E7E1FBE0C4919F
:102C4000CC2309F4EAC081110E948621EC2FF0E028
:102C5000EE0FFF1FE252F94FA591B491EC91ED23D5
:102C600009F4DBC00091F8031091F903000F111F64
:102C7000000F111F8091F6039091F70324E09695C1
:102C800087952A95E1F7F1E08F278170E12CF12CEF
:102C9000AA24BB24A01AB10A21E030E01901201AAD
:102CA000310A2091F6033091F703E216F3060CF097
:102CB0008AC03091F8032091F90390910004C091EB
:102CC0000504D0910604432E522E970181112FC086
:102CD000290F311D429EC001439E900D529E900DC2
:102CE0001124C80FD91F4E01800E911E6401C00E21
:102CF000D11E3601600E711E14141504B4F4D301F4
:102D00008D913D010E94030DF60181916F010E949A
:102D1000030DD4018D914D010E94030D89910E94F4
:102D2000030DB1E04B1A5108E7CF81E048C0205FA6
:102D30003F4F291B3109429EC001439E900D529E78
:102D4000900D11240197C80FD91F4E018A0C9B1CAE
:102D50006401CA0CDB1C3601620C731CEFEFCE1A47
:102D6000DE0AFFEF8F1A9F0A21961414150434F51A
:102D7000D301EE913D01F0E0E252FA4F84910E94BE
:102D8000030DD601EE916D01F0E0E252FA4F84910D
:102D90000E94030DD401EE914D01F0E0E252FA4F92
:102DA00084910E94030DEA91F0E0E252FA4F84917F
:102DB0000E94030DB1E04B1A5108D7CF80E0E0E14B
:102DC000EE0EF11C6ECF60E089E00E94DF2161E031
:102DD00088E00E94AF2160E088E00E94AF218091EE
:102DE000000481FF02C061E001C060E087E00E9452
:102DF000AF218091000480FF02C061E001C060E06B
:102E000086E00E94AF2161E089E00E94DF2180918D
:102E100000048F5F837080930004DF91CF911F9136
:102E20000F91FF90EF90DF90CF90BF90AF909F9069
:102E30008F907F906F905F904F903F902F9008956C
:102E40004F925F926F927F928F929F92AF92BF92BA
:102E5000CF92DF92EF920F93CF93DF93CDB7DEB790
:102E60002A970FB6F894DEBF0FBECDBFA090000129
:102E7000B0900101A816B90609F067C10E94552259
:102E8000E091EB03F091EC036F0128E2C21AD10844
:102E90002091B6043091B704AB01421B530B4B3069
:102EA000510508F12091B5044091B40421110FC0DF
:102EB000A42FB0E09601D7FE03C09F01275231092D
:102EC00035952795A217B30774F421E005C021308A
:102ED00051F4442341F02FEF240F2093B404709356
:102EE000B7046093B6042091B6043091B704AB01E7
:102EF000421B530B8091B404413D574078F0482F5A
:102F000050E09601D7FE02C02F5F3F4F35952795C1
:102F10004217530719F491E09093B504811118C03A
:102F20009091B5049130A1F49091B304973020F4BE
:102F30009F5F9093B3040AC0B0923C02A0923B0200
:102F400010920101109200011092B3041092B50486
:102F50009091FF04992311F090E007C09091B30481
:102F60009111F1C091E09093B304209100052111DB
:102F700007C02091B304223019F423E02093B30456
:102F800020910105211107C02091B304233019F4C9
:102F900024E02093B3042091B304291305C0909139
:102FA000B504992339F00BC0273049F49091B5044A
:102FB000913029F4853118F4869590E002C08AE0BA
:102FC00090E00E945713A090B304B12CF501EE0FCE
:102FD000FF1FEE0FFF1FE154FB4F408051806280C6
:102FE0007380C301B2010E94E9320E94BA32962E68
:102FF00070E080E090E00E94A82F9B01AC01C3012B
:10300000B2010E9442312B013C0120E030E040E758
:1030100052E40E9409300E94E9320E94BA32862EA0
:1030200070E080E090E00E94A82F20E030E040E7D0
:1030300052E40E9441329B01AC01C301B2010E94E3
:10304000423120E030E041E655E40E9409300E9420
:10305000E9320E94BA321F926F931F928F921F9291
:103060009F928FEB91E09F938F93AE014F5F5F4FE5
:103070004A015F934F930E94BC3622E0E22E01E0AA
:103080002DE030E04EE550E062E070E089E290E053
:103090000E9404078DE491E09093FD038093FC036C
:1030A000B50133E0660F771F3A95E1F76055754F2C
:1030B00028E030E040E050E08DE095E00E94D82D1F
:1030C0004DE055E06FEF7FEF88E290E00E94021242
:1030D0008BEB93E09093FD038093FC03A40168E0E5
:1030E00070E088E290E00E94021281E080933A0250
:1030F0000FB6F894DEBF0FBECDBFD7FE03C09FEF63
:10310000C91AD90AD594C794A090B404B12CA601C9
:10311000485D5F4F4A195B09E12C00E02FE030E089
:1031200060E070E088E290E00E940407C6018A0D2A
:103130009B1D2FE030E04FE550E060E070E08896A6
:103140000E94040702C091E010CF2A960FB6F894AF
:10315000DEBF0FBECDBFDF91CF910F91EF90DF901B
:10316000CF90BF90AF909F908F907F906F905F9027
:103170004F900895EF920F93E12C00E02FE030E0A4
:1031800044E150E060E070E080E090E00E940407DD
:1031900048E057E061E070E082E090E00F91EF904E
:1031A0000C94D209EF920F93E12C00E02FE030E075
:1031B00040E650E060E070E08BE490E00E9404079D
:1031C00048EE56E061E070E08FE490E00F91EF9000
:1031D0000C94D209CF92DF92EF92FF92CF93DF93BC
:1031E0000E94520C2093ED033093EE034093EF03C3
:1031F0005093F003C62F6093F103D72F7093F2031F
:10320000652F70E080E090E00E94A82F6B017C01A8
:103210006C2F70E080E090E00E94A82F20E030E06A
:1032200040E752E40E9441329B01AC01C701B60164
:103230000E9443316B017C016D2F70E080E090E0D3
:103240000E94A82F20E030E041E655E40E94413280
:103250009B01AC01C701B6010E9443316093DF04BA
:103260007093E0048093E1049093E20488E60E9466
:103270001D0983E090E00E94CD090E94700981E061
:1032800090E00E9427098DED93E00E94961F982FF1
:1032900092959F708F702AE0929F800D11248093E9
:1032A0000805DF91CF91FF90EF90DF90CF900895C8
:1032B000CF93DF93EC0161E089E00E94DF21E0E839
:1032C000F0E0908190689083A091BC04B091BD041F
:1032D0009E010E942231DC01CB012AE0B695A79520
:1032E000979587952A95D1F79093890080938800C8
:1032F0008091BE04806180938100DF91CF91089519
:103300002F923F924F925F926F927F928F929F92F5
:10331000AF92BF92CF92DF92EF92FF920F931F93E3
:10332000CF93DF93CDB7DEB762970FB6F894DEBFC9
:103330000FBECDBF0E94EA188091E8049091E90485
:10334000A091EA04B091EB048D839E83AF83B8878C
:103350003090EF03032D10E02090EE03A22CB12C4F
:103360008090ED03912CD401A053B84FBA8BA98B58
:10337000B3E0AB16B10444F4E1E38E1AE8EF9E0A21
:10338000FCE0AF0EB11C02C089889A88B401092CF8
:10339000000C880B990B0E94AA2F20E030E048EC2B
:1033A00052E40E9441320E94E9326B017C0120E02C
:1033B00030E040E85EE30E9409300E94E932698310
:1033C0007A838B839C83B40164597D4E072E000C55
:1033D000880B990B0E94AA2F20E030EA46EB53E4B9
:1033E0000E9409300E94E9322B013C01B5016F5F58
:1033F0007F4F072E000C880B990B0E94AA2F21E00B
:103400003DEC44EF51E40E9409300E94E9324B0147
:103410005C0124E631EA45E15AE4C301B2010E94AD
:103420004231A50194010E9443314B015C01B80176
:10343000110F880B990B0E94AA2F9B01AC01C501AB
:10344000B4010E9443314B015C01A701960160E089
:1034500070E080E090E40E94423129813A814B8102
:103460005C810E9443319B01AC01C501B4010E9403
:10347000433120E030E94EEB54E40E9442316B01CD
:103480007C0120E030E044EB53E46D817E818F814C
:1034900098850E9441329B01AC01C701B6010E9490
:1034A00042316B017C012DE430E54CE75FE30E9483
:1034B000093026EB33EC42EB53E40E9443310E9487
:1034C00006144B015C0123E633E54CE75FE3C701DB
:1034D000B6010E94093021EC3AE34CE853E40E9423
:1034E00043310E94061469837A838B839C832BED7E
:1034F0003FE049E450E4C501B4010E94093020E0F6
:1035000030E044E353E40E9441320E94E8332B014F
:103510003C01A5019401C501B4010E9443312BED8A
:103520003FE049E450E40E94093020E030E044E309
:1035300053E40E9441320E94E8334B015C0128EBC6
:103540003EE145EF5FE3C301B2010E9409309B01F8
:10355000AC0169817A818B819C810E9443312B016E
:103560003C012AE037ED43EA5CE3C501B4010E9467
:1035700009309B01AC01C301B2010E9443310E949A
:1035800006144B015C0126E036E441EC54E3C7012C
:10359000B6010E9409309B01AC0162E173E88BEB3C
:1035A00091E40E9442312BED3FE049E450E40E9457
:1035B000093020E030E044E353E40E9441326B01E3
:1035C0007C010E94E8332B013C012BED3FE049E4F4
:1035D00050E4C501B4010E94093020E030E044E32A
:1035E00053E40E9441324B015C010E94E833698739
:1035F0007A878B879C879B01AC01C301B2010E9433
:1036000009300E94AF3120E030E044E353E40E94EF
:1036100009302BED3FE049E450E40E9441322B0198
:103620003C01C501B4010E943C324B015C01C70161
:10363000B6010E943C3229853A854B855C850E9403
:103640000930A50194010E94DD3120E030E044E31F
:1036500053E40E9409302BED3FE049E450E40E941E
:10366000413220E030E040E751E40E9441326B01FA
:103670007C0120E030E040E751E469817A818B8170
:103680009C810E9441326D877E878F87988B20E0D6
:1036900030E040EC51E4C701B6010E9441320E9483
:1036A000E93220E030E040EC51E40E9409309B0117
:1036B000AC01C701B6010E9442316B017C0120E0E0
:1036C00030E0A9010E94A32F87FF0AC020E030E06C
:1036D00040EC51E4C701B6010E9443316B017C010B
:1036E0008091EC049091ED04A091EE04B091EF0470
:1036F00089879A87AB87BC878091E4049091E50421
:10370000A091E604B091E70489839A83AB83BC83DC
:1037100020E030E040E451E46091F0047091F10465
:103720008091F2049091F3040E9443314B015C01BB
:1037300020E030E040E751E46D817E818F81988503
:103740000E9441329B01AC01C501B4010E9442318B
:103750004B015C01A70196016D857E858F85988957
:103760000E9442319B01AC01C501B4010E9442316B
:103770006B017C0120E030E040EC51E40E944132DA
:103780000E94E93220E030E040EC51E40E94093030
:103790009B01AC01C701B6010E9442314B015C01A3
:1037A00020E030E0A9010E94A32F87FF0AC020E09B
:1037B00030E040EC51E4C501B4010E9443314B01BB
:1037C0005C016091060570E080E090E00E94A82F07
:1037D00020E030E040E752E40E9441329B01AC011E
:1037E000C501B4010E9443316093CF047093D004AB
:1037F0008093D1049093D204A301920169817A81CC
:103800008B819C810E9442319F772BED3FE049E400
:1038100050E40E94093020E030E044E353E40E9489
:1038200041320E943A3420E030E040E85FE30E94F9
:1038300043319B01AC0160E070E080E89FE30E94AF
:1038400041320E940D32905820E030E044E353E4CE
:103850000E9409302BED3FE049E450E40E944132E0
:10386000E980FA800B811C81A30192010E944C1512
:103870009B01AC01C501B4010E9443316B017C0185
:103880006091070570E080E090E00E94A82F20E0A2
:1038900030E040E752E40E9441329B01AC01C70195
:1038A000B6010E9443316093D3047093D404809393
:1038B000D5049093D60469857A858B859C850E9472
:1038C000F63326E931E24EE05DE30E94093026E25C
:1038D00033E545E55FE30E944331E980FA800B81DF
:1038E0001C81A30192010E944C156B017C019B017C
:1038F000AC01C501B4010E9443316D837E838F8387
:1039000098876091030570E080E090E00E94A82F06
:1039100020E030E040E752E40E9441329B01AC01DC
:103920006D817E818F8198850E9443316093D70499
:103930007093D8048093D9049093DA04A701960178
:10394000C501B4010E9442316093C7047093C8045A
:103950008093C9049093CA04E980FA800B811C818A
:10396000A301920160E070E080E991E40E944C15AF
:103970009B01AC01C501B4010E9443316B017C0184
:103980006091040570E080E090E00E94A82F20E0A4
:1039900030E040E752E40E9441329B01AC01C70194
:1039A000B6010E9443316093DB047093DC04809382
:1039B000DD049093DE04E980FA800B811C81A30171
:1039C000920160E070E080EA91E40E944C159B0156
:1039D000AC01C501B4010E9442316B017C016091D0
:1039E000050570E080E090E00E94A82F20E030E024
:1039F00040E752E40E9441329B01AC01C701B6018D
:103A00000E9443316093C3047093C4048093C5043F
:103A10009093C6042BEA3AEA4AE25EE30E944231FE
:103A20006093BF047093C0048093C1049093C20458
:103A3000E980FA800B811C81A301920160E070E0B3
:103A400080E990EC0E944C159B01AC01C501B401CA
:103A50000E9442316093CB047093CC048093CD04D8
:103A60009093CE0421E0432D622D89899A890E948A
:103A70003A1410921E057C3029F486EF860F8430AC
:103A8000E0F457C07A3051F4613009F452C0633029
:103A9000A0F081E080931E0582E00DC0783069F4CB
:103AA00083EE860F823008F444C0662331F082E052
:103AB00080931E0583E080931D0580910805813069
:103AC00021F493E090931E0505C0843029F480937F
:103AD0001E0581E080931D0583EF860F833030F44F
:103AE00085E080931E0581E080931D057C3059F4AC
:103AF000693011F486E003C06930D8F487E0809320
:103B00001E0581E014C0713061F4693011F488E061
:103B100003C06A3071F489E080931E0570931D051F
:103B200008C0793031F48AE080931E0584E08093E8
:103B30001D0511E02091D7043091D8044091D9049B
:103B40005091DA046091DF047091E0048091E10407
:103B50009091E2040E94DB3318160CF010E0809183
:103B6000ED0390E0212F4091EF036091EE0380532D
:103B7000984F0E943A146093090570930A05809348
:103B80000B0590930C05C090DF04D090E004E0900A
:103B9000E104F090E20420E030E048EA51E4C7019B
:103BA000B6010E94DB33181654F020E030E040E408
:103BB00050E4C701B6010E94A32F87FF03C085E030
:103BC00090E003C08091F50490E062960FB6F894FF
:103BD000DEBF0FBECDBFDF91CF911F910F91FF9040
:103BE000EF90DF90CF90BF90AF909F908F907F909D
:103BF0006F905F904F903F902F900C945819EF92D8
:103C0000FF920F931F93CF93DF931F92CDB7DEB731
:103C10007C01FC0100811181C80169830E94CA30C6
:103C20006981681719F0C8010E94D230C7010F904E
:103C3000DF91CF911F910F91FF90EF9008950E9417
:103C40009736FC0180819181009711F00C94B12D81
:103C500060E070E0CB0108950895CF92DF92EF927B
:103C6000FF920F931F93CF93DF936C017A018B0127
:103C7000C0E0D0E0CE15DF0589F0D8016D918D014F
:103C8000D601ED91FC910190F081E02DC6010995DE
:103C9000892B11F47E0102C02196ECCFC701DF9180
:103CA000CF911F910F91FF90EF90DF90CF900895EB
:103CB000FC01538D448D252F30E0842F90E0821B32
:103CC000930B541710F0CF96089501970895FC01B7
:103CD000918D828D981761F0828DDF01A80FB11D43
:103CE0005D968C91928D9F5F9F73928F90E0089567
:103CF0008FEF9FEF0895FC01918D828D981731F021
:103D0000828DE80FF11D858D90E008958FEF9FEF74
:103D10000895FC01918D228D892F90E0805C9F4F4A
:103D2000821B91098F739927089580E493E00E9484
:103D3000891E21E0892B09F420E0822F0895FC01DF
:103D4000848DDF01A80FB11DA35ABF4F2C91848D24
:103D500090E001968F739927848FA689B7892C9359
:103D6000A089B1898C9180648C93938D848D9813F4
:103D700006C00288F389E02D80818F7D80830895BD
:103D8000EF92FF920F931F93CF93DF93EC0181E0AB
:103D9000888F9B8D8C8D981305C0E889F989808167
:103DA00085FD24C0F62E0B8D10E00F5F1F4F0F73A3
:103DB0001127E02E8C8DE8120CC00FB607FCFACF4D
:103DC000E889F989808185FFF5CFCE010E949F1E89
:103DD000F1CF8B8DFE01E80FF11DE35AFF4FF0820A
:103DE0000B8FEA89FB898081806207C0EE89FF8999
:103DF0006083E889F98980818064808381E090E034
:103E0000DF91CF911F910F91FF90EF900895CF9385
:103E1000DF93EC01888D8823C9F0EA89FB898081D2
:103E200085FD05C0A889B9898C9186FD0FC00FB6A4
:103E300007FCF5CF808185FFF2CFA889B9898C91E5
:103E400085FFEDCFCE010E949F1EE7CFDF91CF917E
:103E500008950E94951E81110C94300E08953FB76D
:103E6000F89480912C0690912D06A0912E06B09189
:103E70002F0626B5A89B05C02F3F19F00196A11D5E
:103E8000B11D3FBFBA2FA92F982F8827820F911DF0
:103E9000A11DB11DBC01CD0142E0660F771F881F37
:103EA000991F4A95D1F7089585ED8093BC008091C4
:103EB000BC0084FDFCCF109284020895409102065C
:103EC000262F30E0240F311D21323105DCF4209102
:103ED00084022430C9F4FC0180E090E0861758F495
:103EE000309102062191DC01A052BA4FA30FB11DFF
:103EF0002C930196F3CF80910206680F609302061F
:103F000080E0089581E0089582E008950895E091A9
:103F1000860280918502E81730F4F0E0E957FD4F02
:103F2000808190E008958FEF9FEF08959091860231
:103F300080918502981750F4E92FF0E0E957FD4F82
:103F4000208130E09F5F9093860202C02FEF3FEF09
:103F5000C90108958091850290E020918602821B1C
:103F600091090895CF92DF92EF92FF920F931F93E2
:103F7000CF93DF937C01262F972F8A018091A9028E
:103F8000882391F0C62FD72F6E01C40ED51ECC15F5
:103F9000DD0571F06991D701ED91FC910190F081FF
:103FA000E02DC7010995F3CF642F822F0E945E1F79
:103FB000C801DF91CF911F910F91FF90EF90DF909B
:103FC000CF900895CF93DF931F92CDB7DEB769836B
:103FD0002091A9022223D1F02091A702203240F0A3
:103FE00021E030E0FC013383228380E090E015C0C3
:103FF0008091A802E82FF0E0E25CFD4F9981908368
:104000008F5F8093A8028093A70205C061E0CE0174
:1040100001960E945E1F81E090E00F90DF91CF91AA
:104020000895089580E090E00895EF92FF920F9335
:104030001F93CF93DF93EC017B018A0188819981E3
:10404000009729F02A813B8124173507F8F4B8013D
:104050006F5F7F4F0E94CD35009759F09983888319
:104060001B830A832C813D81232B81F4FC01108268
:104070000DC088819981009711F00E943535198211
:1040800018821D821C821B821A8207C01D830C832A
:10409000B701888199810E94B536CE01DF91CF9119
:1040A0001F910F91FF90EF900895FC0124813581BD
:1040B000232B31F421E061157105A1F0FB0108C04B
:1040C000FC01808191816115710531F421E0FC01D1
:1040D0008081882339F005C00E94AC3621E0892B0D
:1040E00009F020E0822F0895CF93DF93EC01611552
:1040F000710559F0FB0101900020E9F73197AF01FC
:10410000461B570B0E9415200CC08881998100978F
:1041100011F00E943535198218821D821C821B8283
:104120001A82CE01DF91CF9108950F931F93CF9301
:10413000DF938C01EB01FC01808191810097B1F04C
:10414000688179816115710579F0428153812C81F3
:104150003D814217530740F00E94B5368C819D8106
:10416000F8019583848313C00E9435358881998135
:10417000F801918380838A819B81938382838C81E0
:104180009D8195838483198218821B821A821D82E5
:104190001C82DF91CF911F910F910895FC018081C6
:1041A00091810C943535FC011182108213821282A8
:1041B000158214826115710551F0FB0101900020F8
:1041C000E9F73197AF01461B570B0C941520089562
:1041D000BF92CF92DF92EF92FF920F931F93CF93F4
:1041E000DF937C016B018A01E9012417350720F474
:1041F000812F8901C42FD82F6FED71E0C7010E9474
:10420000D320D60114968D919C9115970817190704
:10421000D0F48C179D0708F4EC01D601ED91FC91C8
:104220001197EC0FFD1FB08010824D915C91BA0187
:10423000600F711FC7010E947420D601ED91FC919F
:10424000EC0FFD1FB082C701DF91CF911F910F913D
:10425000FF90EF90DF90CF90BF9008951F920F9244
:104260000FB60F9211242F933F934F935F936F9349
:104270007F938F939F93AF93BF93EF93FF9380E4CC
:1042800093E00E949F1EFF91EF91BF91AF919F918C
:104290008F917F916F915F914F913F912F910F90EF
:1042A0000FBE0F901F9018951F920F920FB60F928E
:1042B00011242F938F939F93EF93FF93E0915003DB
:1042C000F09151038081E0915603F091570382FDF4
:1042D00012C09081809159038F5F8F7320915A0390
:1042E000821751F0E0915903F0E0E05CFC4F958FAC
:1042F0008093590301C08081FF91EF919F918F912D
:104300002F910F900FBE0F901F901895833081F062
:1043100028F4813099F08230A1F008958730A9F017
:104320008830B9F08430D1F4809180008F7D03C053
:10433000809180008F7780938000089584B58F7777
:1043400002C084B58F7D84BD08958091B0008F77C1
:1043500003C08091B0008F7D8093B00008951F93BB
:10436000CF93DF93282F30E0F901EB5CF44F849179
:10437000F901EF5DF44FD491F901E35FF44FC4917B
:10438000CC23C9F0162F81110E948621EC2FF0E07A
:10439000EE0FFF1FED5FF44FA591B4918FB7F89426
:1043A000111105C09C91ED2FE095E92302C0EC911D
:1043B000ED2BEC938FBFDF91CF911F910895CF9399
:1043C000DF9390E0FC01EF5DF44F2491FC01E35F8B
:1043D000F44F8491882361F190E0880F991FFC01CC
:1043E000E750F54FC591D491FC01ED5FF44FA591D5
:1043F000B491611109C09FB7F894888120958223F8
:104400008883EC912E230BC0623061F49FB7F8943F
:104410003881822F809583238883EC912E2B2C93D7
:104420009FBF06C08FB7F894E8812E2B28838FBFDB
:10443000DF91CF9108958F929F92AF92BF92CF92CA
:10444000DF92EF92FF926B017C010E942F1F4B01C4
:104450005C01C114D104E104F104F1F00E942F1FAA
:10446000DC01CB0188199909AA09BB09883E934050
:10447000A105B10570F321E0C21AD108E108F108E5
:1044800088EE880E83E0981EA11CB11CC114D104D3
:10449000E104F10419F7DDCFFF90EF90DF90CF90AA
:1044A000BF90AF909F908F9008952FB7F894609130
:1044B00028067091290680912A0690912B062FBF1D
:1044C00008951F920F920FB60F9211242F933F93CE
:1044D0008F939F93AF93BF93809128069091290665
:1044E000A0912A06B0912B063091270623E0230FD6
:1044F0002D3720F40196A11DB11D05C026E8230F1C
:104500000296A11DB11D2093270680932806909343
:104510002906A0932A06B0932B0680912C06909131
:104520002D06A0912E06B0912F060196A11DB11D5A
:1045300080932C0690932D06A0932E06B0932F0601
:10454000BF91AF919F918F913F912F910F900FBE8F
:104550000F901F9018951F920F920FB60F92112473
:104560002F933F934F935F936F937F938F939F937B
:10457000AF93BF93EF93FF938091B900887F80360C
:1045800009F49CC068F5883209F45BC090F480316E
:1045900009F454C038F4882309F4F6C0883009F4CB
:1045A0004DC0F6C0883109F44CC0803209F45DC0BA
:1045B000EFC0803409F468C048F4803309F455C072
:1045C000883309F0E5C080938202D8C0803509F4B1
:1045D0004FC0883509F45DC0883409F0D9C0D6C011
:1045E000883909F4C7C0A8F4883709F467C038F4DB
:1045F000883609F463C0803709F460C0C9C08838C0
:1046000009F4B8C0803909F45FC0803809F0C0C02F
:104610005BC0803B09F486C038F4803A09F466C078
:10462000883A09F47FC0B4C0803C09F4A7C0883C34
:1046300009F4A4C0883B09F48AC0AAC080917F0213
:1046400010C09091810280918002981770F5E091DE
:10465000810281E08E0F80938102F0E0E25AFD4FEB
:1046600080818093BB0085EC86C0809382028EC0DF
:10467000E091810281E08E0F809381028091BB00E6
:10468000F0E0E25AFD4F8083909181028091800298
:104690006EC0E091810281E08E0F80938102809153
:1046A000BB00F0E0E25AFD4F8083809183028111CC
:1046B0006DC081E080937E0284EA61C083E08093D4
:1046C000840210922606CFCF80912606803208F011
:1046D00051C0E091260681E08E0F809326068091DE
:1046E000BB00F0E0EA5FF94F8083BDCF85EC80939B
:1046F000BC001092840280912606803230F4E09152
:104700002606F0E0EA5FF94F10826091260670E01D
:10471000E0910406F091050686E096E00995109276
:10472000260636C084E0809384021092030610921D
:104730000206E0910006F0910106099580910206BB
:10474000811105C081E0809302061092E005E0919E
:10475000030681E08E0F80930306F0E0E052FA4FEB
:1047600080818093BB009091030680910206981788
:1047700008F479CF85E88093BC000AC085EC80936B
:10478000BC001092840204C0109282020E94541F46
:10479000FF91EF91BF91AF919F918F917F916F9119
:1047A0005F914F913F912F910F900FBE0F901F90EF
:1047B0001895CF93C82F88E60E941D0980E090E0ED
:1047C0000E94CD098C2F6AE00E946634692F20E197
:1047D000829F600D11248DED93E00E94E21F0E94E4
:1047E000700988E60E941D098FE090E00E94CD09C3
:1047F0000E94700981E090E00E9427098DED93E00E
:104800000E94961FC82F88E60E941D098FE090E045
:104810000E94CD096C2F6F778DED93E00E94E21F0F
:10482000CF910C947009CF93C82F88E60E941D0980
:1048300081E090E00E94CD098C2F6AE00E946634EE
:10484000692F20E1829F600D11248DED93E00E947D
:10485000E21FCF910C9470091F93CF93DF931F92A7
:10486000CDB7DEB7182F88E60E941D0982E090E0E0
:104870000E94CD090E94700981E090E00E94270902
:104880008DED93E00E94961F86FF18C01D3060F0EA
:1048900084EF810F6AE00E946634692F20E1829FD5
:1048A000600D1124606614C0812F6AE00E94663496
:1048B000692F20E1829F600D11240AC0812F6AE0D8
:1048C0000E946634692F20E1829F600D11246F7B66
:1048D00088E669830E941D0982E090E00E94CD096C
:1048E00069818DED93E00E94E21F0F90DF91CF91DF
:1048F0001F910C947009CF93C82F88E60E941D0960
:1049000083E090E00E94CD098C2F6AE00E9466341B
:10491000692F20E1829F600D11248DED93E00E94AC
:10492000E21FCF910C947009CF93C82F88E60E94A4
:104930001D0984E090E00E94CD098C2F6AE00E945E
:104940006634692F20E1829F600D11248DED93E084
:104950000E94E21FCF910C947009CF93C82F88E674
:104960000E941D0985E090E00E94CD098C2F6AE02D
:104970000E946634692F20E1829F600D11248DED25
:1049800093E00E94E21FCF910C947009CF93C82F3F
:1049900088E60E941D0986E090E00E94CD098C2FD8
:1049A0006AE00E946634692F20E1829F600D112425
:1049B0008DED93E00E94E21FCF910C947009CF938C
:1049C00088E60E941D0982E090E00E94CD090E94C5
:1049D000700981E090E00E9427098DED93E00E942C
:1049E000961FC82F88E60E941D0982E090E00E9471
:1049F000CD096C2F6F7B8DED93E00E94E21FCF916C
:104A00000C947009109243031092420388EE93E0D5
:104A1000A0E0B0E08093440390934503A093460345
:104A2000B09347032DE031E03093410320934003DE
:104A300025EC30E030934D0320934C0324EC30E020
:104A400030934F0320934E0320EC30E0309351031A
:104A50002093500321EC30E0309353032093520312
:104A600022EC30E0309355032093540326EC30E0E1
:104A700030935703209356031092590310925A0310
:104A800010925B0310925C031092E0031092DF031C
:104A90008093E1039093E203A093E303B093E403D4
:104AA0008FE191E09093DE038093DD0380E690E058
:104AB0009093F5038093F40380E190E09093F703E3
:104AC0008093F6038CE090E09093F9038093F803D1
:104AD0001092FD031092FC0381E08093FE0380ECB2
:104AE00090E00E94A0349093FB038093FA03009718
:104AF00031F040EC50E06FEF70E00E94A53610926C
:104B0000FF0310920004109202041092010410920C
:104B100004041092030410920604109205040E94EB
:104B200055226093070470930804809309049093BE
:104B30000A048091FA039091FB03909306048093FA
:104B40000504909302048093010461E08DE00E94CB
:104B5000DF2161E08BE00E94DF2161E08AE00E94BA
:104B6000DF2160E08DE00E94AF2160E08BE00E94D9
:104B7000AF2161E08AE00E94AF218CB580618CBDDD
:104B80008CB580648CBD8CB58F7D8CBD8CB5837FDE
:104B90008CBD8CB58C7F8CBD8DB581608DBD61E089
:104BA00086E00E94DF2161E087E00E94DF2161E072
:104BB00088E00E94DF2161E089E00E94DF2160E05F
:104BC00086E00E94AF2160E087E00E94AF2160E0B4
:104BD00088E00E94AF2160E089E00E94AF2161E09F
:104BE0008BE00E94AF2180E18093F2038CE18093FF
:104BF000F10386E08093F00320E081E697E9E3E9A2
:104C0000FEEF31E0422F437009F030E061E0620FC7
:104C1000432F50E0DA01A359BE4F8A179B0738F0A3
:104C20009F01241B350B820F931F262FEACF209361
:104C3000ED0321E0E22FF0E0E056FA4FE491332358
:104C400019F0223009F4EF5FF0E041E0420F8E17D7
:104C50009F0720F08E1B9F0B242FECCF2093EE0399
:104C60008F5F8093EF038091F4039091F50390930D
:104C7000EC038093EB038091F6039091F7039093FC
:104C8000EA038093E903089580910104909102045E
:104C9000009711F00E94353580910304909104042F
:104CA000009711F00C9435350895CF93DF93CDB76D
:104CB000DEB7C956D1090FB6F894DEBF0FBECDBF1F
:104CC000789484B5826084BD84B5816084BD85B5E7
:104CD000826085BD85B5816085BD80916E008160F3
:104CE00080936E0010928100809181008260809399
:104CF000810080918100816080938100809180009B
:104D00008160809380008091B10084608093B100C5
:104D10008091B00081608093B00080917A008460BF
:104D200080937A0080917A00826080937A008091EB
:104D30007A00816080937A0080917A008068809305
:104D40007A001092C1001092860210928502109291
:104D5000A8021092A7021092840211E0109383021D
:104D600010927E0261E082E10E94AF2161E083E166
:104D70000E94AF218091B9008E7F8093B90080910D
:104D8000B9008D7F8093B90088E48093B80085E4F2
:104D90008093BC00E0915003F091510382E0808346
:104DA000E0914C03F0914D031082E0914E03F0919D
:104DB0004F038FEC808310925803E0915403F091DD
:104DC000550386E08083E0915203F0915303808184
:104DD00080618083E0915203F09153038081886069
:104DE0008083E0915203F091530380818068808337
:104DF000E0915203F091530380818F7D808361E0C5
:104E00008EE00E94DF210E94EA180E94080D61E0F6
:104E10008EE00E94AF2164E670E080E090E00E94A6
:104E20001B2260E08EE00E94AF2164E670E080E02B
:104E300090E00E941B2261E08EE00E94AF2164E6B8
:104E400070E080E090E00E941B2260E08EE00E9413
:104E5000AF218091FF03813021F01093FF030E9466
:104E6000E20A80E1809381001092800081E08093CB
:104E7000BE0420E43FE13093BD042093BC04309392
:104E800087002093860091E19093810025E036E130
:104E90003093BB042093BA0480936F008091F50493
:104EA00090E00E9458198DE491E09093FD03809367
:104EB000FC032091F8033091F9038091F60390915F
:104EC000F703289FA001299F500D389F500D1124F2
:104ED0006FEF70E08091FA039091FB030E94A5367A
:104EE0000E94BB0A11E0FDE46F2EF1E07F2E2E013F
:104EF0002CE4420E511CAE014F5F5F4F1A010E941D
:104F0000EA188090DF049090E004A090E104B09053
:104F1000E2040091D80550910805A9965FAFA997C2
:104F20008091F404AA968FAFAA979091DF05A89676
:104F30009FAFA897A0910001B0910101A796BFAFC4
:104F4000AEAFA797EFEBCE2EE4E0DE2EBFEFA59637
:104F5000BFAFA597E12CF12C8FEFE81AF80A98E083
:104F6000E916F10409F45AC0C7010297029708F440
:104F700051C0D60114962D913D914D915C9117979A
:104F8000A4962CAF3DAF4EAF5FAFA497C501B4015F
:104F90000E94DB3387FD3EC0A596EFAEA5970111B9
:104FA00039C0A4962CAD3DAD4EAD5FADA497C50103
:104FB000B4010E94DB3318166CF52FE832EC45EF94
:104FC0005CE3A4966CAD7DAD8EAD9FADA4970E94C1
:104FD00043319B01AC01C501B4010E94A32F87FF9F
:104FE00019C0A996BFADA997B63069F4E4E0EE16F2
:104FF000F10449F4AA96FFADAA97F13021F421E01B
:10500000A8962FAFA89744E650E0A7965FAF4EAFA3
:10501000A79701E054E0C50ED11C9ECFA896AFAD76
:10502000A897A093DF050093D805A796EEADFFAD36
:10503000A797F0930101E0930001A596FFADA59716
:10504000F093020110923A027092FD036092FC0309
:105050002091F8033091F9038091F6039091F703C2
:10506000289FA001299F500D389F500D11246FEFEC
:1050700070E08091FA039091FB030E94A5360E9494
:10508000552220911F0530912005AB01421B530B87
:105090009A0121363A4E30F07093200560931F0537
:1050A0000E9480198091000190910101019709F0FF
:1050B0005BC00E9455222091230530912405AB014D
:1050C000421B530B4536510550F03091220520917B
:1050D0002105332309F4BFC3313009F4C5C320913E
:1050E000230530912405AB01421B530B8091210510
:1050F000493B5B4008F4C3C3803109F0C0C310933F
:10510000220570E1E72EF12CE81AF1087092FD03F8
:105110006092FC03B7016150710947ED51E081E2F3
:1051200090E00E9402127092FD036092FC03B701AE
:10513000695F7F4F40EE51E081E290E00E940212F1
:1051400010933A0240EA58E0B70181E090E00E94F3
:10515000D20910933A0242EC58E0B70181E190E0A5
:105160000E94D20910933A0282E090E00E948A12D3
:105170008091F40490E001972AE0289FB001299FD4
:10518000700D11246C51774F2AE030E040E050E080
:10519000C2010E94D82D610167E3E62EF12CC70100
:1051A0000E94CA30D6018D936D01BFEFEB1AFB0A46
:1051B000E2E8EE16F10499F73F922F925F924F9238
:1051C000A5E5B1E0BF93AF93A5E2B5E0BF93AF9380
:1051D0000E94BC3643E050E062E070E085E295E07A
:1051E0000E94190B80910A0590E001972BE0289FFF
:1051F000B001299F700D1124615C764F2BE030E0E7
:1052000040E050E0C2010E94D82DC0900B05B09044
:105210000C05D09009050E94520C2093ED033093A9
:10522000EE034093EF035093F0036093F103709308
:10523000F203632F70E030E07901F0E3EF1AF8EF4A
:10524000FF0A8AE1EEE6F1E0D10101900D928A9524
:10525000E1F7225E3F4FADE6B1E02A9FC0012B9FF0
:10526000900D3A9F900D11240197FB013197EE0F9D
:10527000FF1FE20DF31D20813181240F311DA70195
:10528000437055270FB6F894DEBF0FBECDBF452B38
:1052900029F46330710514F02F5F3F4F40E050E078
:1052A00062EB77E0FB01E370FF27EF2B11F44F5F18
:1052B0005F4F6F5F7F4F6E157F05A4F3820F931FC3
:1052C000840F951F65E070E00E948634FC01EE0FAC
:1052D000FF1FE857FE4F0081F1808091080590E0A4
:1052E000019727E0289FB001299F700D1124635F6B
:1052F000764F27E030E040E050E08AE795E00E94FA
:10530000D82DBF92CF925F924F921F92DF92FF9261
:105310000F938AE795E09F938F938CE591E09F939D
:105320008F9381E895E09F938F930E94BC3644E071
:1053300050E061E070E081E895E00E94190BE09098
:105340001E05F12C80911D0590E001972AE1289F10
:10535000B001299F700D1124695B754F2AE130E07F
:1053600040E050E0C1010E94D82DF1E0EF1AF108B1
:105370008DE08E9DB0018F9D700D11246C53764F82
:105380002DE030E040E050E0C2010E94D82D5F9255
:105390004F923F922F928AEE91E09F938F938FE9E5
:1053A00095E09F938F930E94BC3645E050E060E00B
:1053B00070E08FE995E00E94190B86E090E00E9472
:1053C000201782E890E00E94C20847E050E061E0C8
:1053D00070E08AEA92E00E94190B88E090E00E9457
:1053E0008A1288E191E00E94C20849E050E062E040
:1053F00070E08AEA92E00E94190B8AE090E00E9435
:1054000020178EEA91E00E94C2084BE050E061E074
:1054100070E08AEA92E00E94190B0FB6F894DEBFA2
:105420000FBECDBF8091000190910101843691059E
:1054300001F50E9455224B015C018091D2059091AB
:10544000D305D401A81BB90BCD01853F914028F0AD
:105450008091D105813108F426C28091D2059091C6
:10546000D305881A990A41ED841647E0940608F09E
:1054700070C280910001909101018536910509F07B
:1054800049C00E9455224B015C01E09102010E2EA1
:10549000000CFF0BEB5EFA4FC080ECE3CE9E600188
:1054A000112482E0E82E01E02DE030E04EE550E0EE
:1054B00062E070E081E090E00E9404078091D605F0
:1054C0009091D7059401281B390BC901893E93405F
:1054D00040F08091D4059091D505C816D9060CF0FE
:1054E0004EC28091D4059091D505C816D90694F482
:1054F00085E690E090933C0280933B02109201017C
:10550000109200011092D5051092D40560E08EE053
:105510000E94AF2184E492E00E94C20846E650E077
:1055200060E070E08AEA92E00E94190B8AED92E056
:105530000E94C20847E650E060E070E08AEA92E02C
:105540000E94190B8091000190910101883691050C
:1055500009F05AC00E9455222091DF05222309F448
:1055600077C22CE330E03093DE052093DD052091F7
:10557000DB053091DC05AB01421B530B9A01293E40
:10558000334008F068C28091DD059091DE052091DE
:10559000D9053091DA058217930790F428E630E0B8
:1055A00030933C0220933B021092010110920001C3
:1055B0001092D8051092DF051092DA051092D905E5
:1055C0002091D9053091DA05D20111961C921E92D4
:1055D00013961C921E92129715961C921E92149767
:1055E0004AE0B101821B930B0E94FB2DB101C20165
:1055F0000E947420E091FC03F091FD03309709F0C4
:1056000054C2C2010E94CE2080913B0290913C0284
:10561000019751F482E090E09093010180930001A2
:1056200010923C0210923B0280913B0290913C020E
:10563000029751F483E090E0909301018093000180
:1056400010923C0210923B0280913B0290913C02EE
:10565000039751F484E090E090930101809300015E
:1056600010923C0210923B0280913B0290913C02CE
:10567000049789F480911E05882319F085E090E055
:1056800002C086E090E090930101809300011092A7
:105690003C0210923B0280913B0290913C020597A4
:1056A00051F486E090E09093010180930001109204
:1056B0003C0210923B0280913B0290913C02069783
:1056C00051F487E090E090930101809300011092E3
:1056D0003C0210923B0280913B0290913C02079762
:1056E00051F488E090E090930101809300011092C2
:1056F0003C0210923B0280913B0290913C02089741
:1057000051F489E090E090930101809300011092A0
:105710003C0210923B0280913B0290913C0209971F
:1057200051F48AE090E0909301018093000110927F
:105730003C0210923B0280913B0290913C020A97FE
:1057400051F48BE090E0909301018093000110925E
:105750003C0210923B0280913B0290913C020B97DD
:1057600051F481E090E09093010180930001109248
:105770003C0210923B0280913B0290913C028436A5
:105780009105D9F48091DF05882369F087E690E0E0
:10579000909301018093000110923C0210923B0211
:1057A00010933D020AC085E690E09093010180933A
:1057B000000110923C0210923B0280913B029091BA
:1057C0003C028536910561F486E690E090930101F4
:1057D0008093000110923C0210923B0210933D0214
:1057E00080913B0290913C028636910551F488E607
:1057F00090E0909301018093000110923C0210927E
:105800003B0280913B0290913C028736910551F416
:1058100088E690E0909301018093000110923C0291
:1058200010923B0280913B0290913C028836910598
:1058300051F481E090E09093010180930001109277
:105840003C0210923B0280913A0281110E94BB0AF5
:105850000E94291F54CB203108F041CC70932405BD
:10586000609323052F5F08C0222309F438CC70937E
:1058700024056093230521502093210530CC81110C
:1058800040CC90912205913009F03BCC21E030E0F2
:1058900030933C0220933B021092010110920001D0
:1058A000109222052ECC9092D3058092D20580FDD5
:1058B00044C022E0E22E01E02DE030E04EE550E071
:1058C00062E070E081E090E00E9404078BEB93E0DF
:1058D0009093FD038093FC034AEF51E060E070E099
:1058E00080E090E00E9402127092FD036092FC033F
:1058F0008091DF05882339F028E030E040E050E077
:1059000060EF7AE00CC06091020138E06302B00100
:1059100011246055754F28E030E040E050E08DE004
:1059200095E00E94D82D4DE055E068E070E080E001
:1059300090E00E94021261E001C060E08EE00E94EF
:10594000AF2110933A028091D1058F5F8093D105EA
:1059500084CD8091D105813108F48BCD84E690E02F
:1059600090933C0280933B0210920101109200013F
:105970001092D10560E08EE00E94AF217ACD909226
:10598000D7058092D605D601A81BB90BCD016CE3D3
:1059900070E00E948634082FF92E072E000C880B29
:1059A000990B0E94AA2F0E94E9320E94B332161668
:1059B000170694F4FF920F937F936F9380E092E029
:1059C0009F938F933F922F920E94BC360FB6F8940C
:1059D000DEBF0FBECDBF10C0FF920F938EE092E0EE
:1059E0009F938F933F922F920E94BC360F900F90FF
:1059F0000F900F900F900F9047E152E06FEF7FEF05
:105A000080E090E00E9402128BEB93E09093FD0304
:105A10008093FC03A10169E070E080E090E00E94C7
:105A20000212E090D405F090D505C6010597E8165E
:105A3000F90624F061E08EE00E94AF21FFEFEF1A3B
:105A4000FF0AF092D505E092D40510933A0249CDB1
:105A500024EB30E088CD7093DC056093DB05C090CB
:105A6000D905D090DA05C0FC16C06091E9037091A9
:105A7000EA038091EB039091EC039B0122503109E2
:105A8000AC014250510963507109EE24E39401E0E6
:105A900003970E94040710933A028FEFC81AD80A9E
:105AA000D092DA05C092D9056ECD3396E491D20139
:105AB0001496ED90FC9015974701A12CB12CCC24A5
:105AC000C394D12C2E2F30E0A2963FAF2EAFA297D9
:105AD000F1E08F1A9108C7018A199B091816190657
